:0200000021C01D
:0200160091C493
:140022004B0168019601A101C501CC01D301DA01E101EF01C8
:1400360005020C0213020000000000000000CFE5D2E0CDBF9A
:14004A00DEBFC051D0400AEA08830024E8E6F0E012E0EC3194
:14005E00F10711F00192FBCF0083ECE3F0E0A0E6B0E010E010
:14007200E434F10721F0C89531960D92F9CF01D0FFCF279771
:14008600AED488B38F7D88BB2224332430926B0020926A0074
:14009A0022243324309269002092680090916900809168006D
:1400AE0001969093690080936800843AE6E09E079CF39091C7
:1400C2006B0080916A00019690936B0080936A00843FE1E01E
:1400D6009E0704F3002719D500E200D500E2FED400E2FCD448
:1400EA0000E2FAD400E2F8D402E5F6D405E4F4D401E4F2D497
:1400FE0000E407D504E4EED409E5ECD400E2EAD400E2E8D498
:1401120000E2E6D400E2E4D400E2E2D400E2E0D422243324D8
:1401260030926B0020926A002224332430926900209268009A
:14013A00909169008091680001969093690080936800843A52
:14014E00E6E09E079CF390916B0080916A00019690936B0077
:1401620080936A008C3DE5E09E0704F31DD522243324309291
:140176006F0020926E0020926D0030926B0020926A00222438
:14018A0033243092690020926800909169008091680001962B
:14019E009093690080936800843AE6E09E079CF390916B0002
:1401B20080916A00019690936B0080936A00843FE1E09E07F3
:1401C60004F30027A2D42224332430925A0120925901209219
:1401DA003F0130923E0120923D0130923C0120923B016EC3C2
:1401EE002224332430926B0020926A0022243324309269004F
:14020200209268009091690080916800019690936900809395
:140216006800843AE6E09E079CF390916B0080916A00019616
:14022A0090936B0080936A008A30E0E09E0704F3A8D3202ED6
:14023E00312E2B823C82222433240B801C80201431040CF0B9
:14025200AAC230905A01209059012D823E828D819E818030BB
:14026600E0E09E070CF402C18CE090E00D801E80801591052A
:14027A000CF4FAC082E290E00D811E81000F111F080F191F27
:14028E007AD6E02FF12F099480918E00843051F484E0809331
:1402A200560181E090E090935A0180935901E0C080918E00F6
:1402B600823009F0DBC082E08093560184E090E090935A01D0
:1402CA0080935901D1C080918E00833021F483E080935501EF
:1402DE001FC080918E00843021F484E08093550117C0809110
:1402F2008E00853021F485E0809355010FC080918E008E30A6
:1403060021F48EE08093550107C080918E008F3019F48FE056
:14031A008093550182E090E090935A0180935901A3C0209096
:14032E008E002092540183E090E090935A018093590198C010
:1403420080E491E0E0913F01FF27E80FF91F20908E0020820C
:1403560080913F018F5F80933F0120905401382E321409F057
:14036A0083C081E090E090933E0180933D0122243324309259
:14037E005A012092590120923F0174C085E090E090935A018B
:14039200809359016DC086E090E090935A018093590166C0D6
:1403A60087E090E090935A01809359015FC088E090E0909367
:1403BA005A018093590158C020908E003324309290002092B6
:1403CE008F0089E090E090935A01809359014AC020908E0080
:1403E2003324322C22245090900040908F00420C531C50929E
:1403F600900040928F008AE090E090935A018093590134C049
:14040A008BE090E090935A01809359012DC08CE090E090932C
:14041E005A018093590126C081E990E0E0913F01FF27E80F74
:14043200F91F20908E00208280913F018F5F80933F0130906C
:14044600900020908F00482E55244214530471F42224332435
:14045A0030925A012092590120923F0181E090E090933C0142
:14046E0080933B0190913E0180913D018130E0E09E0709F06D
:140482000DC1809155018E3009F034C0809141018A3109F07F
:14049600FDC0809142018C3009F0F8C020904301222009F0A5
:1404AA00F3C0002730D307E517D301E615D309E613D304E7FC
:1404BE0011D300E20FD306E60DD30FE60BD302E709D300E43A
:1404D2001ED300E205D303E403D30FE401D30EE4FFD20EE432
:1404E600FDD205E4FBD203E4F9D204E5F7D2CEC08091550124
:1404FA008F3081F480914201853009F0C5C08091430184302A
:14050E0009F0C0C020904001222009F0BBC0BAC080915501D8
:14052200843011F48DD3B4C080915501833009F057C020905E
:140536004001222009F0AAC00027E7D203E4CED20FE4CCD2D3
:14054A000EE4CAD20EE4C8D205E4C6D203E4C4D204E5C2D208
:14055E0000E2C0D200E4D5D203E4BCD20FE6BAD20DE6B8D217
:1405720000E7B6D20CE6B4D205E6B2D204E7B0D205E6AED247
:1405860081E090E090936F0080936E002224332430926B00B3
:14059A0020926A0022243324309269002092680090916900C5
:1405AE008091680001969093690080936800843AE6E09E07F9
:1405C2009CF390916B0080916A00019690936B0080936A00ED
:1405D600843FE1E09E0704F3AFD258C080915501853009F043
:1405EA0053C020904001222009F04EC000278BD200E272D206
:1405FE0000E270D200E26ED204E46CD209E46AD203E568D232
:1406120003E466D20FE464D200E479D20EE460D20EE45ED217
:1406260005E45CD203E45AD204E558D200E256D200E254D271
:14063A0000E252D22224332430926F0020926E0030926B008B
:14064E0020926A002224332430926900209268009091690010
:140662008091680001969093690080936800843AE6E09E0744
:140676009CF390916B0080916A00019690936B0080936A0038
:14068A00843FE1E09E0704F32224332430923E0120923D01AE
:14069E0090913C0180913B018130E0E09E0709F07CC000242E
:1406B20011240B821C8205C08B819C8101968B839C83309062
:1406C600900020908F000B801C800214130490F380919100D8
:1406DA00813441F5002717D203E5FED105E6FCD10EE6FAD1E3
:1406EE0004E6F8D109E6F6D10EE6F4D107E6F2D100E2F0D183
:1407020000E405D200E7ECD109E6EAD103E6E8D104E7E6D196
:1407160005E7E4D102E7E2D105E6E0D10EE2DED181E08093E3
:14072A006D0037C0809191008A3541F50027EBD100E2D2D158
:14073E0000E2D0D100E2CED100E2CCD100E2CAD100E5C8D129
:1407520001E6C6D105E7C4D100E4D9D103E7C0D109E6BED10D
:140766000EE6BCD107E6BAD100E2B8D100E2B6D100E2B4D14B
:14077A0000E2B2D1222420926D000BC0809191008C3411F46F
:14078E0021D305C080919100823509F43BD3222433243092DB
:1407A2003C0120923B0190916F0080916E008130E0E09E07F3
:1407B60009F088C080916D00813009F083C018C080B3807880
:1407CA008A83803899F4C29A88B38B7F88BB88B38D7F88BB5B
:1407DE0080B380788A8307C00A80002009F40CC080B380786A
:1407F2008A83F8CFE7CF80B380788A83803811F4C19A01C058
:14080600F8CFC29A88B38B7F88BB4427552700241124088269
:14081A001982888199818B3FE0E09E07C4F08AE991E00880BD
:14082E001980801591058CF04932E0E05E076CF080EA90E0A0
:140842008417950744F080EA9FEFE881F981E80FF91F29B272
:140856002082C09A888199818B3FE0E09E0784F08AE991E0E8
:14086A0008801980801591054CF04932E0E05E072CF080EACC
:14087E0090E08417950704F088B38E7F88BB88819981019686
:14089200888399838638E2E09E070CF4BECF4932E0E05E07D9
:1408A60054F080EA90E0841795072CF020EA30E00BE910E0CF
:1408BA0002D24F5F5F4F413AE0E05E070CF4A5CF91CC2796CC
:1408CE00089522242BBA2ABA8FEF88BB87BB85BB84BB22BA0C
:1408E20021BA089522242AB887E089B988E98AB908953090A8
:1408F6006300209062005090610040906000241435044CF05B
:14090A00242C352C1091630000916200021913090EC030906C
:14091E006100209060000EE110E0021913093090630020906B
:140932006200020D131D0895DAD2DBDF202E312E822D932DF1
:140946008D31E0E09E07ECF480E790E0F0916300E09162000C
:14095A00E80FF91F2CB020829091630080916200019690934B
:14096E006300809362008E31E0E09E0734F0222433243092F6
:14098200630020926200CAD21895B3DF202E312E4424552481
:14099600421453041CF00027112720C080E790E0F09161009C
:1409AA00E0916000E80FF91F208020928E00909161008091E6
:1409BE006000019690936100809360008E31E0E09E0734F0EF
:1409D20022243324309261002092600001E010E00895F89445
:1409E60074DF7EDF222425BE2BBE29BE789405D008955D9BDE
:1409FA00FECF0CB90895222420926C0005C080916C008F5F26
:140A0E0080936C0080916C008F3FB8F303E34CD02224209265
:140A22006C0005C080916C008F5F80936C0080916C008F3F5A
:140A3600B8F302E33DD0222420926C0005C080916C008F5F7B
:140A4A0080936C0080916C008F3FB8F308E32ED02224209242
:140A5E006C0005C080916C008F5F80936C0080916C008F3F1E
:140A7200B8F30FE01FD0222420926C0005C080916C008F5F53
:140A860080936C0080916C008F3FB8F306E010D02224209229
:140A9A006C0005C080916C008F5F80936C0080916C008F3FE2
:140AAE00B8F301E001D008954AD2402F88B38F7B88BB45BB27
:140AC20061D0222420926C0005C080916C008F5F80936C00DC
:140AD60080916C008F3FB8F339D2089534D2402FC69A45BB99
:140AEA004DD088B38F7B88BB222420926C0005C080916C00AD
:140AFE008F5F80936C0080916C008F3FB8F322D208951DD201
:140B1200402F406888B38F7B88BB45BB33D0222420926C00C9
:140B260005C080916C008F5F80936C0080916C008F3FB8F316
:140B3A000BD2089588B38F7B88BB81E085BB1ED0222420921E
:140B4E006C0005C080916C008F5F80936C0080916C008F3F2D
:140B6200B8F382E085BB0ED0222420926C0005C080916C00AE
:140B76008F5F80936C0080916C008F3FB8F3089588B38F772A
:140B8A0088BB222420926C0005C080916C008F5F80936C0001
:140B9E0080916C008F3FB8F3C79A089503E010E027D022243F
:140BB200332430926B0020926A002224332430926900209215
:140BC600680090916900809168000196909369008093680012
:140BDA00843AE6E09E079CF390916B0080916A00019690938E
:140BEE006B0080936A008130E0E09E0704F30895A6D1402F7B
:140C0200512F81E0809304028AE1809305028CE080930602D8
:140C16004093080281E08093070200910402E9DE009105027A
:140C2A00E6DE00910602E3DE00910702E0DE00910802DDDEEA
:140C3E0089D1089581E08093040289E08093050284E0809337
:140C5200060284E4809308028093090280930A0280930B02A4
:140C660080930C0284E480930D0281E080930E0287E08093D1
:140C7A00070200910402BBDE00910502B8DE00910602B5DED3
:140C8E0000910702B2DE00910802AFDE00910902ACDE009149
:140CA2000A02A9DE00910B02A6DE00910C02A3DE00910D02C9
:140CB600A0DE00910E029DDE08955CD1422F532F602F712FA4
:140CCA0082E080935B0181E080935C0180E280935D0122245B
:140CDE0020926C0013C0E0916C00FF27E60FF71F208084E6F9
:140CF20091E0E0916C00FF27E80FF91F208280916C008F5F5E
:140D060080936C0020906C003324241635063CF320E031E032
:140D1A00042F152FB3D00093600120E031E0042F152FAED0D1
:140D2E000093610181E4809362012224209263014C5F5F4F2C
:140D420020E031E0042F152F9DD000935E0120E031E0042F72
:140D5600152F98D000935F014B5F5F4F00915B0148DE0091EE
:140D6A005C0145DE00915D0142DE00915E013FDE00915F01E8
:140D7E003CDE0091600139DE0091610136DE0091620133DE32
:140D92000091630130DE222420926C000EC084E691E0E091CC
:140DA6006C00FF27E80FF91F008123DE80916C008F5F809398
:140DBA006C00842F952F099720906C003324281639064CF373
:140DCE00D8D00895909165008091640001979093650080939E
:140DE20064008B3FEFEF9E073CF48BEF9FEF90936500809379
:140DF60064000BC0C39A2FD02ED02DD02CD02BD02AD029D079
:140E0A0028D027D026D008959091650080916400019690939D
:140E1E0065008093640085E090E0309065002090640082153F
:140E320093052CF490936500809364000DC088B3877F88BBA4
:140E46000AD009D008D007D006D005D004D003D002D001D041
:140E5A00089588B38F7E88BB002711270F5F1F4F083FEAE20E
:140E6E001E07D4F3C49A002711270F5F1F4F083FEAE21E07B3
:140E8200D4F30895689401C0E894DA92EA92FA928A93D12E2F
:140E9600D32617FF04C0109500950F5F1F4F37FF04C03095A0
:140EAA0020952F5F3F4FEE24FF1881E1001F111F8A9571F405
:140EBE00D7FE04C0109500950F5F1F4F16F40E2D1F2D8991C6
:140ED200F990E990D9900895EE1CFF1CE21AF30A20F4E20EE2
:140EE600F31E8894E5CF0894E3CFFA93EA93BA93AA939A9308
:140EFA008A933A932A931A930A939A928A927A926A925A92B7
:140F0E004A923A922A921A920A920FB60A92089509900FBEBF
:140F22000990199029903990499059906990799089909990F1
:140F3600099119912991399189919991A991B991E991F99113
:140F4A0008955A934A930895E1E049915991E0FD0895699196
:140F5E007991E1FD0895A990B990E2FD0895C990D990E3FD5A
:140F72000895E990F99008957A936A93E6CFE2E0E8CFEA937A
:140F8600FA930A92E02FF12FC895002D3196C895102D09907B
:060F9A00F991E9910895B0
:00000001FF
