:10008000E4FEEEC39F500DE4FCECC39D50030C80D6
:05009000F80E80EE22D5
:0A009500E4F50BF50BF50BF50B225B
:10009F00D2902090110509E50970020508E5094580
:0700AF000870EF531102225B
:0A00B6002091FD3090FD3091FD22F5
:1000C000E4FFD290FEEEC3940850113090FDEF256E
:1000D000E0FF3091010F2090FD0E80E9C291309039
:0900E000FD2090FDD291D2902286
:1000E900E4FEEEC39408501CEF30E704D29180027D
:1000F900C29112009F120095C290120095EF25E05F
:10010900FF0E80DED29112009F12009530910353A9
:080119001101C29012009522B1
:10012100D290120095C291120095C290120095EFE3
:060131002DFF1200E9227F
:10013700C29112009512009F120095D2911200955C
:010147002295
:100148003091032090FA2091193090162090FD12DA
:1001580000C0EFB4060A1200C0AD071200B6800254
:05016800E4FDAF0522DB
:10016D00AC05E4FD120121AF041200E912013722A2
:0300030002017D7A
:10017D00C0E0C0D0C004C005C006C007C2B31201A4
:10018D00488F0DEF24FE602914602F24F2604B146C
:10019D00604D24BD602D245470487F55AD0F120164
:1001AD006D7F0A7D0A1200807F55AD1012016D80A2
:1001BD00317F55AD0F12016D80287F55AD101201A5
:1001CD006D801F7F557D6B12016D7F0A7D0A1200B8
:1001DD00807F557D6F12016D8008750C018003E4E1
:1001ED00F50C7F0A7D0A12008030B2FDD2B3D00724
:0B01FD00D006D005D004D0D0D0E032F6
:100208007580FF7590FF75A0FF75B0FFC2A0C2A2F0
:10021800E4F50FF510FBFAF50EF50CD28875A881F8
:10022800E4FFD2A030A114EFC39496500E0F30A073
:10023800F3EFD3940F40EDC2A080E9EFC39496503A
:1002480006E4FB8F0F800B0BEBD394404004E4F5DE
:100258000FFBC2A0E4FFD2A230A314EFC3949650C0
:100268000E0F30A2F3EFD3940F40EDC2A280E9EF56
:10027800C394965006E4FA8F10800B0AEAD3944090
:100288004004E4F510FAC2A0E50C609430B391E59F
:100298000F7004E5106089C292D2B3E4F50E30B352
:1002A8000BE50EC394FF5004050E80F2E50EC394CF
:1002B800FF50267F557D0612016D7F327D32120078
:1002C800807F55AD0F12016D7F55AD1012016DD2B3
:0F02D8009230B30302022880F8D2920202282249
:03000000020040BB
:0C004000787FE4F6D8FD758120020208EC
:00000001FF
