
:1000000074001203EFF56074011203EFF5617402DE
:100010001203EFF56274031203EFF5637404120325
:10002000EFF56474051203EFF56574061203EFF53E
:100030006674071203EFF56774081203EFF568742E
:10004000091203EFF569740A1203EFF56A740B12D3
:1000500003EFF56B740C1203EFF56C740D1203EFE4
:10006000F56D740E1203EFF56E740F1203EFF56F5A
:1000700074001203EFEBB560030200844003020139
:100080009D02018774011203EFEBB5610302009832
:1000900040030201C90201B374021203EFEBB5621F
:1000A000030200AC40030201F50201DF74031203F6
:1000B000EFEBB563030200C0400302022102020B12
:1000C00074041203EFEBB564030200D44003020290
:1000D0004D02023774051203EFEBB565030200E829
:1000E000400302027902026374061203EFEBB56665
:1000F000030200FC40030202A502028F74071203F0
:10010000EFEBB5670302011040030202D10202BB0C
:1001100074081203EFEBB5680302012440030202E6
:10012000FD0202E774091203EFEBB569030201381F
:100130004003020329020313740A1203EFEBB56AAA
:100140000302014C400302035502033F740B1203E8
:10015000EFEBB56B03020160400302038102036B06
:10016000740D1203EFEBB56D03020174400302033B
:10017000AD020397740E1203EFEBB56E02017040EF
:10018000030203D90203C3906800C3E5609BFF7EAE
:100190000A120409DEFBDFF7EBF5600184906800CA
:1001A000C3EB9560FF7E0A12043ADEFBDFF7EBF546
:1001B000600184906801C3E5619BFF7E0A12040917
:1001C000DEFBDFF7EBF5610198906801C3EB956109
:1001D000FF7E0A12043ADEFBDFF7EBF5610198902F
:1001E0006801C3E5629BFF7E0F12046BDEFBDFF745
:1001F000EBF56201AC906801C3EB9562FF7E0F12D4
:10020000049CDEFBDFF7EBF56201AC906802C3E50E
:10021000639BFF7E08120409DEFBDFF7EBF5630149
:10022000C0906802C3EB9563FF7E0812043ADEFBC0
:10023000DFF7EBF56301C090A800C3E5649BFF7E88
:1002400008120409DEFBDFF7EBF56401D490A80087
:10025000C3EB9564FF7E0812043ADEFBDFF7EBF593
:100260006401D490A800C3E5659BFF7E0A12046B6D
:10027000DEFBDFF7EBF56501E890A800C3EB9565C1
:10028000FF7E0A12049CDEFBDFF7EBF56501E890C8
:10029000A801C3E5669BFF7E08120409DEFBDFF7B9
:1002A000EBF56601FC90A801C3EB9566FF7E081292
:1002B000043ADEFBDFF7EBF56601FC90A801C3E52D
:1002C000679BFF7E0812046BDEFBDFF7EBF567210F
:1002D0001090A801C3EB9567FF7E0812049CDEFB1B
:1002E000DFF7EBF567211090A802C3E5689BFF7E5E
:1002F0000A120409DEFBDFF7EBF568212490A8025F
:10030000C3EB9568FF7E0A12049CDEFBDFF7EBF57A
:1003100068212490C800C3E5699BFF7E0812040988
:10032000DEFBDFF7EBF569213890C800C3EB956978
:10033000FF7E0812043ADEFBDFF7EBF56921389007
:10034000C800C3E56A9BFF7E0812046BDEFBDFF783
:10035000EBF56A214C90C800C3EB956AFF7E08124A
:10036000049CDEFBDFF7EBF56A214C90C801C3E586
:100370006B9BFF7E0A120409DEFBDFF7EBF56B21B6
:100380006090C801C3EB956BFF7E0A12043ADEFB56
:10039000DFF7EBF56B216090C801C3E56D9BFF7E35
:1003A0000812046BDEFBDFF7EBF56D217490C801DA
:1003B000C3EB956DFF7E0812049CDEFBDFF7EBF5C7
:1003C0006D2174906800C3E56E9B75F00F84FF1279
:1003D0000409DFFBEBF56E0170906800C3EB956ECE
:1003E00075F00F84FF12043ADFFBEBF56F0170909C
:1003F000C802F0D2A4C2A4D2A3120400AB90EB2294
:1004000078F07902D9FED8FA227401F01204CD7482
:1004100003F01204CD7402F01204CD7406F012043D
:10042000CD7404F01204CD740CF01204CD7408F0F5
:100430001204CD7409F01204CD227409F01204CD17
:100440007408F01204CD740CF01204CD7404F01290
:1004500004CD7406F01204CD7402F01204CD7403BE
:10046000F01204CD7401F01204CD227410F01204C5
:10047000CD7430F01204CD7420F01204CD7460F00D
:100480001204CD7440F01204CD74C0F01204CD7487
:1004900080F01204CD7490F01204CD227490F0120A
:1004A00004CD7480F01204CD74C0F01204CD7440F9
:1004B000F01204CD7460F01204CD7420F01204CD5B
:1004C0007430F01204CD7410F01204CD2278F0795B
:0604D00001D9FED8FA225A
:00000001FF
