
:10000000740012046EF560740112046EF5617402DE
:1000100012046EF562740312046EF5637404120424
:100020006EF564740512046EF565740612046EF5BF
:1000300066740712046EF567740812046EF568742E
:100040000912046EF569740A12046EF56A740B12D3
:10005000046EF56B740C12046EF56C740D12046E64
:10006000F56D740E12046EF56E740F12046EF56F5A
:10007000740012046EEBB5600302008440030201B9
:10008000C40201AE740112046EEBB5610302009864
:1000900040030201F00201DA740212046EEBB56251
:1000A0000280CD400302021C020206740312046E99
:1000B000EBB563030200BF40030202480202327440
:1000C0000412046EEBB564030200D3400302027411
:1000D00002025E740512046EEBB565030200E74090
:1000E000030202A002028A740612046EEBB56603D4
:1000F0000200FB40030202CC0202B6740712046E37
:10010000EBB5670302010F40030202F80202E2743A
:100110000812046EEBB568030201234003020324B6
:1001200002030E740912046EEBB569030201374035
:100130000302035002033A740A12046EEBB56A0319
:1001400002014B400302037C020366740B12046E2F
:10015000EBB56B0302015F40030203A80203927434
:100160000C12046EEBB56C0302017340030203D45E
:100170000203BE740D12046EEBB56D0302018740DD
:10018000030204000203EA740E12046EEBB56E0360
:1001900002019B400302042C020416740F12046E29
:1001A000EBB56F02017040030204580204429068EC
:1001B00000C3E5609BFF7E0F1204EADEFBDFF7EB76
:1001C000F5600184906800C3EB9560FF7E0F120517
:1001D0001BDEFBDFF7EBF5600184906801C3E5618E
:1001E0009BFF7E0F120488DEFBDFF7EBF5610198C1
:1001F000906801C3EB9561FF7E0F1204B9DEFBDF4F
:10020000F7EBF5610198906801C3E5629BFF7E15ED
:100210001204EADEFBDFF7EBF5620170906801C3C0
:10022000EB9562FF7E1512051BDEFBDFF7EBF56237
:100230000170906801C3E5639BFF7E081204EADE4B
:10024000FBDFF7EBF56301BF906801C3EB9563FF3C
:100250007E0812051BDEFBDFF7EBF56301BF90683C
:1002600002C3E5649BFF7E08120488DEFBDFF7EB28
:10027000F56401D3906802C3EB9564FF7E08120415
:10028000B9DEFBDFF7EBF56401D3906802C3E565E7
:100290009BFF7E0A1204EADEFBDFF7EBF56501E760
:1002A000906802C3EB9565FF7E0A12051BDEFBDF3B
:1002B000F7EBF56501E790A800C3E5669BFF7E08B4
:1002C000120488DEFBDFF7EBF56601FB90A800C3A4
:1002D000EB9566FF7E081204B9DEFBDFF7EBF566EF
:1002E00001FB90A800C3E5679BFF7E081204EADECD
:1002F000FBDFF7EBF567210F90A800C3EB9567FFD5
:100300007E0812051BDEFBDFF7EBF567210F90A8D7
:1003100001C3E5689BFF7E0A120488DEFBDFF7EB72
:10032000F568212390A801C3EB9568FF7E0A1204AB
:10033000B9DEFBDFF7EBF568212390A801C3E5697F
:100340009BFF7E081204EADEFBDFF7EBF56921373D
:1003500090A801C3EB9569FF7E0812051BDEFBDF49
:10036000F7EBF569213790A802C3E56A9BFF7E0889
:10037000120488DEFBDFF7EBF56A214B90A802C37D
:10038000EB956AFF7E081204B9DEFBDFF7EBF56A36
:10039000214B90A802C3E56B9BFF7E0A1204EADEA4
:1003A000FBDFF7EBF56B215F90A802C3EB956BFFCA
:1003B0007E0A12051BDEFBDFF7EBF56B215F90C8B1
:1003C00000C3E56C9BFF7E08120488DEFBDFF7EBC1
:1003D000F56C217390C800C3EB956CFF7E08120486
:1003E000B9DEFBDFF7EBF56C217390C800C3E56D58
:1003F0009BFF7E081204EADEFBDFF7EBF56D218739
:1004000090C800C3EB956DFF7E0812051BDEFBDF75
:10041000F7EBF56D218790C801C3E56E9BFF7E0A5F
:10042000120488DEFBDFF7EBF56E219B90C801C359
:10043000EB956EFF7E0A1204B9DEFBDFF7EBF56E7B
:10044000219B906800C3E56F9B75F0FF84FF120449
:1004500088DFFBEBF56F0170906800C3EB956F755B
:10046000F0FF84FF1204B9DFFBEBF56F017090C859
:1004700002F0D2A4C2A4D2A312047FAB90EB2278E4
:10048000F07902D9FED8FA227401F012054C7403F7
:10049000F012054C7402F012054C7406F012054C73
:1004A0007404F012054C740CF012054C7408F01230
:1004B000054C7409F012054C227409F012054C74B5
:1004C00008F012054C740CF012054C7404F012057F
:1004D0004C7406F012054C7402F012054C7403F0D3
:1004E00012054C7401F012054C227410F012054CE8
:1004F0007430F012054C7420F012054C7460F01248
:10050000054C7440F012054C74C0F012054C748018
:10051000F012054C7490F012054C227490F0120504
:100520004C7480F012054C74C0F012054C7440F00D
:1005300012054C7460F012054C7420F012054C74D6
:1005400030F012054C7410F012054C2278F079014D
:05055000D9FED8FA22DB
:00000001FF
