:100000000C9447000C94C54F0C94EB4F0C9411507A
:100010000C9437500C945D500C9483500C94A95060
:100020000C94CF500C94F5500C941B510C944151EE
:100030000C9467510C948D510C94B3510C94D9517C
:100040000C94FF510C9425520C9497520C947152BD
:100050000C944B520C94BD520C94E3520C940953E3
:100060000C942F530C9455530C947B530C94A15324
:100070000C94C7530C94ED530C9413540C943954B2
:100080000C945F540C9485540C94AB540C001124C4
:100090001FBECFEFD0E1DEBFCDBF15E0A0E0B1E0E5
:1000A000E0E1FBEC00E00BBF02C007900D92AA3B21
:1000B000B107D9F71DE0AAEBB5E001C01D92AD3E36
:1000C000B107E1F70C94321C0C940000009719F072
:1000D00000000197E9F70895FF920F931F93CF93C4
:1000E000C0E0062F112721E030E0002E02C0220FD1
:1000F000331F0A94E2F7F22EF09482B38F2182BB71
:1001000081B3822B81BB20910001309101018EE5EA
:1001100091E0289FA001299F500D389F500D112478
:10012000CA010E94660081B38F2181BB209100012A
:100130003091010187E390E0289FA001299F500D95
:10014000389F500D1124CA010E94660080B3992780
:100150008095909502C0959587950A95E2F780FD68
:10016000C1E0209100013091010180E491E0289FDD
:10017000A001299F500D389F500D1124CA010E94E3
:1001800066008C2F992787FD9095CF911F910F9135
:10019000FF900895EF92FF920F931F93CF93E62E57
:1001A000C42FF89488E0F82EC0FF2AC001E010E0C8
:1001B0000E2C02C0000F111F0A94E2F781B3802BAE
:1001C00081BB80910001909101010E946600902FF7
:1001D000909581B3892381BB209100013091010169
:1001E00089E290E0289FA001299F500D389F500D73
:1001F0001124CA010E946600C695FA94A9F627C088
:1002000001E010E00E2C02C0000F111F0A94E2F76B
:1002100081B3802B81BB209100013091010187E2E5
:1002200090E0289FA001299F500D389F500D112468
:10023000CA010E946600902F909581B3892381BBEB
:100240008091000190910101880F991FD3CF78947C
:10025000CF911F910F91FF90EF900895EF92FF9231
:100260000F931F93CF93E62EC0E0F89498E0F92EF9
:10027000C5950E2D112721E030E0002E02C0220F7F
:10028000331F0A94E2F781B3822B81BB0000000088
:10029000000000000000000000000000000000005E
:1002A000000000000000000000000000922F909568
:1002B00081B3892381BB80910001909101010E944B
:1002C000660080B3992702C0959587950A95E2F755
:1002D00080FF15C0C06880910001909101012CE25F
:1002E00030E0829FA001839F500D929F500D1124FA
:1002F000CA010E946600FA9409F0BACF02C0CF7713
:10030000EACF78948C2F992787FD9095CF911F91F4
:100310000F91FF90EF900895CF92DF92EF92FF92AE
:100320000F931F937C018B016A010E946C004CECBF
:1003300064E082B30E94CA004C2D602F8E2D0E9473
:10034000CA00602F8E2D0E942E0199271F910F91B8
:10035000FF90EF90DF90CF900895CF92DF92EF92D1
:10036000FF920F931F938C017B016A010E946C0026
:100370004CEC64E082B30E94CA004C2D6E2D802F9D
:100380000E94CA0080E090E01F910F91FF90EF90D3
:10039000DF90CF900895EF92FF920F931F93082F55
:1003A000162FF42EE22E0E946C004F2D612F802F0D
:1003B0000E94CA004E2D612F802F0E94CA0080E04B
:1003C00090E01F910F91FF90EF90089564E082B349
:1003D0000E946C00882319F480E090E013C082B37F
:1003E000992744E450E064E070E00E94AD0182B3DC
:1003F00099274EEB50E064E070E00E948C01992751
:1004000087FD909508952F923F924F925F926F9241
:100410007F928F929F92AF92BF92CF92DF92EF9294
:10042000FF920F931F93CF93DF93CDB7DEB7CA56DA
:10043000D1400FB6F894DEBF0FBECDBFC759DE4F17
:1004400088839983C956D14000E010E0FFEF4F2E1A
:100450005F2E3801E0E3DE2ED98278010894E11C9A
:10046000F11C1A828091680B9091690B833A910577
:1004700011F40C94AC0B8091680B9091690B813A4C
:10048000910509F47DC58091680B9091690B803AC4
:10049000910539F1C70101969093BB058093BA0588
:1004A0000894E108F108EA8200E010E00817190753
:1004B00014F00C942A13C759DE4FA881B981C9568C
:1004C000D140FE01E00FF11F81818D930F5F1F4F1F
:1004D0008091BA059091BB050817190794F30C9405
:1004E0002A136AE171E08EE59BE00E942265892B68
:1004F00009F4BAC480919B0D90919C0D6816790601
:100500004CF6049734F082E090E090939C0D809339
:100510009B0D0894611C711C0894E11CF11C9E0148
:100520002F5F3F4FF701E20FF31F80E380830894B2
:10053000E11CF11C17010894E11CF11CF701E20F0A
:10054000F31F86E080830894E11CF11CA701420F91
:10055000531F0CE310E0609E9001619E300D709E71
:10056000300D1124D901AB58B44FFD01019000208A
:10057000E9F73197EA1BFB0B8E2F8F5FFA0180831F
:1005800060E070E00894411C511C240D351D285A70
:10059000344FF901858D882319F10894E11CF11C71
:1005A00028E53BE0609ED001619EB00D709EB00DCD
:1005B0001124FD01E40DF51DE20FF31F858D4F5F42
:1005C0005F4FFA0180836F5F7F4F0894411C511C7D
:1005D000A40DB51DA20FB31F5D968C918823E9F67B
:1005E0000894E11CF11C8E010F5F1F4FF701E00F13
:1005F000F11F10829201261B370B8CE390E0689E5E
:10060000F001699EF00D789EF00D1124E20FF31FAA
:10061000E85AF44F858D8B3281F182E090E090931F
:10062000720B8093710B1092740B1092730B80916C
:10063000710B9091720B029779F0FE01E20DF31DA0
:100640008E2D8219818380919B0D90919C0D68164F
:1006500079060CF456CF1ECF0894E11CF11CFE0164
:100660003196D701AE0FBF1F85E08C930894E11C33
:10067000F11CEE0DFF1D1082E0CF868D863069F0F3
:1006800082E090E09093720B8093710B81E090E098
:100690009093740B8093730BCACF878D813039F0A0
:1006A00082E090E09093720B8093710BF1CF80A168
:1006B000823009F44CC2843009F43CC282E090E0FC
:1006C0009093720B8093710B83E090E09093740B86
:1006D0008093730B8CE390E0689EF001699EF00DAF
:1006E000789EF00D1124E20FF31FE85AF44F84A115
:1006F000813009F492C0823049F082E090E090931A
:10070000720B8093710B83E090E0C2CF85A18130A2
:1007100009F441C08CE390E0689EF001699EF00D01
:10072000789EF00D1124E20FF31FE85AF44F85A1D3
:10073000823009F07CCF0894E11CF11CF701E00F36
:10074000F11F80830894E11CF11CF701E00FF11FF9
:1007500081E080830E94E601992787FD9095909320
:10076000C5058093C4050894E11CF11CF701E00F56
:10077000F11F97FD01969595879580839F938F93A1
:100780008FE392E09F938F930E940B590F900F90ED
:100790000F900F904CCF0894E11CF11CF701E00F73
:1007A000F11F84E08083BDE2CB2EB1E0DB2ECC0EC6
:1007B000DD1E6BE072E0C6010E9404650894E11C36
:1007C000F11CD701A00FB11FF60101900020E9F73D
:1007D0003197EC19FD09EC93F60101900020E9F73F
:1007E000319700E010E0EC15FD0509F420CF9601EB
:1007F0000894E11CF11CF90181919F0111968C93E1
:100800000F5F1F4FF60101900020E9F73197EC19B7
:10081000FD090E171F0760F30ACF85A199278430C1
:10082000910509F46FC1853091050CF0A9C08230A3
:10083000910509F48BC0833091050CF045C00197F8
:1008400009F0F5CE0894E11CF11CF701E00FF11F4F
:1008500084E08083FDE2CF2EF1E0DF2ECC0EDD1EA2
:1008600067EB71E0C6010E9404650894E11CF11C6D
:10087000D701A00FB11FF60101900020E9F73197D1
:10088000EC19FD09EC93F60101900020E9F731978E
:1008900000E010E0EC15FD0509F4C9CE96010894BE
:1008A000E11CF11CF90181919F0111968C930F5F5E
:1008B0001F4FF60101900020E9F73197EC19FD096F
:1008C0000E171F0760F3B3CE0894E11CF11CF7016B
:1008D000E00FF11F84E08083EDE2CE2EE1E0DE2E1A
:1008E000CC0EDD1E6CEC71E0C6010E94046508941C
:1008F000E11CF11CD701A00FB11FF60101900020EF
:10090000E9F73197EC19FD09EC93F601019000200D
:10091000E9F7319700E010E0EC15FD0509F487CE0A
:1009200096010894E11CF11CF90181919F01119637
:100930008C930F5F1F4FF60101900020E9F731976C
:10094000EC19FD090E171F0760F371CE0894E11C26
:10095000F11CF701E00FF11F82E080830894E11C95
:10096000F11CF701E00FF11F81E080830894E11C86
:10097000F11C0E0D1F1D8091BC05F801808357CE20
:100980008630910509F4A6C0863091050CF460C04C
:1009900087309105D9F0089709F049CE0894E11CF9
:1009A000F11CF701E00FF11F82E080830894E11C45
:1009B000F11CF701E00FF11F81E080830894E11C36
:1009C000F11C0E0D1F1D8091C205D7CF0894E11CAC
:1009D000F11CF701E00FF11F84E080836DE2C62E69
:1009E00061E0D62ECC0EDD1E66EF71E0C6010E94DE
:1009F00004650894E11CF11CD701A00FB11FF6019A
:100A000001900020E9F73197EC19FD09EC93F6010C
:100A100001900020E9F7319700E010E0EC15FD05AA
:100A200009F405CE96010894E11CF11CF9018191AD
:100A30009F0111968C930F5F1F4FF60101900020CC
:100A4000E9F73197EC19FD090E171F0760F3EFCD99
:100A50000894E11CF11CF701E00FF11F84E0808392
:100A60007DE2C72E71E0D72ECC0EDD1E61EE71E067
:100A7000C6010E9404650894E11CF11CD701A00F77
:100A8000B11FF60101900020E9F73197EC19FD093B
:100A9000EC93F60101900020E9F7319700E010E0B7
:100AA000EC15FD0509F4C3CD96010894E11CF11C79
:100AB000F90181919F0111968C930F5F1F4FF601F1
:100AC00001900020E9F73197EC19FD090E171F0777
:100AD00060F3ADCD0894E11CF11CF701E00FF11FAC
:100AE00082E080830894E11CF11CF701E00FF11F04
:100AF00081E080830894E11CF11C0E0D1F1D809184
:100B0000C0053BCF0894E11CF11CF701E00FF11F79
:100B100082E080830894E11CF11CF701E00FF11FD3
:100B200081E080830894E11CF11C0E0D1F1D809153
:100B3000BE0523CF81A1813009F0C0CD82A18730CD
:100B400009F0BCCD83A1813009F0B8CDC3CD81A11E
:100B5000813049F082E090E09093720B8093710BAA
:100B600084E090E095CD22A1213049F082E090E030
:100B70009093720B8093710B85E090E089CD84A1F6
:100B80008823A1F783A199278430910509F42AC10C
:100B9000853091050CF080C08230910509F46CC05D
:100BA000833091050CF04DC0019749F082E090E050
:100BB0009093720B8093710B86E090E069CD08945E
:100BC000E11CF11CF701E00FF11F84E080835DE27E
:100BD000C52E51E0D52ECC0EDD1E69E271E0C601B6
:100BE0000E9404650894E11CF11CD701A00FB11FFD
:100BF000F60101900020E9F73197EC19FD09EC931B
:100C0000F60101900020E9F7319700E010E0EC15C3
:100C1000FD0509F40CCD96010894E11CF11CF901C5
:100C200081919F0111968C930F5F1F4FF6010190E8
:100C30000020E9F73197EC19FD090E171F0760F343
:100C4000F6CC0894E11CF11CF701E00FF11F83E4DE
:100C500080830894E11CF11CF701E00FF11F208351
:100C60000894E11CF11C0E0D1F1D0E94BC649093A2
:100C7000BB078093BA0781CE0894E11CF11CF701F1
:100C8000E00FF11F85E080830894E11CF11C0E0D3C
:100C90001F1DF8011082CBCC8630910509F460C08D
:100CA00086309105DCF0079709F080CF0894E11CAD
:100CB000F11CF701E00FF11F83E480830894E11C2D
:100CC000F11CF701E00FF11F81E080830894E11C23
:100CD000F11C0E0D1F1D8091B5014FCE0894E11C33
:100CE000F11CF701E00FF11F84E080833DE2C32E89
:100CF00031E0D32ECC0EDD1E65E871E0C6010E9406
:100D000004650894E11CF11CD701A00FB11FF60186
:100D100001900020E9F73197EC19FD09EC93F601F9
:100D200001900020E9F7319700E010E0EC15FD0597
:100D300009F47DCC96010894E11CF11CF901819124
:100D40009F0111968C930F5F1F4FF60101900020B9
:100D5000E9F73197EC19FD090E171F0760F367CC0F
:100D60000894E11CF11CF701E00FF11F84E080837F
:100D70002DE2C22E21E0D22ECC0EDD1E60EA71E003
:100D8000C6010E9404650894E11CF11CD701A00F64
:100D9000B11FF60101900020E9F73197EC19FD0928
:100DA000EC93F60101900020E9F7319700E010E0A4
:100DB000EC15FD0509F43BCC96010894E11CF11CEF
:100DC000F90181919F0111968C930F5F1F4FF601DE
:100DD00001900020E9F73197EC19FD090E171F0764
:100DE00060F325CC0894E11CF11CF701E00FF11F22
:100DF00084E080834DE2C42E41E0D42ECC0EDD1E73
:100E000067E671E0C6010E9404650894E11CF11CCC
:100E1000D701A00FB11FF60101900020E9F731972B
:100E2000EC19FD09EC93F60101900020E9F73197E8
:100E300000E010E0EC15FD0509F4F9CB96010894EB
:100E4000E11CF11CF90181919F0111968C930F5FB8
:100E50001F4FF60101900020E9F73197EC19FD09C9
:100E60000E171F0760F3E3CB89E190E09093720BBC
:100E70008093710B81E090E09093740B8093730BDF
:100E8000E80EF91E9E01280F391FF701E20FF31F2C
:100E900080E380830894E11CF11C17010894611C15
:100EA000711C0894E11CF11CF701E20FF31F86E0AE
:100EB00080830894E11CF11C2E0D3F1D6CE370E053
:100EC000669ED001679EB00D769EB00D1124CD01B7
:100ED0008B58944FFC0101900020E9F73197E81BF3
:100EE000F90B8E2F8F5FF90180830894411C511CF0
:100EF000A40DB51DA85AB44F5D968C91882311F1AD
:100F0000A9010894E11CF11C28E53BE0669ED00194
:100F1000679EB00D769EB00D1124FD01E40DF51D08
:100F2000E20FF31F858D4F5F5F4FFA0180830894B6
:100F3000411C511CA40DB51DA20FB31F5D968C91D1
:100F40008823F9F60894E11CF11CDE011196F701E3
:100F5000EA0FFB1F10820894E11CF11CF701EA0F55
:100F6000FB1F85E080830894E11CF11CF701EA0F68
:100F7000FB1F1082A20DB31D8E2D82198C938ACA7D
:100F80000894E11CF11CDE011196F701EA0FFB1F2A
:100F900080E380830894E11CF11C17010894E11C94
:100FA000F11CAE0DBF1D86E08C9344245524320104
:100FB00080919B0D90919C0D481659060CF063CAC8
:100FC000049734F082E090E090939C0D80939B0D09
:100FD0000894611C711C20E030E08CE390E0689E76
:100FE000F001699EF00D789EF00D1124E85AF44F3F
:100FF000858D8B3209F4ADC340E050E0868D86309C
:1010000009F041E024233523232B09F4A2C00894DE
:10101000E11CF11CDE011196AE0DBF1D21E231E095
:10102000F90101900020E9F73197E21BF30B8E2FB5
:101030008F5F8C93F90101900020E9F7319700E070
:1010400010E0E217F307A9F0A9010894E11CF11CD4
:10105000FA018191AF0111968C930F5F1F4FF90137
:1010600001900020E9F73197E21BF30B0E171F07E1
:1010700060F30894E11CF11C8E010F5F1F4FF70114
:10108000E00FF11F10820894E11CF11CF701E00F42
:10109000F11F84E080833DE2C32E31E0D32ECC0EDD
:1010A000DD1E69E271E0C6010E9404650894E11C3E
:1010B000F11CD701A00FB11FF60101900020E9F744
:1010C0003197EC19FD09EC93F60101900020E9F746
:1010D000319700E010E0EC15FD05A9F096010894A9
:1010E000E11CF11CF90181919F0111968C930F5F16
:1010F0001F4FF60101900020E9F73197EC19FD0927
:101100000E171F0760F38091710B9091720B02977D
:1011100079F0FE01E20DF31D8E2D821981838091FD
:101120009B0D90919C0D681679060CF449CFABC9C4
:101130000894E11CF11CFE013196D701AE0FBF1FD0
:1011400085E08C930894E11CF11CEE0DFF1D1082CC
:10115000E0CF8CE390E0689EF001699EF00D789EF0
:10116000F00D1124E85AF44F858D8B3261F6868D8F
:10117000863049F6878D813031F680A1823019F6AC
:1011800081A1813009F0BFCF82A1813009F0BBCFAE
:1011900083A199278430910509F45DC285309105BA
:1011A0000CF048C18230910509F4E2C0833091050A
:1011B0000CF060C0019769F082E090E09093720BB0
:1011C0008093710B86E090E09093740B8093730B87
:1011D0009ACF6FE471E0CE01835D9E4F0E9404655B
:1011E0000894E11CF11CDE011196AE0DBF1D2FE429
:1011F00031E0F90101900020E9F73197E21BF30B90
:101200008E2F8F5F8C93F90101900020E9F73197C1
:1012100000E010E0E217F307A9F0A9010894E11C2F
:10122000F11CFA018191AF0111968C930F5F1F4F52
:10123000F90101900020E9F73197E21BF30B0E173B
:101240001F0760F30894E11CF11CDE011196F70101
:10125000EA0FFB1F10820894E11CF11CF701EA0F52
:10126000FB1F85E080830894E11CF11CAE0DBF1DBF
:101270001C9249CF0894E11CF11CDE011196AE0DC1
:10128000BF1D2FE531E0F90101900020E9F731970A
:10129000E21BF30B8E2F8F5F8C93F90101900020DE
:1012A000E9F7319700E010E0E217F307A9F0A90190
:1012B0000894E11CF11CFA018191AF0111968C9305
:1012C0000F5F1F4FF90101900020E9F73197E21BF2
:1012D000F30B0E171F0760F30894E11CF11C8E013D
:1012E0000F5F1F4FF701E00FF11F10820894E11C00
:1012F000F11CF701E00FF11F84E080832DE2C22E84
:1013000021E0D22ECC0EDD1E67E671E0C6010E9400
:1013100004650894E11CF11CD701A00FB11FF60170
:1013200001900020E9F73197EC19FD09EC93F601E3
:1013300001900020E9F7319700E010E0EC15FD0581
:1013400009F4E1CE96010894E11CF11CF9018191A8
:101350009F0111968C930F5F1F4FF60101900020A3
:10136000E9F73197EC19FD090E171F0760F3CBCE93
:1013700067E571E0CE01835D9E4F0E94046508948D
:10138000E11CF11CDE011196AE0DBF1D27E531E019
:10139000F90101900020E9F73197E21BF30B8E2F42
:1013A0008F5F8C93F90101900020E9F7319700E0FD
:1013B00010E0E217F307A9F0A9010894E11CF11C61
:1013C000FA018191AF0111968C930F5F1F4FF901C4
:1013D00001900020E9F73197E21BF30B0E171F076E
:1013E00060F30894E11CF11C9E012F5F3F4FF70151
:1013F000E20FF31F10820894E11CF11CF701E20FC9
:10140000F31F83E480830894E11CF11CF701E20FD1
:10141000F31F81E080830894E11CF11C8701020F17
:10142000131F0E94BC649093BB078093BA07F80116
:10143000808369CE8630910509F4D9C08630910544
:101440000CF457C0079709F0B7CE0894E11CF11CC3
:10145000DE011196AE0DBF1D2DEA31E0F9010190BC
:101460000020E9F73197E21BF30B8E2F8F5F8C93EF
:10147000F90101900020E9F7319700E010E0E21750
:10148000F307A9F0A9010894E11CF11CFA0181916C
:10149000AF0111968C930F5F1F4FF901019000204F
:1014A000E9F73197E21BF30B0E171F0760F308945F
:1014B000E11CF11CDE011196F701EA0FFB1F1082FF
:1014C0000894E11CF11CF701EA0FFB1F83E4808301
:1014D0000894E11CF11CF701EA0FFB1F81E08083F7
:1014E0000894E11CF11CAE0DBF1D8091B5018C93D9
:1014F0000ACE0894E11CF11CDE011196AE0DBF1D51
:1015000028E931E0F90101900020E9F73197E21B69
:10151000F30B8E2F8F5F8C93F90101900020E9F778
:10152000319700E010E0E217F307A9F0A901089451
:10153000E11CF11CFA018191AF0111968C930F5FB0
:101540001F4FF90101900020E9F73197E21BF30BDF
:101550000E171F0760F30894E11CF11C8E010F5F4A
:101560001F4FF701E00FF11F10820894E11CF11CDE
:10157000F701E00FF11F84E080838DE2C82E81E047
:10158000D82ECC0EDD1E60EA71E0C6010E94046513
:101590000894E11CF11CD701A00FB11FF6010190C6
:1015A0000020E9F73197EC19FD09EC93F601019061
:1015B0000020E9F7319700E010E0EC15FD0509F493
:1015C000A2CD96010894E11CF11CF90181919F01C3
:1015D00011968C930F5F1F4FF60101900020E9F7E1
:1015E0003197EC19FD090E171F0760F38CCD089495
:1015F000E11CF11CDE011196AE0DBF1D2DEA31E09C
:10160000F90101900020E9F73197E21BF30B8E2FCF
:101610008F5F8C93F90101900020E9F7319700E08A
:1016200010E0E217F30709F442CFA9010894E11C86
:10163000F11CFA018191AF0111968C930F5F1F4F3E
:10164000F90101900020E9F73197E21BF30B0E1727
:101650001F0760F32CCF0894E11CF11CDE011196EA
:10166000AE0DBF1D2DE731E0F90101900020E9F733
:101670003197E21BF30B8E2F8F5F8C93F901019052
:101680000020E9F7319700E010E0E217F307A9F036
:10169000A9010894E11CF11CFA018191AF01119696
:1016A0008C930F5F1F4FF90101900020E9F73197EC
:1016B000E21BF30B0E171F0760F30894E11CF11CEB
:1016C0008E010F5F1F4FF701E00FF11F108208948A
:1016D000E11CF11CF701E00FF11F84E080839DE223
:1016E000C92E91E0D92ECC0EDD1E65E871E0C60151
:1016F0000E9404650894E11CF11CD701A00FB11FE2
:10170000F60101900020E9F73197EC19FD09EC93FF
:10171000F60101900020E9F7319700E010E0EC15A8
:10172000FD0509F4F0CC96010894E11CF11CF901C7
:1017300081919F0111968C930F5F1F4FF6010190CD
:101740000020E9F73197EC19FD090E171F0760F328
:10175000DACC21E030E050CC62E171E08EE59BE034
:101760000E942265892B09F418C780919B0D9091E6
:101770009C0D0817190714F00C943B02049734F0E1
:1017800082E090E090939C0D80939B0D0894E11C67
:10179000F11C9E012F5F3F4FF701E20FF31F80E323
:1017A00080830894E11CF11C17010894611C711CD2
:1017B0000894E11CF11CF701E20FF31F86E080831F
:1017C0000894E11CF11CA701420F531F0CE310E029
:1017D000609E9001619E300D709E300D1124D901E4
:1017E000AB58B44FFD0101900020E9F73197EA1B97
:1017F000FB0B8E2F8F5FFA01808360E070E008940E
:10180000411C511C240D351D285A344FF901858D7A
:10181000882319F10894E11CF11C28E53BE0609E47
:10182000D001619EB00D709EB00D1124FD01E40D3C
:10183000F51DE20FF31F858D4F5F5F4FFA01808327
:101840006F5F7F4F0894411C511CA40DB51DA20F62
:10185000B31F5D968C918823E9F60894E11CF11C76
:101860005E010894A11CB11CF701EA0DFB1D10825A
:101870009201261B370B8CE390E0689ED001699E95
:10188000B00D789EB00D1124FD01E20FF31FE85A50
:10189000F44F858D8B3209F44CC082E090E0909338
:1018A000720B8093710B1092740B1092730B40E0CB
:1018B00050E02091710B3091720B22303105B1F163
:1018C00080E090E02430310571F1842B952B40E0CD
:1018D00050E02330310521F1842B952B892B81F0A9
:1018E0000894E11CF11CFE013196D701AE0FBF1F19
:1018F00085E08C930894E11CF11CEE0DFF1D108215
:10190000FE01E20DF31D8E2D8219818380919B0DC6
:1019100090919C0D681679060CF430CF0C943B0224
:1019200041E050E0D9CF81E090E0CFCF41E050E0FE
:10193000C7CF868D863069F082E090E09093720B7D
:101940008093710B81E090E09093740B8093730B04
:10195000AECF878D813039F082E090E09093720BAA
:101960008093710BF1CF80A1823009F43CC48430A4
:1019700049F082E090E09093720B8093710B83E0CA
:1019800090E0E2CF81A18130A1F782A1873089F771
:1019900083A1813071F744A1413009F4A8C04230DD
:1019A00041F785A1813089F0A20FB31FA85AB44F27
:1019B00095968C918230E9F684E090E09093720BDA
:1019C0008093710B86E090E0BFCF82E390E0689E49
:1019D000F001699EF00D789EF00D1124E85AF44F45
:1019E000E75BFE4F8081E954F140843049F083E0A9
:1019F00090E09093720B8093710B87E090E0A4CFFE
:101A0000E65BFE4F8081C82EDD2402E010E083E01B
:101A100090E0C80ED91E0C151D053CF56BE0862E16
:101A200062E0962E82E390E0689EF001699EF00DE0
:101A3000789EF00D1124E00FF11FEF55F34F8081D8
:101A4000F40181934F0199279F938F9382E592E050
:101A50009F938F930E940B590F900F900F900F90B0
:101A60000F5F1F4F0C151D05ECF20894E11CF11CD3
:101A7000F701EA0DFB1D84E080835DE2C52E51E095
:101A8000D52ECC0EDD1E6BE072E0C6010E9404650F
:101A90000894E11CF11CD701AA0DBB1DF6010190B1
:101AA0000020E9F73197EC19FD09EC93F60101905C
:101AB0000020E9F7319700E010E0EC15FD0509F48E
:101AC000F6CE96010894E11CF11CF90181919F0169
:101AD00011968C930F5F1F4FF60101900020E9F7DC
:101AE0003197EC19FD090E171F0760F3E0CE85A1B1
:101AF00099278430910509F42AC3853091050CF0AB
:101B00006BC18230910509F41BC1833091050CF043
:101B10008DC0019709F0CBCE82E390E0689EF00182
:101B2000699EF00D789EF00D1124E85AF44FE75BA2
:101B3000FE4F8081E954F140843009F058CFE65BD4
:101B4000FE4F8081C82EDD2402E010E083E090E0AB
:101B5000C80ED91E0C151D053CF547EB842E41E03F
:101B6000942E82E390E0689EF001699EF00D789ECD
:101B7000F00D1124E00FF11FEF55F34F8081F401B8
:101B800081934F0199279F938F9382E592E09F93D2
:101B90008F930E940B590F900F900F900F900F5F33
:101BA0001F4F0C151D05ECF20894E11CF11CF70108
:101BB000EA0DFB1D84E080833DE2C32E31E0D32E8D
:101BC000CC0EDD1E67EB71E0C6010E94046508942F
:101BD000E11CF11CD701AA0DBB1DF60101900020EC
:101BE000E9F73197EC19FD09EC93F601019000201B
:101BF000E9F7319700E010E0EC15FD0509F457CE48
:101C000096010894E11CF11CF90181919F01119644
:101C10008C930F5F1F4FF60101900020E9F7319779
:101C2000EC19FD090E171F0760F341CE82E390E027
:101C3000689EF001699EF00D789EF00D1124E85A1F
:101C4000F44FE75BFE4F8081E954F140843009F0A6
:101C5000CECEE65BFE4F8081C82EDD2402E010E090
:101C600083E090E0C80ED91E0C151D053CF52CEC48
:101C7000822E21E0922E82E390E0689EF001699E20
:101C8000F00D789EF00D1124E00FF11FEF55F34F8A
:101C90008081F40181934F0199279F938F9382E56F
:101CA00092E09F938F930E940B590F900F900F908B
:101CB0000F900F5F1F4F0C151D05ECF20894E11CEF
:101CC000F11CF701EA0DFB1D84E080839DE2C92E23
:101CD00091E0D92ECC0EDD1E6CEC71E0C6010E94A5
:101CE00004650894E11CF11CD701AA0DBB1DF60187
:101CF00001900020E9F73197EC19FD09EC93F6010A
:101D000001900020E9F7319700E010E0EC15FD05A7
:101D100009F4CDCD96010894E11CF11CF9018191E3
:101D20009F0111968C930F5F1F4FF60101900020C9
:101D3000E9F73197EC19FD090E171F0760F3B7CDCE
:101D400082E390E0689EF001699EF00D789EF00DB0
:101D50001124E85AF44FE75BFE4F9081E954F140BB
:101D6000923009F044CEE55BFE4F8081282F332767
:101D70003093BD052093BC050894E11CF11CF701CC
:101D8000EA0DFB1D90830894E11CF11CF701EA0D9C
:101D9000FB1D40830894E11CF11CAE0CBF1C80911C
:101DA000BC05F50180833F932F938FE592E09F93CD
:101DB0008F930E940B598091BC059091BD050F90A7
:101DC0000F900F900F90181619061CF4889A909A8D
:101DD0006ECD889A90986BCD8630910509F46BC1D1
:101DE000863091050CF4DDC08730910509F44FC0B1
:101DF000089709F05CCD82E390E0689EF001699E4F
:101E0000F00D789EF00D1124E85AF44FE75BFE4F79
:101E10009081E954F140923009F0E9CDE55BFE4F45
:101E20008081282F33273093C3052093C20508945F
:101E3000E11CF11CF701EA0DFB1D90830894E11CE5
:101E4000F11CF701EA0DFB1D40830894E11CF11C15
:101E5000AE0CBF1C8091C205F50180833F932F9388
:101E600082E792E09F938F930E940B598091C20565
:101E70009091C3050F900F900F900F9018161906B0
:101E80001CF48B9A939A13CD8B9A939810CD82E37E
:101E900090E0689EF001699EF00D789EF00D11248F
:101EA000E85AF44FE75BFE4F8081E954F1408430FB
:101EB00009F09DCDE65BFE4F8081C82EDD2402E057
:101EC00010E083E090E0C80ED91E0C151D053CF50E
:101ED000B6EF8B2EB1E09B2E82E390E0689EF0017E
:101EE000699EF00D789EF00D1124E00FF11FEF5563
:101EF000F34F8081F40181934F0199279F938F9332
:101F000082E592E09F938F930E940B590F900F9060
:101F10000F900F900F5F1F4F0C151D05ECF20894EA
:101F2000E11CF11CF701EA0DFB1D84E08083ADE2AA
:101F3000CA2EA1E0DA2ECC0EDD1E66EF71E0C601DE
:101F40000E9404650894E11CF11CD701AA0DBB1D79
:101F5000F60101900020E9F73197EC19FD09EC93A7
:101F6000F60101900020E9F7319700E010E0EC1550
:101F7000FD0509F49CCC96010894E11CF11CF901C3
:101F800081919F0111968C930F5F1F4FF601019075
:101F90000020E9F73197EC19FD090E171F0760F3D0
:101FA00086CC82E390E0689EF001699EF00D789EF9
:101FB000F00D1124E85AF44FE75BFE4F8081E9549D
:101FC000F140843009F013CDE65BFE4F8081C82ECE
:101FD000DD2402E010E083E090E0C80ED91E0C156D
:101FE0001D053CF581EE882E81E0982E82E390E07D
:101FF000689EF001699EF00D789EF00D1124E00FAF
:10200000F11FEF55F34F8081F40181934F01992720
:102010009F938F9382E592E09F938F930E940B5939
:102020000F900F900F900F900F5F1F4F0C151D0515
:10203000ECF20894E11CF11CF701EA0DFB1D84E0B1
:1020400080831DE2C12E11E0D12ECC0EDD1E61EE8B
:1020500071E0C6010E9404650894E11CF11CD701DF
:10206000AA0DBB1DF60101900020E9F73197EC198C
:10207000FD09EC93F60101900020E9F7319700E0AB
:1020800010E0EC15FD0509F412CC96010894E11C52
:10209000F11CF90181919F0111968C930F5F1F4FE5
:1020A000F60101900020E9F73197EC19FD090E17B0
:1020B0001F0760F3FCCB82E390E0689EF001699E0D
:1020C000F00D789EF00D1124E85AF44FE75BFE4FB7
:1020D0009081E954F140923009F089CCE55BFE4FE4
:1020E0008081282F33273093C1052093C0050894A1
:1020F000E11CF11CF701EA0DFB1D90830894E11C23
:10210000F11CF701EA0DFB1D40830894E11CF11C52
:10211000AE0CBF1C8091C005F50180833F932F93C7
:1021200085E892E09F938F930E940B598091C005A0
:102130009091C1050F900F900F900F9018161906EF
:102140001CF48A9A929AB3CB8A9A9298B0CB82E383
:1021500090E0689EF001699EF00D789EF00D1124CC
:10216000E85AF44FE75BFE4F9081E954F14092301A
:1021700009F03DCCE55BFE4F8081282F332730935B
:10218000BF052093BE050894E11CF11CF701EA0D80
:10219000FB1D90830894E11CF11CF701EA0DFB1D67
:1021A00040830894E11CF11CAE0CBF1C8091BE055D
:1021B000F50180833F932F9388E992E09F938F935B
:1021C0000E940B598091BE059091BF050F900F9012
:1021D0000F900F90181619061CF4899A919A67CBE4
:1021E000899A919864CB81A1813049F082E090E096
:1021F0009093720B8093710B84E090E0A5CB82A149
:10220000813049F082E090E09093720B8093710BE3
:1022100085E090E099CB84A18823A1F783A1992739
:102220008430910509F42FC18530910574F4823012
:10223000910509F4C1CB833091050CF0BDCB01971A
:1022400009F4BACB82E090E0B9CB8630910509F46D
:1022500090C0863091051CF00797A1F7ADCB82E3C3
:1022600090E0689EF001699EF00D789EF00D1124BB
:10227000E85AF44FE75BFE4F8081E954F140843027
:1022800009F0B5CBE65BFE4F8081C82EDD2402E06D
:1022900010E083E090E0C80ED91E0C151D053CF53A
:1022A00075E8872E71E0972E82E390E0689EF0013A
:1022B000699EF00D789EF00D1124E00FF11FEF558F
:1022C000F34F8081F40181934F0199279F938F935E
:1022D00082E592E09F938F930E940B590F900F908D
:1022E0000F900F900F5F1F4F0C151D05ECF2089417
:1022F000E11CF11CF701EA0DFB1D84E080836DE217
:10230000C62E61E0D62ECC0EDD1E65E871E0C6015A
:102310000E9404650894E11CF11CD701AA0DBB1DA5
:10232000F60101900020E9F73197EC19FD09EC93D3
:10233000F60101900020E9F7319700E010E0EC157C
:10234000FD0509F4B4CA96010894E11CF11CF901D9
:1023500081919F0111968C930F5F1F4FF6010190A1
:102360000020E9F73197EC19FD090E171F0760F3FC
:102370009ECA82E390E0689EF001699EF00D789E0F
:10238000F00D1124E85AF44FE75BFE4F8081E954C9
:10239000F140843009F02BCBE65BFE4F8081C82EE4
:1023A000DD2402E010E083E090E0C80ED91E0C1599
:1023B0001D053CF550EA852E51E0952E82E390E014
:1023C000689EF001699EF00D789EF00D1124E00FDB
:1023D000F11FEF55F34F8081F40181934F0199274D
:1023E0009F938F9382E592E09F938F930E940B5966
:1023F0000F900F900F900F900F5F1F4F0C151D0542
:10240000ECF20894E11CF11CF701EA0DFB1D84E0DD
:1024100080834DE2C42E41E0D42ECC0EDD1E60EA56
:1024200071E0C6010E9404650894E11CF11CD7010B
:10243000AA0DBB1DF60101900020E9F73197EC19B8
:10244000FD09EC93F60101900020E9F7319700E0D7
:1024500010E0EC15FD0509F42ACA96010894E11C68
:10246000F11CF90181919F0111968C930F5F1F4F11
:10247000F60101900020E9F73197EC19FD090E17DC
:102480001F0760F314CA82E390E0689EF001699E22
:10249000F00D789EF00D1124E85AF44FE75BFE4FE3
:1024A0008081E954F140843009F0A1CAE65BFE4F17
:1024B0008081C82EDD2402E010E083E090E0C80EA9
:1024C000D91E0C151D053CF5F7E68F2EF1E09F2E69
:1024D00082E390E0689EF001699EF00D789EF00D19
:1024E0001124E00FF11FEF55F34F8081F401819328
:1024F0004F0199279F938F9382E592E09F938F934B
:102500000E940B590F900F900F900F900F5F1F4F6D
:102510000C151D05ECF20894E11CF11CF701EA0D05
:10252000FB1D84E08083EDE2CE2EE1E0DE2ECC0EBA
:10253000DD1E67E671E0C6010E9404650894E11C97
:10254000F11CD701AA0DBB1DF60101900020E9F78F
:102550003197EC19FD09EC93F60101900020E9F7A1
:10256000319700E010E0EC15FD0509F4A0C99601D3
:102570000894E11CF11CF90181919F0111968C9343
:102580000F5F1F4FF60101900020E9F73197EC191A
:10259000FD090E171F0760F38AC989E190E0909347
:1025A000720B8093710BF092740BE092730BDB82D1
:1025B000370186E08D8375E0E72EF12C6CE370E047
:1025C000DB01AB58B44FFD0101900020E9F7E40DA9
:1025D000F51DEA1BFB0B8E2F8F5F8E8328018091E8
:1025E000B10B8823D9F0AB01DE0116960894E11CEB
:1025F000F11C28E53BE0FA01E20FF31F858D1196EF
:102600008C934F5F5F4F0894411C511CF201E60F01
:10261000F71FE20FF31F858D882341F70894E11C13
:10262000F11CDE011196F701EA0FFB1F10820894DE
:10263000E11CF11CF701EA0FFB1F85E08083089481
:10264000E11CF11CAE0DBF1D1C928E2D83508C839E
:102650000C943B02C659DE4F0FB6F894DEBF0FBE96
:10266000CDBFDF91CF911F910F91FF90EF90DF9041
:10267000CF90BF90AF909F908F907F906F905F9022
:102680004F903F902F900895CF92DF92EF92FF925C
:102690000F931F93CF93DF93CDB7DEB7CC52D140CA
:1026A0000FB6F894DEBF0FBECDBF6C017B0120E0FA
:1026B00030E080E389831A8282E08B8381E08C831F
:1026C0002D8384E08E8380915C0B8F8340915C0B23
:1026D00050915D0B2417350764F4DE011896F9015B
:1026E000E85AF44F86818D932F5F3F4F24173507AB
:1026F000B4F3D90117968091680B9091690B823AD7
:10270000910509F495C0833A910508F097C0803A85
:10271000910509F48DC0813A910509F489C0BD0184
:102720006F5F7F4FDB0111969E012F5F3F4FFD01D1
:10273000E20FF31F82E080831196FD01E20FF31F89
:1027400080916A0B808320E030E000916A0B109149
:102750006B0B201731077CF4AF011196F901E85A91
:10276000F44F84894F5F5F4FFA0180832F5F3F4FA3
:102770002017310794F311969E012F5F3F4FFD0103
:10278000E20FF31F42E040831196FD01E20FF31FB9
:1027900091E090831196FD01E20FF31F8091710B80
:1027A0008083B093720BA093710B1196FD01E20F21
:1027B000F31F40831196FD01E20FF31F90831196E2
:1027C000FD01E20FF31F8091730B8083B093740BB4
:1027D000A093730B1E141F0474F4A6018F019701BC
:1027E0001196FA018191AF010F5F1F4FF8018083AD
:1027F00021503040A9F78D010150104000381105DB
:1028000094F40A83FE01E60FF71F802F861B8F5F6B
:1028100081830E5F1F4F1093BB050093BA0520E024
:1028200030E0D60117C08BEA92E00E940F58F1CF3A
:10283000FE01EA0FFB1F82EA818371CF833A910583
:10284000B9F3843A910509F06ACFFE01EA0FFB1F44
:1028500084EAF2CFFE01E20FF31F81818D932F5F97
:102860003F4FF1E02C323F07A8F3C45DDE4F0FB6B7
:10287000F894DEBF0FBECDBFDF91CF911F910F91B6
:10288000FF90EF90DF90CF9008956F927F928F929C
:102890009F92AF92BF92CF92DF92EF92FF920F93EF
:1028A0001F93CF93DF936C01C0E0D0E05E013E0147
:1028B000DC018C91803309F0C8C111968C9111977D
:1028C00099279093590B8093580B12968C911297DD
:1028D000823009F4ABC1C4E0D0E0F60185818430D8
:1028E00009F47CC1F601EC0FFD1F808199279093BC
:1028F000690B8093680B2196F601EC0FFD1F808118
:10290000E82EFF24F1E8EF16F1043CF02196F601E1
:10291000EC0FFD1F8081E80EF11C2196F601EC0FF3
:10292000FD1F8081823009F451C1F601EC0FFD1FBB
:102930008081992790936B0B80936A0BAA24BB2408
:102940002196AE14BF047CF4DE01AC0DBD1DF50173
:10295000E85AF44F8D91848B21960894A11CB11CE8
:10296000AE14BF04A4F3F601EC0FFD1F808182308A
:1029700009F419C12196F601EC0FFD1F8081823008
:1029800009F4FEC02196F601EC0FFD1F8081803313
:1029900009F4F4C08091580B9091590BC817D907CE
:1029A0008CF48E010C0D1D1D0F5F1F4F2196D80159
:1029B0008C91803351F08091580B9091590BC8172E
:1029C000D90794F380E090E042C10E5F1F4F22963A
:1029D000F8018081863079F780919B0D90919C0D54
:1029E000019690939C0D80939B0D0F5F1F4FD80114
:1029F0008D918D01E82EFF242296E114F104D1F18E
:102A000057017E01EC0CFD1C20919B0D30919C0D1B
:102A10008CE390E0289FF001299FF00D389FF00D86
:102A20001124E60DF71DE85AF44FD7018D917D0171
:102A3000858F99279F938F93DF93CF937F926F9288
:102A40008FEC92E09F938F930E940B590F5F1F4F63
:102A500021960894611C711CEDB7FEB738960FB62D
:102A6000F894FEBF0FBEEDBF0894A108B108A114F1
:102A7000B10451F6D8014C91453009F477C020914A
:102A80009B0D30919C0D82E390E0289FD001299FFF
:102A9000B00D389FB00D1124FD01EF55F34F408369
:102AA0000F5F1F4FF80181918F01E82EFF24AE5573
:102AB000B34FEC922296A2E0AA2EB12CC7018A0D48
:102AC0009B1DA816B906C4F54E018C0C9D1C2091C7
:102AD0009B0D30919C0D82E390E0289FF001299F8F
:102AE000F00D389FF00D1124EA0DFB1DEF55F34F4B
:102AF000D4018D914D01808399279F938F93BF922D
:102B0000AF923F932F9389EE92E09F938F930E9411
:102B10000B590F5F1F4F2196EDB7FEB738960FB6D2
:102B2000F894FEBF0FBEEDBF0894A11CB11CC701F5
:102B30000296A816B9065CF220919B0D30919C0D6F
:102B400082E390E0289FD001299FB00D389FB00DFF
:102B50001124FD01EF55F34F8081843009F02BCF14
:102B6000AA0DBB1DAF55B34F1C9225CF0F5F1F4F52
:102B7000219680E093E00E940F581DCF21960ACF46
:102B80002196F601EC0FFD1F8081813009F0FACE0D
:102B90002196F601EC0FFD1F808199279093740B0D
:102BA0008093730BEFCE2196F601EC0FFD1F808111
:102BB000813009F0DFCE2196F601EC0FFD1F8081F8
:102BC00099279093720B8093710BD4CE2196F601C6
:102BD000EC0FFD1F8081E82EFF24A7CE8681992768
:102BE00090935D0B80935C0B86819927B7E0EB2E69
:102BF000F12CE80EF91EC7E0D0E0CE15DF057CF41D
:102C0000D601AC0FBD1FEC01F501E85AF44F8D91D0
:102C100086830894A11CB11C2197B1F7E70188E5D0
:102C20009BE0A80EB91EF50116825CCE13968C911E
:102C30001397813009F04FCE14968C919927019605
:102C400090935B0B80935A0B46CE8FEF9FEFDF91F3
:102C5000CF911F910F91FF90EF90DF90CF90BF9099
:102C6000AF909F908F907F906F900895382F22277C
:102C7000892F9927282B392BC90108958091BA07EC
:102C80009091BB078F3F910564F401969093BB0729
:102C90008093BA0768EE73E080E090E00E94835F63
:102CA000EDCF1092BB071092BA07F4CFCF93DF930A
:102CB000CDB7DEB7CC56D1400FB6F894DEBF0FBE0D
:102CC000CDBF86E193E00E94DE202B013C01CC24A5
:102CD000DD24760146010E94E601992787FD909543
:102CE0009093C5058093C405E114F10409F049C22D
:102CF0000DE91DE08AE0D801E4E2F3E001900D92D5
:102D00008A95E1F761E372E0C8010A960E940465C2
:102D10006BE372E0C80144960E940465F092BC0D1A
:102D2000E092BB0D87E090E09093BE0D8093BD0DC7
:102D3000AE014F5F5F4FF601E40FF51F80E3808324
:102D40000894C11CD11CF601E40FF51F8082089481
:102D5000C11CD11CF601E40FF51F82E080830894AA
:102D6000C11CD11CF601E40FF51F81E0808308949B
:102D7000C11CD11CF601E40FF51F10820894C11C80
:102D8000D11CF601E40FF51F84E080830894C11C78
:102D9000D11CD601A40FB51FF80101900020E9F75E
:102DA0003197E01BF10BEC930894C11CD11C9701E7
:102DB000F80101900020E9F73197E01BF10BEE16C6
:102DC000FF06B8F44C0D5D1DF901E356F24F80810A
:102DD000DA018D93AD012F5F3F4FADE9BDE0FD01FD
:102DE00001900020E9F73197EA1BFB0B2E173F07F4
:102DF00058F3C20ED31EAE014F5F5F4FF601E40FD2
:102E0000F51F84EA80830894C11CD11CA9E6AA2E70
:102E1000A1E0BA2EAC0EBD1EF501C082D18208948D
:102E2000C11CD11CF601E40FF51F86E080830894D5
:102E3000C11CD11CC601840F951FA7EABDE0FD018E
:102E400001900020E9F79F01215030402A1B3B0BE5
:102E5000FC0120830894C11CD11CFD0101900020BD
:102E6000E9F7319720E030E0EA17FB07B9F04C0DA5
:102E70005D1DF901E955F24F8081DA018D93AD01B5
:102E80002F5F3F4FA7EABDE0FD0101900020E9F769
:102E90003197EA1BFB0B2E173F0758F3C20ED31EC8
:102EA0008E010F5F1F4FF601E00FF11F80E480835A
:102EB0000894C11CD11CF601E00FF11F84E080834F
:102EC0000894C11CD11CD801AC0DBD1DE1EBFDE087
:102ED0009F012D5F3F4F81918D932E173F07DCF7A8
:102EE000E4E0F0E0CE0EDF1EF601E00FF11F22E07D
:102EF00020830894C11CD11CF601E00FF11F91E062
:102F000090830894C11CD11CF601E00FF11F809141
:102F1000BB0D80830894C11CD11CF601E00FF11F8A
:102F200020830894C11CD11CF601E00FF11F90838F
:102F30000894C11CD11CF601E00FF11F8091BD0D5A
:102F400080830894C11CD11CF601E00FF11F83E4BB
:102F500080830894C11CD11CF601E00FF11F9083FF
:102F60000894C11CD11CF601E00FF11F8091BA0733
:102F700080830894C11CD11CF601E00FF11F80E38F
:102F800080830894C11CD11CF501C282D382E090D9
:102F9000BB0DF090BC0DE114F10409F096C008944B
:102FA000C11CD11CF601E00FF11F80830894C11CE5
:102FB000D11CF501C482D5820894C11CD11CF60134
:102FC000E00FF11F86E08083FDE28F2EF1E09F2E5F
:102FD0008C0E9D1E69E271E0C4010E940465089494
:102FE000C11CD11CD601A00FB11F41E251E0FA0172
:102FF00001900020E9F73197E41BF50B8E2F8F5FCE
:103000008C939701FA0101900020E9F73197E41BB6
:10301000F50BEE16FF06A8F4BA010894C11CD11CEA
:10302000FB018191BF0111968C932F5F3F4FFA01F5
:1030300001900020E9F73197E41BF50B2E173F07AD
:1030400060F30894C11CD11CCE010196F601E80F73
:10305000F91F10820894C11CD11CF601E80FF91F5A
:1030600024E020830894C11CD11C8C0D9D1DD4012B
:10307000F40101900020E9F79F0121503040281908
:103080003909FC012083F40101900020E9F7319710
:1030900020E030E0E815F905C1F0B401AC01089476
:1030A000C11CD11CFB018191BF014F5F5F4FFA0131
:1030B00080832F5F3F4FFD0101900020E9F731979A
:1030C000EA1BFB0B2E173F0750F346018C2D815056
:1030D0008A83D501ED91FC9111979E012F5F3F4F9F
:1030E000E20FF31F8C91BC2DB81BB083F501A281B8
:1030F000B381A20FB31F8281FC2DF81BFC93F50155
:10310000A481B581A20FB31F8481FC2DF81BFC9311
:1031100080910A0190910B010E94731C5C01892B24
:1031200029F18EE293E00E940F58C60101967C01BE
:103130008E010F5F1F4F22EA30E0B301A201C501EB
:103140000E94BD1C8F5F9F4F71F088E493E00E9446
:103150000F5860E47FE180E090E00E94835F61E0CF
:10316000E62EF12CC1CD8BE593E0F1CF83E793E020
:103170000E940F5868E873E180E090E00E94835F4E
:10318000D4CF81E0E816F10421F70E94E6019927E7
:1031900087FD90959093C5058093C40597FD019692
:1031A0009C01359527953093C5052093C4058091E2
:1031B0000C0190910D01281739075CF20DE91DE013
:1031C0008AE0D801E4E2F3E001900D928A95E1F7FC
:1031D00061E372E0C8010A960E9404656BE372E045
:1031E000C80144960E94046586E090E09093BC0D6F
:1031F0008093BB0D87E090E09093BE0D8093BD0D52
:1032000080E38983EC0EFD1EF701818282E08B83CF
:1032100081E08C831D8284E08E83F8010190002080
:10322000E9F73197E01BF10BEF83F80101900020E3
:10323000E9F7319720E030E0E017F107C1F0AE0187
:10324000485F5F4FF901E356F24F8081DA018D93B9
:10325000AD012F5F3F4FADE9BDE0FD0101900020C2
:10326000E9F73197EA1BFB0B2E173F0758F3AE0126
:103270004F5F5F4FF901E40FF51F84EA8783285FF2
:103280003F4F8E0107591E4FF8012083318328508C
:103290003040F901E40FF51F86E08187CF01A7EAEE
:1032A000BDE0FD0101900020E9F7BF0161507040D1
:1032B0006A1B7B0BFC0162877BE0C72ED12CC20E00
:1032C000D31EFD0101900020E9F7319720E030E0A6
:1032D000EA17FB07B9F04C0D5D1DF901E955F24FF6
:1032E0008081DA018D93AD012F5F3F4FA7EABDE0EA
:1032F000FD0101900020E9F73197EA1BFB0B2E1727
:103300003F0758F3C20ED31EAE014F5F5F4FF60169
:10331000E40FF51F80E480830894C11CD11CF601E2
:10332000E40FF51F84E080830894C11CD11CDA01EE
:10333000AC0DBD1DE1EBFDE09F012D5F3F4F819185
:103340008D932E173F07DCF7E4E0F0E0CE0EDF1E92
:10335000F601E40FF51F22E020830894C11CD11C64
:10336000F601E40FF51F91E090830894C11CD11C75
:10337000F601E40FF51F8091BB0D80830894C11CFA
:10338000D11CF601E40FF51F20830894C11CD11C49
:10339000F601E40FF51F90830894C11CD11CF601BF
:1033A000E40FF51F8091BD0D80830894C11CD11CD2
:1033B000F601E40FF51F83E480830894C11CD11C3F
:1033C000F601E40FF51F90830894C11CD11CF6018F
:1033D000E40FF51F8091BA0780830894C11CD11CAB
:1033E000F601E40FF51F80E380830894C11CD11C13
:1033F000F801C282D3820894C11CD11CF601E40FEB
:10340000F51F80830894C11CD11CF801C482D582A9
:103410000894C11CD11CF601E40FF51F86E08083DF
:103420000894C11CD11CD601A40FB51F47E252E07D
:10343000FA0101900020E9F73197E41BF50B8E2F7C
:10344000890F8C93FA0101900020E9F7319720E071
:1034500030E0E417F507A9F0BA010894C11CD11CAB
:10346000FB018191BF0111968C932F5F3F4FFA01B1
:1034700001900020E9F73197E41BF50B2E173F0769
:1034800060F30894C11CD11C9E012F5F3F4FF601D1
:10349000E20FF31F10820894C11CD11CF601E20F49
:1034A000F31F82E080830894C11CD11CF601E20F57
:1034B000F31F81E080830894C11CD11CF601E20F48
:1034C000F31F8091C405808346018C2D81508A832F
:1034D000D801ED91FC911197E20FF31F8C91BC2D57
:1034E000B81BB083F801A281B381A20FB31F828100
:1034F000FC2DF81BFC93F801A481B581A20FB31F2A
:103500008481FC2DF81BFC9380910A0190910B01A2
:103510000E94731C5C01892BC1F08EE293E00E9433
:103520000F58C60101967C018E010F5F1F4F22EAE2
:1035300030E0B301A201C5010E94BD1C8F5F9F4F07
:1035400009F411CE80E993E002CE83E793E00E9474
:103550000F5868E873E180E090E00E94835FE1CF5C
:10356000CF93DF93CDB7DEB7C253D1400FB6F894F7
:10357000DEBF0FBECDBF8FE2482E81E0582E4C0E2D
:103580005D1EF20110821182128213820DE2602E02
:1035900001E0702E6C0E7D1EF3011082118280916D
:1035A0000801909109010E94731C4C01892B09F4B8
:1035B0007AC088EA93E00E940F58AA24BB24109294
:1035C000C60510925E0B80E290E090936D0B8093A5
:1035D0006C0BB0929C0DA0929B0D18EBC12E1BE0C2
:1035E000D12EE12CF12C03EF11E026EC35E0AE01F9
:1035F000435D5E4FBE01615D7E4FC4010E94FC1CB5
:103600008F5F9F4F09F44AC08091C605882319F047
:10361000B1E0AB2EB12CA114B104F9F28E01035D1F
:103620001E4FF801808191810E943616F801808337
:10363000918386EC95E00E944514CE0101960E948C
:1036400003026091BA057091BB05CE0101960E94FC
:103650004413E090BA05F090BB058E010F5F1F4F39
:10366000F30120813181F2014081518162817381B6
:10367000C4010E94BD1C8F5F9F4F59F08DEB93E0FA
:103680000E940F5864EF71E080E090E00E94835F39
:1036900094CF8BEC93E00E940F58F0CF8EED93E027
:1036A0000E940F58B8CF81EF93E00E940F5868E84E
:1036B00073E180E090E0EACF40E060E070E086EE09
:1036C00094E00E94B85A89E094E00E94E25A9093F4
:1036D000570B8093560B4EE051E061E071E00E9481
:1036E000715B8CE890E00E940F588FE094E00E949C
:1036F0000F5883E394E00E940F5845E060E073E8C0
:1037000084E295E00E94B85A84E594E00E94DE20AD
:103710007B018C0182E694E00E94DE20DC01CB017B
:103720009C01AD0162E071E080E794E00E94DA2440
:1037300085E794E00E94DE20DC01CB0124E2C22E6A
:1037400025E0D22E7C018D0120E030E040E050E009
:10375000CA01B9010E94BB1F83E894E00E94DE20E9
:10376000DC01CB019C01AD0160E070E0CB010E9467
:10377000913D81B38FEF81BB82B312BA28EE33E063
:1037800040E050E060EB7AE18FE894E00E94F46260
:1037900028E532E041E050E06EE376E186E994E02E
:1037A0000E94F46228E532E042E050E066E576E10E
:1037B0008DE994E00E94F46264EF71E080E090E0B3
:1037C0000E94835FF9CF0E94946020E033E040E0E4
:1037D00050E06CE57BE184EA94E00E94F4628FEFB4
:1037E0000E94B3620E946D62FDCF43E050E060E052
:1037F00070E081EC9DE00E94C1648091C10D833036
:1038000021F48091C20D8F3419F08FEF9FEF06C025
:103810008091C30D8335C9F780E090E008950F9340
:103820001F93CF93DF9383E08093C10D8FE4809348
:10383000C20D83E58093C30D01EC1DE0C0E0D0E034
:10384000F80181918F01682FCE010E94D2642196E8
:10385000C330D105A8F380E090E0DF91CF911F91B4
:103860000F910895CFEFD0E1DEBFCDBF0E94F51BD1
:10387000892B41F580EC85BF8FEF90E18D5E9D40F7
:1038800081589140ACF485E58093FE7F8AEA80936D
:10389000FF7F8091FE7F8535C1F48091FF7F8A3A5A
:1038A000A1F460E07FE680E091E10E94B5640DC084
:1038B0008FEF9FE08D5E9D40BC018DEE9DE00E94EC
:1038C000B564E1CF0E940F1CD5CF20E831E040E085
:1038D00050E063EE7BE189EA94E00E94F46280E0CC
:1038E00090E00C948765CF93DF93EC01892B59F519
:1038F0008091AE049091AF0401969093AF048093B1
:10390000AE04892B31F480E090E19093AF04809372
:10391000AE04E091BC07F091BD07309771F02091A3
:10392000AE043091AF04828193818217930729F00E
:103930000190F081E02D3097B1F7EF2BC9F6C091DF
:10394000AE04D091AF0488E090E00E942764FC01AF
:10395000892B79F00C2ECD2FD02DC283D38380916B
:10396000BC079091BD0780839183F093BD07E093DE
:10397000BC07CF01DF91CF9108956F927F928F9214
:103980009F92AF92BF92CF92DF92EF92FF920F93EE
:103990001F93CF93DF933C015A016B014901A701AB
:1039A00060E880E090E00E94213FEC01892B91F0DB
:1039B0008F859889A701B8010E94DD648E0194016A
:1039C000B601A501C3010E94911D8C01CE010E9488
:1039D000924002C00FEF1FEFC801DF91CF911F91FE
:1039E0000F91FF90EF90DF90CF90BF90AF909F909E
:1039F0008F907F906F9008954F925F926F927F9219
:103A00008F929F92AF92BF92CF92DF92EF92FF92EE
:103A10000F931F93CF93DF935C014B013A01290170
:103A2000FC0184819581892B69F1F501C481D581DF
:103A3000209731F1F50114821582EF81F885848594
:103A40009585A685B785F40180839183A283B3838E
:103A5000EB85FC8580819181F30180839183898945
:103A60009A898017910708F48C018F859889A8019D
:103A7000BC01C2010E94DD64CE010E94924009C0D7
:103A80008E0107C0C5010696B701A6010E94BE605F
:103A9000CCCFC801DF91CF911F910F91FF90EF9094
:103AA000DF90CF90BF90AF909F908F907F906F905E
:103AB0005F904F9008952FEF3FEFACEBB7E0E091B0
:103AC000BC07F091BD07309799F0E817F90739F076
:103AD000DF010190F081E02D3097B9F709C08081B6
:103AE00091818D939C93CF010E943C6420E030E053
:103AF000C90108959C0140E050E0E091BC07F091BD
:103B0000BD07309761F0828193818217930731F06E
:103B10000190F081E02D3097B1F701C0AF01CA01EB
:103B200008954F925F926F927F928F929F92AF9281
:103B3000BF92CF92DF92EF92FF920F931F93CF939A
:103B4000DF93CDB7DEB724970FB6F894DEBF0FBE74
:103B5000CDBF2C013A014B01790148E050E060E40F
:103B6000C8010E94213F6C01009709F459C0FC0173
:103B7000A384B484F20182819381F50180839183CF
:103B80000E2CEF2CF02CE282F382F60185859685CF
:103B900021893289820F931F082E892F902DF501DC
:103BA00084839583AE014F5F5F4FC401B3010E94D0
:103BB000AD20FC01892B79F10784F089E02D818506
:103BC0009285A385B48589839A83AB83BC83F501F1
:103BD00016821782E480F58001E1A40193016981D6
:103BE0007A818B819C810E94781F48E050E0B5016A
:103BF0000E94381FF60141895289678570890E94A9
:103C0000731FF501868397839601B401A301802F6A
:103C10000E94291E07C019821A821B821C82D7CFDC
:103C20008FEF9FEF24960FB6F894DEBF0FBECDBF87
:103C3000DF91CF911F910F91FF90EF90DF90CF9088
:103C4000BF90AF909F908F907F906F905F904F90BC
:103C500008956F927F928F929F92AF92BF92CF9270
:103C6000DF92EF92FF920F931F93CF93DF93CDB725
:103C7000DEB72A970FB6F894DEBF0FBECDBF182F60
:103C80003A014B0144E150E060E2C9010E94213F4A
:103C90005C01009709F46AC0FC01E780F08485E4C8
:103CA000F70180831182F50181859285258536850E
:103CB000820F931F21893289820F931F082E892F2B
:103CC000902DF701828393831682178280E4808788
:103CD0001187608A718A828A938AFFEF6F16FFEFDD
:103CE0007F06FFEF8F06FFEF9F0609F45FC0AE016E
:103CF000495F5F4FC401B3010E94AD206C01009782
:103D0000A9F1FC0107851089F801878D90A19C011C
:103D10000196878F90A3022E232F302DF701248345
:103D20003583F80181859285A385B485F701848761
:103D30009587A687B78712861386F5014185528538
:103D40006781708580E090E00E94731FF701828791
:103D50009387F8018081863061F0873139F4A501BD
:103D600061E270E0C6010E94EB426DC08FEF9FEFF1
:103D70006AC04F81588569857A854115510561056D
:103D8000710511F4B401A3019E012F5F3F4FC601DD
:103D90000E94AD22892B51F79501AE014F5F5F4F15
:103DA00060E078E0C6010E942B234DC046E050E061
:103DB0006FEF70E0CE0101960E94E664C0903B0B6D
:103DC000D0903C0BC114D10451F0F60183858330AF
:103DD00049F0F601C080D180C114D104B1F780E070
:103DE00090E031C007851089F801878D90A19C0172
:103DF0000196878F90A3022E232F302DF701248365
:103E00003583F80181859285A385B485F701848780
:103E10009587A687B78712861386F5014185528557
:103E20006781708580E090E00E94731FF7018287B0
:103E300093879501AE014F5F5F4F60E078E0C60168
:103E40000E942B23C6CF2A960FB6F894DEBF0FBE72
:103E5000CDBFDF91CF911F910F91FF90EF90DF9039
:103E6000CF90BF90AF909F908F907F906F9008956C
:103E7000CF93DF939B01FA01AC0166277727E90115
:103E8000E230F10560F089919991AA27BB27480F8C
:103E9000591F6A1F7B1F3297E230F105A0F7EF2B05
:103EA00029F08881480F511D611D711DCB01AA2782
:103EB000BB270097A105B10591F0DB01CA01A070F5
:103EC000B070AB0166277727480F591F6A1F7B1F09
:103ED000CB01AA27BB270097A105B10571F7CA013D
:103EE000DF91CF9108950E94381F80959095089595
:103EF000EF92FF920F93CF93DF93CDB7DEB72C975E
:103F00000FB6F894DEBF0FBECDBFDC01CB018983B5
:103F10009A83AB83BC832D833E834F835887198656
:103F20000A87EB86FC864CE050E0BE016F5F7F4F56
:103F300080E090E00E94381F2C960FB6F894DEBF08
:103F40000FBECDBFDF91CF910F91FF90EF900895FD
:103F5000AF92BF92CF92DF92EF92FF920F930E94A7
:103F6000781F809590950F91FF90EF90DF90CF9004
:103F7000BF90AF9008952F923F924F925F926F92B1
:103F80007F928F929F92AF92BF92CF92DF92EF92E9
:103F9000FF920F931F93CF93DF93CDB7DEB7249794
:103FA0000FB6F894DEBF0FBECDBF2B013C01490117
:103FB0005A01E982FA820B831C838FEFE82EF82ED8
:103FC000E0ECF7E00FB6F89480818F5F80830FBE3E
:103FD0000FB60F92F8948091C007813009F049C064
:103FE0002090BE073090BF070EEB17E0211431047C
:103FF000D9F0F10186819781A085B185281739070D
:104000004A075B0788F48101D1012D903C9021146F
:10401000310451F0F10186819781A085B185881620
:104020009906AA06BB0678F380E190E00E94B3638C
:104030009C010097F1F0482059206A207B20FC0168
:10404000428253826482758286829782A086B1867C
:1040500089819A81AB81BC8182879387A487B58748
:10406000C686D78620823182D8012D933C93EE24D8
:10407000FF240F900FBEE0ECF7E00FB6F8948081BC
:10408000815080830FBEC70124960FB6F894DEBF1F
:104090000FBECDBFDF91CF911F910F91FF90EF9099
:1040A000DF90CF90BF90AF909F908F907F906F9058
:1040B0005F904F903F902F900895EF92FF920F9353
:1040C0001F93CF93DF937B018C01EA01622FE0E025
:1040D000F0E02430D0F5E091BE07F091BF073097B3
:1040E000B1F086819781A085B1858E219F21A02383
:1040F000B123228133814481558182179307A4071C
:10410000B50729F00190F081E02D309751F73097F5
:10411000E1F0209761F082859385A485B5850097AD
:10412000A105B10521F088839983AA83BB83868585
:104130009785892B51F46F5F262FAE0162857385B9
:10414000848595850E945D20FC01CF01DF91CF9190
:104150001F910F91FF90EF9008950F931F93CF93AE
:10416000DF93EC01DB014115510529F0FA011082C2
:1041700011821282138200EC17E0F8010FB6F89456
:1041800080818F5F80830FBE20E0BD01CE010E9441
:104190005D20DC01F8010FB6F894808181508083A6
:1041A0000FBE109729F01E968D919C911F9701C00C
:1041B000CD01DF91CF911F910F910895CF93DF93A0
:1041C000CDB7DEB724970FB6F894DEBF0FBECDBFD4
:1041D000FC0119821A821B821C8240E0DE011196CA
:1041E000808180538A3028F520E030E0C90153E017
:1041F000880F991F5A95E1F7820F931F280F391FD7
:104200008191280F311D205330408081803330F060
:104210008A3320F42F3F310549F340F32F3F310516
:1042200009F038F44F5F2D938E3241F431964430CB
:10423000B8F26FEF7FEF8FEF9FEF06C04430C9F702
:1042400069817A818B819C8124960FB6F894DEBFB8
:104250000FBECDBFDF91CF910895CF92DF92FF9235
:104260000F931F93CF93DF93CDB7DEB727970FB68A
:10427000F894DEBF0FBECDBF6C837D838E839F839A
:1042800061ECC62E67E0D62ED6018E010C5F1F4F63
:10429000FF2450E0F80130814AE0832F642F0E9410
:1042A0005965292F832F0E9459658083BE016F5F56
:1042B0007F4FFB01E50FF11D205D20835F5FF8015B
:1042C0008081882339F751505F3F39F0FB01E50FBA
:1042D000F11D80818D935150C8F78EE28D930F5F51
:1042E0001F4FF394F3E0FF15A0F611971C92C6013F
:1042F00027960FB6F894DEBF0FBECDBFDF91CF91EA
:104300001F910F91FF90DF90CF900895CF93DF938F
:10431000CDB7DEB726970FB6F894DEBF0FBECDBF80
:104320001B821C8260E67AEE80E090E00E94835F50
:1043300000913B0B10913C0B0115110599F3F8010D
:104340008385833039F0F801008111810115110551
:10435000B1F7E8CFA785B08991968D919C919297FE
:1043600089839A839196AD83BE8389819A81892BB3
:1043700051F3E981FA818585982F8F5F8587993080
:1043800060F0AD81BE81E981FA81808191818D9358
:104390009C9389819A818B839C838B819C81892BBF
:1043A00021F489819A818D839E83E981FA818081BC
:1043B000918189839A838B819C81892B31F08B81B8
:1043C0009C810E943C641B821C8289819A81892B7A
:1043D00081F6B9CFCF93DF93CDB7DEB722970FB673
:1043E000F894DEBF0FBECDBFFC0181A192A18983ED
:1043F0009A8389819A81892BA9F0E981FA81828146
:104400009381A481B58184179507A607B70751F05A
:10441000E981FA818081918189839A8389819A8156
:10442000892B59F789819A8122960FB6F894DEBFBD
:104430000FBECDBFDF91CF9108958F929F92AF9223
:10444000BF92CF92DF92EF92FF920F93CF93DF93C1
:104450004C016A017B01590180E190E00E942764D0
:10446000FC01892BE1F0C282D382E482F582A1149F
:10447000B10441F086E0EF012696D5010D90099236
:104480008A95E1F704870FB60F92F894E40189A1A9
:104490009AA180839183E9A3FAA30F900FBECF0165
:1044A000DF91CF910F91FF90EF90DF90CF90BF9071
:1044B000AF909F908F900895AF92BF92CF92DF926E
:1044C000EF92FF920F93CF93DF93EC016A017B0190
:1044D00059014091D1075091D2074115510531F151
:1044E000B701A6018F8598890E94EA21FC01892BDA
:1044F000A1F0848582FD0CC0158686E0EF0126962A
:10450000D5010D9009928A95E1F7848582608487B0
:104510003E96CF010E949E6116C002E09501B70150
:10452000A6018F8598890E941D220DC020E831E0E8
:1045300066E871E280EB94E00E94F4629093D20707
:104540008093D107CDCFDF91CF910F91FF90EF9066
:10455000DF90CF90BF90AF9008954F925F926F928F
:104560007F928F929F92AF92BF92CF92DF92EF9203
:10457000FF920F93CF93DF935C016A017B012901C6
:10458000882499248FEF682E782EF50187859089ED
:104590000E94EA21EC01892B09F43FC08C8581FF40
:1045A0000AC086E0D201FE01369601900D928A95EE
:1045B000E1F794013FC020E030E0B701A60181E0BF
:1045C00090E00E9495254C01892B21F103E0B40174
:1045D000C5010E94F1259C01892B69F48C8581FD20
:1045E0000FC044EF51E060E070E0CE010E960E94F3
:1045F000BE60015060F7C4010E94924093011AC04E
:1046000086E0D201FE01369601900D928A95E1F77F
:104610003901F1CF2FEF3FEF0DC000E09401B7015A
:10462000A601F501878590890E941D22EC01892B46
:1046300011F6E4CFC901DF91CF910F91FF90EF9078
:10464000DF90CF90BF90AF909F908F907F906F90B2
:104650005F904F9008958F929F92AF92BF92CF92AA
:10466000DF92EF92FF920F931F93CF93DF934C0152
:104670007B015A0189014EE050E060E1C9010E94CE
:10468000213F892B69F1F801C381D481F401C784EA
:10469000D08886E0DE011696F601319601900D92E3
:1046A0008A95E1F7A114B10499F086E0DE01F501E5
:1046B00001900D928A95E1F70E2CEF2CF02CEC86F0
:1046C000FD86E601EDA1FEA1B801C40109950AC06D
:1046D00046E050E06FEF70E0CE010E94E664ECCF60
:1046E0008FEF9FEFDF91CF911F910F91FF90EF9090
:1046F000DF90CF90BF90AF909F908F900895CF9311
:10470000DF93EC0140E250E060E470E084EC9DE077
:104710000E94C1648091C40D803239F4BE0185ECE1
:104720009DE00E94FA64009789F186E0AEECBDE05E
:10473000E6EBF4E001900D928A95E1F71092D40D2A
:104740001092D50D1092D60D1092D70D8CEB94E0EF
:104750000E94DE20DC01CB018093D80D9093D90D0F
:10476000A093DA0DB093DB0D1092E00D1092E10DE5
:104770001092E20D1092E30D1092DC0D1092DD0DFF
:104780001092DE0D1092DF0D8FEF9FEFDF91CF9132
:104790000895EF92FF920F931F93CF93DF9380E2E0
:1047A0008093C40D84ECE82E8DE0F82E00E010E03C
:1047B000C0E4D0E0F70181917F01682FCE010E9413
:1047C000D26421960F5F1F4F0032110598F380E0ED
:1047D00090E0DF91CF911F910F91FF90EF9008959E
:1047E0002F923F924F925F926F927F928F929F9201
:1047F000AF92BF92CF92DF92EF92FF920F931F93EF
:10480000CF93DF93CDB7DEB72A970FB6F894DEBF0C
:104810000FBECDBF89879A872A013B014801590104
:10482000C982DA82EB82FC82FC0127843088411540
:1048300051056105710571F44090D40D5090D50D6E
:104840006090D60D7090D70D41145104610471042D
:1048500009F495C0F10141865286638674868114FD
:104860009104A104B10409F483C0F101818A928A00
:10487000A38AB48AA3019201282139214A215B210C
:104880002D833E834F835887C984DA84EE24FF2426
:104890008701A50194016D817E818F8198850E9499
:1048A000BB1F89819A81AB81BC810097A105B105AD
:1048B00009F051C085EC9DE029E0DC01E985FA852D
:1048C000329601900D922A95E1F726E0FC01399687
:1048D000D10111960D9001922A95E1F74092D40DE5
:1048E0005092D50D6092D60D7092D70D8092D80D52
:1048F0009092D90DA092DA0DB092DB0D29813A8108
:104900004B815C812115310541055105A9F4809148
:10491000DC0D9091DD0DA091DE0DB091DF0D8821B1
:104920009921AA21BB212D813E814F815885821773
:104930009307A407B50761F089819A81AB81BC8197
:104940008093DC0D9093DD0DA093DE0DB093DF0D11
:104950000E94C92316C0C984DA847C018D0120E03D
:1049600030E040E050E0CA01B9010E94BB1FA2CF75
:104970008CEB94E00E94DE204B015C0176CF8FEF40
:104980009FEF2A960FB6F894DEBF0FBECDBFDF9122
:10499000CF911F910F91FF90EF90DF90CF90BF903C
:1049A000AF909F908F907F906F905F904F903F90CF
:1049B0002F9008952F923F924F925F926F927F9225
:1049C0008F929F92AF92BF92CF92DF92EF92FF921F
:1049D0000F931F93CF93DF936B0119012A013701C6
:1049E00048010E94E25A5C010097E1F1EC018B85DD
:1049F0008330C1F50F84D889C02D28812630A9F1D4
:104A0000273181F5F5010189128989E796E48BA3A5
:104A10009CA3CF82D88623893489C501F9010995E1
:104A2000892B01F540E050E060E070E0C8010E9491
:104A3000BE60F80181A18F30A1F48AEC94E00E945D
:104A4000DE20DC01CB01C984DA84EB84FC848C0198
:104A50009D01B701A601C5010E94F02380E090E00E
:104A60002CC011A28FEF9FEF28C08CE196E28BA3A0
:104A70009CA3822FDE011196F60101900D928A957A
:104A8000E1F7E501EB89FC89C5010995892B51F70F
:104A9000D201C1018E219F21A023B1230097A1053E
:104AA000B10541F0CC24DD24760194018301B201EB
:104AB000A101D1CFC5010E94BC3ADF91CF911F91D6
:104AC0000F91FF90EF90DF90CF90BF90AF909F90AD
:104AD0008F907F906F905F904F903F902F900895B0
:104AE000CF92DF92EF92FF920F931F936C010E947F
:104AF0007F23E090D80DF090D90D0091DA0D109140
:104B0000DB0D2091E00D3091E10D4091E20D5091CF
:104B1000E30D6EEC7DE0C6010E94DA241F910F9137
:104B2000FF90EF90DF90CF9008958F929F92AF9279
:104B3000BF92CF92DF92EF92FF920F931F93CF938A
:104B4000DF938C014A015B0169014CE150E060E2B6
:104B500080E090E00E94213F7C01009709F434C07E
:104B6000FC01C781D08581E090E0082E892F902D2F
:104B70008883998380E098E0082E892F902D8A837E
:104B80009B8396E09C8384E08D83002E012F102D63
:104B90000E831F83C114D10471F0892FDE01529658
:104BA000F60101900D928A95E1F7888E998EAA8E72
:104BB000BB8EC70109C0CE01429646E050E06FEFC0
:104BC00070E00E94E664F1CFDF91CF911F910F91C9
:104BD000FF90EF90DF90CF90BF90AF909F908F901D
:104BE00008950F931F93CF93DF938C019B01EB01EB
:104BF000EF81F885EC016F85788946E0CF01089652
:104C0000EB012196DC0109900D924A95E1F7EB0149
:104C100089859A85AB85BC8586879787A08BB18B64
:104C20007296AF0166E078E0C8010E942B23DF9105
:104C3000CF911F910F910895CF93DF939C01DB01DA
:104C40001396ED91FC9114973E961796ED93FC9375
:104C500018973E9715968D919C9116970E971996D9
:104C60008D939C931A978EE090E015968D939C936C
:104C7000169784859585082E892F902D48E08030E1
:104C8000940759F08650984021F0CB010E94924041
:104C900007C0C9010E94462703C0C9010E945326CC
:104CA000DF91CF9108952F923F924F925F926F9232
:104CB0007F928F929F92AF92BF92CF92DF92EF92AC
:104CC000FF920F931F93CF93DF93CDB7DEB7259756
:104CD0000FB6F894DEBF0FBECDBF89839A836C8375
:104CE0007D83FB0167807084F3012081822F807FA8
:104CF000803429F08C819D810E949240AEC08681D3
:104D00009781082E892F902D9F73892B99F72F70EB
:104D1000222E3324220C331C220C331CF3018088F6
:104D20009188A288B388E981FA8147845088FFEF8F
:104D30008F16FFEF9F06FFEFAF06FFEFBF0609F4E8
:104D400089C0F2010185128523853485011511057D
:104D50002105310571F081899289A389B489882957
:104D60009929AA29BB298F5F9F4FAF4FBF4F09F4E5
:104D700071C01B82011511052105310529F4F301CC
:104D80008185813009F44AC081149104A104B104E1
:104D900009F4B0CFF20181859285A385B485881688
:104DA0009906AA06BB0609F0A5CFEC81FD812186F4
:104DB0003286C301820D931D83879487F30182811C
:104DC0009381082E892F902D82199309EC81FD8102
:104DD00085879687F3018185992786309105A9F00B
:104DE0008730910554F4019709F084CF6C817D815F
:104DF00089819A810E94402830C0419709F07ACF7A
:104E00008C819D810E94E52728C0FB81FF2309F04A
:104E100071CF8C819D810E94AE271FC0D501C40136
:104E200080709070A0708030F0E09F07F0E0AF07D6
:104E3000FFEFBF0709F4A8CF0097A105B10509F45A
:104E4000A3CF68017901B501A40189819A810E94EB
:104E5000F0239ACF41E04B83A8CF25960FB6F89464
:104E6000DEBF0FBECDBFDF91CF911F910F91FF909D
:104E7000EF90DF90CF90BF90AF909F908F907F90FA
:104E80006F905F904F903F902F900895CF92DF9258
:104E9000EF92FF920F931F93CF93DF936C017B01EF
:104EA000FB01C781D08588819981082E892F902D9B
:104EB000019709F047C08A819B81082E892F902D88
:104EC0008050984009F03EC08C81863009F03AC08D
:104ED0008D818430B9F5F601A785B089288D398D8B
:104EE0004A8D5B8D19968D919D910D90BC91A02D51
:104EF000281739074A075B0729F58E01085F1F4FFE
:104F000098014E855F8568897989C6010E945C2277
:104F10008E819F81082E892F902D019799F49801F9
:104F20004E855F856889798982E090E00E949525A9
:104F3000EC01009739F0BC01C6010E94F125CE01B9
:104F40000E949240C7010E949240DF91CF911F9131
:104F50000F91FF90EF90DF90CF900895CF93DF9364
:104F6000FC01A385B4851C968C911C9782958F704B
:104F7000282F3327220F331F220F331F8585968555
:104F8000821B930B818B928B892B71F01C968C91D9
:104F90001C9782958F709927880F991F880F991FEA
:104FA0008A0F9B1F8787908B1C968C9182958F70A0
:104FB0009927880F991F880F991F85879687CF019A
:104FC0000E941831DF91CF9108950F931F93CF93D3
:104FD000DF93EC01EB85FC853896EF87F88B3897EB
:104FE0008D859E850897898B9A8B88E090E08D87C8
:104FF0009E87828193810E947A1D8C01009789F09F
:10500000FC0184819581009749F4F801C483D5831C
:105010000A5F1F4FC8010E946E6106C00E94924045
:10502000F4CFCE010E949240DF91CF911F910F915A
:105030000895FF920F931F93CF93DF93FC01F62EF9
:105040008A01EA012F813885E9014C855D856E85ED
:105050007F850784F089E02D81859285A385B485BD
:105060008C879D87AE87BF878FEF888798018F2DAC
:105070000E945828DF91CF911F910F91FF900895C2
:10508000CF93DF939C01EB018D859E85099750F0AE
:10509000EB85FC858081883029F4AB0160E0C90193
:1050A0000E941928CE010E949240DF91CF9108956D
:1050B000AF92BF92CF92DF92EF92FF920F931F9326
:1050C0005A016B018901F901E384F484F7018083BB
:1050D00012821382F901458556856385748580E0C7
:1050E00090E00E94731FF701828393839801B601B9
:1050F000A50181E00E94291E1F910F91FF90EF9062
:10510000DF90CF90BF90AF9008952F923F924F9233
:105110005F926F927F928F929F92AF92BF92CF9247
:10512000DF92EF92FF920F931F93CF93DF93382E6E
:10513000262E49015A012701380148E050E060E479
:10514000C6010E94213FEC010B851C85F8013082CD
:10515000218284829582A682B782128213824D8533
:105160005E856B857C8580E090E00E94381F4989D0
:105170005A896F8578890E94731FF801828393830F
:105180009E01B301A20181E00E94291EDF91CF910F
:105190001F910F91FF90EF90DF90CF90BF90AF9055
:1051A0009F908F907F906F905F904F903F902F9047
:1051B00008950895EF92FF920F931F93CF93DF937B
:1051C000EC018B01FB01E188F2888DA99EA9E80E14
:1051D000F91E8FA998ADE816F90608F066C089ADEA
:1051E0009AAD892B09F44FC0A9ADBAAD109709F457
:1051F0005CC08DA99EA9A80FB91FF8012785308929
:1052000081899289AC01B901CD010E94DD64EDAACA
:10521000FEAAF801618972899B01442755278FA551
:1052200098A9A9A9BAA9820F931FA41FB51F8FA778
:1052300098ABA9ABBAAB8BA99CA968177907F0F01A
:105240001BAA1CAAF80180819181892BA1F480916D
:10525000E60D9091E70D892B71F48F8588618F871A
:10526000CE01CB960E946E6140E050E0BA01CE01C3
:105270000E948D311AC08F858061F1CF861B970BFC
:105280008BAB9CABDFCF0E94BC649C014FA958AD97
:10529000CA018050984F8217930708F0A5CFCA0122
:1052A0000E94B36389AF9AAF9FCFDF91CF911F91D7
:1052B0000F91FF90EF900895CF93DF93EC01FB01E6
:1052C00080899189A289B3898B839C83AD83BE83B6
:1052D000FA01808191818D879E87FB018485958568
:1052E000A685B78589879A87AB87BC87FA018481B1
:1052F0009581A681B781082E8B2FB02D092E9A2F6C
:10530000A02D8BA79CA7ADA7BEA78C8F9D8FAE8F1E
:10531000BF8F0196A11DB11D8FA798ABA9ABBAABEA
:1053200086859785082E892F902D8CA39DA340E01C
:1053300050E0FB0164857585868597850E94AD20C8
:10534000FC01892B91F00784F089E02D858D968DE5
:105350008897FE01FF96208131812115310519F0D2
:105360008217930710F480839183DF91CF91089582
:10537000AF92BF92CF92DF92EF92FF920F931F9363
:10538000CF93DF93EC01FB01BA01E084F184028545
:1053900013850E2CE12E102D0F2CF02E002D888D54
:1053A000998DAA8DBB8D8E159F05A007B10720F49E
:1053B0008F8588618F87AAC0248135814681578176
:1053C000022E252F502D032E342F402DAC88BD8862
:1053D000CE88DF88EA14FB040C051D0509F46DC0B6
:1053E000EA14FB040C051D0508F456C0EA14FB047E
:1053F0000C051D0509F43CC01EA2EC8AFD8A0E8B2B
:105400001F8B6FA178A56115710549F1FB01A3857B
:10541000B48514968D919D910D90BC91A02D082E70
:105420008B2FB02D092E9A2FA02DFB0121893289B7
:1054300044275527820F931FA41FB51FE816F906AE
:105440000A071B0760F0808191818FA398A7CB0189
:105450000E9492406FA178A561157105B9F6CF5AE7
:10546000DF4F18821982A897CE010E946E614EC04C
:105470002FA138A52115310579F0672B69F48585B1
:10548000682F7727637070706115710529F48EA1FC
:105490008F5F8EA3833010F4A996E6CFCF5ADF4FEB
:1054A00068837983C155D0401EA249855A856B8592
:1054B0007C8586E00E94291EEFCF8C8D9D8DAE8D60
:1054C000BF8D82179307A407B50780F02817390707
:1054D0004A075B0709F084CF88A199A1AAA1BBA1C3
:1054E000E816F9060A071B0708F47ACF8685978520
:1054F000082E892F902D8CA39DA32C8F3D8F4E8F2E
:105500005F8FE8A2F9A20AA31BA36ACFDF91CF9114
:105510001F910F91FF90EF90DF90CF90BF90AF90D1
:105520000895FF920F931F93CF93DF93EC01F62E14
:1055300000E010E08A8199278530910509F4C7C001
:10554000863091050CF095C08230910509F482C037
:1055500083309105E4F50097C9F0019731F001150A
:10556000110509F0B9C0FA82B7C083E0681719F0D5
:105570000FEF1FEFF4CF8F8582618F8740E050E0FF
:1055800060E070E0CE010E948D31E9CF862F99272F
:105590008130910521F3029759F78F8582608F87BB
:1055A000A801B801CE010E948D31892BC1F20FEF05
:1055B0001FEFCD5ADF4F80E597E288839983C3556B
:1055C000D040CE01895A9F4F0E946E61C8CF833070
:1055D000910539F1049719F6862F992785309105A1
:1055E00029F0069729F68F858161C7CF8F8588615D
:1055F0008F87A801B801CE010E948D31CE01CB96D4
:105600000E949E61CE0189960E949E61CE018B5AB6
:105610009F4F0E949E61CE01895A9F4F0E949E61BA
:105620009ECF862F99278430910581F08530910592
:1056300024F4019709F09CCF92CF8530910599F21F
:10564000069709F095CF8F85816097CFCE018B5A51
:105650009F4FBACF862F99278330910509F48BCFBE
:105660008430910534F3049709F082CF8F858861E7
:1056700084CF8830910509F47BCF89309105D4F42B
:105680008630910541F0079709F069CF8AE06817E5
:1056900009F06ECF64CF862F99278730910509F4E2
:1056A0005ECF873091050CF463CF0997029708F419
:1056B00056CF5ECF8930910521F00A9709F04FCF80
:1056C00057CF8AE0681791F20FEF1FEFCFCF88E036
:1056D000681709F04DCF87CFC801DF91CF911F9197
:1056E0000F91FF900895CF93DF93EC018A81882377
:1056F00081F461E0CE010E94912ACB5ADF4F40E055
:1057000050E060E070E0CE010E94BE6080E090E07A
:1057100006C0CD5ADF4F88E497E288839983DF91F2
:10572000CF9108950F931F938C0162E00E94912AFC
:10573000C801895A9F4F40E050E060E070E00E944D
:10574000BE60F8018281843019F480E090E002C0EC
:105750008FEF9FEF1F910F910895FC01892BB1F0FE
:105760008281992785309105CCF4833091058CF4A2
:10577000019734F0CF010E949F3380E090E01AC07F
:10578000ED5AFF4F89E497E2808391838FEF9FEF7B
:1057900011C066E0CF010E94912AEFCF85309105BC
:1057A00039F00B976CF7ED5AFF4F85E397E2ECCF9A
:1057B00068E0F0CF0895FC01892B61F0878588614E
:1057C000878740E050E0BA01CF010E948D3180E030
:1057D00090E002C08FEF9FEF0895CF93DF93EC012D
:1057E000CF5ADF4F88819981C155D0408D52914069
:1057F00088F42FA138A549855A856B857C8586E07C
:105800000E94291E892BF9F0EFA1F8A580819181D2
:105810008FA398A7C15BDF4F18821982CF54D04065
:1058200085E08A83C95ADF4FCE010E949E616C9742
:10583000CE010E949E616297CE010E949E61AC964D
:10584000CE010E949E61DF91CF9108950F931F9327
:10585000CF93DF938C01862FE90199278671907091
:10586000029721F0C9010E94DE320CC06F81788559
:10587000C8010E945C2963E0C8010E94912ACE0100
:105880000E949240DF91CF911F910F9108958F92C6
:105890009F92AF92BF92CF92DF92EF92FF920F93BF
:1058A0001F93CF93DF93EC015A014901C62EDD24EB
:1058B000C4FC3DC0C2FE1DC0C4FE12C0CB5ADF4FA7
:1058C00088819981C555D040892B71F4CD5ADF4F1D
:1058D0008DE497E288839983C355D04085E08A831D
:1058E000C4010E94924044C061E0CE010E94912A0E
:1058F000F7CFC1FEF5CFA501F40167817085CE0118
:105900000E945C29C4FE11C0F40141895289B5018D
:10591000CE010E94B82964E0CE010E94912AC95AA2
:10592000DF4FCE010E946E61DBCF63E0DECFFA0174
:1059300080859185A285B385082E8B2FB02D092EE9
:105940009A2FA02D288939894A895B892F5F3F4F7B
:105950004F4F5F4FE88CF98C0A8D1B8DBC01CD0138
:105960000E947633892B09F0A5CFC4010E94DE3254
:10597000DF91CF911F910F91FF90EF90DF90CF902B
:10598000BF90AF909F908F9008958F929F92AF920B
:10599000BF92CF92DF92EF92FF920F931F93CF931C
:1059A000DF936C014A01E901A62EBB24A2FC51C081
:1059B000A4FC04C0CE010E94924050C0FA01808530
:1059C0009185A285B385082E8B2FB02D092E9A2F95
:1059D000A02DF60124893589468957892F5F3F4FCD
:1059E0004F4F5F4FE08CF18C028D138DBC01CD01C8
:1059F0000E947633892B11F0A1FE04C0CE010E94D3
:105A0000DE322CC049895A89B401C6010E94B829E6
:105A100089899A89892BC1F4CE010E949240A0FE07
:105A200011C0F60187A590A9A1A9B2A90196A11D4F
:105A3000B11D87A790ABA1ABB2AB65E0C6010E94D8
:105A4000912A0CC064E0FACFBE01C6010E94DA2898
:105A5000E3CF61E0C6010E94912AACCFDF91CF91E4
:105A60001F910F91FF90EF90DF90CF90BF90AF907C
:105A70009F908F9008954F925F926F927F928F9236
:105A80009F92AF92BF92CF92DF92EF92FF920F93CD
:105A90001F93CF93DF936C01F62E4A015901862F95
:105AA000992782FD3DC184FF37C18C0102701070BF
:105AB00081FF1AC0EA018C819D81AE81BF81082ED1
:105AC0008B2FB02D092E9A2FA02DF60123A534A5DA
:105AD00045A556A582179307A407B50709F442C147
