:100000000C9446000C948A360C94B0360C94D63678
:100010000C94FC360C9422370C9448370C946E37B1
:100020000C9494370C94BA370C94E0370C9406383F
:100030000C942C380C9452380C9478380C949E38CC
:100040000C94C4380C94EA380C945C390C9436390E
:100050000C9410390C9482390C94A8390C94CE3934
:100060000C94F4390C941A3A0C94403A0C94663A75
:100070000C948C3A0C94B23A0C94D83A0C94FE3A04
:100080000C94243B0C944A3B0C94703B11241FBEEF
:10009000CFEFD0E1DEBFCDBF14E0A0E0B1E0E4EBF4
:1000A000F8E900E00BBF02C007900D92A633B1073C
:1000B000D9F71CE0A6E3B4E001C01D92A630B10759
:1000C000E1F70C9448020C940000AA24BB244501DB
:1000D000E50140E0B50182E693E00E947D418EE0BB
:1000E00091E00E94A7419093D10B8093D00B46E002
:1000F00051E061E071E00E94364284E191E00E94AB
:10010000D43E80E391E00E94D43E45E060E073E895
:1001100080EA93E00E947D4181E591E00E94E01336
:100120007B018C018FE591E00E94E013DC01CB01A3
:100130009C01AD0160E071E08CE691E00E94DC176B
:1001400081E791E00E94E013DC01CB0120EAC22E9E
:1001500023E0D22E7C018D0120E030E040E050E031
:10016000CA01B9010E94BD128DE791E00E94E0131F
:10017000DC01CB019C01AD01B501C5010E943A240F
:1001800089E891E00E949724DC01CB018093D40B95
:100190009093D50BA093D60BB093D70B0E94B603C8
:1001A0009093D30B8093D20B892B51F48EE991E07D
:1001B0000E94D43E68E873E180E090E00E944846E7
:1001C0008091D20B9091D30B0E94D9029093D90BBE
:1001D0008093D80B892B29F486EB91E00E94D43EC2
:1001E000EFCF80ED91E00E94D43E69E170E0809114
:1001F000D20B9091D30B0E9440058114910489F495
:1002000068EE71E08091D80B9091D90B0E94013C6F
:100210008091D80B9091D90B0E94923E91E0892E4B
:10022000912C209709F0A7C04FEF53E066E374E0EC
:100230008091D80B9091D90B0E94F24186E394E013
:100240000E94FF4BA114B10409F0B0C06FEF71E040
:1002500086E394E00E94E74B892B09F49DC064E09B
:1002600072E08091D80B9091D90B0E94013C809153
:10027000D80B9091D90B0E94923E66E572E086E31E
:1002800094E00E94E74B892BB1F06CE572E086E3C5
:1002900094E00E94E74B892B71F065E672E0809153
:1002A000D80B9091D90B0E94013C8091D80B909172
:1002B000D90B0E94923E68E772E086E394E00E94C8
:1002C000E74B892B71F06DE772E08091D80B90912C
:1002D000D90B0E94013C8091D80B9091D90B0E94C0
:1002E000923E65E972E086E394E00E94E74B892B39
:1002F00071F06AE972E08091D80B9091D90B0E945D
:10030000013C8091D80B9091D90B0E94923E60EBFA
:1003100072E086E394E00E94E74B892B89F081E04C
:10032000A82EB12C65EB72E08091D80B9091D90B7F
:100330000E94013C8091D80B9091D90B0E94923E73
:1003400065ED72E086E394E00E94E74B892B81F033
:100350006AED72E08091D80B9091D90B0E94013C1C
:100360008091D80B9091D90B0E94923EC1E0D0E0D1
:10037000209709F459CF8091D80B9091D90B0E9406
:100380000A038091D20B9091D30B0E94570660E62E
:100390007AEE80E090E012CF60E073E086E394E0D4
:1003A0000E94E74B892B09F05ACF67CF4FEF53E0FC
:1003B00066E374E08091D20B9091D30B0E94B70555
:1003C00086E394E00E94D43E85E093E00E94D43E10
:1003D00068E073E08091D80B9091D90B0E94013CAA
:1003E0008091D80B9091D90B0E94923EAA24BB24F5
:1003F000BFCF0E94594720E033E040E050E065E67F
:1004000070E080E293E00E94B9498FEF0E94784942
:100410000E943249FDCF43E050E060E070E08AED99
:100420009BE00E94864B8091DA0B833021F480910F
:10043000DB0B8F3419F08FEF9FEF06C08091DC0B40
:100440008335C9F780E090E008950F931F93CF9311
:10045000DF9383E08093DA0B8FE48093DB0B83E5FB
:100460008093DC0B0AED1BE0C0E0D0E0F801819145
:100470008F01682FCE010E94974B2196C330D10582
:10048000A8F380E090E0DF91CF911F910F91089544
:10049000CFEFD0E1DEBFCDBF0E940B02892B41F52B
:1004A00080EC85BF8FEF90E186509C408158914051
:1004B000ACF485E58093FE7F8AEA8093FF7F80918C
:1004C000FE7F8535C1F48091FF7F8A3AA1F460E018
:1004D0007FE680E091E10E947A4B0DC08FEF9FE0B4
:1004E00086509C40BC0186E09CE00E947A4BE1CFA4
:1004F0000E942502D5CF20E831E040E050E069EFCE
:1005000071E085E293E00E94B94980E090E00C94AC
:10051000594CCF93DF93FC01C785D0891F82218975
:100520003289CE010C9640E051E0BC01C9010E9425
:10053000B7051816190624F48E8380E090E001C0F8
:100540001E82DF91CF910895EF92FF921F93CF9378
:10055000DF93FC01C785D0892985222331F0E1880A
:10056000F28810E0121720F0198680E090E018C0A1
:100570003327812F9927281B390B8C0F9D1F845FF0
:100580009E4FA901BC01C7010E944B0597FF03C004
:100590008FEF9FEF05C0180F2985121748F3E4CF9E
:1005A000DF91CF911F91FF90EF9008950E94A402D8
:1005B00008950F931F93CF93DF938C0187E190E011
:1005C0000E94EC4AEC01892BF9F082E08B87098BC1
:1005D0001A8B8CE092E00E94EC4A8C018F87988BFA
:1005E000892B71F089E892E0F8018083918384EA95
:1005F00092E08283938386ED92E08483958304C0A6
:10060000CE010E94014BE801CE01DF91CF911F91F5
:100610000F9108950F931F938C010E94D602F80149
:10062000878590890E94014BC8010E94014B80E0A0
:1006300090E01F910F910895CF93DF93EC01E0912B
:100640003608F0913708A6E3B8E0309749F0EC1788
:10065000FD07D1F1DF010190F081E02D3097B9F76E
:10066000EF2BB9F189AD9AAD009739F5EFA1F8A557
:10067000309759F0808191818FA398A7CF010E9474
:100680003B27EFA1F8A53097A9F7EDADFEAD309768
:1006900059F0808191818DAF9EAFCF010E943B27A1
:1006A000EDADFEAD3097A9F785E6FE0111928A9572
:1006B000E9F7CE010E94014B0CC00E94014B1DAA1C
:1006C0001EAA19AE1AAED2CF888199818D939C93C0
:1006D000C7CFDF91CF9108950F931F93CF93DF93EF
:1006E0008C01EB0160E070E0E0913608F091370892
:1006F000309751F08781908580179107F1F0019034
:10070000F081E02D3097B1F76115710549F5E09161
:100710003608F0913708309719F18281813031F035
:100720000190F081E02D3097C1F71AC08781908544
:1007300080179107A9F7BF01F3CF81859285A38523
:10074000B48582179307A407B507C9F685859685F2
:100750008C179D07A1F68281882389F2BF01D4CF2F
:10076000CB01DF91CF911F910F9108951F93CF93EC
:10077000DF93C0E0D0E080913808882351F4182F2F
:100780000E94FE0E892B09F411E010933808112302
:10079000E1F185E690E00E94EC4AEC01892BA9F199
:1007A0001A8280E492E4AFE0B0E0888B998BAA8B48
:1007B000BB8B8C8B9D8BAE8BBF8B888F998FAA8FB9
:1007C000BB8F80E99CE08BAB9CAB8FAB98AFEF9677
:1007D00088E192E08993999383E090E0A0E0B0E013
:1007E00088839983AA83BB83289688839983AA8365
:1007F000BB83C954D04080913608909137088883D4
:100800009983D0933708C0933608CE01DF91CF91FA
:100810001F910895FC01DA014FEF5FEF892B09F476
:1008200051C080E16230780709F440C080E1633054
:100830007807E4F46230710539F0ED5AFF4F8AE32E
:1008400097E2808391833EC0109719F022303105E2
:1008500029F0ED5AFF4F86E190E0F3CFFF968D919E
:100860009C918083918340E050E02CC080E1653012
:100870007807A1F06650704101F7109751F32430CA
:10088000310539F7E75AFF4F8D919D910D90BC913D
:10089000A02D80839183A283B383E5CF1097C9F203
:1008A00024303105B1F6E35AFF4FEECF109789F2AD
:1008B0002230310571F68D919C9187AB90AF83AB5F
:1008C00094ABD1CFCA010895CF93DF93FC01EA0125
:1008D0004FEF5FEF892B09F44CC080E1623078075D
:1008E00009F43FC080E163307807E4F462307105B9
:1008F00039F0ED5AFF4F8AE397E28083918339C044
:10090000209719F02230310529F0ED5AFF4F86E18A
:1009100090E0F3CFFF96808191818883998340E0B6
:1009200050E027C080E16530780799F0665070414B
:1009300001F7209751F32430310539F7E75AFF4F7B
:1009400080819181A281B38188839983AA83BB83AB
:10095000E6CF2097D1F224303105B9F6E35AFF4FA4
:10096000EFCF209791F22230310579F687A990AD2B
:10097000D4CFCA01DF91CF910895EF92FF920F93E8
:100980001F93CF93DF93EC017A018B01A901892B8F
:1009900009F462C08A81813009F466C08A818823A3
:1009A00009F05DC080912A0390912B0301969093EA
:1009B0002B0380932A0380912A0390912B03892B88
:1009C00031F480E090E190932B0380932A03E0912F
:1009D0003608F0913708309771F027813085809183
:1009E0002A0390912B032817390729F00190F081F1
:1009F000E02D309791F73097A9F680912A039091D6
:100A00002B03082E892F902D8F839887042E452F36
:100A1000502D4D875E87E986FA860B871C87AF01CC
:100A2000C801B7010E94AF13FC01892B79F007843C
:100A3000F089E02D81859285A385B4858B839C8385
:100A4000AD83BE83CE010E941E0913C0CD5ADF4F75
:100A500081E597E2888399838FEF9FEF0AC0CD5A93
:100A6000DF4F88E497E2F6CFCD5ADF4F8DE397E270
:100A7000F1CFDF91CF911F910F91FF90EF900895EB
:100A8000FC01CB01082E892F902D87839087CF0101
:100A90000E94FF080895CF92DF92EF92FF920F938A
:100AA0001F93CF93DF93EC016B018A01892B09F42B
:100AB00043C08A818430D1F5672B09F440C04115C9
:100AC0005105E9F19FE3E92EF12CEC0EFD1EF70133
:100AD000808191818417950708F48C01488D598D88
:100AE0008C899D89481B590B9A0136952795369517
:100AF0002795F701808191818217930738F08CA1A7
:100B00009DA1841B950B80179107E0F4FE01E35A29
:100B1000FF4F4081518162817381CE0189960E948D
:100B20008347892B61F48A818430C1F2CD5ADF4F2B
:100B300089E497E2888399834FEF5FEF0EC040E02E
:100B400050E00BC08F8580618F87A801B601CE0170
:100B50000E94190F892B81F7A801CA01DF91CF915B
:100B60001F910F91FF90EF90DF90CF900895EF923B
:100B7000FF920F931F93CF93DF93EC018B017A01C8
:100B8000892B09F48AC08A81843021F08A818530DA
:100B900009F07DC00115110509F476C0E114F104D6
:100BA00009F472C08DA99EA9892BB1F48A81843081
:100BB00009F06DC0FE01E75AFF4F4081518162810B
:100BC0007381CE01CB960E948347892B09F05CC0CC
:100BD0008DA99EA9892B51F38DA99EA98E159F05DC
:100BE00008F47C01E114F10411F4A70158C089ADA7
:100BF0009AADA701BC01C8010E94A24B0DA91EA974
:100C00000E191F090DAB1EAB01151105B1F120E046
:100C100030E02017310798F4A701E9ADFAADDF0104
:100C2000A20FB31FE40FF51F80818C934F5F5F4FBE
:100C30002F5F3F4F8DA99EA92817390770F38A812E
:100C4000843099F62BA93CA9A9012E0D3F1D8FA92F
:100C500098AD8217930708F49C01EF9688819981DB
:100C6000EF974817590718F02BAB3CABBECF2BAB17
:100C70003CABCE010E946709B8CF89AD9AAD0E9406
:100C8000014B09AF1AAFDBCF40E050E008C0CD5AAE
:100C9000DF4F89E497E2888399834FEF5FEFCA01C2
:100CA000DF91CF911F910F91FF90EF9008950E94D7
:100CB00039090895FC01892B29F0ED5AFF4F8081F5
:100CC000918102C086E397E208950895EF92FF9222
:100CD0000F931F93CF93DF93EC018B01FB01E1880E
:100CE000F2888DA99EA9E80EF91E8FA998ADE81685
:100CF000F90608F066C089AD9AAD892B09F44FC09A
:100D0000A9ADBAAD109709F45CC08DA99EA9A80F32
:100D1000B91FF8012785308981899289AC01B90111
:100D2000CD010E94A24BEDAAFEAAF8016189728949
:100D30009B01442755278FA598A9A9A9BAA9820F75
:100D4000931FA41FB51F8FA798ABA9ABBAAB8BA9F4
:100D50009CA968177907F0F01BAA1CAAF8018081EA
:100D60009181892BA1F48091DF0B9091E00B892B6D
:100D700071F48F8588618F87CE01CB960E943348AE
:100D800040E050E0BA01CE010E94190F1AC08F85D1
:100D90008061F1CF861B970B8BAB9CABDFCF0E94A2
:100DA000814B9C014FA958ADCA018050984F8217C2
:100DB000930708F0A5CFCA010E94784A89AF9AAF7D
:100DC0009FCFDF91CF911F910F91FF90EF900895EA
:100DD000CF93DF93EC01FB0180899189A289B389CC
:100DE0008B839C83AD83BE83FA01808191818D8743
:100DF0009E87FB0184859585A685B78589879A8717
:100E0000AB87BC87FA0184819581A681B781082EC2
:100E10008B2FB02D092E9A2FA02D8BA79CA7ADA7A5
:100E2000BEA78C8F9D8FAE8FBF8F0196A11DB11D68
:100E30008FA798ABA9ABBAAB86859785082E892F6B
:100E4000902D8CA39DA340E050E0FB016485758547
:100E5000868597850E94AF13FC01892B91F007844A
:100E6000F089E02D858D968D8897FE01FF96208173
:100E700031812115310519F08217930710F4808311
:100E80009183DF91CF910895AF92BF92CF92DF927D
:100E9000EF92FF920F931F93CF93DF93EC01FB012F
:100EA000BA01E084F184028513850E2CE12E102D09
:100EB0000F2CF02E002D888D998DAA8DBB8D8E154F
:100EC0009F05A007B10720F48F8588618F87AAC08E
:100ED0002481358146815781022E252F502D032EE6
:100EE000342F402DAC88BD88CE88DF88EA14FB04FF
:100EF0000C051D0509F46DC0EA14FB040C051D0565
:100F000008F456C0EA14FB040C051D0509F43CC0A6
:100F10001EA2EC8AFD8A0E8B1F8B6FA178A561152E
:100F2000710549F1FB01A385B48514968D919D91BE
:100F30000D90BC91A02D082E8B2FB02D092E9A2F2D
:100F4000A02DFB012189328944275527820F931F49
:100F5000A41FB51FE816F9060A071B0760F0808179
:100F600091818FA398A7CB010E943B276FA178A501
:100F700061157105B9F6CF5ADF4F18821982A8970B
:100F8000CE010E9433484EC02FA138A5211531054E
:100F900079F0672B69F48585682F77276370707007
:100FA0006115710529F48EA18F5F8EA3833010F433
:100FB000A996E6CFCF5ADF4F68837983C155D040D9
:100FC0001EA249855A856B857C8586E00E942B117F
:100FD000EFCF8C8D9D8DAE8DBF8D82179307A407AB
:100FE000B50780F0281739074A075B0709F084CF57
:100FF00088A199A1AAA1BBA1E816F9060A071B07B7
:1010000008F47ACF86859785082E892F902D8CA39A
:101010009DA32C8F3D8F4E8F5F8FE8A2F9A20AA36C
:101020001BA36ACFDF91CF911F910F91FF90EF909B
:10103000DF90CF90BF90AF900895FF920F931F93D2
:10104000CF93DF93EC01F62E00E010E08A81992720
:101050008530910509F4C7C0863091050CF095C024
:101060008230910509F482C083309105E4F5009740
:10107000C9F0019731F00115110509F0B9C0FA82E4
:10108000B7C083E0681719F00FEF1FEFF4CF8F851B
:1010900082618F8740E050E060E070E0CE010E9406
:1010A000190FE9CF862F99278130910521F30297F7
:1010B00059F78F8582608F87A801B801CE010E9401
:1010C000190F892BC1F20FEF1FEFCD5ADF4F80E5CB
:1010D00097E288839983C355D040CE01895A9F4FA8
:1010E0000E943348C8CF8330910539F1049719F62F
:1010F000862F99278530910529F0069729F68F8547
:101100008161C7CF8F8588618F87A801B801CE0123
:101110000E94190FCE01CB960E946348CE0189969A
:101120000E946348CE018B5A9F4F0E946348CE01B4
:10113000895A9F4F0E9463489ECF862F99278430FB
:10114000910581F08530910524F4019709F09CCF39
:1011500092CF8530910599F2069709F095CF8F854A
:10116000816097CFCE018B5A9F4FBACF862F992798
:101170008330910509F48BCF8430910534F30497C3
:1011800009F082CF8F85886184CF8830910509F47A
:101190007BCF89309105D4F48630910541F00797D3
:1011A00009F069CF8AE0681709F06ECF64CF862F07
:1011B00099278730910509F45ECF873091050CF4AB
:1011C00063CF0997029708F456CF5ECF8930910517
:1011D00021F00A9709F04FCF57CF8AE0681791F2B4
:1011E0000FEF1FEFCFCF88E0681709F04DCF87CF03
:1011F000C801DF91CF911F910F91FF900895CF9378
:10120000DF93EC018A81882381F461E0CE010E94A2
:101210001D08CB5ADF4F40E050E060E070E0CE01A7
:101220000E94834780E090E006C0CD5ADF4F88E4FB
:1012300097E288839983DF91CF9108950F931F934D
:101240008C0162E00E941D08C801895A9F4F40E04E
:1012500050E060E070E00E948347F80182818430B2
:1012600019F480E090E002C08FEF9FEF1F910F9183
:101270000895FC01892BB1F0828199278530910571
:10128000CCF4833091058CF4019734F0CF010E94A7
:101290001C0380E090E01AC0ED5AFF4F89E497E20A
:1012A000808391838FEF9FEF11C066E0CF010E9492
:1012B0001D08EFCF8530910539F00B976CF7ED5A8B
:1012C000FF4F85E397E2ECCF68E0F0CF0895FC0193
:1012D000892B61F087858861878740E050E0BA01FB
:1012E000CF010E94190F80E090E002C08FEF9FEFC6
:1012F0000895CF93DF93EC01CF5ADF4F8881998116
:10130000C155D0408D52914088F42FA138A5498510
:101310005A856B857C8586E00E942B11892BF9F01C
:10132000EFA1F8A5808191818FA398A7C15BDF4FC2
:1013300018821982CF54D04085E08A83C95ADF4F82
:10134000CE010E9463486C97CE010E946348629769
:10135000CE010E946348AC96CE010E946348DF91A3
:10136000CF9108950F931F93CF93DF938C01862F16
:10137000E901992786719070029721F0C9010E94B6
:101380006A100CC06F817885C8010E94E80663E08E
:10139000C8010E941D08CE010E943B27DF91CF911A
:1013A0001F910F9108958F929F92AF92BF92CF920B
:1013B000DF92EF92FF920F931F93CF93DF93EC0195
:1013C0005A014901C62EDD24C4FC3DC0C2FE1DC029
:1013D000C4FE12C0CB5ADF4F88819981C555D040D9
:1013E000892B71F4CD5ADF4F8DE497E2888399837E
:1013F000C355D04085E08A83C4010E943B2744C086
:1014000061E0CE010E941D08F7CFC1FEF5CFA50116
:10141000F40167817085CE010E94E806C4FE11C008
:10142000F40141895289B501CE010E94440764E06C
:10143000CE010E941D08C95ADF4FCE010E943348D9
:10144000DBCF63E0DECFFA0180859185A285B3858D
:10145000082E8B2FB02D092E9A2FA02D288939897F
:101460004A895B892F5F3F4F4F4F5F4FE88CF98C64
:101470000A8D1B8DBC01CD010E940211892B09F040
:10148000A5CFC4010E946A10DF91CF911F910F91E7
:10149000FF90EF90DF90CF90BF90AF909F908F9094
:1014A00008958F929F92AF92BF92CF92DF92EF9268
:1014B000FF920F931F93CF93DF936C014A01E901D1
:1014C000A62EBB24A2FC51C0A4FC04C0CE010E94E5
:1014D0003B2750C0FA0180859185A285B385082EEF
:1014E0008B2FB02D092E9A2FA02DF6012489358936
:1014F000468957892F5F3F4F4F4F5F4FE08CF18CEC
:10150000028D138DBC01CD010E940211892B11F0B7
:10151000A1FE04C0CE010E946A102CC049895A89DC
:10152000B401C6010E94440789899A89892BC1F4B4
:10153000CE010E943B27A0FE11C0F60187A590A90D
:10154000A1A9B2A90196A11DB11D87A790ABA1AB1E
:10155000B2AB65E0C6010E941D080CC064E0FACF82
:10156000BE01C6010E946606E3CF61E0C6010E948B
:101570001D08ACCFDF91CF911F910F91FF90EF909D
:10158000DF90CF90BF90AF909F908F9008954F9233
:101590005F926F927F928F929F92AF92BF92CF9203
:1015A000DF92EF92FF920F931F93CF93DF936C0123
:1015B000F62E4A015901862F992782FD3DC184FFED
:1015C00037C18C010270107081FF1AC0EA018C8152
:1015D0009D81AE81BF81082E8B2FB02D092E9A2FB1
:1015E000A02DF60123A534A545A556A5821793077E
:1015F000A407B50709F442C1C5010E946A103EC1A3
:10160000E90149895A89B401C6010E944407F401DD
:101610002481358146815781DA01C901082E8B2F3B
:10162000B02D092E9A2FA02DE6014FA458A869A825
:101630007AA8481659066A067B0608F06DC0F501BF
:1016400081899289892B09F45CC06DAD7EAD8DE3F3
:10165000682E712C6C0C7D1C6115710509F43CC061
:10166000EB01EB85FC85E401EC80FD800E811F81A0
:10167000A8019701022E252F502D032E342F402D27
:10168000C481D5810680F781E02DCE01DF01082ECF
:101690008B2FB02D092E9A2FA02D281739074A0716
:1016A0005B0708F432C00E2CE12E102D0F2CF02E0B
:1016B000002D0C2ECF2FF02D0D2EDE2FE02DEC1651
:1016C000FD060E071F07E9F03B01FB0160817181F8
:1016D0006115710509F0C4CF6115710559F0E60176
:1016E0008F8588618F8740E050E0BA01C6010E9473
:1016F000190FC4C0E301A882B982F5016083718328
:10170000EECFC5010E943B27EACFE301A882B98250
:10171000F50160837183E0CF022E252F502D032E1B
:10172000342F402D241535054605570561F1F60186
:101730008F8588618F87EF59FF4F80819181A281CA
:10174000B3810196A11DB11D80839183A283B383D0
:10175000C5010E943B27A801B801C6010E94190FCC
:10176000F0FE8CC0F60187A590A9A1A9B2A90196A7
:10177000A11DB11D87A790ABA1ABB2AB65E0C601BF
:101780000E941D087BC0F50181899289892B09F48B
:101790004BC0B501C6010E946606C5010E943B27E9
:1017A000E601ADACBEACA114B104D1F2F501838465
:1017B0009484E4018C819D81AE81BF819C01AD0147
:1017C000082E8B2FB02D092E9A2FA02DF60147A49D
:1017D00050A861A872A8481659066A067B0608F444
:1017E000BFCFE5018881998185AF96AF022E252F65
:1017F000502D032E342F402D241535054605570551
:1018000058F4C5010E943B27E601ADACBEACA11463
:10181000B10409F0CBCFA4CFB501C6010E94660682
:10182000F4018585F82AEDCFC5010E943B2798CFAA
:10183000C9010E943B2722C085E0E6018A83C901D5
:101840000E943B27EBE3F0E0CE0EDF1EC6010E94B4
:1018500063488EEE9FEFC80ED91EC6010E946348F2
:10186000CCE2D0E0CC0EDD1EC6010E946348E2E06F
:10187000F0E0CE0EDF1EC6010E946348DF91CF91DB
:101880001F910F91FF90EF90DF90CF90BF90AF909E
:101890009F908F907F906F905F904F900895CF9220
:1018A000DF92EF92FF920F931F93CF93DF938C0100
:1018B000862FBA01E901E82EFF24E2FC40C0E4FED5
:1018C0003AC092E0C92ED12CCE20DF20E1FE04C028
:1018D000C9010E946A1039C049895A89C8010E9409
:1018E000440769E0C8010E941D0889899A89892BEB
:1018F000E9F4CE010E943B27E0FE27C0F80187A54E
:1019000090A9A1A9B2A90196A11DB11D87A790AB6D
:10191000A1ABB2AB015B1F4FF801C082D1820F5463
:1019200010406AE0C8010E941D080FC0BE01C80136
:101930000E946606DECFC9010E943B2706C0C9018E
:101940000E943B27C8010E941C03DF91CF911F9189
:101950000F91FF90EF90DF90CF900895CF92DF929C
:10196000EF92FF920F931F93CF93DF938C01862FFB
:10197000BA01E901E82EFF24E2FC3CC0E4FE36C0D7
:1019800022E0C22ED12CCE20DF20E1FE04C0CE0109
:101990000E946A1035C049895A89C8010E944407CB
:1019A00089899A89892BE9F4CE010E943B27E0FEC0
:1019B00027C0F80187A590A9A1A9B2A90196A11DE8
:1019C000B11D87A790ABA1ABB2AB015B1F4FF80174
:1019D000C082D1820F5410406AE0C8010E941D08E5
:1019E0000FC0BE01C8010E946606DECFC9010E9479
:1019F0003B2706C0C9010E943B27C8010E941C0367
:101A0000DF91CF911F910F91FF90EF90DF90CF90DA
:101A10000895CF93DF93FC01862FBA01E901282FA7
:101A2000332722FD0DC024FF0BC021FF04C0CE01CF
:101A30000E946A1008C049895A89CF010E94440750
:101A4000CE010E943B27DF91CF910895EF92FF9244
:101A50000F931F93CF93DF93EC01862FBA01890177
:101A6000992782FD21C084FF1BC032E0E32EF12CB8
:101A7000E822F92281FF04C0C8010E946A101AC03E
:101A8000F80141895289CE010E944407C15BDF4FB2
:101A9000E882F982CF54D0406AE0CE010E941D084E
:101AA000C8010E943B2706C0C9010E943B27CE0106
:101AB0000E941C03DF91CF911F910F91FF90EF9037
:101AC00008950F931F93CF93DF938C01862FBA0154
:101AD000E901992782FD0DC084FF12C081FF04C077
:101AE000C9010E946A100FC049895A89C8010E9421
:101AF0004407CE010E943B27C8010E941C0303C07B
:101B0000C9010E943B27DF91CF911F910F9108954A
:101B10000F931F93CF93DF938C01FB01A385B485B3
:101B20001D966C911D97EC018A819927853091054E
:101B300009F458C0863091057CF58230910531F169
:101B40008330910594F4009761F0019721F0CF0163
:101B50000E943B274CC09F01AD01C8010E94B20901
:101B600046C0CF010E946A1042C08330910541F007
:101B7000049769F79F01AD01C8010E94C70A37C0E9
:101B80009F01AD01C8010E94510A31C09F01AD0102
:101B9000C8010E94D3092BC088309105E9F0893033
:101BA00091058CF48630910541F0079781F69F01ED
:101BB000AD01C8010E94260D1AC09F01AD01C801E8
:101BC0000E944F0C14C0099709F0C1CF9F01AD01CD
:101BD000C8010E94AE0C0BC09F01AD01C8010E945C
:101BE000610D05C09F01AD01C8010E94090DDF9183
:101BF000CF911F910F91089548EC50E060E070E0A4
:101C000081EE9BE00E948347892B09F466C0C09156
:101C10003608D0913708209779F38F8584FF08C064
:101C200088608F8740E050E0BA01CE010E94190F12
:101C30008FA198A5892B99F08A81843009F442C03C
:101C4000FE01EF5AFF4F808191810196808391833D
:101C50008F709070892B19F4CE010E9479098A81C6
:101C60008A3001F18A818630E9F08A818930D1F0A9
:101C70008A81833031F00990D881C02D209769F690
:101C8000BBCFFE01E15BFF4F808191819C010196FA
:101C9000808391832D32310570F381E08A83108235
:101CA0001182E9CFFE01E15BFF4F808191819C01B0
:101CB00001968083918329303105E8F2CE010E949C
:101CC0001C039ACFFE01EF5AFF4F8081918101964C
:101CD0008083918383709070BDCF0091DF0B109152
:101CE000E00B1092E00B1092DF0B1092DE0B1092C3
:101CF000DD0B0115110509F47FCFE801EF81F885AF
:101D0000AB85BC8524853585468557856D917C914D
:101D1000119712968D919C9113970E946C03EC0180
:101D2000F801E080F180009759F0B8010E94650643
:101D3000B801CE010E94880D8701EF28F1F65CCF33
:101D4000C8010E946A10F8CFCF92DF92EF92FF9203
:101D50000F931F93CF93DF93EC0118821982C090E9
:101D6000DF0BD090E00BC114D104D1F1E984FA84E7
:101D70008D859E85E80EF91E89899A89E80EF91EDF
:101D80000091DD0B1091DE0B0E0D1F1D0050184F42
:101D90000E94814B08171907F8F48091DD0B909190
:101DA000DE0B8E0D9F1D9093DE0B8093DD0BF601F5
:101DB00080819181892B41F0F601C080D180F601AC
:101DC00080819181892BC1F7F601C083D18381EE97
:101DD0009BE00E94334809C0CE010E943B2705C00A
:101DE0009093E00B8093DF0BF2CFDF91CF911F91A7
:101DF0000F91FF90EF90DF90CF90089540913908B8
:101E000050913A084115510519F080E090E010C05A
:101E100020E034E06CEF7DE08CE293E00E94B94971
:101E200090933A0880933908892B79F78FEF9FEFC9
:101E300008958F929F92AF92BF92CF92DF92EF92CE
:101E4000FF920F93CF93DF93EC017B014A01411581
:101E5000510539F48F8599278B709070892B09F47F
:101E60002CC104E18F8581FD08E1802F9927AC0109
:101E700060E480E090E00E94CA255C01009709F4CC
:101E80000EC1FC01C384D4848F819885F6018083C0
:101E900091838D859E8582839383000F000F8485B7
:101EA0008F70802B84878F85877F8F87888D998D12
:101EB000AA8DBB8D082E8B2FB02D092E9A2FA02D09
:101EC00084839583A683B7838F8584FFEFC080E1E9
:101ED00085878F858F7E8F878FA598A9A9A9BAA995
:101EE000082E8B2FB02D092E9A2FA02D8087918739
:101EF000A287B3878F85992781FF96C0F6018585D4
:101F0000826085878F858D7F8F87888D998DAA8D3B
:101F1000BB8D0196A11DB11D888F998FAA8FBB8F94
:101F200082E0848B84E0858BEF9688819981EF979E
:101F3000082E892F902D868B978B2BA93CA9EF9685
:101F400088819981EF972817390708F066C0F60154
:101F500016861786F601108A118A128A138AF501ED
:101F60008585968521893289820F931F082E892FB6
:101F7000902D7C0106E029853A854B855C856B8137
:101F80007C818D819E810E947A12F501458556855E
:101F9000B6010E943A12F50141895289678570891C
:101FA0000E947512F601808B918B950149855A85A7
:101FB0006B857C85802F0E942B119C01892B39F524
:101FC000892839F4F6018585992783709070892BCB
:101FD000D1F0F50120833183EFA1F8A5309781F08E
:101FE00080819181892B39F00190F081E02D8081F1
:101FF0009181892BC9F7A082B18240E050E05DC099
:10200000AFA2B8A6FACFC5010E943B27F6CFC50103
:102010000E943B274FEF5FEF50C0022E232F302D41
:10202000F6012687378796CF81149104A9F480FFA3
:1020300084CFF6018585816085878F858E7F8F8728
:10204000888D998DAA8DBB8D0196A11DB11D888F9C
:10205000998FAA8FBB8F71CFA40160E8C5010E9440
:10206000CA255C010097D9F0FC0187859089A401FD
:10207000B7010E94A24B940144275527888D998D62
:10208000AA8DBB8D820F931FA41FB51F888F998FB8
:10209000AA8FBB8FF6018585886085874ECFCD5A84
:1020A000DF4F87E497E288839983B4CFF6011586E2
:1020B00010861186128613861DCFCA01DF91CF913B
:1020C0000F91FF90EF90DF90CF90BF90AF909F90D7
:1020D0008F900895AF92BF92CF92DF92EF92FF92CE
:1020E0000F93CF93DF936C01FC01A780B084C3856D
:1020F000D4858D8599279C012470307082FD73C032
:10210000F601218B328B84E190E0858796872881C8
:1021100039818A819B81888399832A833B838D853A
:10212000992784FF3BC084E08D8788859985AA859F
:10213000BB858C839D83AE83BF83188619861A86E0
:102140001B8680E58C871E861F861A8A1B8A188A42
:10215000198AF60185859685082E892F902D7C0198
:1021600006E0F501248535854685578560897189A6
:10217000828993890E947A12F60145855685BE01AF
:102180000E947512888B998B9601F50144855585BF
:1021900066857785802F0E942B1125C081FF1EC088
:1021A0008C819D81AE81BF81082E8B2FB02D092E91
:1021B0009A2FA02D0196A11DB11D082E8B2FB02D99
:1021C000092E9A2FA02D88879987AA87BB871C8202
:1021D0001D821E821F8284E18D87B3CF8C819D81F9
:1021E000AE81BF81F0CFC6010E943B2780E090E026
:1021F000DF91CF910F91FF90EF90DF90CF90BF9044
:10220000AF900895EF92FF920F931F93E216F3069B
:102210000407150780F0621773078407950740F0DD
:10222000E616F7060807190718F081E090E00EC0DF
:1022300080E090E00BC02617370748075907C0F326
:102240006E157F058007910798F3EFCF1F910F91CF
:10225000FF90EF9008956F927F928F929F92AF922E
:10226000BF92CF92DF92EF92FF920F931F93CF9383
:10227000DF93CDB7DEB72A970FB6F894DEBF0FBE57
:10228000CDBF182F3A014B0144E150E060E2C90193
:102290000E94CA255C01009709F46AC0FC01E7802E
:1022A000F08485E4F70180831182F50181859285B0
:1022B00025853685820F931F21893289820F931FCE
:1022C000082E892F902DF70182839383168217821F
:1022D00080E480871187608A718A828A938AFFEFFF
:1022E0006F16FFEF7F06FFEF8F06FFEF9F0609F4E3
:1022F0005FC0AE01495F5F4FC401B3010E94AF13DD
:102300006C010097A9F1FC0107851089F801878D00
:1023100090A19C010196878F90A3022E232F302D30
:10232000F70124833583F80181859285A385B485DF
:10233000F70184879587A687B78712861386F501EC
:10234000418552856781708580E090E00E9475121A
:10235000F70182879387F8018081863061F08731A9
:1023600039F4A50161E270E0C6010E9494296DC0B4
:102370008FEF9FEF6AC04F81588569857A85411537
:1023800051056105710511F4B401A3019E012F5F90
:102390003F4FC6010E94AF15892B51F79501AE0141
:1023A0004F5F5F4F60E078E0C6010E942D164DC080
:1023B00046E050E06FEF70E0CE0101960E94AB4B1B
:1023C000C090B50BD090B60BC114D10451F0F601FA
:1023D0008385833049F0F601C080D180C114D104D7
:1023E000B1F780E090E031C007851089F801878D52
:1023F00090A19C010196878F90A3022E232F302D50
:10240000F70124833583F80181859285A385B485FE
:10241000F70184879587A687B78712861386F5010B
:10242000418552856781708580E090E00E94751239
:10243000F701828793879501AE014F5F5F4F60E0A0
:1024400078E0C6010E942D16C6CF2A960FB6F894E2
:10245000DEBF0FBECDBFDF91CF911F910F91FF90D7
:10246000EF90DF90CF90BF90AF909F908F907F9034
:102470006F900895CF93DF939B01FA01AC0166271B
:102480007727E901E230F10560F089919991AA2757
:10249000BB27480F591F6A1F7B1F3297E230F10597
:1024A000A0F7EF2B29F08881480F511D611D711D88
:1024B000CB01AA27BB270097A105B10591F0DB014D
:1024C000CA01A070B070AB0166277727480F591F6B
:1024D0006A1F7B1FCB01AA27BB270097A105B10567
:1024E00071F7CA01DF91CF9108950E943A12809549
:1024F00090950895EF92FF920F93CF93DF93CDB70E
:10250000DEB72C970FB6F894DEBF0FBECDBFDC014F
:10251000CB0189839A83AB83BC832D833E834F8316
:10252000588719860A87EB86FC864CE050E0BE018E
:102530006F5F7F4F80E090E00E943A122C960FB6BA
:10254000F894DEBF0FBECDBFDF91CF910F91FF900A
:10255000EF900895AF92BF92CF92DF92EF92FF92E9
:102560000F930E947A12809590950F91FF90EF90B3
:10257000DF90CF90BF90AF9008952F923F924F92EF
:102580005F926F927F928F929F92AF92BF92CF9203
:10259000DF92EF92FF920F931F93CF93DF93CDB70C
:1025A000DEB724970FB6F894DEBF0FBECDBF2B0168
:1025B0003C0149015A01E982FA820B831C838FEFA7
:1025C000E82EF82EEDE3F8E00FB6F89480818F5FE7
:1025D00080830FBE0FB60F92F89480913D08813032
:1025E00009F049C020903B0830903C080BE318E00C
:1025F00021143104D9F0F10186819781A085B1853C
:10260000281739074A075B0788F48101D1012D900B
:102610003C902114310451F0F10186819781A0850D
:10262000B18588169906AA06BB0678F380E190E08A
:102630000E94784A9C010097F1F0482059206A20B6
:102640007B20FC014282538264827582868297825B
:10265000A086B18689819A81AB81BC81828793876C
:10266000A487B587C686D78620823182D8012D936C
:102670003C93EE24FF240F900FBEEDE3F8E00FB67D
:10268000F8948081815080830FBEC70124960FB6D5
:10269000F894DEBF0FBECDBFDF91CF911F910F9198
:1026A000FF90EF90DF90CF90BF90AF909F908F9072
:1026B0007F906F905F904F903F902F900895EF9292
:1026C000FF920F931F93CF93DF937B018C01EA015D
:1026D000622FE0E0F0E02430D0F5E0913B08F0918B
:1026E0003C083097B1F086819781A085B1858E2115
:1026F0009F21A023B12322813381448155818217F8
:102700009307A407B50729F00190F081E02D3097D9
:1027100051F73097E1F0209761F082859385A48589
:10272000B5850097A105B10521F088839983AA8317
:10273000BB8386859785892B51F46F5F262FAE0169
:1027400062857385848595850E945F13FC01CF01A6
:10275000DF91CF911F910F91FF90EF9008950F930C
:102760001F93CF93DF93EC01DB014115510529F055
:10277000FA0110821182128213820DE318E0F8012F
:102780000FB6F89480818F5F80830FBE20E0BD017B
:10279000CE010E945F13DC01F8010FB6F89480812E
:1027A000815080830FBE109729F01E968D919C91C9
:1027B0001F9701C0CD01DF91CF911F910F91089517
:1027C000CF93DF93CDB7DEB724970FB6F894DEBF73
:1027D0000FBECDBFFC0119821A821B821C8240E011
:1027E000DE011196808180538A3028F520E030E0A8
:1027F000C90153E0880F991F5A95E1F7820F931F83
:10280000280F391F8191280F311D205330408081BE
:10281000803330F08A3320F42F3F310549F340F301
:102820002F3F310509F038F44F5F2D938E3241F47C
:1028300031964430B8F26FEF7FEF8FEF9FEF06C015
:102840004430C9F769817A818B819C8124960FB6C7
:10285000F894DEBF0FBECDBFDF91CF910895CF9228
:10286000DF92FF920F931F93CF93DF93CDB7DEB725
:1028700027970FB6F894DEBF0FBECDBF6C837D8364
:102880008E839F836EE3C62E68E0D62ED6018E011E
:102890000C5F1F4FFF2450E0F80130814AE0832F86
:1028A000642F0E942B4C292F832F0E942B4C808356
:1028B000BE016F5F7F4FFB01E50FF11D205D20839F
:1028C0005F5FF8018081882339F751505F3F39F00D
:1028D000FB01E50FF11D80818D935150C8F78EE209
:1028E0008D930F5F1F4FF394F3E0FF15A0F6119740
:1028F0001C92C60127960FB6F894DEBF0FBECDBF5F
:10290000DF91CF911F910F91FF90DF90CF900895AD
:10291000CF93DF93CDB7DEB726970FB6F894DEBF1F
:102920000FBECDBF1B821C8260E67AEE80E090E095
:102930000E9448460091B50B1091B60B0115110588
:1029400099F3F8018385833039F0F8010081118112
:1029500001151105B1F7E8CFA785B08991968D9142
:102960009C91929789839A839196AD83BE83898146
:102970009A81892B51F3E981FA818585982F8F5FA0
:102980008587993060F0AD81BE81E981FA818081CF
:1029900091818D939C9389819A818B839C838B8178
:1029A0009C81892B21F489819A818D839E83E98181
:1029B000FA818081918189839A838B819C81892B83
:1029C00031F08B819C810E94014B1B821C8289818A
:1029D0009A81892B81F6B9CFCF93DF93CDB7DEB73C
:1029E00022970FB6F894DEBF0FBECDBFFC0181A1C8
:1029F00092A189839A8389819A81892BA9F0E9819F
:102A0000FA8182819381A481B58184179507A607F5
:102A1000B70751F0E981FA818081918189839A8396
:102A200089819A81892B59F789819A8122960FB6DB
:102A3000F894DEBF0FBECDBFDF91CF9108958F9286
:102A40009F92AF92BF92CF92DF92EF92FF920F933D
:102A5000CF93DF934C016A017B01590180E190E043
:102A60000E94EC4AFC01892BE1F0C282D382E4820D
:102A7000F582A114B10441F086E0EF012696D5015C
:102A80000D9009928A95E1F704870FB60F92F8949A
:102A9000E40189A19AA180839183E9A3FAA30F900D
:102AA0000FBECF01DF91CF910F91FF90EF90DF909C
:102AB000CF90BF90AF909F908F900895AF92BF92AC
:102AC000CF92DF92EF92FF920F93CF93DF93EC01BF
:102AD0006A017B01590140914E0850914F08411500
:102AE000510531F1B701A6018F8598890E94EC1438
:102AF000FC01892BA1F0848582FD0CC0158686E03F
:102B0000EF012696D5010D9009928A95E1F784850B
:102B1000826084873E96CF010E94634816C002E01F
:102B20009501B701A6018F8598890E941F150DC0D8
:102B300020E831E068E874E182E393E00E94B9495B
:102B400090934F0880934E08CDCFDF91CF910F9196
:102B5000FF90EF90DF90CF90BF90AF9008954F928D
:102B60005F926F927F928F929F92AF92BF92CF921D
:102B7000DF92EF92FF920F93CF93DF935C016A0194
:102B80007B012901882499248FEF682E782EF50186
:102B9000878590890E94EC14EC01892B09F43FC0D1
:102BA0008C8581FF0AC086E0D201FE013696019035
:102BB0000D928A95E1F794013FC020E030E0B70123
:102BC000A60181E090E00E9497184C01892B21F129
:102BD00003E0B401C5010E94F3189C01892B69F43C
:102BE0008C8581FD0FC044EF51E060E070E0CE01C4
:102BF0000E960E948347015060F7C4010E943B2754
:102C000093011AC086E0D201FE01369601900D9222
:102C10008A95E1F73901F1CF2FEF3FEF0DC000E0CA
:102C20009401B701A601F501878590890E941F15BF
:102C3000EC01892B11F6E4CFC901DF91CF910F91FF
:102C4000FF90EF90DF90CF90BF90AF909F908F90CC
:102C50007F906F905F904F9008958F929F92AF9268
:102C6000BF92CF92DF92EF92FF920F931F93CF9379
:102C7000DF934C017B015A0189014EE050E060E195
:102C8000C9010E94CA25892B69F1F801C381D48149
:102C9000F401C784D08886E0DE011696F6013196ED
:102CA00001900D928A95E1F7A114B10499F086E0A4
:102CB000DE01F50101900D928A95E1F70E2CEF2CC3
:102CC000F02CEC86FD86E601EDA1FEA1B801C40161
:102CD00009950AC046E050E06FEF70E0CE010E9417
:102CE000AB4BECCF8FEF9FEFDF91CF911F910F9107
:102CF000FF90EF90DF90CF90BF90AF909F908F901C
:102D00000895CF93DF93EC0140E250E060E470E07F
:102D100083EE9BE00E94864B8091E30B803239F476
:102D2000BE0184EE9BE00E94BF4B009789F186E0D4
:102D3000ADEEBBE0E8E3F3E001900D928A95E1F798
:102D40001092F30B1092F40B1092F50B1092F60BFD
:102D50008EE393E00E94E013DC01CB018093F70B3C
:102D60009093F80BA093F90BB093FA0B1092FF0B12
:102D70001092000C1092010C1092020C1092FB0B9E
:102D80001092FC0B1092FD0B1092FE0B8FEF9FEF39
:102D9000DF91CF910895EF92FF920F931F93CF93FE
:102DA000DF9380E28093E30B83EEE82E8BE0F82E36
:102DB00000E010E0C0E4D0E0F70181917F01682FCE
:102DC000CE010E94974B21960F5F1F4F00321105D5
:102DD00098F380E090E0DF91CF911F910F91FF90E9
:102DE000EF9008952F923F924F925F926F927F9251
:102DF0008F929F92AF92BF92CF92DF92EF92FF920B
:102E00000F931F93CF93DF93CDB7DEB72A970FB6FB
:102E1000F894DEBF0FBECDBF89879A872A013B0198
:102E200048015901C982DA82EB82FC82FC012784C5
:102E30003088411551056105710571F44090F30B1F
:102E40005090F40B6090F50B7090F60B4114510408
:102E50006104710409F495C0F101418652866386CC
:102E6000748681149104A104B10409F483C0F101B2
:102E7000818A928AA38AB48AA301920128213921E6
:102E80004A215B212D833E834F835887C984DA848E
:102E9000EE24FF248701A50194016D817E818F813D
:102EA00098850E94BD1289819A81AB81BC8100976F
:102EB000A105B10509F051C084EE9BE029E0DC01D9
:102EC000E985FA85329601900D922A95E1F726E080
:102ED000FC013996D10111960D9001922A95E1F7E6
:102EE0004092F30B5092F40B6092F50B7092F60B3C
:102EF0008092F70B9092F80BA092F90BB092FA0B1C
:102F000029813A814B815C812115310541055105AB
:102F1000A9F48091FB0B9091FC0BA091FD0BB0915B
:102F2000FE0B88219921AA21BB212D813E814F8151
:102F3000588582179307A407B50761F089819A81A4
:102F4000AB81BC818093FB0B9093FC0BA093FD0B9A
:102F5000B093FE0B0E94CB1616C0C984DA847C01A4
:102F60008D0120E030E040E050E0CA01B9010E944C
:102F7000BD12A2CF8EE393E00E94E0134B015C01EF
:102F800076CF8FEF9FEF2A960FB6F894DEBF0FBE75
:102F9000CDBFDF91CF911F910F91FF90EF90DF9008
:102FA000CF90BF90AF909F908F907F906F905F90E9
:102FB0004F903F902F9008952F923F924F925F92A3
:102FC0006F927F928F929F92AF92BF92CF92DF9239
:102FD000EF92FF920F931F93CF93DF936B01190131
:102FE0002A01370148010E94A7415C010097E1F1E5
:102FF000EC018B858330C1F50F84D889C02D2881E1
:103000002630A9F1273181F5F5010189128982E283
:103010009DE28BA39CA3CF82D88623893489C501E6
:10302000F9010995892B01F540E050E060E070E07E
:10303000C8010E948347F80181A18F30A1F48CE47C
:1030400093E00E94E013DC01CB01C984DA84EB84B5
:10305000FC848C019D01B701A601C5010E94F216F6
:1030600080E090E02CC011A28FEF9FEF28C08EE18E
:1030700099E18BA39CA3822FDE011196F6010190AA
:103080000D928A95E1F7E501EB89FC89C501099567
:10309000892B51F7D201C1018E219F21A023B12399
:1030A0000097A105B10541F0CC24DD2476019401FF
:1030B0008301B201A101D1CFC5010E946521DF9139
:1030C000CF911F910F91FF90EF90DF90CF90BF9025
:1030D000AF909F908F907F906F905F904F903F90B8
:1030E0002F900895CF92DF92EF92FF920F931F934C
:1030F0006C010E948116E090F70BF090F80B0091A4
:10310000F90B1091FA0B2091FF0B3091000C4091BC
:10311000010C5091020C6DEE7BE0C6010E94DC17A1
:103120001F910F91FF90EF90DF90CF9008958F92B5
:103130009F92AF92BF92CF92DF92EF92FF920F9346
:103140001F93CF93DF938C014A015B0169014CE12E
:1031500050E060E280E090E00E94CA257C01009788
:1031600009F434C0FC01C781D08581E090E0082ECD
:10317000892F902D8883998380E098E0082E892FED
:10318000902D8A839B8396E09C8384E08D83002E20
:10319000012F102D0E831F83C114D10471F0892FCC
:1031A000DE015296F60101900D928A95E1F7888E24
:1031B000998EAA8EBB8EC70109C0CE01429646E009
:1031C00050E06FEF70E00E94AB4BF1CFDF91CF91F9
:1031D0001F910F91FF90EF90DF90CF90BF90AF9035
:1031E0009F908F9008950F931F93CF93DF938C013F
:1031F0009B01EB01EF81F885EC016F85788946E052
:10320000CF010896EB012196DC0109900D924A95B9
:10321000E1F7EB0189859A85AB85BC858687978721
:10322000A08BB18B7296AF0166E078E0C8010E9476
:103230002D16DF91CF911F910F910895CF93DF93BA
:103240009C01DB011396ED91FC9114973E96179625
:10325000ED93FC9318973E9715968D919C91169738
:103260000E9719968D939C931A978EE090E0159681
:103270008D939C93169784859585082E892F902D84
:1032800048E08030940759F08650984021F0CB01F7
:103290000E943B2707C0C9010E94481A03C0C90108
:1032A0000E945519DF91CF9108952F923F924F922E
:1032B0005F926F927F928F929F92AF92BF92CF92C6
:1032C000DF92EF92FF920F931F93CF93DF93CDB7CF
:1032D000DEB725970FB6F894DEBF0FBECDBF89834A
:1032E0009A836C837D83FB0167807084F301208166
:1032F000822F807F803429F08C819D810E943B2722
:10330000AEC086819781082E892F902D9F73892BBF
:1033100099F72F70222E3324220C331C220C331CDD
:10332000F30180889188A288B388E981FA81478473
:103330005088FFEF8F16FFEF9F06FFEFAF06FFEFFE
:10334000BF0609F489C0F201018512852385348501
:10335000011511052105310571F081899289A38933
:10336000B48988299929AA29BB298F5F9F4FAF4F1C
:10337000BF4F09F471C01B820115110521053105EC
:1033800029F4F3018185813009F44AC08114910444
:10339000A104B10409F4B0CFF20181859285A3851F
:1033A000B48588169906AA06BB0609F0A5CFEC815C
:1033B000FD8121863286C301820D931D8387948708
:1033C000F30182819381082E892F902D8219930910
:1033D000EC81FD8185879687F30181859927863069
:1033E0009105A9F08730910554F4019709F084CF35
:1033F0006C817D8189819A810E94421B30C04197F6
:1034000009F07ACF8C819D810E94E71A28C0FB8148
:10341000FF2309F071CF8C819D810E94B01A1FC0DB
:10342000D501C40180709070A0708030F0E09F07DB
:10343000F0E0AF07FFEFBF0709F4A8CF0097A105A1
:10344000B10509F4A3CF68017901B501A40189810F
:103450009A810E94F2169ACF41E04B83A8CF25961D
:103460000FB6F894DEBF0FBECDBFDF91CF911F9195
:103470000F91FF90EF90DF90CF90BF90AF909F9013
:103480008F907F906F905F904F903F902F90089516
:10349000CF92DF92EF92FF920F931F93CF93DF9320
:1034A0006C017B01FB01C781D08588819981082E41
:1034B000892F902D019709F047C08A819B81082EA2
:1034C000892F902D8050984009F03EC08C81863025
:1034D00009F03AC08D818430B9F5F601A785B0892D
:1034E000288D398D4A8D5B8D19968D919D910D900A
:1034F000BC91A02D281739074A075B0729F58E01D3
:10350000085F1F4F98014E855F8568897989C601DC
:103510000E945E158E819F81082E892F902D019724
:1035200099F498014E855F856889798982E090E0F9
:103530000E949718EC01009739F0BC01C6010E9467
:10354000F318CE010E943B27C7010E943B27DF9161
:10355000CF911F910F91FF90EF90DF90CF90089542
:10356000CF93DF93FC01A385B4851C968C911C97A7
:1035700082958F70282F3327220F331F220F331F7E
:1035800085859685821B930B818B928B892B71F09D
:103590001C968C911C9782958F709927880F991F84
:1035A000880F991F8A0F9B1F8787908B1C968C9181
:1035B00082958F709927880F991F880F991F85878B
:1035C0009687CF010E94A40EDF91CF9108950F93AB
:1035D0001F93CF93DF93EC01EB85FC853896EF8743
:1035E000F88B38978D859E850897898B9A8B88E014
:1035F00090E08D879E87828193810E94E21C8C01DE
:10360000009789F0FC0184819581009749F4F801C5
:10361000C483D5830A5F1F4FC8010E94334806C088
:103620000E943B27F4CFCE010E943B27DF91CF9130
:103630001F910F910895FF920F931F93CF93DF93E4
:10364000FC01F62E8A01EA012F813885E9014C85BB
:103650005D856E857F850784F089E02D8185928563
:10366000A385B4858C879D87AE87BF878FEF8887BA
:1036700098018F2D0E945A1BDF91CF911F910F91BE
:10368000FF900895CF93DF939C01EB018D859E857C
:10369000099750F0EB85FC858081883029F4AB01D7
:1036A00060E0C9010E941B1BCE010E943B27DF91F5
:1036B000CF910895AF92BF92CF92DF92EF92FF9297
:1036C0000F931F935A016B018901F901E384F4847C
:1036D000F701808312821382F9014585568563853F
:1036E000748580E090E00E947512F70182839383D5
:1036F0009801B601A50181E00E942B111F910F9145
:10370000FF90EF90DF90CF90BF90AF9008952F92F1
:103710003F924F925F926F927F928F929F92AF9261
:10372000BF92CF92DF92EF92FF920F931F93CF93AE
:10373000DF93382E262E49015A012701380148E02F
:1037400050E060E4C6010E94CA25EC010B851C858F
:10375000F8013082218284829582A682B782128209
:1037600013824D855E856B857C8580E090E00E94AC
:103770003A1249895A896F8578890E947512F80131
:10378000828393839E01B301A20181E00E942B11E9
:10379000DF91CF911F910F91FF90EF90DF90CF902D
:1037A000BF90AF909F908F907F906F905F904F9061
:1037B0003F902F900895CF93DF93EC01892B59F51B
:1037C00080915603909157030196909357038093ED
:1037D0005603892B31F480E090E190935703809356
:1037E0005603E0915008F0915108309771F0209104
:1037F000560330915703828193818217930729F0F2
:103800000190F081E02D3097B1F7EF2BC9F6C09110
:103810005603D091570388E090E00E94EC4AFC01E7
:10382000892B79F00C2ECD2FD02DC283D38380919C
:1038300050089091510880839183F0935108E09350
:103840005008CF01DF91CF9108956F927F928F92B0
:103850009F92AF92BF92CF92DF92EF92FF920F931F
:103860001F93CF93DF933C015A016B014901A701DC
:1038700060E880E090E00E94CA25EC01892B91F07D
:103880008F859889A701B8010E94A24B8E019401EF
:10389000B601A501C3010E94F91C8C01CE010E9452
:1038A0003B2702C00FEF1FEFC801DF91CF911F919F
:1038B0000F91FF90EF90DF90CF90BF90AF909F90CF
:1038C0008F907F906F9008954F925F926F927F924A
:1038D0008F929F92AF92BF92CF92DF92EF92FF9220
:1038E0000F931F93CF93DF935C014B013A012901A2
:1038F000FC0184819581892B69F1F501C481D58111
:10390000209731F1F50114821582EF81F8858485C5
:103910009585A685B785F40180839183A283B383BF
:10392000EB85FC8580819181F30180839183898976
:103930009A898017910708F48C018F859889A801CE
:10394000BC01C2010E94A24BCE010E943B2709C0CC
:103950008E0107C0C5010696B701A6010E948347E4
:10396000CCCFC801DF91CF911F910F91FF90EF90C5
:10397000DF90CF90BF90AF909F908F907F906F908F
:103980005F904F9008952FEF3FEFA0E5B8E0E091F2
:103990005008F0915108309799F0E817F90739F07D
:1039A000DF010190F081E02D3097B9F709C08081E7
:1039B00091818D939C93CF010E94014B20E030E0D8
:1039C000C90108959C0140E050E0E0915008F09159
:1039D0005108309761F0828193818217930731F00B
:1039E0000190F081E02D3097B1F701C0AF01CA011D
:1039F00008954F925F926F927F928F929F92AF92B3
:103A0000BF92CF92DF92EF92FF920F931F93CF93CB
:103A1000DF93CDB7DEB724970FB6F894DEBF0FBEA5
:103A2000CDBF2C013A014B01790148E050E060E440
:103A3000C8010E94CA256C01009709F459C0FC0115
:103A4000A384B484F20182819381F5018083918300
:103A50000E2CEF2CF02CE282F382F6018585968500
:103A600021893289820F931F082E892F902DF5010D
:103A700084839583AE014F5F5F4FC401B3010E9401
:103A8000AF13FC01892B79F10784F089E02D818542
:103A90009285A385B48589839A83AB83BC83F50122
:103AA00016821782E480F58001E1A4019301698107
:103AB0007A818B819C810E947A1248E050E0B501A6
:103AC0000E943A12F60141895289678570890E94E5
:103AD0007512F501868397839601B401A301802FA7
:103AE0000E942B1107C019821A821B821C82D7CF19
:103AF0008FEF9FEF24960FB6F894DEBF0FBECDBFB9
:103B0000DF91CF911F910F91FF90EF90DF90CF90B9
:103B1000BF90AF909F908F907F906F905F904F90ED
:103B20000895EF92FF920F931F93CF93DF938C0131
:103B30007B01EA01DC018D919C91009771F4CE012B
:103B400001960E94784AF80180839183209741F082
:103B5000AE01B7010E94A24B03C00E94014BEFCF00
:103B6000D801ED91FC91EC0FFD1F1082DF91CF91F8
:103B70001F910F91FF90EF900895AF92BF92CF9257
:103B8000DF92EF92FF920F931F93CF93DF938C01FD
:103B9000FB016A0181E3D8011D928A95E9F7AA2405
:103BA000BB2480899189A289B389E80189839A839A
:103BB000AB83BC8384819581A681B781898F9A8FDD
:103BC000AB8FBC8F20EFE22EF12CE60EF71EE0E16A
:103BD000FFEFCE0EDF1E1C141D040CF0DDC0E7014C
:103BE00028812F3F09F4D8C0222371F40894E11CE6
:103BF000F11C0894C108D108A114B10409F0CCC08B
:103C00001C141D0464F3C8C08981C82FDD27CC169D
:103C1000DD060CF4BEC0F70182819381A481B581D9
:103C200033272C31310509F4AAC02D3131050CF0B0
:103C30004FC02630310509F442C0273031054CF51C
:103C400021303105E9F02330310569F0EC0EFD1E1D
:103C500082E090E0E80EF91ECC1ADD0ACEEFDFEF2D
:103C6000CC0EDD1EC9CFC430D10534F0F8018587F4
:103C70009687A787B08BEACF8FEFA82EB82EE6CF16
:103C8000C430D105CCF3F80185839683A783B08730
:103C9000DDCF2C30310561F02F303105B9F6C70189
:103CA0000296AE01BC01C8018F960E94911DCECF35
:103CB000C7010296AE01BC01C8018D96F6CFC43093
:103CC000D105D4F2F801818B928BA38BB48BBECF3C
:103CD0002633310509F449C027333105FCF4233379
:103CE000310561F02533310509F0B0CFC130D10580
:103CF00019F6F7018281F8018083A8CFC430D1057D
:103D00000CF4BACF082E8B2FB02D092E9A2FA02D90
:103D1000F801858F968FA78FB0A398CF2A333105EE
:103D2000A1F02B33310509F091CFC430D1050CF44B
:103D3000A3CF082E8B2FB02D092E9A2FA02DF8017E
:103D400081A392A3A3A3B4A381CFC430D1050CF463
:103D500093CF082E8B2FB02D092E9A2FA02DF8016E
:103D600085A396A3A7A3B0A771CFC430D1050CF447
:103D700083CFF801858B968BA78BB08F67CFC4302C
:103D8000D1050CF479CFF80181879287A387B48796
:103D90005DCF9FEFA92EB92EC501DF91CF911F9165
:103DA0000F91FF90EF90DF90CF90BF90AF9008956C
:103DB0008F929F92AF92BF92CF92DF92EF92FF923B
:103DC0000F931F93CF93DF93CDB7DEB726970FB630
:103DD000F894DEBF0FBECDBF4C015B01CA01B90133
:103DE00028EE33E040E050E00E940C4CDC01CB01B7
:103DF0006C017D0104E212E09501AE014F5F5F4F5F
:103E0000BE016D5F7F4FC4010E94641C26960FB6F1
:103E1000F894DEBF0FBECDBFDF91CF911F910F9100
:103E2000FF90EF90DF90CF90BF90AF909F908F90DA
:103E30000895EF92FF920F931F938C01E62EDA0103
:103E4000C90124E232E0F801119221503040E1F73B
:103E500031E0F32EF801F08284839583A683B78343
:103E6000F18286E08283045E1F4F46E050E062E507
:103E700078E0C8010E94A24BF801E053FF4F809107
:103E8000580390915903A0915A03B0915B03819319
:103E90009193A193B19385E38193F192E192CF0144
:103EA0001F910F91FF90EF9008954F925F926F9244
:103EB0007F928F929F92AF92BF92CF92DF92EF92BA
:103EC000FF920F931F93CF93DF932C014A015B0165
:103ED0003901680181E0E7018883298D3A8D4B8D96
:103EE0005C8D682FC6010E94191FFC0189A59AA547
:103EF000082E892F902DE601888799878FEF81936F
:103F0000EC19FD097F0186019301B501A401C201ED
:103F10000E94251CDF91CF911F910F91FF90EF9090
:103F2000DF90CF90BF90AF909F908F907F906F90D9
:103F30005F904F9008954F925F926F927F928F9211
:103F40009F92AF92BF92CF92DF92EF92FF920F9328
:103F50001F93CF93DF932C014A015B013901680164
:103F600083E0E7018883298D3A8D4B8D5C8D682F26
:103F7000C6010E94191FFC0182E3819324E0219372
:103F800089819A81AB81BC8181939193A193B193F3
:103F900086E3819321938D899E89AF89B88D819322
:103FA0009193A193B1938FEF8193EC19FD097F0158
:103FB00086019301B501A401C2010E94251CDF9175
:103FC000CF911F910F91FF90EF90DF90CF90BF9016
:103FD000AF909F908F907F906F905F904F900895DB
:103FE0004F925F926F927F928F929F92AF92BF9209
:103FF000CF92DF92EF92FF920F931F93CF93DF93B5
:104000002C014A015B013901680187E0E7018883DF
:10401000298D3A8D4B8D5C8D682FC6010E94191F2A
:10402000FC0189819A81AB81BC81E601888B998BE7
:10403000AA8BBB8B86E3819384E08193E7018D8912
:104040009E89AF89B88D81939193A193B1938FEF9E
:104050008193EC19FD097F0186019301B501A4014B
:10406000C2010E94251CDF91CF911F910F91FF90FB
:10407000EF90DF90CF90BF90AF909F908F907F9008
:104080006F905F904F900895CF93DF93CDB7DEB7D9
:104090002C970FB6F894DEBF0FBECDBF8F839887E5
:1040A000FC010784F089E02DE987FA875F01CC24C1
:1040B000DD241B821C8220E030E029833A8384E4E3
:1040C00090E00E94DB1B4C0181E390E00E94784A63
:1040D0002C0181E390E00E94784A8B879C8784E2E0
:1040E00092E00E94784A3C0184E292E00E94784A81
:1040F0008D839E838114910409F486C01B821C82E7
:104100002224332481E3EB85FC8511928A95E9F71B
:10411000EB85FC85A18EB28EC38ED48E29813A8127
:10412000C901AA27BB2781A792A7A3A7B4A77F018C
:104130000D811E8123E430E04FEF5FEF6FEF7FEFE3
:10414000C4010E94551F992364F123E030E040E050
:1041500050E0B301C4010E94D81EAC01892B09F4C0
:10416000ADC0F30184819581A681B7818A159B0535
:10417000AC05BD0551F7B301C2010E94BD1D892BDD
:1041800021F721E030E02B833C838B819C81892BBC
:1041900041F40894211C311C9AE0291631040CF4D6
:1041A000B1CFEB81FC81EF2B79F11B821C8281E383
:1041B000AB85BC85F20101900D928A95E1F7EB8405
:1041C000FC840D811E8123E430E04FEF5FEF6FEF41
:1041D0007FEFC4010E949B1F97FD6BC025E030E07C
:1041E00040E050E0B301C4010E94D81EAC0197FD2D
:1041F0000BC0F30184819581A681B7818A159B0547
:10420000AC05BD0509F449C08B819C81892BE9F17E
:10421000F201C584D684E784F08805811681278160
:10422000308541815281638174818F8198850E949C
:10423000F2162B813C81232B21F088E598E00E9427
:104240003348E985FA8581859285A385B4850097F1
:10425000A105B10561F40E943249E985FA8581859D
:104260009285A385B4850097A105B105A1F388E5E2
:1042700098E00E9433488EEF0E94784960E67AEE1B
:1042800080E090E00E944846F9CFCC24DD247601FE
:1042900097018601B701A601C8CFB301C2010E94F0
:1042A000BD1D892B09F0B0CF21E030E02B833C838A
:1042B000ABCF8114910409F021CFA6CF29813A8197
:1042C0002D5F3F4F29833A8360CFCF93DF93FC016B
:1042D000A785B08986E0C2E5D8E011960D900992D5
:1042E0008A95E1F720E032E0AF0164E470E28CE50A
:1042F00093E00E94B94940E050E060E070E088E55A
:1043000098E00E948347DF91CF910895FC01872FA9
:1043100099278193608382E090E00895CF93DF93A3
:10432000DC01EB01FB0101900020E9F79F01215026
:104330003040261B370B2E5F3F4FFC01AC0111961E
:1043400010828881882399F088818E3251F08D9374
:104350002196FA0180818F5F808388818823A1F76D
:1043600006C0FD01AD01119610822196F6CF1C9278
:10437000C901DF91CF910895FC01DB01819199275B
:10438000382F22272D933C93119780819927282B32
:10439000392B2D933C9382E090E00895FC018191AC
:1043A0009927AA27BB272227382F492F5A2FDB010D
:1043B0002D933D934D935C93139781919927AA2751
:1043C000BB27282B392B4A2B5B2B542F432F322F03
:1043D0002227DB012D933D934D935C93139781919D
:1043E0009927AA27BB27282B392B4A2B5B2B542F25
:1043F000432F322F2227DB012D933D934D935C9366
:10440000139780819927AA27BB27282B392B4A2B62
:104410005B2BFB01208331834283538384E090E054
:104420000895EF92FF920F931F93CF93DF93EC01C8
:104430008B01FB0180819181009761F5888199272B
:10444000807C9070803C910511F1FE01019000206C
:10445000E9F77F01EC1AFD0AC7010E94784AF801CA
:1044600080839183FC019991992371F091509F3F32
:1044700021F0899181939150E0F79991992311F05E
:104480008EE28193992391F71082C70109C082E0DF
:1044900090E006C00E94014BF80110821182CECF3D
:1044A000DF91CF911F910F91FF90EF900895EF92C0
:1044B000FF920F931F93CF93DF937C018B01EA014F
:1044C000FB0180819181009711F00E94014BCE0188
:1044D0000E94784AF80180839183AE01B7010E945F
:1044E000A24BCE01DF91CF911F910F91FF90EF90E2
:1044F0000895CF93DF93FC01EB01892B69F030978E
:1045000089F0C083D18380E091E08283938381E04E
:1045100090E08483958306C08CE090E00E94EC4A92
:10452000FC01EDCFCF01DF91CF910895009711F0FD
:104530000E94014B0895CF92DF92EF92FF920F936A
:104540001F937C016B01FB01608171810E948621B8
:104550008C01C701800F911FF601628173810E9457
:104560008621080F191FC701800F911FF601648172
:1045700075810E948621080F191FC701800F911FA6
:10458000F601668177810E948621080F191FC701F5
:10459000800F911FF601608571850E948621080FAA
:1045A000191FE00EF11EF60162857385C7010E9496
:1045B0008621080F191FC8011F910F91FF90EF90DE
:1045C000DF90CF900895CF92DF92EF92FF920F93FA
:1045D0001F937C016B01BC01C6010E94BC218C01B0
:1045E00082E090E0E80EF91EC601800F911FB7012E
:1045F0000E94BC21080F191F82E090E0E80EF91E0E
:10460000C601800F911FB7010E94BC21080F191F1E
:1046100082E090E0E80EF91EC601800F911FB701FD
:104620000E94BC21080F191F82E090E0E80EF91EDD
:10463000C601800F911FB7010E94BC21080F191FEE
:1046400082E090E0E80EF91EC00ED11EB701C6014F
:104650000E94BC21080F191FC8011F910F91FF90E4
:10466000EF90DF90CF9008950F931F93CF93DF9338
:10467000EC018B01892BB9F02097D9F0F80101905A
:104680000020E9F7E01BF10BCF010E94784A8883F4
:104690009983B8010E94C94B81E090E08A839B8393
:1046A0008C839D8306C086E090E00E94EC4AEC017A
:1046B000E3CFCE01DF91CF911F910F910895CF935A
:1046C000DF93EC01892B59F088819981009721F4BF
:1046D000CE010E94014B03C00E94014BF9CFDF9134
:1046E000CF910895CF92DF92EF92FF920F931F9395
:1046F0007C016B01FB01608171810E948E218C0124
:10470000C701800F911FF601628173810E9486218B
:10471000080F191FE00EF11EF60164817581C701B3
:104720000E948621080F191FC8011F910F91FF9049
:10473000EF90DF90CF900895CF92DF92EF92FF92AB
:104740000F931F937C016B01BC01C6010E941122D3
:104750008C0182E090E0E80EF91EC601800F911FE7
:10476000B7010E94BC21080F191F82E090E0E80EFB
:10477000F91EC00ED11EB701C6010E94BC21080F50
:10478000191FC8011F910F91FF90EF90DF90CF90FC
:104790000895009721F48EE090E00E94EC4A08957D
:1047A000CF93DF93EC01892B91F088819981009759
:1047B00059F48C859D85009721F4CE010E94014B10
:1047C00006C00E94014BF9CF0E94014BF2CFDF914E
:1047D000CF910895CF92DF92EF92FF920F931F93A4
:1047E0007C016B01BC01C6010E9411228C01C70132
:1047F00002969601200F311FBC01C9010E94BC2105
:10480000080F191FC70104969601200F311FBC0124
:10481000C9010E94BC21080F191FC7010696960105
:10482000200F311FBC01C9010E94CE21080F191FA2
:10483000C7010A969601200F311FBC01C9010E94D1
:10484000BC21080F191FC00ED11EF70142855385E8
:104850008CE090E0E80EF91EB701C6010E945722D5
:10486000080F191FC8011F910F91FF90EF90DF9063
:10487000CF900895CF92DF92EF92FF920F931F9304
:10488000CF93DF93EC018B0169017A0180915A0883
:1048900090915B08009799F580915C0890915D0874
:1048A000009731F5209781F0FE0101900020E9F793
:1048B000EC1BFD0BCF010E94784A90935B0880931C
:1048C0005A08BE010E94C94B01151105F9F0F80103
:1048D00001900020E9F7E01BF10BCF010E94784A1C
:1048E00090935D0880935C08B8010E94C94B0EC08C
:1048F0000E94014B10925D0810925C08D3CF0E9479
:10490000014B10925B0810925A08C6CFC0925E0805
:10491000D0925F08E0926008F0926108DF91CF9139
:104920001F910F91FF90EF90DF90CF9008952F92FD
:104930003F924F925F926F927F928F929F92AF922F
:10494000BF92CF92DF92EF92FF920F931F93CF937C
:10495000DF93CDB7DEB762970FB6F894DEBF0FBE18
:10496000CDBF8F83988719861A861B861C8666247E
:1049700077246D867E8623016F86788A80915E0813
:1049800090915F08A0916008B09161080097A1051F
:10499000B10529F460E070E080E090E0B7C0C301A9
:1049A0000E94DB1B1C01892B09F480C080E092E08F
:1049B0000E94784A4C01698A7A8AED85FE85319693
:1049C000ED87FE87BF01C3010E9479223C016F8100
:1049D00078858F8598890E9434238F87988BB301BF
:1049E000C4010E949B225C01C4018A0D9B1D6F853E
:1049F00078890E947223A80EB91E7501840125E3EF
:104A000030E040915E0850915F08609160087091BD
:104A10006108C1010E94251C9923C4F1AA24BB246A
:104A200038EEC32E33E0D32EE12CF12C00E012E05F
:104A30009401AE014F5F5F4FBE016D5F7F4FC101BB
:104A40000E94641C181619067CF40D973CF3B401FF
:104A5000C3010E94E3225C01D3018D919C91ED85FD
:104A6000FE858E179F07D1F6A114B10429F0F3013A
:104A7000848195810197F9F029893A892F5F3F4F09
:104A8000298B3A8B253031050CF497CFC3010E9456
:104A900096228F8598890E945F23C2010E94D023AD
:104AA000C4010E94014BC1010E94C31C69857A8523
:104AB0008B859C852BC0C4018A0D9B1DBC018F85F5
:104AC00098890E949C23A80EB91EF30186819781C4
:104AD000892BE1F2C2010E94C9232C01A80CB91C48
:104AE000B5010E94EA23F20182859385049721F69D
:104AF000F20124853585D9018D919D910D90BC9150
:104B0000A02D89879A87AB87BC87C0CF62960FB6E6
:104B1000F894DEBF0FBECDBFDF91CF911F910F91F3
:104B2000FF90EF90DF90CF90BF90AF909F908F90CD
:104B30007F906F905F904F903F902F9008950F93CC
:104B40001F93CF93DF93EC018B01CB010E94784A36
:104B500088839983009729F00A831B8380E090E083
:104B600004C08A839B838FEF9FEFDF91CF911F91CA
:104B70000F9108950F931F938C01FC018081918107
:104B80000E94014BF80110821182128213821F9140
:104B90000F910895BF92CF92DF92EF92FF920F9301
:104BA0001F93CF93DF93EC01B62E7A01892B09F482
:104BB000C7C0209709F442C0BB2009F43FC0E114EC
:104BC000F10409F49AC0CB2CDD24C4FE0DC08A8107
:104BD00099278C010071107084FF86C08D819E81A1
:104BE0008E159F0508F472C0C5FE0DC08A819927F5
:104BF0008C010072107085FF60C089859A858E15C2
:104C00009F0508F44CC0C6FE0CC08A8199278C0110
:104C10000074107086FF37C08D859E858E159F05A8
:104C200028F1B7FE08C08A8187FF1CC089899A894C
:104C30008E159F0528F08A818B298A83CE0186C034
:104C40008E01015F1F4FC8010E94BA25B701C8013C
:104C50000E949F25892B79F3CE010E943B2780E09B
:104C600090E074C0CE010F96B701F2CF8E01055FC0
:104C70001F4FC8010E94BA25B701C8010E949F2595
:104C8000892B79F2E9CFCE010B96B7010E949F25BF
:104C9000892B39F2CE010E943B27C80157C08E01F3
:104CA000095F1F4FC8010E94BA25B701C8010E94C1
:104CB0009F25892B09F4A7CFCFCFCE010796B70147
:104CC0000E949F25892B09F49ECFE4CF8E010D5FB2
:104CD0001F4FC8010E94BA25B701C8010E949F2535
:104CE000892B09F481CFB8CFCE010396B7010E947A
:104CF0009F25892B09F478CFCDCF8A81B8220B2D3F
:104D0000112704FD18C005FD11C006FD0AC0B7FE3D
:104D100004C0CE010F960E94BA25B0948A818B21DF
:104D20008CCFCE010B960E94BA25F1CFCE0107960B
:104D30000E94BA25EACFCE0103960E94BA25E3CF9E
:104D400083E190E00E94EC4AEC0133CFDF91CF91F8
:104D50001F910F91FF90EF90DF90CF90BF9008953B
:104D60000F931F93CF93DF938C0183E190E00E9418
:104D7000EC4AEC01009709F479C0F801658176816D
:104D80006115710509F05DC0F801618572856115D5
:104D9000710509F040C0F8016585768561157105DA
:104DA00021F5F801618972896115710511F4CE014F
:104DB0005DC0CE010F960E949F25892B81F4AF859F
:104DC000B889F8012785308981899289AC01B901B8
:104DD000CD010E94A24B8A8180688A83E8CFCE01F0
:104DE0000E943B2780E090E041C0CE010B960E94DC
:104DF0009F25892BA1F7AB85BC85F80123853485D8
:104E000085859685AC01B901CD010E94A24B8A81AE
:104E100080648A83C6CFCE0107960E949F25892B86
:104E2000F1F6AF81B885F8012781308581859285BB
:104E3000AC01B901CD010E94A24B8A8180628A83B4
:104E4000AACF03960E949F25892B49F6AB81BC818E
:104E5000F8012381348185819681AC01B901CD01AE
:104E60000E94A24B8A8180618A838ECFDF91CF918D
:104E70001F910F9108950F931F938C0140E050E014
:104E8000FC0162810E94CA25C8010E94014B009763
:104E900011F08FEF9FEF1F910F910895FC01018892
:104EA000F289E02D11A20895FC010188F289E02D1C
:104EB00081A1992708950F93CF93DF93EB01E9899F
:104EC000FA8901A1013039F00F30B9F011A2CF01F8
:104ED0000E94114812C082A1982F8F5F82A3933045
:104EE00098F79B014BE557E268E97AE380E090E0B0
:104EF0000E94A845CE010E94F929DF91CF910F9120
:104F000008959C01307047E020FF0AC03695279530
:104F100088E094E828273927415047FFF5CF03C0A0
:104F200036952795F9CFC90108957F928F929F9268
:104F3000AF92BF92CF92DF92EF92FF920F931F93A7
:104F4000CF93DF93CDB7DEB7C258D0400FB6F894F9
:104F5000DEBF0FBECDBFFC017B016A018188928854
:104F6000A784B0887724452B09F488C090E0F40129
:104F7000828D882319F081A182FD52C0F701208122
:104F8000203268F5FE013196DF01A90FB11D8DE7D2
:104F90008C939F5FE90FF11D80E2282720830894FE
:104FA000E11CF11C73949F5F072D11270C151D0543
:104FB00011F097FFDCCF892F9927AC01BE016F5FFD
:104FC0007F4FF501878190850E948143F50187819C
:104FD00090850E94A4440C151D0540F24FC02E3749
:104FE00099F02D3729F0FE01E90FF11D2183D7CF6C
:104FF000FE013196DF01A90FB11D2C939F5FE90FD0
:10500000F11D8DE58083CBCFFE013196DF01A90F25
:10501000B11D8DE78C939F5FE90FF11D8EE5F2CFF7
:10502000F70180818D30F1F08A3081F08D3739F0D1
:105030008E3751F3FE01E90FF11D8183B0CFFE01E0
:105040003196DF01A90FB11D8C93D8CFFE013196A7
:10505000DF01A90FB11D8DE78C939F5FE90FF11D53
:105060008AE2D0CFFE013196DF01A90FB11D8DE795
:105070008C939F5FE90FF11D8DE2C4CFCE57DF4FB8
:105080000FB6F894DEBF0FBECDBFDF91CF911F9159
:105090000F91FF90EF90DF90CF90BF90AF909F90D7
:1050A0008F907F9008958F929F92AF92BF92CF92F0
:1050B000DF92EF92FF920F931F93CF93DF93CDB7C1
:1050C000DEB723970FB6F894DEBF0FBECDBF5C01ED
:1050D0008B018EE78983F501A189B2898784908845
:1050E00081E08093030CFB01458156818185928587
:1050F000840F951F25853685820F931F218932895C
:10510000820F931F53962D913C91549782179307CA
:1051100008F0F2C08FEF9FEF8A839B83FB01E3804F
:10512000F480CC24DD24C416D50608F4C8C0F801E8
:10513000E780F084CC24DD2481859285C816D906C9
:1051400008F4A0C0F801E384F484CC24DD24858530
:105150009685C816D90608F478C0F801E784F08867
:10516000CC24DD2481899289C816D90608F450C060
:1051700041E050E0BE01640F751FF4018781908506
:105180000E948143F8014581568163817481C50184
:105190000E949527F8014185528567817085C50178
:1051A0000E949527F8014585568563857485C5015C
:1051B0000E949527F8014189528967857089C50148
:1051C0000E9495278A819B81809590958A839B83F5
:1051D00042E050E0BE01640F751FC5010E94952793
:1051E00041E050E0BE01640F751FF4018781908596
:1051F0000E948143F401878190850E94A44410920B
:10520000030C84E09CE00E944E4880E090E079C06E
:10521000F70181917F0199272A813B81822793277A
:105220000E9481279C018A819B81892F992782274F
:1052300093278A839B830894C11CD11CF801818920
:105240009289C816D90620F393CFF70181917F0187
:1052500099272A813B81822793270E9481279C01DD
:105260008A819B81892F9927822793278A839B8311
:105270000894C11CD11CF80185859685C816D906ED
:1052800020F36BCFF70181917F0199272A813B8120
:10529000822793270E9481279C018A819B81892FE5
:1052A0009927822793278A839B830894C11CD11C4A
:1052B000F80181859285C816D90620F343CFF701FE
:1052C00081917F0199272A813B81822793270E9420
:1052D00081279C018A819B81892F99278227932787
:1052E0008A839B830894C11CD11CF8018581968117
:1052F000C816D90620F31BCFCB010E943B278FEFA6
:105300009FEF23960FB6F894DEBF0FBECDBFDF919F
:10531000CF911F910F91FF90EF90DF90CF90BF90B2
:10532000AF909F908F900895EF92FF920F931F93ED
:10533000CF93DF937C01EB018A0144E050E060E110
:10534000C8010E94CA25892BD1F0F801A381B4813C
:105350008FEF8C9383E011968C9311970C2ECD2FA9
:10536000D02D1296CD93DC931397E701EF85F88942
:1053700005A0F6A1E02DB801C701099502C08FEF85
:105380009FEFDF91CF911F910F91FF90EF900895C4
:10539000FC010188F289E02D118E128E138E148E7D
:1053A000158E168E178E10A28FEF9FEFAFEFBFEF07
:1053B000858B968BA78BB08F8CED95E0838B948B30
:1053C00011A20895EF92FF920F931F937C018B011E
:1053D000FB0181819927AC01C7010E94A24BF80112
:1053E0008181E80EF11CC7011F910F91FF90EF9092
:1053F0000895CF92DF92EF92FF920F931F93CF9376
:10540000DF937C01EC0109891A894AE050E060E2EF
:1054100080E090E00E94CA256C01EC01EF81F885E4
:1054200081E08083E8018A8981838F5F8A8B82E0B3
:10543000848386E0858316821782108611863A96C9
:10544000E6018F8198859F01281B390BC9013A9786
:1054500029873A87082E892F902D82839383A6016E
:1054600061E270ECC7010E949429892B19F4C601EE
:105470000E943B27DF91CF911F910F91FF90EF90FA
:10548000DF90CF9008953F924F925F926F927F92FC
:105490008F929F92AF92BF92CF92DF92EF92FF9244
:1054A0000F931F93CF93DF933C012B01FC01C18924
:1054B000D289FB01A780B084F50182819381082EF7
:1054C000892F902D82839383808199278130910544
:1054D00009F43AC0029709F0FEC089A1826089A34D
:1054E00046E050E060E280E090E00E94CA256C0156
:1054F000FC010781108581E0F80180838A8981831E
:105500008F5F8A8B148215820A5F1F4FE6018F819D
:105510009885F801E81BF90BCF0106501040E98788
:10552000FA87082E892F902DE8018A839B83A60194
:1055300063E270ECC3010E949429892B09F0CBC06F
:10554000C6010E943B27C7C01D8A1E8A1F8A188E6B
:10555000198E1A8E398CF5014281538160E280E008
:1055600090E00E94CA256C01FC0107811085F501BD
:105570008181F801818382E090E0082E892F902DAF
:1055800082839383F4E08F2E912C800E911EF5017F
:1055900082819381059748F1E4E0EE2EF12CEA0C2C
:1055A000FB1CF701808199278330910509F47EC0A7
:1055B000843091050CF06EC08130910509F455C01E
:1055C000029709F444C0B701C4010E94E2294C01CA
:1055D0003394F7018181E80EF11CF50182819381FA
:1055E0008A0D9B1DE816F906E0F23320E1F4E6018E
:1055F000EF81F885E2012F81388589859A85AC0194
:10560000B901CF010E94A24B82E0F8018083E6013C
:1056100089859A85082E892F902D82839383A601F0
:1056200061E270EC87CFC3010E94C82984E0E801E1
:105630008883F60187819085881A990AC40181863A
:105640009286082E892F902D8A839B83E8CFF701BD
:1056500081819927029797012E5F3F4FAC01B901D5
:10566000CE0145960E94A24BB4CFF70181819927C4
:10567000029797012E5F3F4FAC01B901CE014396CF
:105680000E94A24B8B899C89082E892F902D8B8B91
:105690009C8B9FCF8730910531F0089709F093CF0D
:1056A00081E08A8F96CF81E0898F93CFF701818146
:1056B0009927029797012E5F3F4FAC01B901CE01A8
:1056C0004B960E94A24B8B8D9C8D082E892F902D7E
:1056D0008B8F9C8F7ECFC2010E943B27DF91CF91A1
:1056E0001F910F91FF90EF90DF90CF90BF90AF9000
:1056F0009F908F907F906F905F904F903F90089514
:105700002F923F924F925F926F927F928F929F92D1
:10571000AF92BF92CF92DF92EF92FF920F931F93BF
:10572000CF93DF934C011B01EC016F847888A9882B
:10573000BA88FB0107811085E8018A819B81082EC8
:10574000892F902D8A839B83AC0160E280E090E0FA
:105750000E94CA256C01EC01EF80F884F801818178
:10576000E701898382E090E0082E892F902D8A83BB
:105770009B83A4E04A2E512C4E0C5F1CE8018881CB
:1057800099278230910509F48CC0833091050CF083
:1057900053C0019709F0CAC0BB24E8018A819B81EC
:1057A0000597A8F0249688818330C9F1BE01C20113
:1057B0000E94E2292C01B3948981C80FD11DF80100
:1057C00082819381800F911FC817D90760F3BB2096
:1057D00009F0ACC0E601EF81F885E1012F81388541
:1057E00089859A85AC01B901CF010E94A24B82E064
:1057F000F7018083E60189859A85082E892F902DEF
:1058000082839383A60161E270E8C4010E94942917
:10581000892B09F08BC0C6010E943B2787C0898174
:10582000992702979E012E5F3F4FAC01B901C3013A
:105830000D960E94A24BC0CF83309105C9F004970A
:1058400009F074C0E8012A813B812530310550F010
:1058500024968981C80FD11DC801820F931FC817D4
:10586000D907B8F3F50111A2C5010E9411485EC025
:105870008A819B81059708F459C0E601EF81F8857C
:10588000E1012F81388589859A85AC01B901CF0165
:105890000E94A24B81E0F701808381818F5F818329
:1058A000A9CF8A819B810597B8F0E8012496888169
:1058B00099278138910579F182389105F4F403979D
:1058C00079F08981C80FD11DF80182819381800F01
:1058D000911FC817D90758F38FE0E50189A3C4CFFA
:1058E0008981992702979E012E5F3F4FAC01B90134
:1058F000C30109960E94A24BE4CF8338910509F7B2
:105900008981992702979E012E5F3F4FAC01B90113
:10591000C3014996EFCF8981992702979E012E5F97
:105920003F4FAC01B901C3014596E4CFC1010E94CC
:105930003B27DF91CF911F910F91FF90EF90DF9068
:10594000CF90BF90AF909F908F907F906F905F901F
:105950004F903F902F900895AF92BF92CF92DF92D9
:10596000EF92FF920F931F93CF93DF937C016B0114
:10597000EC01A988BA88FB01A781B08512968D91A8
:105980009C911397082E892F902D12968D939C939E
:1059900013978C91823009F047C0E50189A184609A
:1059A00089A348E150E060E280E090E00E94CA25CF
:1059B0008C01EC01EF81F88581E08083E5018A8923
:1059C00081838F5F8A8B83E0848396E09583168240
:1059D00017821086118681E8828793871486158640
:1059E0001686178683E8808B918B128A138A148A15
:1059F000158A7696E8018F8198859F01281B390BBF
:105A0000C901769729873A87082E892F902D82839E
:105A10009383A80161E270E8C7010E949429892B51
:105A200019F4C8010E943B27C6010E943B27DF9161
:105A3000CF911F910F91FF90EF90DF90CF90BF908B
:105A4000AF900895CF93DF93AC01DB011396ED91F6
:105A5000FC9114972281338134961796ED93FC9331
:105A6000189715968D919C911697049719968D937A
:105A70009C931A9784E090E015968D939C931697CB
:105A8000022E232F302DE0E821323E07F1F0F0E81E
:105A900022323F0758F42132310521F0CD010E9416
:105AA0003B2716C0CA010E94551912C080EC213252
:105AB000380739F02352304C89F7CA010E94AC2CC8
:105AC00007C0CA010E94432A03C0CA010E94802B5A
:105AD000DF91CF910895CF93DF93CDB7DEB72197B4
