:0903CE00011500011300010D00EE
:1000CC00E4FEEEC39F500DE4FCECC39D50030C808A
:0500DC00F80E80EE2289
:0A00E100E4F50AF50AF50AF50A2213
:1000EB00D2902090120509E50970020508E5094533
:0800FB000870EF05170517223C
:10010300E4FFD290FEEEC3940850113090FDEF252A
:10011300E0FF3091010F2090FD0E80E9C2913090F5
:09012300FD2090FDD291D2902242
:10012C00D290E4FEEEC394085017EF30E704D2915E
:10013C008002C291EF25E0FF3090FD2090FD0E80F3
:0A014C00E3D2913090FD2090FD22D7
:0A0156002091FD3090FD3091FD2254
:10016000E4FEEEC39408501CEF30E704D291800205
:10017000C2911200EB1200E1C2901200E1EF25E003
:10018000FF0E80DED2911200EB1200E1309103539A
:080190001701C2901200E122E8
:10019800D2901200E1C2911200E1C2901200E1EF88
:0601A8002DFF1201602290
:1001AE003091032090FA2091193090162090FD1274
:1001BE000103EFB4020A120103AD071201568002C9
:0501CE00E4FDAF052275
:1001D3003091032090FA2091153090122090FD1257
:1001E3000103EFB40208120103AD07120156AF0574
:0101F30022E9
:1001F400AD073091032090FA20911630901320908F
:10020400FD120103EF64037008AF0512012C120103
:02021400562270
:10021600C2911200E11200EB1200E1D2911200E14C
:0102260022B5
:10022700AC05E4FD120198AF041201601202162218
:03000300020237BF
:10023700C0E0C083C082C0D0C000C004C005C006F3
:10024700C007C2B31201AE8F14EF14B40700400306
:100257000202ED900261F8282873020276020284F6
:1002670002029002029D0202AA0202B10202B875BE
:100277001601751101750C01E4F50D8069751601FC
:10028700E4F511F50CF50D805D751601751101E4A6
:10029700F50CF50D8050751601E4F511750C01F597
:1002A7000D8043E4F516F50D803C1201D38F0B80CA
:1002B700351201D3AC071201D3AD07C280AF047565
:1002C7000F008F10E510751000F50FAF05EF251023
:1002D700F510E4350FF50FE510B4E807E50FB403A3
:1002E70002C281750D0130B2FDD2B3D007D006D05E
:0E02F70005D004D000D0D0D082D083D0E03229
:03000B00020305E8
:10030500C0E0C0D0C28CE51664017058E5116401E7
:10031500700FE512C394015004D2A38011C2A380CB
:100325000DE512C394085004D2A38002C2A3E50CC4
:10033500700FE50EC394015004D2A28011C2A280B1
:100345000DE50EC394085004D2A28002C2A2051284
:10035500050EE512B47003E4F512E50E647070083D
:10036500F50E8004C2A3C2A2E513C394325004055E
:10037500138025E4F513E50D601ED3E5109400E523
:100385000F9400400AE51015107002150F8009E45E
:0F039500F50DF516C2A3C2A2D28CD0D0D0E032A3
:1003A4007580FF7590FF75A0CF75B0FFE4F512F569
:1003B4000EF511F50CF516751405758922758C0664
:0A03C400D28CD28875A88380FE2237
:03000000020040BB
:0C004000787FE4F6D8FD75811702008778
:10004C000203A4E493A3F8E493A34003F68001F223
:10005C0008DFF48029E493A3F85407240CC8C333B5
:10006C00C4540F4420C8834004F456800146F6DF84
:10007C00E4800B01020408102040809003CEE47E43
:10008C00019360BCA3FF543F30E509541FFEE49379
:10009C00A360010ECF54C025E060A840B8E493A340
:1000AC00FAE493A3F8E493A3C8C582C8CAC583CA6B
:1000BC00F0A3C8C582C8CAC583CADFE9DEE780BE23
:0103D7000025
:00000001FF
