:03019400010C005B
:10008000E4FEEEC39F500DE4FCECC39D50030C80D6
:05009000F80E80EE22D5
:0E009500780DA60608A6078F828E83EDF02256
:0E00A300780DA60608A6078F828E83E0FF2246
:0A00B100E4F50AF50AF50AF50A2243
:1000BB00D2902090110509E50970020508E5094564
:0700CB000870EF530C022244
:0A00D2002091FD3090FD3091FD22D9
:1000DC00E4FFD290FEEEC3940850113090FDEF2552
:1000EC00E0FF3091010F2090FD0E80E9C29130901D
:0900FC00FD2090FDD291D290226A
:10010500E4FEEEC39408501CEF30E704D291800260
:10011500C2911200BB1200B1C2901200B1EF25E0EE
:10012500FF0E80DED2911200BB1200B130910205A4
:070135000CC2901200B12280
:10013C00D2901200B1C2911200B1C2901200B1EF74
:06014C002DFF1201052247
:10015200C2911200B11200BB1200B1D2911200B1D1
:01016200227A
:100163003091032090FA2091153090122090FD12C7
:1001730000DCEFB455081200DCAD071200D2AF0566
:010183002259
:10018400AC05E4FD12013CAF041201051201522238
:00000001FF
