:100ED40060800068000000000000000000000000C6
:100EE40000000000000000000000000000000000FE
:100EF40000000000000000000000000000000000EE
:100F040000000000000000000000000000000000DD
:100F140000000000000000000000000000000000CD
:100F240000000000000000000000000000000000BD
:100F340000000000000000000000000000000000AD
:100F4400000000000000000000000000000000009D
:100F540000000000608000E90000000000000000C4
:100F6400000000000000000000000000000000007D
:100F7400000000000000000000000000000000006D
:100F8400000000000000000000000000000000005D
:100F9400000000000000000000000000000000004D
:100FA400000000000000000000000000000000003D
:100FB400000000000000000000000000000000002D
:100FC400000000000000000000000000000000001D
:100FD400000000000000000060800B5200000000D0
:100FE40000000000000000000000000000000000FD
:100FF40000000000000000000000000000000000ED
:1010040000000000000000000000000000000000DC
:1010140000000000000000000000000000000000CC
:1010240000000000000000000000000000000000BC
:1010340000000000000000000000000000000000AC
:10104400000000000000000000000000000000009C
:1010540000000000000000000000000058017C01B6
:1010640023456789ABCDEFFEDCBA987654321089FC
:10107400ABCDEF01234567500BD200800040002028
:101084000010000800040002000160600AF2008001
:1010940000000040000000200000001000000008D4
:1010A4000000000400000002000000010000000035
:1010B400800000004000000020000000100000003C
:1010C400080000000400000002000000010000000D
:1010D400008000000040000000200000001000001C
:1010E4000008000000040000000200000001603855
:1010F400000038302820181008003931292119112E
:1011040009013A322A221A120A023B332B233E36B1
:101114002E261E160E063D352D251D150D053C34B7
:101124002C241C140C041B130B0350016B0102042C
:1011340006080A0C0E0F11131517191B1C6030003A
:10114400380D100A170004021B0E05140916120BA1
:101154000319070F061A130C0128331E242E361DFB
:1011640027322C202F2B30263721342D2931231CD4
:101174001F610002EF0101040000000000000100F3
:101184000001010404010100040001040400000042
:101194000400010000000004000101040001010436
:1011A4000400000400010004040101000401000023
:1011B4000000000004000004040100040001000415
:1011C400000001040000010400010100000101000D
:1011D40000010004040001000401000004010000F7
:1011E40004000100040000000000000404000104E5
:1011F40004010000000001000001010404000000DB
:1012040004010100000101040001000000010000CC
:1012140000000004000101000400010000000104BA
:1012240000010000040000040000000004010004A8
:10123400040001040401010404000100040101008C
:10124400000100040401000004000004040001047F
:10125400040101040000000404010004000100046E
:101264000000000000000100040001040000000070
:101274000001010004610003EF80108020800080E1
:10128400000000800000108020001000000000001A
:1012940020801000208000802080000020801080AA
:1012A400208010800080000000800080000010007A
:1012B40000000000208010002000108000001000BA
:1012C40020800080200000000080000000000080DA
:1012D400000010802080100000001000208000001A
:1012E400200000000000108000000080208010809A
:1012F400008010000000008020000000000010802A
:101304002080100020001000008000802080100049
:1013140000801080000000800080100000800080A9
:1013240000000000208010802000108020000000B9
:1013340020000080008000000000008020801080D9
:1013440000001000008000002000100020800080B9
:101354002080000020001000200010800000000009
:1013640000800080000000802080000000801000C9
:10137400208010802000108000610004EF00000233
:101384000808020200000000000802000808000229
:101394000000000000000202080800020000020031
:1013A4000808000008080000080002000008020203
:1013B40008000200080802000000000208080000FB
:1013C40000000000080802020000000200000202FF
:1013D40000080200000802000800020208080002D7
:1013E40008000202000002000008000208000000D9
:1013F40008080202080000020008000000080202B7
:1014040000080000000002000800000208000200BA
:1014140000080202000800020000000000000002B0
:101424000000020008080202080800020008000088
:101434000800000200000000000802000808000282
:101444000800020000080000000802020800000072
:101454000800020208000202000800000808020056
:10146400000800020800000208080200000002024E
:1014740008000000080802000800020200610005DC
:10148400EF00802001000020810000208100000086
:101494008000802080008000810080000100002006
:1014A4000100000000008020000080200000802057
:1014B40081000000810000000000800080008000A6
:1014C40001000000010000200000800000008020D6
:1014D40001000000800080000000002001000020C6
:1014E4008000800081000000010000208000800056
:1014F4008000002000008020800080208100000007
:101504008100800080008000010080200000802095
:101514008100000081000000000000000000802025
:101524000000002080008000800080008100000016
:1015340001008020010000208100002081000000C3
:101544008000802081000000810000000100002054
:101554000000800001000020010080208000800045
:101564008100002001000020800080000000802015
:1015740001000000800080000000002000008020A6
:1015840080610006EF00000100020801000208006B
:1015940000420001000008000000000100400000BB
:1015A40000020800004008010000080000020001D9
:1015B4000040080100420001004208000000080148
:1015C4000040000000020000004008000040080045
:1015D4000000000000400001004208010042080130
:1015E4000002000100420800004000010000000069
:1015F4000042000000020801000200000042000056
:101604000000080100000800004200010000000181
:101614000002000000400000000208000042000137
:1016240000400801000200010040000000420800E0
:10163400000208010040080100000001000200004F
:1016440000420800004208010000080100420000B6
:1016540000420801000208000000000000400800E9
:1016640000420000000008010002000100400001E7
:10167400000008000000000000400800000208010B
:101684000040000100610007EF200000102040002E
:1016940000000040002040401020400000000000F6
:1016A4001020404010004000002000400000404056
:1016B40010004000002000001000400010200040F6
:1016C4000020000000000040100000000000400066
:1016D4001020004010000040000040400020004066
:1016E40010000000102040001020400010000000F6
:1016F40000004040102040400000004010004040E6
:1017040000204040002000000020004000000000B5
:1017140010204000100040400020404010004000D5
:101724000000004010200000100040000020004095
:101734000020000000000040102000001020404065
:101744001000404000204000000040401020404075
:1017540000000000002040001000000010000040C5
:101764000020400000004040100000400000400005
:101774001020004010000000002040400020000025
:10178400000040001020004010610008EF0020001D
:101794000004200002040008020000000000000809
:1017A40000040008020020080204200800042008A5
:1017B40002002000000000000004000002000000FD
:1017C40002040000000420000200000802040008D3
:1017D40000002008020020000204000800040000A9
:1017E400020420000004200800002000020420005D
:1017F400000000080000000802042008020020087D
:1018040000000000020400000000200800040000A2
:101814000000200800002000000400080204000862
:101824000204200002042000020000000200200044
:101834000204000000040008000020000004200846
:10184400000000080200200802042008000000082C
:101854000204000002042008020420000000200802
:101864000000000000000000020420080200000044
:10187400000020080204200000000008000400000A
:1018840002040008000000080000200002610009B2
:10189400EF100010400000100000040000100410BD
:1018A4004010000000100010400000004010000034
:1018B4000000040040100400001004104000041054
:1018C400001004100000041040000010000000008C
:1018D4004010040000100000401000100000001030
:1018E40040000410000004004010040040100410E4
:1018F4000000001040000000000000000010040080
:1019040040100000401000100000041040000400CB
:101914000000041040000400001004100000001037
:1019240000000000401004004000001000000410FB
:10193400401000100000000040100000401004009F
:10194400001004004010000000000400001000100B
:10195400400000000010041040000400401000008B
:10196400401004000010001000100010400000009F
:1019740000100410400004100000041000000010C7
:10198400400000104000040040100000001004104B
:0C199400004802D33F48CBE90A5D6DA17A
:0819A100900BE8ECF0A3EDF05F
:1019A900E4900BECF0A3F0900BEDE02400F582E459
:1019B9003400F583E0FF900BEEE4F0A3EFF0900B19
:1019C900EEE0FCA3E0FD5407FFA3E4F0A3EFF0ED84
:1019D900AE047803CEA2E713CE13D8F8F5828E832E
:1019E900121E33FD900BF1E025E0FF900BF0E03380
:1019F900FE74D22FF582740B3EF583A3E05D60047B
:101A09007F0180027F00900BEDE024F4F582E4343D
:101A19000BF583EFF0900BEDE004F07006900BEC02
:101A2900E004F0900BECE07004A3E064386003027A
:101A390019B0E4900BEAF0A3F0900BEAE0FEA3E002
:101A4900FFC39410EE648094804003021D1B900B29
:101A5900E8E07004A3E064017017C3740F9FFFE40A
:101A69009EFEEF25E0FFEE33900BF0F0A3EFF08040
:101A790013900BEBE025E0FE900BEAE033900BF0BE
:101A8900F0A3CEF0900BF0E0FAA3E0FB2401FEE412
:101A99003AA3F0A3CEF0900BF2E0FEA3E07802C3E4
:101AA90033CE33CED8F92464F582740C3EF5831213
:101AB9001F5A00000000EBAE027802C333CE33CECA
:101AC900D8F92464F582740C3EF583121F5A00007C
:101AD9000000E4900BECF0A3F0900BECE0FEA3E027
:101AE900FFC3941CEE648094805060900BEBE0245B
:101AF9006BF582E43401F583E0FD7C00EF2DFFEC0A
:101B09003EFE900BEEF0A3EFF0C3941CEE648094BC
:101B190080500AE024F4F582E4340B800B900BEF3B
:101B2900E024D8F582E4340BF583E0FF900BEDE077
:101B3900242CF582E4340CF583EFF0900BEDE004EE
:101B4900F07096900BECE004F0808E900BECE4F0D2
:101B5900A3741CF0900BECE0FEA3E0FFC39438EEF5
:101B6900648094805060900BEBE0246BF582E43440
:101B790001F583E0FD7C00EF2DFFEC3EFE900BEEBE
:101B8900F0A3EFF0C39438EE64809480500AE02407
:101B9900F4F582E4340B800B900BEFE024D8F58246
:101BA900E4340BF583E0FF900BEDE0242CF582E49F
:101BB900340CF583EFF0900BEDE004F07096900B88
:101BC900ECE004F0808EE4900BECF0A3F0900BECC9
:101BD900E0FEA3E0FFC39418EE6480948040030202
:101BE9001D0A74382FF58274003EF583E0242CF524
:101BF90082E4340CF583E0606D900BF0E0FEA3E025
:101C09007802C333CE33CED8F92464F582740C3EFE
:101C1900F583C083C082E0FCA3E0FDA3E0FEA3E05E
:101C2900FFC004C005C006C007900BECE0FEA3E0AE
:101C39007802C333CE33CED8F924F2F582740A3E42
:101C4900F583E0F8A3E0F9A3E0FAA3E0D007D00612
:101C5900D005D0044FFFEE4AFEED49FDEC48FCD01B
:101C690082D083121F4E900BECE0FEA3E02450F5C6
:101C79008274003EF583E0242CF582E4340CF5836C
:101C8900E0606D900BF2E0FEA3E07802C333CE333F
:101C9900CED8F92464F582740C3EF583C083C082E2
:101CA900E0FCA3E0FDA3E0FEA3E0FFC004C005C083
:101CB90006C007900BECE0FEA3E07802C333CE33F5
:101CC900CED8F924F2F582740A3EF583E0F8A3E050
:101CD900F9A3E0FAA3E0D007D006D005D0044FFF5E
:101CE900EE4AFEED49FDEC48FCD082D083121F4E2E
:101CF900900BEDE004F07006900BECE004F0021B91
:101D0900D6900BEBE004F07006900BEAE004F002C9
:0B1D19001A427B017A0C796402201949
:0B201900900CE4EBF0A3EAF0A3E9F068
:10202400A37401F0A3740CF0A374EDF0E4900D6DAF
:10203400F0A3F0C3900D6EE09410900D6DE06480F9
:10204400948040030222FB900CE4E0FAA3E475F0D0
:1020540004121E88A9F0900CEACAF0A3EAF0A3E9DE
:10206400F0900CEAE0FBA3E0FAA3E0F9121EC4E44A
:10207400FFFEED54FCFDE4FC7806121EB1900CE763
:10208400E0FBA3E0FAA3E0F9121F14900CE7E0FBD5
:10209400A3E0FAA3E0F9C003C002C001121EC4C049
:1020A40004C005C006C007900CEAE0FBA3E0FAA355
:1020B400E0F9121EC4EF54C0FFEE540FFEE4FDFC21
:1020C400780A121EB1A804A905AA06AB07D007D046
:1020D40006D005D004EF4BFFEE4AFEED49FDEC4877
:1020E400FCD001D002D003121F14900CE7E0FBA334
:1020F400E0FAA3E0F9C003C002C001121EC4C00488
:10210400C005C006C007900CE4E0FBA3E0FAA3E01E
:10211400F9121EC4E4FFFEED54FCFDE4FC780A123F
:102124001E9EA804A905AA06AB07D007D006D005B1
:10213400D004EF4BFFEE4AFEED49FDEC48FCD00124
:10214400D002D003121F14900CE7E0FBA3E475F057
:1021540004121E88A9F0FAC003C002C001121EC4F2
:10216400C004C005C006C007900CE4E0FBA3E0FA7D
:10217400A3E0F9121EC4EF54C0FFEE540FFEE4FDB9
:10218400FC7806121E9EA804A905AA06AB07D00770
:10219400D006D005D004EF4BFFEE4AFEED49FDEC2E
:1021A40048FCD001D002D003121F14900CEAE0FBCB
:1021B400A3E0FAA3E0F9121EC4E4FFEE54F0FEED2E
:1021C4005403FDE4FC780C121EB1900CE7E0FBA371
:1021D400E0FAA3E0F9121F14900CE7E0FBA3E0FA85
:1021E400A3E0F9C003C002C001121EC4C004C005AC
:1021F400C006C007900CEAE0FBA3E0FAA3E0F912E2
:102204001EC4EF543FFFE4FEFDFC7810121EB1A87B
:1022140004A905AA06AB07D007D006D005D004EF61
:102224004BFFEE4AFEED49FDEC48FCD001D002D054
:1022340003121F14900CE7E0FBA3E0FAA3E0F9C03B
:1022440003C002C001121EC4C004C005C006C007FA
:10225400900CE4E0FBA3E0FAA3E0F9121EC4E4FF4F
:10226400EE54F0FEED5403FDE4FC7804121E9EA827
:1022740004A905AA06AB07D007D006D005D004EF01
:102284004BFFEE4AFEED49FDEC48FCD001D002D0F4
:1022940003121F14900CE7E0FBA3E475F004121E74
:1022A40088A9F0FAC003C002C001121EC4C004C051
:1022B40005C006C007900CE4E0FBA3E0FAA3E0F934
:1022C400121EC4EF543FFBD007D006D005D004EF54
:1022D4004BFFECD001D002D003121F14900D6EE01E
:1022E40004F07006900D6DE004F0900CE5E475F0D8
:1022F40004121E720220377B017A0C79ED022F3210
:0B2EBD00900BE8EBF0A3EAF0A3E9F0B3
:102EC800A37401F0A37400F0A37468F0A37401F074
:102ED800A37400F0A374E8F0900BEEE0FBA3E0FA13
:102EE800A3E0F9C003C002C001900BEBA3E0FAA372
:102EF800E0F9C3D082D083D0E0E99582EA95835087
:102F080028900BEBE0FBA3E475F004121E88A9F0EF
:102F1800FA121EC4900BE8E0FBA3E475F004121E3D
:092F280088A9F0FA121F1480AF11
:012F3100227D
:0B2F3200900D6FEBF0A3EAF0A3E9F0B4
:102F3D00A37401F0A37400F0A37468F0A37401F0FE
:102F4D00A37400F0A374E8F0900D75E0FBA3E0FA14
:102F5D00A3E0F9C003C002C001900D72A3E0FAA373
:102F6D00E0F9C3D082D083D0E0E99582EA95835011
:102F7D0028900D6FE0FBA3E475F004121E88A9F0F4
:102F8D00FA121EC4900D72E0FBA3E475F004121E3C
:092F9D0088A9F0FA121F1480AF9C
:012FA6002208
:08230400E0FBA3E0FAA3E0F9FD
:10230C00900BFBEBF0A3EAF0A3E9F0900BFBE0FBE6
:10231C00A3E475F001121E88A9F0FA121E1AFFE44C
:10232C00FCFDFE7818121EB1900BFEE0FBA3E0FA48
:10233C00A3E0F9121F14900BFEE0FBA3E0FAA3E05C
:10234C00F9C003C002C001121EC4C004C005C006FF
:10235C00C007900BFBE0FBA3E475F001121E88A9EB
:10236C00F0FA121E1AFFE4FCFDFE7810121EB1A842
:10237C0004A905AA06AB07D007D006D005D004EFF8
:10238C004BFFEE4AFEED49FDEC48FCD001D002D0EB
:10239C0003121F14900BFEE0FBA3E0FAA3E0F9C0BC
:1023AC0003C002C001121EC4C004C005C006C00791
:1023BC00900BFBE0FBA3E475F001121E88A9F0FA68
:1023CC00121E1AFFE4FCFDFE7808121EB1A804A927
:1023DC0005AA06AB07D007D006D005D004EF4BFFFB
:1023EC00EE4AFEED49FDEC48FCD001D002D00312C0
:1023FC001F14900BFEE0FBA3E475F004121E88A9D9
:10240C00F0FAC003C002C001121EC4C004C005C053
:10241C0006C007900BFBE0FBA3E475F001121E88CD
:10242C00A9F0FA121E1AFFAB07D007D006D005D0C0
:10243C0004EF4BFFECD001D002D003121F14900B11
:10244C00FBE0FBA3E475F001121E88A9F0FA121E42
:10245C001AFFE4FCFDFE7818121EB1900BFEE0FB97
:10246C00A3E0FAA3E0F9121F14900BFEE0FBA3E02B
:10247C00FAA3E0F9C003C002C001121EC4C004C01C
:10248C0005C006C007900BFBE0FBA3E475F001123E
:10249C001E88A9F0FA121E1AFFE4FCFDFE78101239
:1024AC001EB1A804A905AA06AB07D007D006D00513
:1024BC00D004EF4BFFEE4AFEED49FDEC48FCD00199
:1024CC00D002D003121F14900BFEE0FBA3E0FAA382
:1024DC00E0F9C003C002C001121EC4C004C005C094
:1024EC0006C007900BFBE0FBA3E475F001121E88FD
:1024FC00A9F0FA121E1AFFE4FCFDFE7808121EB1B8
:10250C00A804A905AA06AB07D007D006D005D004AD
:10251C00EF4BFFEE4AFEED49FDEC48FCD001D0023A
:10252C00D003121F14900BFEE0FBA3E0FAA3E0F91A
:10253C00C003C002C001121EC4C004C005C006C046
:10254C0007900BFBE0FBA3E0FAA3E0F9121E1AFFC5
:10255C00AB07D007D006D005D004EF4BFFECD00171
:07256C00D002D003021F148E
:10270800900BFBEBF0A3EAF0A3E9F0900BFBE0FBE6
:10271800A3E0FAA3E0F9121EC47818121E9E900BCB
:10272800FEE0FBA3E475F001121E88A9F0FAEF128F
:102738001E60900BFBE0FBA3E0FAA3E0F9121EC4B5
:102748007810121E9E900BFEE0FBA3E475F00112B8
:102758001E88A9F0FAEF121E60900BFBE0FBA3E0C5
:10276800FAA3E0F9121EC47808121E9E900BFEE030
:10277800FBA3E475F001121E88A9F0FAEF121E609F
:10278800900BFBE0FBA3E475F004121E88A9F0FA95
:10279800121EC4900BFEE0FBA3E475F001121E8824
:1027A800A9F0FAEF121E60900BFBE0FBA3E0FAA37E
:1027B800E0F9121EC47818121E9E900BFEE0FBA3CF
:1027C800E475F001121E88A9F0FAEF121E60900B52
:1027D800FBE0FBA3E0FAA3E0F9121EC47810121E76
:1027E8009E900BFEE0FBA3E475F001121E88A9F091
:1027F800FAEF121E60900BFBE0FBA3E0FAA3E0F9EE
:10280800121EC47808121E9E900BFEE0FBA3E4750E
:10281800F001121E88A9F0FAEF121E60900BFBE07F
:10282800FBA3E0FAA3E0F9121EC4900BFEE0FBA3A1
:09283800E0FAA3E0F9EF021E60D2
:0B000300900BFBEBF0A3EAF0A3E9F088
:10000E00121EC4900C0D121F4E900004121EE4908E
:10001E000C09121F4E900C0DE0FCA3E0FDA3E0FEB8
:10002E00A3E0FF7804121E9E900C09E0F8A3E0F9FD
:10003E00A3E0FAA3E06FFFEA6EFEE96DFDE86CFC4B
:10004E00EF540FFFEE540FFEED540FFDEC540FFC6A
:10005E00900C05121F4E900C09E0FCA3E0FDA3E0EE
:10006E00FEA3E0FF900C05E0F8A3E0F9A3E0FAA3ED
:10007E00E0FBEF6BFFEE6AFEED69FDEC68FCA31290
:10008E001F4E900C0DE0F8A3E0F9A3E0FAA3E0FBFD
:10009E00C000900C05E0FCA3E0FDA3E0FEA3E0FF92
:1000AE007804121EB1D000EB6FFFEA6EFEE96DFD13
:1000BE00E86CFC900C0D121F4E900C0DE0FCA3E0B2
:1000CE00FDA3E0FEA3E0FF7810121E9E900C09E047
:1000DE00F8A3E0F9A3E0FAA3E06FFFEA6EFEE4FDF9
:1000EE00FC900C05121F4E900C09E0FCA3E0FDA342
:1000FE00E0FEA3E0FF900C05E0F8A3E0F9A3E0FA20
:10010E00A3E0FBEF6BFFEE6AFEED69FDEC68FCA36E
:10011E00121F4E900C0DE0F8A3E0F9A3E0FAA3E055
:10012E00FBC000900C05E0FCA3E0FDA3E0FEA3E005
:10013E00FF7810121EB1D000EB6FFFEA6EFEE96D74
:10014E00FDE86CFC900C0D121F4E900C09E0FCA308
:10015E00E0FDA3E0FEA3E0FF7802121E9EA3E0F8EE
:10016E00A3E0F9A3E0FAA3E06FFFEA6EFEE96DFDEE
:10017E00E86CFCEF5433FFEE5433FEED5433FDECDC
:10018E005433FC900C05121F4E900C0DE0FCA3E0B6
:10019E00FDA3E0FEA3E0FF900C05E0F8A3E0F9A3B9
:1001AE00E0FAA3E0FBEF6BFFEE6AFEED69FDEC6893
:1001BE00FC900C0D121F4E900C09E0F8A3E0F9A371
:1001CE00E0FAA3E0FBC000900C05E0FCA3E0FDA369
:1001DE00E0FEA3E0FF7802121EB1D000EB6FFFEA43
:1001EE006EFEE96DFDE86CFCA3121F4E900C09E04B
:1001FE00FCA3E0FDA3E0FEA3E0FF7808121E9EA381
:10020E00E0F8A3E0F9A3E0FAA3E06FFFE96DFDE4E7
:10021E00FEE4FC900C05121F4E900C0DE0FCA3E0CA
:10022E00FDA3E0FEA3E0FF900C05E0F8A3E0F9A328
:10023E00E0FAA3E0FBEF6BFFEE6AFEED69FDEC6802
:10024E00FC900C0D121F4E900C09E0F8A3E0F9A3E0
:10025E00E0FAA3E0FBC000900C05E0FCA3E0FDA3D8
:10026E00E0FEA3E0FF7808121EB1D000EB6FFFEAAC
:10027E006EFEE96DFDE86CFCA3121F4E900C09E0BA
:10028E00FCA3E0FDA3E0FEA3E0FF781F121E9EEF8D
:10029E005401FFE4FEFDFCC004C005C006C007907B
:1002AE000C09E0FCA3E0FDA3E0FEA3E0FF78011241
:1002BE001EB1D003D002D001D000EF4BFFEE4AFEAC
:1002CE00ED49FDEC48FCEC900C09121F4E900C0908
:1002DE00E0FCA3E0FDA3E0FEA3E0FFA3E0F8A3E0B3
:1002EE00F9A3E0FAA3E06FFFEA6EFEE96DFDE86C9C
:1002FE00FCEF54AAFFEE54AAFEED54AAFDEC54AA4C
:10030E00FC900C05121F4E900C0DE0FCA3E0FDA31B
:10031E00E0FEA3E0FF900C05E0F8A3E0F9A3E0FAFD
:10032E00A3E0FBEF6BFFEE6AFEED69FDEC68FC905F
:10033E000C0D121F4E900C09E0FCA3E0FDA3E0FE95
:10034E00A3E0FF900C05E0F8A3E0F9A3E0FAA3E028
:10035E00FBEF6BFFEE6AFEED69FDEC68FCA3121F6E
:10036E004E900C0DE0FCA3E0FDA3E0FEA3E0FF78B1
:10037E001F121E9EEF5401FFE4FEFDFCC004C005DB
:10038E00C006C007900C0DE0FCA3E0FDA3E0FEA3A9
:10039E00E0FF7801121EB1D003D002D001D000EFE1
:1003AE004BFFEE4AFEED49FDEC48FCEC900C0D12B5
:1003BE001F4EE4900C11F0A3F0900C09E0FCA3E0AA
:1003CE00FDA3E0FEA3E0FF781C121EB1C004C00521
:1003DE00C006C007900C09E0FCA3E0FDA3E0FEA35D
:1003EE00E0FF7804121E9ED003D002D001D000EFA1
:1003FE004BFFEE4AFEED49FDEC48FC900C05121F3A
:10040E004E900C05E0FCA3E0FDA3E0FEA3E0FF9000
:10041E000BFEE0FBA3E475F004121E88A9F0FA129D
:10042E001F2EEF6BFFEE6AFEED69FDEC68FC900C83
:10043E0005121F4E900C05A3A3A3E0543FFF900896
:10044E00EF75F004EF121F8BE425E025E02583F510
:10045E0083E0FCA3E0FDA3E0FEA3E0FF900C0112FD
:10046E001F4E900C01E0FCA3E0FDA3E0FEA3E0FF15
:10047E00C004C005C006C007A3E0FCA3E0FDA3E0D6
:10048E00FEA3E0FF7808121E9EEF543FFF9006EF8A
:10049E0075F004EF121F8BE425E025E02583F5832C
:1004AE00E0F8A3E0F9A3E0FAA3E0D007D006D00568
:1004BE00D0044FFFEE4AFEED49FDEC48FC900C01D6
:1004CE00121F4E900C01E0FCA3E0FDA3E0FEA3E0A2
:1004DE00FFC004C005C006C007A3E0FCA3E0FDA357
:1004EE00E0FEA3E0FF7810121E9EEF543FFF900433
:1004FE00EF75F004EF121F8BE425E025E02583F560
:10050E0083E0F8A3E0F9A3E0FAA3E0D007D006D089
:10051E0005D0044FFFEE4AFEED49FDEC48FC900C71
:10052E0001121F4E900C01E0FCA3E0FDA3E0FEA320
:10053E00E0FFC004C005C006C007A3E0FCA3E0FDB9
:10054E00A3E0FEA3E0FF7818121E9EEF543FFF902B
:10055E0002EF75F004EF121F8BE425E025E02583F2
:10056E00F583E0F8A3E0F9A3E0FAA3E0D007D00604
:10057E00D005D0044FFFEE4AFEED49FDEC48FC904D
:10058E000C01121F4E900BFEE0FBA3E475F004125B
:10059E001E88A9F0FA121EC4900C09E0F8A3E0F927
:1005AE00A3E0FAA3E06FFFEA6EFEE96DFDE86CFCD6
:1005BE00900C05121F4E900C01E0F8A3E0F9A3E099
:1005CE00FAA3E0FBA3A3A3A3E0543FFF9009EF75AA
:1005DE00F004EF121F8BE425E025E02583F583E080
:1005EE00FCA3E0FDA3E0FEA3E0FFEB4FFFEA4EFE0F
:1005FE00E94DFDE84CFC900C01121F4E900C01E0F1
:10060E00FCA3E0FDA3E0FEA3E0FFC004C005C0060E
:10061E00C007A3E0FCA3E0FDA3E0FEA3E0FF780883
:10062E00121E9EEF543FFF9007EF75F004EF121F5E
:10063E008BE425E025E02583F583E0F8A3E0F9A31C
:10064E00E0FAA3E0D007D006D005D0044FFFEE4A63
:10065E00FEED49FDEC48FC900C01121F4E900C0172
:10066E00E0FCA3E0FDA3E0FEA3E0FFC004C005C0D4
:10067E0006C007A3E0FCA3E0FDA3E0FEA3E0FF7825
:10068E0010121E9EEF543FFF9005EF75F004EF120F
:10069E001F8BE425E025E02583F583E0F8A3E0F940
:1006AE00A3E0FAA3E0D007D006D005D0044FFFEEAA
:1006BE004AFEED49FDEC48FC900C01121F4E900CC9
:1006CE0001E0FCA3E0FDA3E0FEA3E0FFC004C00533
:1006DE00C006C007A3E0FCA3E0FDA3E0FEA3E0FF7D
:1006EE007818121E9EEF543FFF9003EF75F004EF43
:1006FE00121F8BE425E025E02583F583E0F8A3E0C7
:10070E00F9A3E0FAA3E0D007D006D005D0044FFF3E
:10071E00EE4AFEED49FDEC48FC900C01121F4E9086
:10072E000C0DE0FCA3E0FDA3E0FEA3E0FF900C01A6
:10073E00E0F8A3E0F9A3E0FAA3E0FBEF6BFFEE6AAB
:10074E00FEED69FDEC68FC900C0D121F4E900C0D29
:10075E00E0FCA3E0FDA3E0FEA3E0FF781C121EB1B7
:10076E00C004C005C006C007900C0DE0FCA3E0FD60
:10077E00A3E0FEA3E0FF7804121E9ED003D002D0A9
:10078E0001D000EF4BFFEE4AFEED49FDEC48FC9028
:10079E000C05121F4E900C05E0FCA3E0FDA3E0FE3D
:1007AE00A3E0FF900BFEE0FBA3E475F004121E889D
:1007BE00A9F0FA121F2EEF6BFFEE6AFEED69FDEC4B
:1007CE0068FC900C05121F4E900C05A3A3A3E054D9
:1007DE003FFF9008EF75F004EF121F8BE425E02524
:1007EE00E02583F583E0FCA3E0FDA3E0FEA3E0FF9C
:1007FE00900C01121F4E900C01E0FCA3E0FDA3E053
:10080E00FEA3E0FFC004C005C006C007A3E0FCA322
:10081E00E0FDA3E0FEA3E0FF7808121E9EEF543F1A
:10082E00FF9006EF75F004EF121F8BE425E025E034
:10083E002583F583E0F8A3E0F9A3E0FAA3E0D0075F
:10084E00D006D005D0044FFFEE4AFEED49FDEC4830
:10085E00FC900C01121F4E900C01E0FCA3E0FDA3D6
:10086E00E0FEA3E0FFC004C005C006C007A3E0FC85
:10087E00A3E0FDA3E0FEA3E0FF7810121E9EEF544E
:10088E003FFF9004EF75F004EF121F8BE425E02577
:10089E00E02583F583E0F8A3E0F9A3E0FAA3E0D026
:1008AE0007D006D005D0044FFFEE4AFEED49FDEC11
:1008BE0048FC900C01121F4E900C01E0FCA3E0FDD1
:1008CE00A3E0FEA3E0FFC004C005C006C007A3E07E
:1008DE00FCA3E0FDA3E0FEA3E0FF7818121E9EEF3E
:1008EE00543FFF9002EF75F004EF121F8BE425E0EA
:1008FE0025E02583F583E0F8A3E0F9A3E0FAA3E071
:10090E00D007D006D005D0044FFFEE4AFEED49FDCC
:10091E00EC48FC900C01121F4E900BFEE0FBA3E482
:10092E0075F004121E88A9F0FA121EC4900C0DE088
:10093E00F8A3E0F9A3E0FAA3E06FFFEA6EFEE96D1B
:10094E00FDE86CFC900C05121F4E900C01E0F8A314
:10095E00E0F9A3E0FAA3E0FBA3A3A3A3E0543FFFB7
:10096E009009EF75F004EF121F8BE425E025E025CA
:10097E0083F583E0FCA3E0FDA3E0FEA3E0FFEB4FD5
:10098E00FFEA4EFEE94DFDE84CFC900C01121F4EA5
:10099E00900C01E0FCA3E0FDA3E0FEA3E0FFC00489
:1009AE00C005C006C007A3E0FCA3E0FDA3E0FEA3C4
:1009BE00E0FF7808121E9EEF543FFF9007EF75F090
:1009CE0004EF121F8BE425E025E02583F583E0F884
:1009DE00A3E0F9A3E0FAA3E0D007D006D005D00437
:1009EE004FFFEE4AFEED49FDEC48FC900C01121F44
:1009FE004E900C01E0FCA3E0FDA3E0FEA3E0FFC0DF
:100A0E0004C005C006C007A3E0FCA3E0FDA3E0FE02
:100A1E00A3E0FF7810121E9EEF543FFF9005EF7576
:100A2E00F004EF121F8BE425E025E02583F583E02B
:100A3E00F8A3E0F9A3E0FAA3E0D007D006D005D0E2
:100A4E00044FFFEE4AFEED49FDEC48FC900C0112FE
:100A5E001F4E900C01E0FCA3E0FDA3E0FEA3E0FF1F
:100A6E00C004C005C006C007A3E0FCA3E0FDA3E0E0
:100A7E00FEA3E0FF7818121E9EEF543FFF9003EF87
:100A8E0075F004EF121F8BE425E025E02583F58336
:100A9E00E0F8A3E0F9A3E0FAA3E0D007D006D00572
:100AAE00D0044FFFEE4AFEED49FDEC48FC900C01E0
:100ABE00121F4E900C09E0FCA3E0FDA3E0FEA3E0A4
:100ACE00FF900C01E0F8A3E0F9A3E0FAA3E0FBEF3E
:100ADE006BFFEE6AFEED69FDEC68FC900C09121FCF
:100AEE004E900C12E004F07006900C11E004F090A1
:100AFE000C11E07004A3E0640860030203C7900CBD
:100B0E0009E0FCA3E0FDA3E0FEA3E0FF781F121EA8
:100B1E00B1C004C005C006C007900C09E0FCA3E0FC
:100B2E00FDA3E0FEA3E0FF7801121E9ED003D002CB
:100B3E00D001D000EF4BFFEE4AFEED49FDEC48FC34
:100B4E00900C09121F4E900C09E0FCA3E0FDA3E0EF
:100B5E00FEA3E0FFA3E0F8A3E0F9A3E0FAA3E06FA1
:100B6E00FFEA6EFEE96DFDE86CFCEF54AAFFEE5451
:100B7E00AAFEED54AAFDEC54AAFC900C05121F4ED1
:100B8E00900C0DE0FCA3E0FDA3E0FEA3E0FF900CB3
:100B9E0005E0F8A3E0F9A3E0FAA3E0FBEF6BFFEEAC
:100BAE006AFEED69FDEC68FC900C0D121F4E900C68
:100BBE0009E0FCA3E0FDA3E0FEA3E0FF900C05E03E
:100BCE00F8A3E0F9A3E0FAA3E0FBEF6BFFEE6AFEF9
:100BDE00ED69FDEC68FCA3121F4E900C0DE0FCA31A
:100BEE00E0FDA3E0FEA3E0FF781F121EB1C004C01B
:100BFE0005C006C007900C0DE0FCA3E0FDA3E0FECF
:100C0E00A3E0FF7801121E9ED003D002D001D000C7
:100C1E00EF4BFFEE4AFEED49FDEC48FC900C0D1239
:100C2E001F4E900C0DE0FCA3E0FDA3E0FEA3E0FF41
:100C3E007808121E9E900C09E0F8A3E0F9A3E0FAE2
:100C4E00A3E06FFFE96DFDE4FEE4FC900C05121FBE
:100C5E004E900C09E0FCA3E0FDA3E0FEA3E0FF90A4
:100C6E000C05E0F8A3E0F9A3E0FAA3E0FBEF6BFFBD
:100C7E00EE6AFEED69FDEC68FCA3121F4E900C0DA2
:100C8E00E0F8A3E0F9A3E0FAA3E0FBC000900C05A6
:100C9E00E0FCA3E0FDA3E0FEA3E0FF7808121EB186
:100CAE00D000EB6FFFEA6EFEE96DFDE86CFC900C78
:100CBE000D121F4E900C0DE0FCA3E0FDA3E0FEA371
:100CCE00E0FF7802121E9E900C09E0F8A3E0F9A353
:100CDE00E0FAA3E06FFFEA6EFEE96DFDE86CFCEF53
:100CEE005433FFEE5433FEED5433FDEC5433FC908D
:100CFE000C05121F4E900C09E0FCA3E0FDA3E0FED4
:100D0E00A3E0FF900C05E0F8A3E0F9A3E0FAA3E05E
:100D1E00FBEF6BFFEE6AFEED69FDEC68FCA3121FA4
:100D2E004E900C0DE0F8A3E0F9A3E0FAA3E0FBC0AF
:100D3E0000900C05E0FCA3E0FDA3E0FEA3E0FF782D
:100D4E0002121EB1D000EB6FFFEA6EFEE96DFDE8F8
:100D5E006CFC900C0D121F4E900C09E0FCA3E0FDF4
:100D6E00A3E0FEA3E0FF7810121E9EA3E0F8A3E01E
:100D7E00F9A3E0FAA3E06FFFEA6EFEE4FDFC900C2F
:100D8E0005121F4E900C0DE0FCA3E0FDA3E0FEA3A8
:100D9E00E0FF900C05E0F8A3E0F9A3E0FAA3E0FB76
:100DAE00EF6BFFEE6AFEED69FDEC68FC900C0D1228
:100DBE001F4E900C09E0F8A3E0F9A3E0FAA3E0FBC4
:100DCE00C000900C05E0FCA3E0FDA3E0FEA3E0FF55
:100DDE007810121EB1D000EB6FFFEA6EFEE96DFDCA
:100DEE00E86CFCA3121F4E900C09E0FCA3E0FDA3DF
:100DFE00E0FEA3E0FF7804121E9EA3E0F8A3E0F944
:100E0E00A3E0FAA3E06FFFEA6EFEE96DFDE86CFC6D
:100E1E00EF540FFFEE540FFEED540FFDEC540FFC8C
:100E2E00900C05121F4E900C0DE0FCA3E0FDA3E00C
:100E3E00FEA3E0FF900C05E0F8A3E0F9A3E0FAA30F
:100E4E00E0FBEF6BFFEE6AFEED69FDEC68FC900CCB
:100E5E000D121F4E900C09E0F8A3E0F9A3E0FAA3DF
:100E6E00E0FBC000900C05E0FCA3E0FDA3E0FEA3B8
:100E7E00E0FF7804121EB1D000EB6FFFEA6EFEE9C0
:100E8E006DFDE86CFCA3121F4E900C09E0FCA3E074
:100E9E00FDA3E0FEA3E0FF900BFBE0FBA3E475F0E7
:100EAE0004121E88A9F0FA121F14900C0DE0FCA378
:100EBE00E0FDA3E0FEA3E0FF900BFBE0FBA3E0FA56
:060ECE00A3E0F9021F146D
:10308800900BE2EBF0A3EAF0A3E9F0A3E0FBA3E0E6
:10309800FAA3E0F9E4FDFC1219A1900BE2E0FBA30E
:1030A800E0FAA3E0F9122EBD900BE5E0FBA3E0FAED
:1030B800A3E0F97D017C001219A1900BE2E0FBA3CB
:0D30C800E0FAA3E02480F9E43AFA022EBDFC
:0B2D0600900BE3EBF0A3EAF0A3E9F070
:102D1100A3E0F9A3E0FAA3E0900BF5C9F0A3EAF070
:102D2100A3E9F0E4900BF3F0A3F0900BE9E0FEA32C
:102D3100E0FFC3900BF4E09FEE6480F8900BF3E0AA
:102D4100648098506B900BFE7401F0A3740BF0A398
:102D510074EBF0900BF5122304900BE3E0F9A3E080
:102D6100FAA3E0900BFEC9F0A3EAF0A3E9F07B011E
:102D71007A0B79EB120003900BF5E0F9A3E0FAA3CB
:102D8100E0900BFEC9F0A3EAF0A3E9F07B017A0B16
:102D910079EB122708900BF6E475F008121E729079
:102DA1000BF4E004F07083900BF3E004F0022D2BA0
:012DB10022FF
:0B2C5100900BE6EBF0A3EAF0A3E9F023
:102C5C00A3E0F9A3E0FAA3E0900BF8C9F0A3EAF023
:102C6C00A3E9F0E4900BF6F0A3F0900BECE0FEA3DC
:102C7C00E0FFC3900BF7E09FEE6480F8900BF6E05A
:102C8C006480985074900BFE7401F0A3740BF0A345
:102C9C0074EEF0900BF8122304900BE6E0FBA3E02B
:102CAC00FAA3E02480F9E43AFA900BFEEBF0A3EAE5
:102CBC00F0A3E9F07B017A0B79EE120003900BF88C
:102CCC00E0F9A3E0FAA3E0900BFEC9F0A3EAF0A3AD
:102CDC00E9F07B017A0B79EE122708900BF9E47579
:102CEC00F008121E72900BF7E004F06003022C76D1
:092CFC00900BF6E004F0022C76C6
:012D050022AB
:0A31DD001231E7AF041231E7AF0230
:1031E700E4FEAD07ED5480FD60062480D291800691
:1031F700C2918002D291C290EF25E0FFD2900EEEED
:03320700B408DF29
:01320A0022A1
:10320B00E4FDFCC290EF14600A04700EA292E4334A
:10321B00FE8009A293E433FE80027E01D290ED255D
:0A322B00E04EFD0CECB408DBAF052B
:013235002276
:06314D00FF900BE2E0FD23
:04315300AC05AB0715
:10315700EC146007047008C2948008C2958004D2FA
:1031670095D2947F031231E7AF031231E7AF041210
:06317700320BD295D29448
:01317D00222F
:10325F00AC07AA05EB146007047008C2948008C27B
:10326F00958004D295D2947F021231DDD295D294FB
:01327F00222C
:0F30D500FDE0FF900BE9E4F0A3EFF0E4FB7F2CAC
:1030E400AC07AA05900BE9E0FEA3E0FFEE700FEF3A
:1030F400146007047008C2948008C2958004D295B5
:10310400D2947F051231DDAF031231E7D295D29408
:013114002298
:1032BA00ED146007047008C2948008C2958004D295
:0B32CA0095D2941231E7D295D29422E5
:02323600AB07E4
:10323800EB146007047008C2948008C2958004D219
:1032480095D2947FA01231E7AF0312320BAF03126D
:06325800320BD295D29466
:01325E00224D
:0B3280007DDB7F101231367F647E0082
:10328B00EF4E600E7D010DEDB472FBEF1F70F11E62
:02329B0080EEC3
:01329D00220E
:0C32D500C2967F057E0012328BD296223A
:0C32E100C2977F057E0012328BD297222C
:102FA700A907AB017D807F0F12325F7D047F2A1254
:102FB700325F7DF17F2912325F7D057F2812325FF4
:102FC7007D017F2B12325FE4FD7F0D12325F7D049E
:102FD7007F6012325FE4FD7F7012325F7D82E4FF13
:102FE70012325F7DE07F0112325F7DFF7F20123258
:102FF7005FE4FD7F2112325FE4FD7F2212325FE43E
:10300700FD7F2312325F7D037F3012325FE4FD7F45
:043017000F02325F13
:1031150090017BE0FF123236900169EFF0FD7F20D0
:1031250012313690017BE0FD7F2C123153AD077FC4
:013135003069
:10313600AE80ACA0C2B18FA0EDF4F580D2B1AF06DF
:063146008F80AF048FA092
:01314C002260
:102B9A009001BE7402F0A37440F09001C3EFF0AF4D
:102BAA0005A3EFF0E4FD9001C3E02DFDE433FCEF53
:102BBA002DFDE43CF4FCEDF4FD0DBD00010C90018B
:102BCA006AE004F09001C0F0ECA3F0A3EDF07F05F9
:102BDA0074C02FF582E43401F583E4F00FEFB408F2
:102BEA00EF9001D17408F0E4FF74C02FF582E43449
:102BFA0001F583E0FE74E72FF582E43402F583EEF3
:102C0A00F00FEFB408E3900BE67401F0A37402F03E
:102C1A00A374E7F0A3E4F0A304F0FB7A0179D312DA
:102C2A002D06E4FF74E72FF582E43402F583E0FE13
:102C3A0074C02FF582E43401F583EEF00FEFB40887
:062C4A00E3E49001D2F06A
:012C50002261
:10284100E4FD7F101231367F201231367F30123194
:10285100367FF47E0112328B7DFF7F101231367F7D
:10286100F47E0112328BE4FD7F101231367DFF7F41
:10287100201231367FF47E0112328BE4FD7F20126B
:1028810031367DFF7F301231367FF47E0112328B7B
:10289100E4FD7F301231367DBF7F101231361232A6
:1028A100D51232E1E4FF122FA77F01122FA7E49086
:1028B100017BF090016A74FFF0E49000E8F074FF8E
:1028C100900AF0F0A3F0E49002DBF0A3F09002E5AF
:1028D100F0A304F0E4FF74DD2FF582E43402F58304
:1028E100E4F00FEFB408EFE4FFEF75F015A42494C2
:1028F100F582E43401F583E4F0EF75F015A4249535
:10290100F582E43401F583E4F0EF75F015A424A613
:10291100F582E43401F583E4F0EF75F015A424A702
:10292100F582E43401F583E4F0EF75F015A424A8F1
:10293100F582E43401F5837401F0E4FEEF75F015DE
:10294100A42496F582E43401F583E5822EF582E430
:102951003583F583E4F00EEEB410E10FEF640370FC
:0D29610088900AEF7403F0FDE4FF022B9A4A
:0E301B0078E27C0B7D017B01FE7F15121DF417
:10302900E4FBFA900BE3E020E629A3E02BFBE43371
:10303900FAA3E0FEE42BFBEE3AFA7D0274E42DF5E7
:1030490082E4340BF583E02BFBE43AFA0DEDB4107E
:10305900EB8022900BE4E0FEE42BFBEE3AFA7D01D3
:1030690074E42DF582E4340BF583E02BFBE43AFAA2
:0E3079000DEDB410EBEB4A70037F01227F00D7
:013087002226
:10329E00AB079000E8E0FFC3EB9FFFBF0103EBF02D
:0C32AE00227D861232829000E8EBF022B4
:10296E007901900BE7E0FF20E604E4FB80027B0197
:10297E00EB75F015A424A8F582E43401F583E06428
:10298E00016003022A93900BE6E0FEEB75F015A4AE
:10299E002494F582E43401F583EEF0EB75F015A482
:1029AE002495F582E43401F583EFF07A01900BF073
:1029BE00E0FFEAC39F5075EB75F015A424A6F582CF
:1029CE00E43401F583E0D3940F4016EB75F015A4B3
:1029DE0024A6F582E43401F583E4F0F91232808006
:1029EE004B74E82AF582E4340BF583E0FFEB75F0C7
:1029FE0015A424A6F582E43401F583E0FEEB75F010
:102A0E0015A42496F582E43401F583E5822EF58231
:102A1E00E43583F583EFF0EB75F015A424A6F5826B
:102A2E00E43401F583E004F00A0229BBE964017085
:102A3E00517DBF7F10123136900BE7E020E710EB8F
:102A4E0075F015A424A8F582E43401F583E4F0EBC7
:102A5E0075F015A424A6F582E43401F583E0FAEAB4
:102A6E00C39410501DEB75F015A42496F582E43432
:102A7E0001F583E5822AF582E43583F583E4F00AD5
:072A8E0080DD7F01227F00C3
:012A9500221E
:05257300900BE2EFF007
:10257800E4A3F0900BE3E0FFC394024003022707B3
:10258800EF900BE57003F080037410F0900BE2E01D
:10259800FF123236900169EFF0FD7F20123136903C
:1025A8000BE212312B900BE47401F0900BE4E0FF86
:1025B800900169E05F6F60030226EF900BE5E0246D
:1025C8006112314D9002DBEFF0900BE5E0246212CE
:1025D800314D9002DCEFF054E0F0900BE5E024651B
:1025E80012314D9002E5EFF0540FF06408600302D9
:1025F80026DBFA9002E5E0FFEAC39F501BEA246657
:10260800FF900BE5E02F12314D74DD2AF582E4349A
:1026180002F583EFF00A80DBE4FA74DD2AF582E440
:102628003402F583E0FF74E72AF582E43402F58387
:10263800EFF00AEAB408E3900BE97401F0A374021E
:10264800F0A374E7F0A3E4F0A304F0FB7A0179D3D4
:10265800122C51E4FA74E72AF582E43402F583E097
:10266800FF74DD2AF582E43402F583EFF00AEAB458
:1026780008E39002DDE0FF12329E900BE2E0701258
:1026880090017BE0B4010BE4F0900AEF7403F012C0
:102698003280900BE2E0B4011390017BE0700D04EE
:1026A800F0900AEF7405F07DCF12328278E67C0B49
:1026B8007D017B017A0279DB7E007F0C121DF4120A
:1026C800296EEF64017020900BE4E090017B1230DA
:1026D800D580147DED7F10123136900BE4E0900B1D
:1026E800E21230D5123287900BE4E004F0E0C39494
:0F26F8000350030225B3900BE3E004F002257BAF
:0127070022AF
:10317E009001A8E0702904F0E49001A6F07A01799C
:10318E009412301BBF01099000E8E0FD7F02800C15
:10319E007DFF1232829000E8E0FD7F01122B9A2211
:102E3E009001BDE0707804F0E49001BBF07A017966
:102E4E00A912301BEF640170569001ADE0FBB40186
:102E5E000E7DE67F101231367F647E0002328BEBE0
:102E6E00B40309900AEFE0FDE4FF803F9001ADE06E
:102E7E00FF64047039D3EF94FF7480947F402FE089
:102E8E009402502AA3E0FF90017BF07007900AEFA6
:102E9E007403F022EFB40116900AEF7405F0227D50
:0F2EAE00FF1232829000E8E0FD7F01122B9A2282
:102A9600E4900BE2F012311590017BE0FF12323622
:102AA600EF30E25B900BE2E004F0E0D394C840E83C
:102AB60090017BE07021900AEF7405F090017B7421
:102AC60001F07DDB7F101231367D017F04122B9AD7
:102AD6001232D5E4FF802590017BE0B401BA900A5A
:102AE600EF7403F0E490017BF07DCF7F1012313656
:102AF600E4FD7F04122B9A1232E17F01122FA712F6
:102B06003115900169E030E31690017BE0FF900BF0
:102B1600E9E4F0A3EFF0E4FB7D047F2C1230E490AF
:102B260001D2E0706E90017BE0FB7D027F311232B4
:102B36005F9001BFE0547FFD90017BE0FB7F321286
:102B4600325FE0FB7D087F3512325FE4F9E9243617
:102B5600FF74C029F582E43401F583E0FD90017B22
:102B6600E0FB12325F09E9B408E390017BE0FD7FE8
:102B7600811232BA9001BFE020E60D90016AE0FFB3
:102B8600900AF0E4F0A3EFF09001D27401F0E49023
:032B960001D0F07B
:012B99002219
:1031AE00900BE57401F0A37402F0A374D3F07B01CD
:1031BE007A0179D3123088122841E4FF1225737FE9
:0F31CE000112257312317E122E3E122A9680EBCB
:03000000022DB21C
:0C2DB200787FE4F6D8FD758107022DF94A
:101D2400E709F608DFFA8046E709F208DFFA803EA1
:101D340088828C83E709F0A3DFFA8032E309F6088E
:101D4400DFFA8078E309F208DFFA807088828C83F6
:101D5400E309F0A3DFFA806489828A83E0A3F608AA
:101D6400DFFA805889828A83E0A3F208DFFA804C84
:101D740080D280FA80C680D4806980F2803380105B
:101D840080A680EA809A80A880DA80E280CA8033C4
:101D940089828A83ECFAE493A3C8C582C8CCC5833C
:101DA400CCF0A3C8C582C8CCC583CCDFE9DEE7800C
:101DB4000D89828A83E493A3F608DFF9ECFAA9F08B
:101DC400EDFB2289828A83ECFAE0A3C8C582C8CCE1
:101DD400C583CCF0A3C8C582C8CCC583CCDFEADEFA
:101DE400E880DB89828A83E493A3F208DFF980CC5C
:101DF40088F0EF60010E4E60C388F0ED2402B40455
:101E04000050B9F582EB2402B4040050AF232345FB
:061E14008223901D74738F
:101E1A00BB010689828A83E0225002E722BBFE02C6
:091E2A00E32289828A83E49322F9
:101E3300BB010CE58229F582E5833AF583E0225064
:101E430006E92582F8E622BBFE06E92582F8E222AE
:0D1E5300E58229F582E5833AF583E49322C8
:101E6000BB010689828A83F0225002F722BBFE0161
:021E7000F3225B
:101E7200C5F0F8A3E028F0C5F0F8E58215827002FB
:061E82001583E038F02298
:101E8800A3F8E0C5F025F0F0E5821582700215830D
:061E9800E0C838F0E8226A
:101E9E00E8600FECC313FCED13FDEE13FEEF13FF22
:031EAE00D8F12246
:101EB100E8600FEFC333FFEE33FEED33FDEC33FC8F
:031EC100D8F12233
:101EC400BB010789828A83021FA35005E9F8021F18
:101ED40097BBFE05E9F8021FAF89828A83021FBB04
:101EE400BB010DE58229F582E5833AF583021FA340
:101EF4005007E92582F8021F97BBFE07E92582F8FF
:101F0400021FAFE58229F582E5833AF583021FBB00
:101F1400BB010789828A83021F4E5005E9F802201B
:0A1F240001BBFE05E9F802200D22C2
:101F2E00BB010789828A83021FD85005E9F8021F78
:101F3E00CBBBFE05E9F8021FE489828A83021FF1FA
:0C1F4E00ECF0A3EDF0A3EEF0A3EFF02206
:101F5A00A8828583F0D083D082121F71121F71125A
:101F6A001F71121F71E473E493A3C583C5F0C5837F
:101F7A00C8C582C8F0A3C583C5F0C583C8C582C8D1
:011F8A002234
:0C1F8B00A42582F582E5F03583F5832261
:102DBE000231AEE493A3F8E493A34003F68001F24C
:102DCE0008DFF48029E493A3F85407240CC8C33316
:102DDE00C4540F4420C8834004F456800146F6DFE5
:102DEE00E4800B0102040810204080900ED4E47E93
:102DFE00019360BCA3FF543F30E509541FFEE493DA
:102E0E00A360010ECF54C025E060A840B8E493A3A0
:102E1E00FAE493A3F8E493A3C8C582C8CAC583CACB
:102E2E00F0A3C8C582C8CAC583CADFE9DEE780BE83
:0119A0000046
:0C1F9700E6FC08E6FD08E6FE08E6FF2276
:0C1FA300E0FCA3E0FDA3E0FEA3E0FF22B1
:0C1FAF00E2FC08E2FD08E2FE08E2FF226E
:101FBB00E493FC740193FD740293FE740393FF226C
:0D1FCB00E6FB08E6F908E6FA08E6CBF82286
:0C1FD800E0F8A3E0F9A3E0FAA3E0FB228C
:0D1FE400E2FB08E2F908E2FA08E2CBF8227D
:101FF100E493F8740193F9740293FA740393FB2246
:0C200100ECF608EDF608EEF608EFF6220B
:0C200D00ECF208EDF208EEF208EFF2220F
:00000001FF
