
:060000000201320201A81A
:03000B000201E30C
:0300130002017C6B
:10004000C0F07580FF8580F053F0F0C0E0E5F0C4AB
:10005000F5F0D0E045F0D0F0227589207598527502
:100060008DE8D28E22C0E0E500C0E093B4000280AB
:100070000912007FD0E005E080EFD0E0D0E0223030
:1000800099FDC299F599C29922C298E599C2982220
:10009000C007C006C005C004C003C0027AFF7BFFD2
:1000A0007CFF7DFF7EFF7FFFDEFEDFFEDDFEDCFEF0
:1000B000DBFEDAEAD002D003D004D005D006D007A8
:1000C0002275A00D2275A0072275A001C0E0C0F026
:1000D00074F075F0F0120090D0F0D0E01200C12260
:1000E00075A00CC0E0C0F074F075F0F0120090D074
:1000F000F0D0E01200C12275A0002275A00F227579
:10010000A00522C0E05438B408051200C18020B414
:1001100010051200C58018B418051200FF8010B435
:1001200020051200FB8008B428051200F78000D0DB
:10013000E0221200F7120059D2AF75B8FDD288D272
:10014000A8D28AD2AA758CFFD2A9D28CE43098FDAD
:10015000120089C0E07580FF8580F0C0E0E5F0C442
:10016000F5F0D0E053F0075407B5F00CD0E030E7DD
:100170000280071201038002D0E080D0C0E0C0F00E
:10018000C001C0D07921C0E0E754F0F7D0E0B7104B
:10019000047700800A74F812004012007F7710D0B4
:1001A000D0D001D0F0D0E032C0E0C0F0C001C0D06B
:1001B0007922C0E0E7540FF7D0E0B7010477008060
:1001C0001974F012004012007F1200F71200FB12A7
:1001D00000901200901200F77701D0D0D002D0F03A
:1001E000D0E032C0E0C0F0C001C0D07920B7000C30
:1001F00077FF74C012004012007F800117D0D0D06A
:0602000001D0F0D0E03255
:00000001FF
