
:1000000075800075900075A00075B0007589217528
:100010008DFD758BFDD28E759840D29CC29280FE6C
:10002000D292F5993099FDC299C292227400C37E92
:10003000082090157F17117FA290137F15117F0064
:100040000000DEF4209002740022D292C0E0C3755A
:1000500030007F08335002B230DFF97E08D0E0C0B4
:10006000E0C3C2917F17117F1392917F15117F001A
:100070000000DEF4D2917F2F117FD0E0C2922200E7
:1000800000DFFC22E493A3B4FF0122114A01842281
:10009000E6114A08DDFA22FAC4540F11A7114AEA00
:1000A000540F11A7114A22B40A030200D0B40B0363
:1000B0000200D0B40C030200D0B40D030200D0B48F
:1000C0000E030200D0B40F030200D044300200D26D
:0300D000243722B0
:00000001FF
