:1007750014B20000000000000000000000000000AE
:10078500000000000000149E0000000000000000B2
:100795000000000000000000000000000A44000006
:1007A5000000000000000000011700011800010C06
:1007B50000011900011400011600010A00010E00D4
:1007C500010900010B0001130001110001080001DE
:0507D5000F00011500FA
:03000300020BB13C
:100BB100C0E0C0D075D000C000C007AF0A744E2F8E
:100BC100F8A6A0AF0A744E2FF8E6FFEFB4030B7539
:100BD1001801850A0D750A008002050AD007D000A8
:050BE100D0D0D0E0328D
:0B0CC4008F3D853D993099FDC29922BB
:1008A400752E00752F0075300075A0FFD28875A8CD
:1008B40081120CB2E50C700CE5197008E516700491
:1008C400E5146024E52FB4FF1FE52EB4FF1AE530CC
:1008D400B40115750900750B007513001200067537
:1008E4003000752E00752F0030980B120C9EE50E0B
:1008F400B40103120AC7E517B40117120B7AE51104
:10090400B4010F1207DB751100753000752E0075E8
:100914002F00E518B40106120800751800E52FB47D
:10092400FF0FE52EB4FF0A0530752E00752F0080E9
:0B09340083052FE52F7002052E01B88F
:01093F002295
:100CB20053877F759850438920758840758DFAD285
:020CC2008E2280
:090CCF003098FDC29885991222AB
:020C45008F31ED
:100C4700853180C2B7753200E532C394025004057E
:100C57003280F5D2B7753200E532C394645004058B
:030C67003280F5E3
:010C6A002267
:100C9E00120CCFE512B46A0B120CCFE512B4550349
:040CAE00750E01229C
:100AC700753E00AF3E74752FF8E6FFEFB4BF0DAF6C
:100AD7003E74742FF8E6FFEF64B0600F120CCFAFCF
:100AE7003E74762FF8A612053E80D8C3E53E648093
:0D0AF70094A85009853E10751701750E007A
:010B040022CE
:100B7A00120B057878E6FFEFB5090E7879E6FFEFF4
:100B8A00B50B06E5086513601AE50FB40115787808
:100B9A00E6FF8F097879E6FF8F0B85081375110137
:070BAA00750F007517002212
:100B0500753F02750800753F02E51024FDFFC3EF30
:100B15006480F8E53F6480985011AF3F74762FF8F4
:100B2500E6FFEF2508F508053F80DEAF3F74762F19
:0B0B3500F8E6FFE508B50703750F01A7
:010B40002292
:100C17007540027F02120C45E51024FDFFC3EF6407
:100C270080F8E540648098500FAF4074762FF8E65F
:0D0C3700FF120C45054080E07F03120C45C4
:010C4400228D
:1007DB00787AE6FFEFB4CA04120BE622787AE6FFCA
:1007EB00EF64C96008787AE6FFEFB4CB031207FC1D
:0107FB0022DB
:100BE600787EE6FF8F41E541B4300512046280123B
:100BF600E541B4310512052A8008E541B4330312F4
:100C060005F2E515B40109120C171209CC75150089
:010C160022BB
:100B4100752800752900C3E5299403E5286480947C
:100B5100805025752600752700C3E52794FFE526FB
:100B610094FF500A0527E5277002052680EB052929
:080B7100E5297002052880CE81
:010B79002259
:10046200753400753300C3E533648094845054AF0F
:1004720033EF75F005A424B2F8E6FF7878E6FEEED5
:100482006F703CAF33EF75F005A424B3F8E6FF7844
:1004920079E6FEEE6F7028AF33EF75F005A424B451
:1004A200F8E6FFEF7014AF33EF75F005A424B4F84B
:1004B20076017534017515018009753401800405D2
:1004C2003380A3E5347060753300C3E533648094F0
:1004D200845054AF33EF75F005A424B2F8E6FFEF71
:1004E2007041AF33EF75F005A424B3F8E6FFEF7067
:1004F200327878E6FFAE33EE75F005A424B2F8A6A2
:10050200077879E6FFAE33EE75F005A424B3F8A6BA
:1005120007AF33EF75F005A424B4F8760175150121
:07052200050C22053380A344
:0105290022AF
:10052A00753600753500C3E535648094845054AF40
:10053A0035EF75F005A4249EF8E6FF7878E6FEEE1E
:10054A006F703CAF35EF75F005A4249FF8E6FF788D
:10055A0079E6FEEE6F7028AF35EF75F005A424A09A
:10056A00F8E6FFEF7014AF35EF75F005A424A0F894
:10057A007601753601751501800975360180040505
:10058A003580A3E5367060753500C3E5356480941F
:10059A00845054AF35EF75F005A4249EF8E6FFEFBA
:1005AA007041AF35EF75F005A4249FF8E6FFEF70B0
:1005BA00327878E6FFAE35EE75F005A4249EF8A6EB
:1005CA00077879E6FFAE35EE75F005A4249FF8A604
:1005DA0007AF35EF75F005A424A0F876017515016B
:0705EA00051922053580A36D
:0105F10022E7
:1005F200753800753700C3E537648094825054AF74
:1006020037EF75F005A42444F8E6FF7878E6FEEEAD
:100612006F703CAF37EF75F005A42445F8E6FF781C
:1006220079E6FEEE6F7028AF37EF75F005A4244629
:10063200F8E6FFEF7014AF37EF75F005A42446F823
:100642007601753801751501800975380180040538
:100652003780A3E5387060753700C3E5376480944E
:10066200845054AF37EF75F005A42444F8E6FFEF49
:100672007041AF37EF75F005A42445F8E6FFEF703F
:10068200327878E6FFAE37EE75F005A42444F8A67A
:10069200077879E6FFAE37EE75F005A42445F8A693
:1006A20007AF37EF75F005A42446F87601751501FA
:0706B200051422053780A3A7
:0106B900221E
:10000600752B00752C01752A00C3E52A648094843B
:1000160040022145AF2AEF75F005A424B5F8E6FFA6
:10002600EF600201C7AF2AEF75F005A424B4F8E625
:10003600FFEF6401600201C7E51864017002214503
:10004600AF2AEF75F005A424B2F8E6FFAE2AEE75E6
:10005600F005A424B3F8E6FD1206BAEF6022E5180F
:10006600640170022145AF2AEF75F005A424B5F8A6
:100076007601AF2AEF75F005A424B6F87600803A2B
:10008600E518640170022145AF2AEF75F005A42436
:10009600B4F87600AF2AEF75F005A424B2F8E6FFAF
:1000A600AE2AEE75F005A424B3F8E6FD120A81AF78
:1000B6002AEF75F005A424B6F806752B01214580B4
:1000C6007AAF2AEF75F005A424B6F8E6FFEFD394CD
:1000D600004013E5186401600DAF2AEF75F005A422
:1000E60024B6F8068055AF2AEF75F005A424B6F8B5
:0D00F600E6FFEF64057044E5186401603E0C
:10010300752D00C3E52D648094855015AF2DAE2A5F
:10011300EE75F005A424B2F8E82FF87600052D80DB
:10012300E2AF2AEF75F005A424B2F8E6FFAE2AEE9B
:0E01330075F005A424B3F8E6FD120C6B150C54
:10014100052A010FE52B60024184752A00C3E52AC7
:100151006480948440024184AF2AEF75F005A424A1
:10016100A1F8E6FFEF60024106AF2AEF75F005A4A2
:1001710024A0F8E6FFEF640160024106E51864017E
:1001810070024184AF2AEF75F005A4249EF8E6FFC2
:10019100AE2AEE75F005A4249FF8E6FD1206BAEF2B
:1001A1006022E518640170024184AF2AEF75F00501
:1001B100A424A1F87601AF2AEF75F005A424A2F8D2
:1001C1007600803AE518640170024184AF2AEF7528
:1001D100F005A424A0F87600AF2AEF75F005A42459
:1001E1009EF8E6FFAE2AEE75F005A4249FF8E6FD21
:1001F100120A81AF2AEF75F005A424A2F806752B27
:10020100014184807AAF2AEF75F005A424A2F8E6B3
:10021100FFEFD394004013E5186401600DAF2AEF9E
:1002210075F005A424A2F8068055AF2AEF75F005F4
:10023100A424A2F8E6FFEF64057044E518640160A8
:010241003E7E
:10024200752D00C3E52D648094855015AF2DAE2A1F
:10025200EE75F005A4249EF8E82FF87600052D80AF
:10026200E2AF2AEF75F005A4249EF8E6FFAE2AEE6F
:0E02720075F005A4249FF8E6FD120C6B15191B
:10028000052A214EE52B600261C3752A00C3E52AC9
:1002900064809482400261C3AF2AEF75F005A42404
:1002A00047F8E6FFEF60026145AF2AEF75F005A45D
:1002B0002446F8E6FFEF640160026145E518640139
:1002C000700261C3AF2AEF75F005A42444F8E6FF7D
:1002D000AE2AEE75F005A42445F8E6FD1206BAEF45
:1002E0006022E5186401700261C3AF2AEF75F00562
:1002F000A42447F87601AF2AEF75F005A42448F846
:100300007600803AE5186401700261C3AF2AEF7588
:10031000F005A42446F87600AF2AEF75F005A42472
:1003200044F8E6FFAE2AEE75F005A42445F8E6FD94
:10033000120A81AF2AEF75F005A42448F806752B40
:100340000161C3807AAF2AEF75F005A42448F8E66E
:10035000FFEFD394004013E5186401600DAF2AEF5E
:1003600075F005A42448F8068055AF2AEF75F0050E
:10037000A42448F8E6FFEF64057044E518640160C2
:010380003E3E
:10038100752D00C3E52D648094855015AF2DAE2ADF
:10039100EE75F005A42444F8E82FF87600052D80C9
:1003A100E2AF2AEF75F005A42444F8E6FFAE2AEE89
:0E03B10075F005A42445F8E6FD120C6B15143A
:1003BF00052A418D752A00C3E52A6480948450264E
:1003CF00AF2AEF75F005A424B5F8E6FFEF7013AF71
:1003DF002AEF75F005A424B4F8E6FFEFB401037516
:1003EF002C00052A80D1752A00C3E52A64809484E5
:1003FF005026AF2AEF75F005A424A1F8E6FFEF70A1
:10040F0013AF2AEF75F005A424A0F8E6FFEFB401AF
:10041F0003752C00052A80D1752A00C3E52A648054
:10042F0094825026AF2AEF75F005A42447F8E6FF13
:10043F00EF7013AF2AEF75F005A42446F8E6FFEF2F
:10044F00B40103752C00052A80D1E52CB4010312E9
:02045F000A2C65
:010461002278
:0406BA008F1A8D1BEB
:1006BE00751C00751D00751E00752000750800E57F
:1006CE001A251BFFEF242DF508E51E6002E172E5E9
:1006DE0020C394044002E172751F00E51FC39414F9
:1006EE00503F120C897FA0120CC47FAF120CC4AF06
:1006FE001A120CC4AF1B120CC47FCD120CC47F3067
:10070E00120CC47F30120CC4AF08120CC47FB0128E
:10071E000CC47FBF120CC4E51864016004051F8071
:10072E00BA751C00751D00C3E51D94FFE51C9409E8
:10073E005024309810120C9EE50EB40108750E0070
:10074E00751E018011051DE51D7002051CE518B40E
:10075E0001D5800280D10520E51864016002C1D761
:06076E008002C1D7AF1E9E
:010774002262
:1009CC007508007879E6FF7878E6FEEE2FFFEF24C5
:1009DC005CF508754200E542C394145042120C8930
:1009EC007FA0120CC47FAF120CC47878E6FF120CF7
:1009FC00C47879E6FF120CC47FCB120CC47F301282
:100A0C000CC47F30120CC47F31120CC4AF08120C12
:0F0A1C00C47FB0120CC47FBF120CC4054280B758
:010A2B0022A8
:100A2C00754300C3E543648094845010AF43EF7565
:100A3C00F005A424B5F87600054380E7754300C3A0
:100A4C00E543648094845010AF43EF75F005A42403
:100A5C00A1F87600054380E7754300C3E543648045
:100A6C0094845010AF43EF75F005A42447F876003A
:040A7C00054380E7C7
:010A80002253
:100A81008F398D3A7F02120C457F30120C457F3031
:100A9100120C457FCC120C457F30120C457F301271
:100AA1000C457F28120C45AF39120C45AF3A120C98
:100AB100457F2C120C457F31120C457F29120C45C4
:060AC1007F03120C452228
:100C89007F55120CC47FAA120CC47F6A120CC47F50
:050C990055120CC422FD
:10080000752300752400E523600201A3E524C39449
:1008100004400201A3752100E521C39414504975D9
:100820000800120C897FA0120CC47FAF120CC47593
:100830002201E522C3950D501CAF22744E2FF8E61D
:10084000FF120CC4AF22744E2FF8E6FFEF2508F517
:1008500008052280DDAF08120CC47FB0120CC47FE3
:10086000BF120CC4052180B030980B120C9EE50E0F
:10087000B40103120AC7752500AF257E00C3EF94AB
:10088000FFEE648094895017309810120C9EE50E8C
:10089000B40108750E007523018004052580DA0572
:0308A0002401062A
:0108A3002232
:0407FC00120C1722A2
:100C6B008F3B8D3C7F02120C45AF3B120C45AF3CCA
:0E0C7B00120C457FDD120C457F03120C452242
:03000000020940B2
:0C094000787FE4F6D8FD7581C5020987B8
:10094C000208A4E493A3F8E493A34003F68001F215
:10095C0008DFF48029E493A3F85407240CC8C333AC
:10096C00C4540F4420C8834004F456800146F6DF7B
:10097C00E4800B0102040810204080900775E47E8F
:10098C00019360BCA3FF543F30E509541FFEE49370
:10099C00A360010ECF54C025E060A840B8E493A337
:1009AC00FAE493A3F8E493A3C8C582C8CAC583CA62
:1009BC00F0A3C8C582C8CAC583CADFE9DEE780BE1A
:0107DA00001E
:00000001FF
