:101089001CCB000000000000000000000000000070
:10109900000000000000000000000000000010BB7C
:1010A9000000000000000000000000000000000037
:1010B90018500000000000000000000000000000BF
:1010C9000000000000000000000001680001690044
:1010D90001920001E700011100011400011500014E
:1010E9001900011300011230010E30011630010AF6
:1010F90030010900010800011700011800020C0065
:0111090000E5
:03000300021225C1
:10122500C0E0C0D075D000C000C0077869E6FF7483
:101235006A2FF8A6A07869E6FF746A2FF8E6FFEF33
:10124500B4030F7519017869E6FF8F0B786976008D
:0E1255008003786906D007D000D0D0D0E032F8
:030023000211E2E5
:1011E200C0E0C0D075D000C000C00730982CC298B3
:1011F2007868E6FF74932FF8A6997868E6FF7493EF
:101202002FF8E6FFEFB4030F7515017868E6FF8F3C
:101212000F786876008003786806D007D000D0D0B7
:03122200D0E032E7
:1012C40075A0FFD28875A89112135F751003E515F8
:1012D400B401061206C8751500E519B401F0E50954
:0B12E40070EC12002675190080E42257
:10135F0053877F759850438920758840758DFDD2CE
:02136F008E22CC
:0B1381008F4B854B993099FDC29922DB
:0A138C00751000750C00750D0022AD
:10002600786BE6FF786CE6FD1208E9C003C002C0F3
:10003600017B007A007934A801AC02AD03D001D06F
:1000460002D0037E007F021206A2786DE6FFEFB4AF
:10005600CA0412126322786DE6FFEFB4CC071211C0
:100066000B75090122786DE6FFEF64C9600201FC99
:10007600E53464307026851612C37461950AF50E50
:10008600120ECA786BE6FF786CE6FD786EE6FB78B2
:100096006FE6FE8E1D12019375090122E534643167
:1000A6007026851612C37461950AF50E12117978B9
:1000B6006BE6FF786CE6FD786EE6FB786FE6FE8E03
:1000C600311203D975090122E534643360022192A5
:1000D600851612C37461950AF50E120800786BE650
:1000E600FF786CE6FD786EE6FB786FE6FE8E2412EE
:1000F60002B6750901227B007A00796AAE02AF0169
:08010600EF64DD4E6002218C64
:10010E00E534B43025753600C3E5366480948750E7
:10011E0015AF36AE35EE75F007A424CBF8E82FF800
:10012E007600053680E278921622E534B4312575D4
:10013E003600C3E536648094845015AF36AE35EE86
:10014E0025E025E024BBF8E82FF87600053680E29E
:10015E0078E71622E5346433702A753600C3E53627
:10016E006480948C5015AF36AE35EE75F00CA42429
:0D017E0050F8E82FF87600053680E21511E4
:07018B00221207B175090102
:01019200224A
:101263007871E6FF8F4CE54CB43005120C76801292
:10127300E54CB43105120D3D8008E54CB43303123F
:101283000E04E513B401091207B1751300750901C2
:011293002238
:100C7600753800753700C3E537648094845052AFE9
:100C860037EF75F007A424CBF8E6FF786BE6FEEEA7
:100C96006F703AAF37EF75F007A424CCF8E6FF780B
:100CA6006CE6FEEE6F7026AF37EF75F007A424CD25
:100CB600F8E6FFEF7014AF37EF75F007A424CDF810
:100CC6007601753801751301800375380105378083
:100CD600A5E5387061753700C3E5376480948450A4
:100CE60055AF37EF75F007A424CBF8E6FFEF704257
:100CF600AF37EF75F007A424CCF8E6FFEF70337832
:100D06006BE6FFAE37EE75F007A424CBF8A607789E
:100D16006CE6FFAE37EE75F007A424CCF8A607AF55
:100D260037EF75F007A424CDF87601751301789294
:060D36000622053780A231
:010D3C002294
:100D3D00753A00753900C3E539648094845052AF1B
:100D4D0039EF25E025E024BBF8E6FF786BE6FEEEF3
:100D5D006F703AAF39EF25E025E024BCF8E6FF7857
:100D6D006CE6FEEE6F7026AF39EF25E025E024BD71
:100D7D00F8E6FFEF7014AF39EF25E025E024BDF85C
:100D8D007601753A017513018003753A01053980B5
:100D9D00A5E53A7061753900C3E5396480948450D6
:100DAD0055AF39EF25E025E024BBF8E6FFEF7042A3
:100DBD00AF39EF25E025E024BCF8E6FFEF7033787E
:100DCD006BE6FFAE39EE25E025E024BBF8A60778EB
:100DDD006CE6FFAE39EE25E025E024BCF8A607AFA2
:100DED0039EF25E025E024BDF8760175130178E78C
:060DFD000622053980A268
:010E030022CC
:100E0400753C00753B00C3E53B648094825052AF4F
:100E14003BEF75F00CA42450F8E6FF786BE6FEEE89
:100E24006F703AAF3BEF75F00CA42451F8E6FF78ED
:100E34006CE6FEEE6F7026AF3BEF75F00CA4245207
:100E4400F8E6FFEF7014AF3BEF75F00CA42452F8F2
:100E54007601753C017513018003753C01053B80E7
:100E6400A5E53C7060753B00C3E53B64809482500B
:100E740054AF3BEF75F00CA42450F8E6FFEF70413B
:100E8400AF3BEF75F00CA42451F8E6FFEF70327815
:100E94006BE6FFAE3BEE75F00CA42450F8A6077881
:100EA4006CE6FFAE3BEE75F00CA42451F8A607AF38
:100EB4003BEF75F00CA42452F8760175130105116B
:050EC40022053B80A3A4
:010EC9002206
:1007B100851612C37461950AF50E7F02121381AF7B
:1007C10012121381AF0E121381754D01AF0B7E0012
:1007D100AD4DED3395E0FCC3ED9FEE6480F8EC6424
:1007E1008098500FAF4D746A2FF8E6FF1213810500
:0807F1004D80D97F0312138132
:0107F90022DD
:10110B007871E6FF7872E6FD1208E9C003C002C0F1
:10111B00017B007A00793DA801AC02AD03D001D070
:10112B0002D0037E007F021206A27874E6FFEF6402
:10113B0031703AE53DB4300EAF3EEF75F007A424A5
:10114B00CDF876008024E53DB4310EAF3EEF25E0BF
:10115B0025E024BDF876008011E53DB4330CAF3E9D
:0D116B00EF75F00CA42452F876001207B1C5
:011178002254
:0408E9008F288D299E
:1008ED00752C007892E6FFEFD39400403D752D00F6
:1008FD00C3E52D648094845031AF2DEF75F007A4BE
:10090D0024CBF8E6FFE528B5071CAF2DEF75F007F2
:10091D00A424CCF8E6FFE529B5070B752C01752A43
:10092D0030852D2B8004052D80C6E52C704778E78A
:10093D00E6FFEFD39400403D752D00C3E52D648097
:10094D0094845031AF2DEF25E025E024BBF8E6FF70
:10095D00E528B5071CAF2DEF25E025E024BCF8E612
:10096D00FFE529B5070B752C01752A31852D2B80D7
:10097D0004052D80C6E52C7044E511D39400403D4F
:10098D00752D00C3E52D648094825031AF2DEF7528
:10099D00F00CA42450F8E6FFE528B5071CAF2DEFA9
:1009AD0075F00CA42451F8E6FFE529B5070B752C5D
:1009BD0001752A33852D2B8004052D80C67B007A89
:0309CD0000792A84
:0109D0002204
:101371007F021213817F521213817F031213812284
:1006C8007893E6FFEF6402702A7894E6FFEFB50AA4
:1006D800227896E6FFEFB4031AC37461950AF50A07
:1006E8007895E6FFEFB51607C374619516F516758C
:1006F8000900227893E6FFEF64026002E1B0789483
:10070800E6FFEF650A6002E1B0AF0F74932FF8E6D9
:08071800FFEF64036002E1B091
:100720007896E6FF7897E6FD1208E9C003C002C09C
:10073000017B007A00793FA801AC02AD03D001D063
:1007400002D0037E007F021206A2C37461950AF5EF
:100750000A7895E6FFEFB51607C374619516F5168E
:100760007898E6FFEFB4640EE53FB430057F0112E0
:1007700009D1121294227898E6FFEFB4650EE53F96
:10078000B430057F001209D1121294227898E6FF46
:10079000EFB46607120F68121294227898E6FFEF02
:1007A000B4C80D851612C37461950AF50E1212EFC6
:0107B0002226
:1009D1008F4E750800751700E517C3940440024156
:1009E100B6AF17EF75F007A424CBF8E6FF7896E6CB
:1009F100FEEE6F600241B2AF17EF75F007A424CC91
:100A0100F8E6FF7897E6FEEE6F600241B2AF17EFAE
:100A110075F007A424CDF8E6FFEF6401600241B24E
:100A2100750801751808AF1874932FF8E6FFEF6485
:100A310003700241B6AF1874932FF8E6FFEF6428F4
:100A4100706A0518AF1874932FF8E6FFEFB4310EF2
:100A5100AF17EF75F007A424CEF8A64E804CAF185F
:100A610074932FF8E6FFEFB4320EAF17EF75F0076E
:100A7100A424CFF8A64E8032AF1874932FF8E6FF66
:100A8100EFB4330EAF17EF75F007A424D0F8A64EDC
:100A91008018AF1874932FF8E6FFEFB4340CAF173A
:100AA100EF75F007A424D1F8A64E051805184127C3
:060AB10022051721D922E5
:100F6800750800751700E517C394044002E1FCAF4B
:100F780017EF25E025E024BBF8E6FF7896E6FEEEBD
:100F88006F706DAF17EF25E025E024BCF8E6FF7819
:100F980097E6FEEE6F7059AF17EF25E025E024BD08
:100FA800F8E6FFEF64017048750801751808AF1876
:100FB80074932FF8E6FFEF64036039AF1874932F2A
:100FC800F8E6FFEFB428240518AF1874932FF8E655
:100FD800FFEFB4311405180518789EE6FFAE17EE3A
:100FE80025E025E024BEF8A6070518051880BF22CD
:050FF8000517E16E2267
:101294007F02121318754F03AF0F7E00AD4FED336D
:1012A40095E0FCD3ED9FEE6480F8EC648098500FD9
:0F12B400AF4F74932FF8E6FF121318054F80D930
:0112C3002208
:021318008F4103
:10131A00854180C2B7754200E542C3940250040574
:10132A004280F5D2B7754200E542C3946450040581
:03133A004280F5F9
:01133D00228D
:1012EF00789BE6FFEFB430051204D68018789BE6A2
:1012FF00FFEFB43105120B9A800B789BE6FFEFB42A
:09130F003303120AB7750901222B
:060193008F1A8D1B8B1C6E
:10019900752000751E00C3E51E648094845039AF34
:1001A9001EEF75F007A424CBF8E6FFE51AB507247E
:1001B900AF1EEF75F007A424CCF8E6FFE51BB507E1
:1001C90013AF1EEF75F007A424CDF8E6FFEFB401D5
:1001D90003752001051E80BEE520700241AE1200A4
:1001E900067FC9121381AF1C121381AF1D1213812F
:1001F900751E00C3E51E64809484400241A8AF1EA9
:10020900EF75F007A424CBF8E6FFE51A6F60024109
:10021900A4AF1EEF75F007A424CCF8E6FFE51B6F29
:100229007079AF1EEF75F007A424CDF8E6FFEF64EF
:100239000170687F2F121381AF1EEF75F007A42498
:10024900CBF8E6FF121381AF1EEF75F007A424CC9B
:10025900F8E6FF1213817F2C1213817F6512138137
:10026900751F03C3E51F64809487502A7F2C1213DE
:1002790081AF1FAE1EEE75F007A424CBF8E82FF866
:10028900E6FFEFB401077F3112138180057F301239
:100299001381051F80CD7F2F121381051E21FC7F3D
:0C02A9000312138122AD1DAF1C12133E86
:0102B5002226
:1004D6007508007892E6FFEF603F751700E517C3D1
:1004E60094045035AF17EF75F007A424CBF8E6FF58
:1004F600EF6022AF17EF75F007A424CCF8E6FFEF04
:100506006013AF17EF75F007A424CDF8E6FFEFB43C
:100516000103750801051780C4E5087002A1C6121B
:1005260000067FC91213817899E6FF121381789A23
:10053600E6FF121381751700E517C39404507BAFCD
:1005460017EF75F007A424CDF8E6FFEF6401706697
:100556007F2F121381AF17EF75F007A424CBF8E6AF
:10056600FF121381AF17EF75F007A424CCF8E6FF4E
:100576001213817F2C1213817F6512138175180364
:10058600E518C39407502A7F2C121381AF18AE17B3
:10059600EE75F007A424CBF8E82FF8E6FFEFB401D8
:1005A600077F3112138180057F3012138105188071
:1005B600CF7F2F1213810517A13E7F0312138122CD
:0C05C6007899E6FF789AE6FD12133E22B9
:0603D9008F2E8D2F8B30EA
:1003DF00753300753200C3E532648094845039AFB1
:1003EF0032EF25E025E024BBF8E6FFE52EB5072424
:1003FF00AF32EF25E025E024BCF8E6FFE52FB50787
:10040F0013AF32EF25E025E024BDF8E6FFEFB4018E
:10041F0003753301053280BEE533700281CE1200C1
:10042F00067FC9121381AF30121381AF31121381BE
:10043F00753200C3E53264809484507DAF32EF256E
:10044F00E025E024BBF8E6FFE52E6F7068AF32EFD2
:10045F0025E025E024BCF8E6FFE52F6F7057AF329B
:10046F00EF25E025E024BDF8E6FFEF640170467F3D
:10047F002F121381AF32EF25E025E024BBF8E6FF02
:10048F00121381AF32EF25E025E024BCF8E6FF120E
:10049F0013817F2C1213817F661213817F2C12130D
:1004AF0081AF32EF25E025E024BEF8E6FF1213817D
:1004BF007F2F121381053281427F0312138122ADE8
:0604CF0031AF3012133EB4
:0104D5002204
:100B9A0075080078E7E6FFEF603F751700E517C3B1
:100BAA0094045035AF17EF25E025E024BBF8E6FFA3
:100BBA00EF6022AF17EF25E025E024BCF8E6FFEF4F
:100BCA006013AF17EF25E025E024BDF8E6FFEFB488
:100BDA000103750801051780C4E5087002816A12CD
:100BEA0000067FC91213817899E6FF121381789A59
:100BFA00E6FF121381751700E517C39404505BAF23
:100C0A0017EF25E025E024BDF8E6FFEF6401704602
:100C1A007F2F121381AF17EF25E025E024BBF8E6FA
:100C2A00FF121381AF17EF25E025E024BCF8E6FF99
:100C3A001213817F2C1213817F661213817F2C126B
:100C4A001381AF17EF25E025E024BEF8E6FF121363
:100C5A00817F2F1213810517809E7F031213812231
:0C0C6A007899E6FF789AE6FD12133E220E
:0602B6008F218D228B2335
:1002BC00752700752500C3E525648094825039AFFD
:1002CC0025EF75F00CA42450F8E6FFE521B50724C2
:1002DC00AF25EF75F00CA42451F8E6FFE522B50725
:1002EC0013AF25EF75F00CA42452F8E6FFEFB40120
:1002FC0003752701052580BEE527700261D1120028
:10030C00067FC9121381AF23121381AF24121381FC
:10031C00752500C3E52564809482400261CBAF252E
:10032C00EF75F00CA42450F8E6FFE5216F60026134
:10033C00C7AF25EF75F00CA42451F8E6FFE5226F4A
:10034C007079AF25EF75F00CA42452F8E6FFEF643A
:10035C000170687F2F121381AF25EF75F00CA42468
:10036C0050F8E6FF121381AF25EF75F00CA4245161
:10037C00F8E6FF1213817F2C1213817F691213810F
:10038C00752603C3E5266480948C502A7F2C1213A7
:10039C0081AF26AE25EE75F00CA42450F8E82FF8AA
:1003AC00E6FFEFB401077F3112138180057F301215
:1003BC001381052680CD7F2F1213810525611F7FA8
:0C03CC000312138122AD24AF2312133E54
:0103D8002202
:100AB700750800E511603F751700E517C3940450EA
:100AC70035AF17EF75F00CA42450F8E6FFEF60225E
:100AD700AF17EF75F00CA42451F8E6FFEF6013AFE2
:100AE70017EF75F00CA42452F8E6FFEFB401037575
:100AF7000801051780C4E508700261991200067F96
:100B0700C91213817899E6FF121381789AE6FF12CA
:100B17001381751700E517C394025071AF17EF756E
:100B2700F00CA42452F8E6FFEF6401705C7F2F12EB
:100B37001381AF17EF75F00CA42450F8E6FF1213DA
:100B470081AF17EF75F00CA42451F8E6FF1213815B
:100B5700751803E518C3940C502A7F2C121381AF24
:100B670018AE17EE75F00CA42450F8E82FF8E6FF3E
:100B7700EFB401077F3112138180057F3012138193
:100B8700051880CF7F2F121381051780887F0312E6
:030B9700138122A5
:10133E008F438D441200067FCC121381AF431213DC
:10134E0081AF441213817F311213817F03121381F7
:01135E00226C
:100006007F02121381AF12121381AF0E1213817F7A
:0A001600301213817F301213812293
:100ECA007546007874E6FFEF64656002E167754570
:100EDA0000C3E545648094844002E167AF45EF753D
:100EEA00F007A424CBF8E6FF786BE6FEEE6F706994
:100EFA00AF45EF75F007A424CCF8E6FF786CE6FE60
:100F0A00EE6F7055AF45EF75F007A424CDF8E6FFF4
:100F1A00EF640170447546017876E6FFAE45EE75DA
:100F2A00F007A424CEF8A6077878E6FFAE45EE755A
:100F3A00F007A424CFF8A607787AE6FFAE45EE7547
:100F4A00F007A424D0F8A607787CE6FFAE45EE7534
:0D0F5A00F007A424D1F8A607220545C1DB4D
:010F67002267
:101179007548007874E6FFEF6466705C754700C3D4
:10118900E547648094845050AF47EF25E025E0247B
:10119900BBF8E6FF786BE6FEEE6F7038AF47EF25D8
:1011A900E025E024BCF8E6FF786CE6FEEEB50724FE
:1011B900AF47EF25E025E024BDF8E6FFEFB40114C1
:1011C9007548017876E6FFAE47EE25E025E024BEB6
:0811D900F8A60722054780A7D4
:0111E10022EB
:10080000754A00754900C3E549648094824002013D
:10081000E8AF49EF75F00CA42450F8E6FF786BE6DA
:10082000FEEE6F600201E4AF49EF75F00CA42451B5
:10083000F8E6FF786CE6FEEE6F600201E4AF49EF88
:1008400075F00CA42452F8E6FFEF6401600201E4A5
:10085000754A017874E6FFAE49EE75F00CA4245396
:10086000F8A6077876E6FFAE49EE75F00CA424549E
:10087000F8A6077878E6FFAE49EE75F00CA424558B
:10088000F8A607787AE6FFAE49EE75F00CA4245678
:10089000F8A607787CE6FFAE49EE75F00CA4245765
:1008A000F8A607787EE6FFAE49EE75F00CA4245852
:1008B000F8A6077880E6FFAE49EE75F00CA424593F
:1008C000F8A6077882E6FFAE49EE75F00CA4245A2C
:1008D000F8A6077884E6FFAE49EE75F00CA4245B19
:0808E000F8A6072205490106F4
:0108E80022ED
:03000000020FFDEF
:0C0FFD00787FE4F6D8FD7581E70210440F
:1005D200E709F608DFFA8046E709F208DFFA803E0B
:1005E20088828C83E709F0A3DFFA8032E309F608F8
:1005F200DFFA8078E309F208DFFA807088828C8360
:10060200E309F0A3DFFA806489828A83E0A3F60813
:10061200DFFA805889828A83E0A3F208DFFA804CED
:1006220080D280FA80C680D4806980F280338010C4
:1006320080A680EA809A80A880DA80E280CA80332D
:1006420089828A83ECFAE493A3C8C582C8CCC583A5
:10065200CCF0A3C8C582C8CCC583CCDFE9DEE78075
:100662000D89828A83E493A3F608DFF9ECFAA9F0F4
:10067200EDFB2289828A83ECFAE0A3C8C582C8CC4A
:10068200C583CCF0A3C8C582C8CCC583CCDFEADE63
:10069200E880DB89828A83E493A3F208DFF980CCC5
:1006A20088F0EF60010E4E60C388F0ED2402B404BE
:1006B2000050B9F582EB2402B4040050AF23234565
:0606C20082239006227362
:101009000212C4E493A3F8E493A34003F68001F227
:1010190008DFF48029E493A3F85407240CC8C333E8
:10102900C4540F4420C8834004F456800146F6DFB7
:10103900E4800B0102040810204080901089E47EAE
:10104900019360BCA3FF543F30E509541FFEE493AC
:10105900A360010ECF54C025E060A840B8E493A373
:10106900FAE493A3F8E493A3C8C582C8CAC583CA9E
:10107900F0A3C8C582C8CAC583CADFE9DEE780BE56
:01110A0000E4
:00000001FF
