:1003BA00093D0000000000000000000113010114C3
:1003CA0000011500011600010B01010C00010D00CE
:1003DA00010F00011100013B010110000108000199
:1003EA000E00014800011200013900010A0001173C
:1003FA0000014700014600013C0002370000014AA3
:07040A000001490101090195
:03000B00020003ED
:040003007510013241
:10020700754B00754C00754D00438901C28C120671
:100217001D7F6412062F754D03E54CB4FF10E54BA7
:10022700B4FF0BE54DB40706751100750901E50923
:10023700B4011AE54DC394024013754D00754B0088
:10024700754C00120530E5497003754601E54C64AD
:10025700FF454B7003753C0012000E30980B1205DA
:10026700F6E512B4010312056FE548B4011412054F
:10027700ADE539B4010C120461754D00754B00757D
:100287004C00E54CB4FF0FE54BB4FF0A054D754B29
:1002970000754C008083054CE54C7002054B4120EE
:0102A7002234
:10061D0053877F759850438920758840758DFAD220
:02062D008E221B
:10000E00755B00E54660022121E513B401233090B3
:10001E002030900A0538E5387002053780F3D3E5B5
:10002E00389464E5379400400B754101755B01808F
:10003E0003754100E514B40129309126753700751A
:10004E00380030910A0538E5387002053780F3D351
:10005E00E5389464E5379400400B754201755B01F9
:10006E008003754200E515B40129309226753700DC
:10007E0075380030920A0538E5387002053780F37E
:10008E00D3E5389464E5379400400B754301755BF6
:10009E00018003754300E516B401293093267537A8
:1000AE000075380030930A0538E538700205378040
:1000BE00F3D3E5389464E5379400400B754401752D
:1000CE005B018003754400E50BB4010B3094087599
:1000DE003D01755B018003753D00E50CB4010B30ED
:1000EE009508753E01755B018003753E00E50DB404
:1000FE00010B309608753F01755B018003753F005B
:10010E00E50FB4010B309708754001755B01800354
:0F011E00754000E55B6008754601754501C2B785
:01012D0022AF
:0C064000750801758CFC758A17D28C229D
:10060A00C28C750800751000053BE53BB40A0375FA
:03061A003B01227F
:0B064C008F5C855C993099FDC29922FB
:090657003098FDC29885993A2201
:1005F600120657E53AB46A0B120657E53AB45503A4
:040606007512012246
:10056F00755D00AF5D74172FF8E6FFEFB4BF0DAFE9
:10057F005D74162FF8E6FFEF64B0600F120657AFE9
:10058F005D74182FF8A63A055D80D8C3E55D6480C9
:0D059F0094A85009855D367548017512005D
:0105AC00222C
:1005AD00E51AB43613E51BB4340E1204ACE517B4DA
:0C05BD0001067539017517007548002211
:1004AC00755E02750A00E53624FDFFC3EF6480F823
:1004BC00E55E6480985011AF5E74182FF8E6FFEF7C
:1004CC00250AF50A055E80DEAF5E74182FF8E6FF8C
:1004DC00E50AB5070CE50A653C6006850A3C75170C
:0104EC00010E
:0104ED0022EC
:10046100750900E51CB4640A7F0112012E1204EE25
:100471008035E51CB4650A7F0012012E1204EE805E
:1004810026E51CB4CD21754900E54664016005E50A
:100491004AB4050B120334754600754A00800812F0
:0B04A1000412751101054A7539002294
:1004EE00755200E51D251EFFEF2466F5527551006D
:1004FE00E551C39414502A1205C97FCB12064CAF96
:10050E001D12064CAF1E12064C7F3112064CAF5216
:10051E0012064C7FB012064C7FBF12064C0551805E
:01052E00CFFD
:01052F0022A9
:1005E1007F5512064C7FAA12064C7F6A12064C7F79
:0505F1005512064C222A
:10041200755300755400E554C3941450411205C934
:100422007FCA12064C7F3012064C7F3012064C7F78
:100432002812064C7F3312064C7F2C12064C7F3951
:1004420012064C7F2912064C75537DAF5312064C8F
:0E0452007FB012064C7FBF12064C055480B8D6
:010460002279
:10053000755500755600120412E55664FF7004E507
:100540005564FF601A30980D1205F6E512B40105E6
:10055000751200800A0556E5567002055580DAE5E9
:0E0560005664FF7004E55564FF6003751101D9
:01056E00226A
:1005C9001205E17FA012064C7FAF12064C7F36124E
:0805D900064C7F3412064C228F
:02012E008F57E9
:10013000755807AF5874182FF8E6FFEFB4B003D323
:100140008001C350024106AF5874182FF8E6FFEF44
:100150006428600241020558AF5874182FF8E6FF72
:10016000EFB4310585570B4100AF5874182FF8E6EE
:10017000FFEFB4320585570C4100AF5874182FF8C3
:10018000E6FFEFB4330585570D8075AF5874182F0F
:10019000F8E6FFEFB4340585570F8064AF58741844
:1001A0002FF8E6FFEFB435058557138053AF587429
:1001B000182FF8E6FFEFB436058557148042AF5884
:1001C00074182FF8E6FFEFB437058557158031AF67
:1001D0005874182FF8E6FFEFB438058557168020BD
:1001E000AF5874182FF8E6FFEFB43914E557B4642C
:1001F00007C2B77545018005D2B775450075460140
:06020000055805582133EA
:0102060022D5
:10033400754EE7754F00C3E54F648094895011AF43
:100344004F743D2FF8E6FFEF254EF54E054F80E63E
:10035400754F00C3E54F6480949450591205C97FCA
:10036400C912064C7F3012064C7F3012064C7F2F88
:1003740012064C7F3612064C7F3412064C75500020
:10038400C3E5506480948950147F2C12064CAF50FE
:10039400743D2FF8E6FF12064C055080E37F2F12C0
:1003A400064CAF4E12064C7FB012064C7FBF1206AD
:0503B4004C054F809E86
:0103B9002221
:02062F008F59E1
:0E063100755A00E55AC395595004055A80F5D4
:01063F002298
:030000000202A851
:0C02A800787FE4F6D8FD75815E0202EF5D
:1002B400020207E493A3F8E493A34003F68001F257
:1002C40008DFF48029E493A3F85407240CC8C3334B
:1002D400C4540F4420C8834004F456800146F6DF1A
:1002E400E4800B01020408102040809003BAE47EED
:1002F400019360BCA3FF543F30E509541FFEE4930F
:10030400A360010ECF54C025E060A840B8E493A3D5
:10031400FAE493A3F8E493A3C8C582C8CAC583CA00
:10032400F0A3C8C582C8CAC583CADFE9DEE780BEB8
:0104110000EA
:00000001FF
