:1004D600010A00013C00010C00013700010900017E
:1004E6000D00013B00013A00013900013E00013FC9
:1004F60000014000014100013D01010801014200E7
:090506000143000144000145001D
:1000E000754C00754D00754E0012056D7F5112055F
:1000F0007F754E03E54DB4FF10E54CB4FF0BE54EA4
:10010000B40A06750B00750801E508B4011AE54E3E
:10011000C394034013754E00754C00754D001204D6
:1001200059E53D7003753A01E54D64FF454C700398
:1001300075390030940930950630960320970312E4
:10014000000330980B120559E50CB4010312049812
:10015000E53CB40114120510E537B4010C12041982
:10016000754E00754C00754D00E54DB4FF0FE54C24
:10017000B4FF0A054E754C00754D0001F4054DE5C0
:070180004D7002054C01F473
:010187002255
:10056D0053877F759850438920758840758DFAD2D1
:02057D008E22CC
:0B05A1008F598559993099FDC29922AD
:0905AC003098FDC29885993822AF
:100559001205ACE538B46A0B1205ACE538B455039D
:04056900750C0122EA
:10049800755A00AF5A740D2FF8E6FFEFB4BF0DAFD1
:1004A8005A740C2FF8E6FFEF64B0600F1205ACAF7A
:1004B8005A740E2FF8A638055A80D8C3E55A6480B6
:0D04C80094A85009855A36753C01750C004A
:0104D5002204
:10051000E510B43513E511B4310E120395E50DB4B1
:0C0520000106753701750D00753C0022C6
:10039500755B02750900E53624FDFFC3EF6480F83F
:1003A500E55B6480985011AF5B740E2FF8E6FFEFA4
:1003B5002509F509055B80DEAF5B740E2FF8E6FFB6
:1003C500E509B5070CE50965396006850939750D37
:0103D5000126
:0103D6002204
:02057F008F4F9C
:0E058100755000E550C3954F5004055080F5AD
:01058F002249
:10041900750800E512B4640A1203D77F001202BB03
:10042900802AE512B4650A1203D77F011202BB8044
:100439001BE512B4CD16753D00E53AB40108120169
:1004490088753A008006120346750B01753700223C
:0202BB008F5161
:1002BD00755207AF52740E2FF8E6FFEFB4B003D3AB
:1002CD008001C34073AF52740E2FF8E6FFEF642820
:1002DD0070620552AF52740E2FF8E6FFEFB4310C79
:1002ED00E55124FF9290A29092B58046AF52740EC4
:1002FD002FF8E6FFEFB4320CE55124FF9291A29155
:10030D0092B4802EAF52740E2FF8E6FFEFB4330C7B
:10031D00E55124FF9292A29292B38016AF52740EC1
:10032D002FF8E6FFEFB4340AE55124FF9293A29320
:08033D0092B20552055241C0C5
:010345002295
:1003D700755400E5132514FFEF2462F55475530097
:1003E700E553C39414502A12052C7FCB1205A1AFF5
:1003F700131205A1AF141205A17F311205A1AF5445
:100407001205A17FB01205A17FBF1205A105538078
:01041700CF15
:0104180022C1
:10018800754700754800754900754A007546942002
:1001980090057547010546209105754801054620DB
:1001A80092057549010546209305754A010546756E
:1001B8004B00C3E54B64809494506B12052C7FC9A7
:1001C8001205A17F301205A17F301205A17F2F12E1
:1001D80005A17F351205A17F311205A17F2C1205DB
:1001E800A17F651205A17F2C1205A1AF471205A1B9
:1001F8007F2C1205A1AF481205A17F2C1205A1AFD3
:10020800491205A17F2C1205A1AF4A1205A17F2F23
:100218001205A1AF461205A17FB01205A17FBF123A
:0602280005A1054B808CCE
:01022E0022AD
:100544007F551205A17FAA1205A17F6A1205A17F1A
:05055400551205A12273
:10034600755500755600E556C39414504112052C98
:100356007FCA1205A17F301205A17F301205A17F49
:10036600281205A17F301205A17F2C1205A17F342A
:100376001205A17F291205A1755571AF551205A168
:0E0386007FB01205A17FBF1205A1055680B8F9
:010394002246
:10045900755700755800120346E55864FF7004E5A6
:100469005764FF601A30980D120559E50CB401055F
:10047900750C00800A0558E5587002055780DAE5C1
:0E0489005864FF7004E55764FF6003750B01B3
:010497002242
:10052C001205447FA01205A17FAF1205A17F3512E1
:08053C0005A17F311205A12287
:100590008F5CE55C7005755C018003755C00AF5C89
:0105A0002238
:10000300209408E5427004053E8003753E00209568
:1000130008E5437004053F8003753F00209608E51B
:1000230044700405408003754000209708E545703F
:100033000405418003754100309408E542B401038F
:10004300754200309508E543B401037543003096CB
:1000530008E544B40103754400309708E545B4014D
:1000630003754500E53EB40119A290E433FF120580
:1000730090EF24FF9290A29092B5754201753A01D8
:10008300053EE53FB40119A291E433FF120590EF59
:1000930024FF9291A29192B4754301753A01053FF1
:1000A300E540B40119A292E433FF120590EF24FF57
:1000B3009292A29292B3754401753A010540E541CB
:1000C300B40119A293E433FF120590EF24FF929336
:0D00D300A29392B2754501753A01054122D4
:0300000002022FCA
:0C022F00787FE4F6D8FD75815C02027651
:10023B000200E0E493A3F8E493A34003F68001F2F9
:10024B0008DFF48029E493A3F85407240CC8C333C4
:10025B00C4540F4420C8834004F456800146F6DF93
:10026B00E4800B01020408102040809004D6E47E49
:10027B00019360BCA3FF543F30E509541FFEE49388
:10028B00A360010ECF54C025E060A840B8E493A34F
:10029B00FAE493A3F8E493A3C8C582C8CAC583CA7A
:1002AB00F0A3C8C582C8CAC583CADFE9DEE780BE32
:01050F0000EB
:00000001FF
