:100000000C9446000C943E370C9464370C948A3759
:100010000C94B0370C94D6370C94FC370C942238DF
:100020000C9448380C946E380C9494380C94BA386C
:100030000C94E0380C9406390C942C390C945239F9
:100040000C9478390C949E390C94103A0C94EA393B
:100050000C94C4390C94363A0C945C3A0C94823A61
:100060000C94A83A0C94CE3A0C94F43A0C941A3BA3
:100070000C94403B0C94663B0C948C3B0C94B23B30
:100080000C94D83B0C94FE3B0C94243C11241FBED2
:10009000CFEFD0E1DEBFCDBF15E0A0E0B1E0ECE1F5
:1000A000FAE900E00BBF02C007900D92A232B1073F
:1000B000D9F71CE0A2E2B5E001C01D92A23FB10752
:1000C000E1F70C9418030C940000CF93DF93EC013C
:1000D000FC019C012D5E3F4F80E281932E173F076C
:1000E000DCF76EE071E0CE010E949B4C892B61F041
:1000F00087E191E00E94883F889A909A64EF71E0CE
:1001000080E090E00E94FC4662E271E0CE010E9435
:100110009B4C892B61F08BE291E00E94883F899A89
:10012000919A64EF71E080E090E00E94FC4666E303
:1001300071E0CE010E949B4C892B61F081E491E03B
:100140000E94883F8A9A929A64EF71E080E090E082
:100150000E94FC466CE471E0CE010E949B4C892B0E
:1001600061F086E591E00E94883F8B9A939A64EF54
:1001700071E080E090E00E94FC46DF91CF9108950D
:10018000882499243401540140E0B4018DE494E0C2
:100190000E94314281E691E00E945B429093BD0C47
:1001A0008093BC0C46E051E061E071E00E94EA42BD
:1001B00087E691E00E94883F83E891E00E94883FB3
:1001C00045E060E073E88BE894E00E94314284EA05
:1001D00091E00E94B0147B018C0182EB91E00E94BF
:1001E000B014DC01CB019C01AD0160E071E080EC5A
:1001F00091E00E94AC188F5F9F4F09F4C5C185EC58
:1002000091E00E94B014DC01CB014BE8C42E44E025
:10021000D42E7C018D0120E030E040E050E0CA01A6
:10022000B9010E948D1383ED91E00E94B014DC01AE
:10023000CB019C01AD01B501C5010E940A258FEDDE
:1002400091E00E946725DC01CB018093C00C909364
:10025000C10CA093C20CB093C30C81B38FEF81BBD0
:1002600082B382BBAA24BB24E5010E94860490933A
:10027000BF0C8093BE0C892B51F484EF91E00E9457
:10028000883F68E873E180E090E00E94FC4680913E
:10029000BE0C9091BF0C0E94A9039093C50C809353
:1002A000C40C892B29F48CE092E00E94883FDACFBD
:1002B00086E292E00E94883F69E170E08091BE0C86
:1002C0009091BF0C0E9410066114710489F46EE3D2
:1002D00072E08091C40C9091C50C0E94B53C809155
:1002E000C40C9091C50C0E94463F31E0632E712CE6
:1002F0004FEF53E062E275E08091C40C9091C50C21
:100300000E94A64282E295E00E94B34C209709F039
:100310000CC165E572E082E295E00E949B4C892B5E
:1003200021F16AE572E08091C40C9091C50C0E94A5
:10033000B53C8091C40C9091C50C0E94463FA1141D
:10034000B104B1F28091C40C9091C50C0E94DA0303
:100350008091BE0C9091BF0C0E94270760E67AEE58
:1003600080E090E00E94FC467DCF68E972E082E286
:1003700095E00E949B4C892BA1F66DE972E082E228
:1003800095E00E949B4C892B71F063EA72E082E257
:1003900095E00E949B4C892B19F069EA72E0C3CF6B
:1003A0006CEB72E0C0CF61ED72E082E295E00E94FA
:1003B0009B4C892B81F066ED72E08091C40C90918A
:1003C000C50C0E94B53C8091C40C9091C50C0E9454
:1003D000463F4E01B4CF6CEE72E082E295E00E949F
:1003E0009B4C892B19F061EF72E0E7CF8E016BEF28
:1003F00072E082E295E00E949B4C892B11F001E0B3
:1004000010E0CE018114910411F481E090E0082302
:100410001923012BE9F060E073E082E295E00E948D
:100420009B4C892B91F068E073E08091C40C909113
:10043000C50C0E94B53C8091C40C9091C50C0E94E3
:10044000463F21E0822E912C7ACF60E273E06BCFA1
:100450008E016CE373E082E295E00E949B4C892B55
:1004600011F001E010E0CE0121E08216910409F4C0
:100470005AC008231923012BE9F063EA72E082E2F3
:1004800095E00E949B4C892B91F061E473E0809190
:10049000C40C9091C50C0E94B53C8091C40C909105
:1004A000C50C0E94463F92E0892E912C48CF67E50B
:1004B00073E039CF8E016BE673E082E295E00E9433
:1004C0009B4C892B11F001E010E0CE0122E0821656
:1004D000910431F108231923012B29F0C1E0D0E068
:1004E00060E773E020CF60E973E082E295E00E946C
:1004F0009B4C892B91F065E973E08091C40C90913D
:10050000C50C0E94B53C8091C40C9091C50C0E9412
:10051000463F81E0A82EB12C12CF6BEB73E003CFE6
:1005200081E090E0D7CFC401A4CF4FEF53E062E267
:1005300075E08091BE0C9091BF0C0E94870669ED1A
:1005400073E082E295E00E949B4C892B71F382E27A
:1005500095E00E94883F8DED93E00E94883F60EE19
:1005600073E08091C40C9091C50C0E94B53C8091C1
:10057000C40C9091C50C0E94463F82E295E00E9417
:100580006500C0E0D0E0DBCE88EF93E00E94883FBA
:1005900036CE0E940D4820E033E040E050E060ECB1
:1005A00070E08BE094E00E946D4A8FEF0E942C4A2D
:1005B0000E94E649FDCF43E050E060E070E086EC49
:1005C0009CE00E943A4C8091C60C833021F48091CB
:1005D000C70C8F3419F08FEF9FEF06C08091C80CC5
:1005E0008335C9F780E090E008950F931F93CF9370
:1005F000DF9383E08093C60C8FE48093C70C83E580
:100600008093C80C06EC1CE0C0E0D0E0F8018191BA
:100610008F01682FCE010E944B4C2196C330D1052B
:10062000A8F380E090E0DF91CF911F910F910895A2
:10063000CFEFD0E1DEBFCDBF0E94DB02892B41F5B9
:1006400080EC85BF8FEF90E1825F9C4081589140A4
:10065000ACF485E58093FE7F8AEA8093FF7F8091EA
:10066000FE7F8535C1F48091FF7F8A3AA1F460E076
:100670007FE680E091E10E942E4C0DC08FEF9FE05D
:10068000825F9C40BC0182EF9CE00E942E4CE1CF37
:100690000E94F502D5CF20E831E040E050E069EC5F
:1006A00072E080E194E00E946D4A80E090E00C945A
:1006B0000D4DCF93DF93FC01C785D0891F8221891F
:1006C0003289CE010C9640E051E0BC01C9010E9484
:1006D00087061816190624F48E8380E090E001C086
:1006E0001E82DF91CF910895EF92FF921F93CF93D7
:1006F000DF93FC01C785D0892985222331F0E18869
:10070000F28810E0121720F0198680E090E018C0FF
:100710003327812F9927281B390B8C0F9D1F845F4E
:100720009E4FA901BC01C7010E941B0697FF03C091
:100730008FEF9FEF05C0180F2985121748F3E4CFFC
:10074000DF91CF911F91FF90EF9008950E94740365
:1007500008950F931F93CF93DF938C0187E190E06F
:100760000E94A04BEC01892BF9F082E08B87098B6A
:100770001A8B8CE092E00E94A04B8C018F87988BA3
:10078000892B71F089E593E0F8018083918384E7F8
:1007900093E08283938386EA93E08483958304C005
:1007A000CE010E94B54BE801CE01DF91CF911F91A0
:1007B0000F9108950F931F938C010E94A603F801D7
:1007C000878590890E94B54BC8010E94B54B80E097
:1007D00090E01F910F910895CF93DF93EC01E0918A
:1007E0002209F0912309A2E2B9E0309749F0EC1711
:1007F000FD07D1F1DF010190F081E02D3097B9F7CD
:10080000EF2BB9F189AD9AAD009739F5EFA1F8A5B5
:10081000309759F0808191818FA398A7CF010E94D2
:100820000B28EFA1F8A53097A9F7EDADFEAD3097F5
:1008300059F0808191818DAF9EAFCF010E940B282E
:10084000EDADFEAD3097A9F785E6FE0111928A95D0
:10085000E9F7CE010E94B54B0CC00E94B54B1DAA12
:100860001EAA19AE1AAED2CF888199818D939C931E
:10087000C7CFDF91CF9108950F931F93CF93DF934D
:100880008C01EB0160E070E0E0912209F091230916
:10089000309751F08781908580179107F1F0019092
:1008A000F081E02D3097B1F76115710549F5E091C0
:1008B0002209F0912309309719F18281813031F0BA
:1008C0000190F081E02D3097C1F71AC087819085A3
:1008D00080179107A9F7BF01F3CF81859285A38582
:1008E000B48582179307A407B507C9F68585968551
:1008F0008C179D07A1F68281882389F2BF01D4CF8E
:10090000CB01DF91CF911F910F9108951F93CF934A
:10091000DF93C0E0D0E080912409882351F4182FA0
:100920000E94CE0F892B09F411E0109324091123A2
:10093000E1F185E690E00E94A04BEC01892BA9F142
:100940001A8280E492E4AFE0B0E0888B998BAA8BA6
:10095000BB8B8C8B9D8BAE8BBF8B888F998FAA8F17
:10096000BB8F80E99CE08BAB9CAB8FAB98AFEF96D5
:1009700088E192E08993999383E090E0A0E0B0E071
:1009800088839983AA83BB83289688839983AA83C3
:10099000BB83C954D0408091220990912309888358
:1009A0009983D0932309C0932209CE01DF91CF917F
:1009B0001F910895FC01DA014FEF5FEF892B09F4D5
:1009C00051C080E16230780709F440C080E16330B3
:1009D0007807E4F46230710539F0ED5AFF4F8AE38D
:1009E00097E2808391833EC0109719F02230310541
:1009F00029F0ED5AFF4F86E190E0F3CFFF968D91FD
:100A00009C918083918340E050E02CC080E1653070
:100A10007807A1F06650704101F7109751F3243028
:100A2000310539F7E75AFF4F8D919D910D90BC919B
:100A3000A02D80839183A283B383E5CF1097C9F261
:100A400024303105B1F6E35AFF4FEECF109789F20B
:100A50002230310571F68D919C9187AB90AF83ABBD
:100A600094ABD1CFCA010895CF93DF93FC01EA0183
:100A70004FEF5FEF892B09F44CC080E162307807BB
:100A800009F43FC080E163307807E4F46230710517
:100A900039F0ED5AFF4F8AE397E28083918339C0A2
:100AA000209719F02230310529F0ED5AFF4F86E1E9
:100AB00090E0F3CFFF96808191818883998340E015
:100AC00050E027C080E16530780799F066507041AA
:100AD00001F7209751F32430310539F7E75AFF4FDA
:100AE00080819181A281B38188839983AA83BB830A
:100AF000E6CF2097D1F224303105B9F6E35AFF4F03
:100B0000EFCF209791F22230310579F687A990AD89
:100B1000D4CFCA01DF91CF910895EF92FF920F9346
:100B20001F93CF93DF93EC017A018B01A901892BED
:100B300009F462C08A81813009F466C08A81882301
:100B400009F05DC080911504909116040196909370
:100B50001604809315048091150490911604892B36
:100B600031F480E090E19093160480931504E091B5
:100B70002209F0912309309771F027813085809107
:100B80001504909116042817390729F00190F08177
:100B9000E02D309791F73097A9F680911504909148
:100BA0001604082E892F902D8F839887042E452FA9
:100BB000502D4D875E87E986FA860B871C87AF012B
:100BC000C801B7010E947F14FC01892B79F00784CA
:100BD000F089E02D81859285A385B4858B839C83E4
:100BE000AD83BE83CE010E94EE0913C0CD5ADF4F04
:100BF00081E597E2888399838FEF9FEF0AC0CD5AF2
:100C0000DF4F88E497E2F6CFCD5ADF4F8DE397E2CE
:100C1000F1CFDF91CF911F910F91FF90EF90089549
:100C2000FC01CB01082E892F902D87839087CF015F
:100C30000E94CF090895CF92DF92EF92FF920F9317
:100C40001F93CF93DF93EC016B018A01892B09F489
:100C500043C08A818430D1F5672B09F440C0411527
:100C60005105E9F19FE3E92EF12CEC0EFD1EF70191
:100C7000808191818417950708F48C01488D598DE6
:100C80008C899D89481B590B9A0136952795369575
:100C90002795F701808191818217930738F08CA105
:100CA0009DA1841B950B80179107E0F4FE01E35A88
:100CB000FF4F4081518162817381CE0189960E94EC
:100CC0003748892B61F48A818430C1F2CD5ADF4FD5
:100CD00089E497E2888399834FEF5FEF0EC040E08D
:100CE00050E00BC08F8580618F87A801B601CE01CF
:100CF0000E94E90F892B81F7A801CA01DF91CF91EA
:100D00001F910F91FF90EF90DF90CF900895EF9299
:100D1000FF920F931F93CF93DF93EC018B017A0126
:100D2000892B09F48AC08A81843021F08A81853038
:100D300009F07DC00115110509F476C0E114F10434
:100D400009F472C08DA99EA9892BB1F48A818430DF
:100D500009F06DC0FE01E75AFF4F40815181628169
:100D60007381CE01CB960E943748892B09F05CC075
:100D70008DA99EA9892B51F38DA99EA98E159F053A
:100D800008F47C01E114F10411F4A70158C089AD05
:100D90009AADA701BC01C8010E94564C0DA91EA91D
:100DA0000E191F090DAB1EAB01151105B1F120E0A5
:100DB00030E02017310798F4A701E9ADFAADDF0163
:100DC000A20FB31FE40FF51F80818C934F5F5F4F1D
:100DD0002F5F3F4F8DA99EA92817390770F38A818D
:100DE000843099F62BA93CA9A9012E0D3F1D8FA98E
:100DF00098AD8217930708F49C01EF96888199813A
:100E0000EF974817590718F02BAB3CABBECF2BAB75
:100E10003CABCE010E94370AB8CF89AD9AAD0E9493
:100E2000B54B09AF1AAFDBCF40E050E008C0CD5A58
:100E3000DF4F89E497E2888399834FEF5FEFCA0120
:100E4000DF91CF911F910F91FF90EF9008950E9435
:100E5000090A0895FC01892B29F0ED5AFF4F808182
:100E6000918102C086E397E208950895EF92FF9280
:100E70000F931F93CF93DF93EC018B01FB01E1886C
:100E8000F2888DA99EA9E80EF91E8FA998ADE816E3
:100E9000F90608F066C089AD9AAD892B09F44FC0F8
:100EA000A9ADBAAD109709F45CC08DA99EA9A80F91
:100EB000B91FF8012785308981899289AC01B90170
:100EC000CD010E94564CEDAAFEAAF80161897289F3
:100ED0009B01442755278FA598A9A9A9BAA9820FD4
:100EE000931FA41FB51F8FA798ABA9ABBAAB8BA953
:100EF0009CA968177907F0F01BAA1CAAF801808149
:100F00009181892BA1F48091CB0C9091CC0C892BF1
:100F100071F48F8588618F87CE01CB960E94E74858
:100F200040E050E0BA01CE010E94E90F1AC08F855F
:100F30008061F1CF861B970B8BAB9CABDFCF0E9400
:100F4000354C9C014FA958ADCA018050984F82176B
:100F5000930708F0A5CFCA010E942C4B89AF9AAF26
:100F60009FCFDF91CF911F910F91FF90EF90089548
:100F7000CF93DF93EC01FB0180899189A289B3892A
:100F80008B839C83AD83BE83FA01808191818D87A1
:100F90009E87FB0184859585A685B78589879A8775
:100FA000AB87BC87FA0184819581A681B781082E21
:100FB0008B2FB02D092E9A2FA02D8BA79CA7ADA704
:100FC000BEA78C8F9D8FAE8FBF8F0196A11DB11DC7
:100FD0008FA798ABA9ABBAAB86859785082E892FCA
:100FE000902D8CA39DA340E050E0FB0164857585A6
:100FF000868597850E947F14FC01892B91F00784D8
:10100000F089E02D858D968D8897FE01FF962081D1
:1010100031812115310519F08217930710F480836F
:101020009183DF91CF910895AF92BF92CF92DF92DB
:10103000EF92FF920F931F93CF93DF93EC01FB018D
:10104000BA01E084F184028513850E2CE12E102D67
:101050000F2CF02E002D888D998DAA8DBB8D8E15AD
:101060009F05A007B10720F48F8588618F87AAC0EC
:101070002481358146815781022E252F502D032E44
:10108000342F402DAC88BD88CE88DF88EA14FB045D
:101090000C051D0509F46DC0EA14FB040C051D05C3
:1010A00008F456C0EA14FB040C051D0509F43CC005
:1010B0001EA2EC8AFD8A0E8B1F8B6FA178A561158D
:1010C000710549F1FB01A385B48514968D919D911D
:1010D0000D90BC91A02D082E8B2FB02D092E9A2F8C
:1010E000A02DFB012189328944275527820F931FA8
:1010F000A41FB51FE816F9060A071B0760F08081D8
:1011000091818FA398A7CB010E940B286FA178A58E
:1011100061157105B9F6CF5ADF4F18821982A89769
:10112000CE010E94E7484EC02FA138A521153105F8
:1011300079F0672B69F48585682F77276370707065
:101140006115710529F48EA18F5F8EA3833010F491
:10115000A996E6CFCF5ADF4F68837983C155D04037
:101160001EA249855A856B857C8586E00E94FB110D
:10117000EFCF8C8D9D8DAE8DBF8D82179307A40709
:10118000B50780F0281739074A075B0709F084CFB5
:1011900088A199A1AAA1BBA1E816F9060A071B0715
:1011A00008F47ACF86859785082E892F902D8CA3F9
:1011B0009DA32C8F3D8F4E8F5F8FE8A2F9A20AA3CB
:1011C0001BA36ACFDF91CF911F910F91FF90EF90FA
:1011D000DF90CF90BF90AF900895FF920F931F9331
:1011E000CF93DF93EC01F62E00E010E08A8199277F
:1011F0008530910509F4C7C0863091050CF095C083
:101200008230910509F482C083309105E4F500979E
:10121000C9F0019731F00115110509F0B9C0FA8242
:10122000B7C083E0681719F00FEF1FEFF4CF8F8579
:1012300082618F8740E050E060E070E0CE010E9464
:10124000E90FE9CF862F99278130910521F3029785
:1012500059F78F8582608F87A801B801CE010E945F
:10126000E90F892BC1F20FEF1FEFCD5ADF4F80E559
:1012700097E288839983C355D040CE01895A9F4F06
:101280000E94E748C8CF8330910539F1049719F6D9
:10129000862F99278530910529F0069729F68F85A5
:1012A0008161C7CF8F8588618F87A801B801CE0182
:1012B0000E94E90FCE01CB960E941749CE01899674
:1012C0000E941749CE018B5A9F4F0E941749CE01A9
:1012D000895A9F4F0E9417499ECF862F99278430A5
:1012E000910581F08530910524F4019709F09CCF98
:1012F00092CF8530910599F2069709F095CF8F85A9
:10130000816097CFCE018B5A9F4FBACF862F9927F6
:101310008330910509F48BCF8430910534F3049721
:1013200009F082CF8F85886184CF8830910509F4D8
:101330007BCF89309105D4F48630910541F0079731
:1013400009F069CF8AE0681709F06ECF64CF862F65
:1013500099278730910509F45ECF873091050CF409
:1013600063CF0997029708F456CF5ECF8930910575
:1013700021F00A9709F04FCF57CF8AE0681791F212
:101380000FEF1FEFCFCF88E0681709F04DCF87CF61
:10139000C801DF91CF911F910F91FF900895CF93D6
:1013A000DF93EC018A81882381F461E0CE010E9401
:1013B000ED08CB5ADF4F40E050E060E070E0CE0136
:1013C0000E94374880E090E006C0CD5ADF4F88E4A5
:1013D00097E288839983DF91CF9108950F931F93AC
:1013E0008C0162E00E94ED08C801895A9F4F40E0DD
:1013F00050E060E070E00E943748F801828184305C
:1014000019F480E090E002C08FEF9FEF1F910F91E1
:101410000895FC01892BB1F08281992785309105CF
:10142000CCF4833091058CF4019734F0CF010E9405
:10143000EC0380E090E01AC0ED5AFF4F89E497E298
:10144000808391838FEF9FEF11C066E0CF010E94F0
:10145000ED08EFCF8530910539F00B976CF7ED5A19
:10146000FF4F85E397E2ECCF68E0F0CF0895FC01F1
:10147000892B61F087858861878740E050E0BA0159
:10148000CF010E94E90F80E090E002C08FEF9FEF54
:101490000895CF93DF93EC01CF5ADF4F8881998174
:1014A000C155D0408D52914088F42FA138A549856F
:1014B0005A856B857C8586E00E94FB11892BF9F0AB
:1014C000EFA1F8A5808191818FA398A7C15BDF4F21
:1014D00018821982CF54D04085E08A83C95ADF4FE1
:1014E000CE010E9417496C97CE010E94174962975E
:1014F000CE010E941749AC96CE010E941749DF9198
:10150000CF9108950F931F93CF93DF938C01862F74
:10151000E901992786719070029721F0C9010E9414
:101520003A110CC06F817885C8010E94B80763E04A
:10153000C8010E94ED08CE010E940B28DF91CF91D7
:101540001F910F9108958F929F92AF92BF92CF9269
:10155000DF92EF92FF920F931F93CF93DF93EC01F3
:101560005A014901C62EDD24C4FC3DC0C2FE1DC087
:10157000C4FE12C0CB5ADF4F88819981C555D04037
:10158000892B71F4CD5ADF4F8DE497E288839983DC
:10159000C355D04085E08A83C4010E940B2844C013
:1015A00061E0CE010E94ED08F7CFC1FEF5CFA501A5
:1015B000F40167817085CE010E94B807C4FE11C096
:1015C000F40141895289B501CE010E94140864E0FA
:1015D000CE010E94ED08C95ADF4FCE010E94E748B4
:1015E000DBCF63E0DECFFA0180859185A285B385EC
:1015F000082E8B2FB02D092E9A2FA02D28893989DE
:101600004A895B892F5F3F4F4F4F5F4FE88CF98CC2
:101610000A8D1B8DBC01CD010E94D211892B09F0CE
:10162000A5CFC4010E943A11DF91CF911F910F9174
:10163000FF90EF90DF90CF90BF90AF909F908F90F2
:1016400008958F929F92AF92BF92CF92DF92EF92C6
:10165000FF920F931F93CF93DF936C014A01E9012F
:10166000A62EBB24A2FC51C0A4FC04C0CE010E9443
:101670000B2850C0FA0180859185A285B385082E7C
:101680008B2FB02D092E9A2FA02DF6012489358994
:10169000468957892F5F3F4F4F4F5F4FE08CF18C4A
:1016A000028D138DBC01CD010E94D211892B11F046
:1016B000A1FE04C0CE010E943A112CC049895A896A
:1016C000B401C6010E94140889899A89892BC1F442
:1016D000CE010E940B28A0FE11C0F60187A590A99B
:1016E000A1A9B2A90196A11DB11D87A790ABA1AB7D
:1016F000B2AB65E0C6010E94ED080CC064E0FACF11
:10170000BE01C6010E943607E3CF61E0C6010E9418
:10171000ED08ACCFDF91CF911F910F91FF90EF902B
:10172000DF90CF90BF90AF909F908F9008954F9291
:101730005F926F927F928F929F92AF92BF92CF9261
:10174000DF92EF92FF920F931F93CF93DF936C0181
:10175000F62E4A015901862F992782FD3DC184FF4B
:1017600037C18C010270107081FF1AC0EA018C81B0
:101770009D81AE81BF81082E8B2FB02D092E9A2F0F
:10178000A02DF60123A534A545A556A582179307DC
:10179000A407B50709F442C1C5010E943A113EC130
:1017A000E90149895A89B401C6010E941408F4016B
:1017B0002481358146815781DA01C901082E8B2F9A
:1017C000B02D092E9A2FA02DE6014FA458A869A884
:1017D0007AA8481659066A067B0608F06DC0F5011E
:1017E00081899289892B09F45CC06DAD7EAD8DE352
:1017F000682E712C6C0C7D1C6115710509F43CC0C0
:10180000EB01EB85FC85E401EC80FD800E811F81FE
:10181000A8019701022E252F502D032E342F402D85
:10182000C481D5810680F781E02DCE01DF01082E2D
:101830008B2FB02D092E9A2FA02D281739074A0774
:101840005B0708F432C00E2CE12E102D0F2CF02E69
:10185000002D0C2ECF2FF02D0D2EDE2FE02DEC16AF
:10186000FD060E071F07E9F03B01FB016081718156
:101870006115710509F0C4CF6115710559F0E601D4
:101880008F8588618F8740E050E0BA01C6010E94D1
:10189000E90FC4C0E301A882B982F50160837183B6
:1018A000EECFC5010E940B28EACFE301A882B982DE
:1018B000F50160837183E0CF022E252F502D032E7A
:1018C000342F402D241535054605570561F1F601E5
:1018D0008F8588618F87EF59FF4F80819181A28129
:1018E000B3810196A11DB11D80839183A283B3832F
:1018F000C5010E940B28A801B801C6010E94E90F8A
:10190000F0FE8CC0F60187A590A9A1A9B2A9019605
:10191000A11DB11D87A790ABA1ABB2AB65E0C6011D
:101920000E94ED087BC0F50181899289892B09F419
:101930004BC0B501C6010E943607C5010E940B28A5
:10194000E601ADACBEACA114B104D1F2F5018384C3
:101950009484E4018C819D81AE81BF819C01AD01A5
:10196000082E8B2FB02D092E9A2FA02DF60147A4FB
:1019700050A861A872A8481659066A067B0608F4A2
:10198000BFCFE5018881998185AF96AF022E252FC3
:10199000502D032E342F402D2415350546055705AF
:1019A00058F4C5010E940B28E601ADACBEACA114F1
:1019B000B10409F0CBCFA4CFB501C6010E94360710
:1019C000F4018585F82AEDCFC5010E940B2898CF38
:1019D000C9010E940B2822C085E0E6018A83C90163
:1019E0000E940B28EBE3F0E0CE0EDF1EC6010E9442
:1019F00017498EEE9FEFC80ED91EC6010E941749E7
:101A0000CCE2D0E0CC0EDD1EC6010E941749E2E018
:101A1000F0E0CE0EDF1EC6010E941749DF91CF9184
:101A20001F910F91FF90EF90DF90CF90BF90AF90FC
:101A30009F908F907F906F905F904F900895CF927E
:101A4000DF92EF92FF920F931F93CF93DF938C015E
:101A5000862FBA01E901E82EFF24E2FC40C0E4FE33
:101A60003AC092E0C92ED12CCE20DF20E1FE04C086
:101A7000C9010E943A1139C049895A89C8010E9496
:101A8000140869E0C8010E94ED0889899A89892BA8
:101A9000E9F4CE010E940B28E0FE27C0F80187A5DB
:101AA00090A9A1A9B2A90196A11DB11D87A790ABCC
:101AB000A1ABB2AB015B1F4FF801C082D1820F54C2
:101AC00010406AE0C8010E94ED080FC0BE01C801C5
:101AD0000E943607DECFC9010E940B2806C0C9014B
:101AE0000E940B28C8010E94EC03DF91CF911F9147
:101AF0000F91FF90EF90DF90CF900895CF92DF92FB
:101B0000EF92FF920F931F93CF93DF938C01862F59
:101B1000BA01E901E82EFF24E2FC3CC0E4FE36C035
:101B200022E0C22ED12CCE20DF20E1FE04C0CE0167
:101B30000E943A1135C049895A89C8010E94140887
:101B400089899A89892BE9F4CE010E940B28E0FE4D
:101B500027C0F80187A590A9A1A9B2A90196A11D46
:101B6000B11D87A790ABA1ABB2AB015B1F4FF801D2
:101B7000C082D1820F5410406AE0C8010E94ED0873
:101B80000FC0BE01C8010E943607DECFC9010E9406
:101B90000B2806C0C9010E940B28C8010E94EC0353
:101BA000DF91CF911F910F91FF90EF90DF90CF9039
:101BB0000895CF93DF93FC01862FBA01E901282F06
:101BC000332722FD0DC024FF0BC021FF04C0CE012E
:101BD0000E943A1108C049895A89CF010E9414080D
:101BE000CE010E940B28DF91CF910895EF92FF92D2
:101BF0000F931F93CF93DF93EC01862FBA018901D6
:101C0000992782FD21C084FF1BC032E0E32EF12C16
:101C1000E822F92281FF04C0C8010E943A111AC0CB
:101C2000F80141895289CE010E941408C15BDF4F3F
:101C3000E882F982CF54D0406AE0CE010E94ED08DC
:101C4000C8010E940B2806C0C9010E940B28CE01C2
:101C50000E94EC03DF91CF911F910F91FF90EF90C5
:101C600008950F931F93CF93DF938C01862FBA01B2
:101C7000E901992782FD0DC084FF12C081FF04C0D5
:101C8000C9010E943A110FC049895A89C8010E94AE
:101C90001408CE010E940B28C8010E94EC0303C067
:101CA000C9010E940B28DF91CF911F910F910895D8
:101CB0000F931F93CF93DF938C01FB01A385B48512
:101CC0001D966C911D97EC018A81992785309105AD
:101CD00009F458C0863091057CF58230910531F1C8
:101CE0008330910594F4009761F0019721F0CF01C2
:101CF0000E940B284CC09F01AD01C8010E94820ABE
:101D000046C0CF010E943A1142C08330910541F094
:101D1000049769F79F01AD01C8010E94970B37C076
:101D20009F01AD01C8010E94210B31C09F01AD018F
:101D3000C8010E94A30A2BC088309105E9F08930C0
:101D400091058CF48630910541F0079781F69F014B
:101D5000AD01C8010E94F60D1AC09F01AD01C80176
:101D60000E941F0D14C0099709F0C1CF9F01AD015A
:101D7000C8010E947E0D0BC09F01AD01C8010E94E9
:101D8000310E05C09F01AD01C8010E94D90DDF9140
:101D9000CF911F910F91089548EC50E060E070E002
:101DA0008DEC9CE00E943748892B09F466C0C091F5
:101DB0002209D0912309209779F38F8584FF08C0E9
:101DC00088608F8740E050E0BA01CE010E94E90FA1
:101DD0008FA198A5892B99F08A81843009F442C09B
:101DE000FE01EF5AFF4F808191810196808391839C
:101DF0008F709070892B19F4CE010E94490A8A8154
:101E00008A3001F18A818630E9F08A818930D1F007
:101E10008A81833031F00990D881C02D209769F6EE
:101E2000BBCFFE01E15BFF4F808191819C01019658
:101E3000808391832D32310570F381E08A83108293
:101E40001182E9CFFE01E15BFF4F808191819C010E
:101E500001968083918329303105E8F2CE010E94FA
:101E6000EC039ACFFE01EF5AFF4F808191810196DA
:101E70008083918383709070BDCF0091CB0C1091C3
:101E8000CC0C1092CC0C1092CB0C1092CA0C10926D
:101E9000C90C0115110509F47FCFE801EF81F88520
:101EA000AB85BC8524853585468557856D917C91AC
:101EB000119712968D919C9113970E943C04EC010E
:101EC000F801E080F180009759F0B8010E943507D1
:101ED000B801CE010E94580E8701EF28F1F65CCFC1
:101EE000C8010E943A11F8CFCF92DF92EF92FF9291
:101EF0000F931F93CF93DF93EC0118821982C09048
:101F0000CB0CD090CC0CC114D104D1F1E984FA846B
:101F10008D859E85E80EF91E89899A89E80EF91E3D
:101F20000091C90C1091CA0C0E0D1F1D0050184FC6
:101F30000E94354C08171907F8F48091C90C90914C
:101F4000CA0C8E0D9F1D9093CA0C8093C90CF6018C
:101F500080819181892B41F0F601C080D180F6010A
:101F600080819181892BC1F7F601C083D1838DECEB
:101F70009CE00E94E74809C0CE010E940B2805C0E2
:101F80009093CC0C8093CB0CF2CFDF91CF911F912B
:101F90000F91FF90EF90DF90CF9008954091250929
:101FA000509126094115510519F080E090E010C0CC
:101FB00020E034E06CEC7EE087E194E00E946D4A22
:101FC0009093260980932509892B79F78FEF9FEF4E
:101FD00008958F929F92AF92BF92CF92DF92EF922D
:101FE000FF920F93CF93DF93EC017B014A014115E0
:101FF000510539F48F8599278B709070892B09F4DE
:102000002CC104E18F8581FD08E1802F9927AC0167
:1020100060E480E090E00E949A265C01009709F459
:102020000EC1FC01C384D4848F819885F60180831E
:1020300091838D859E8582839383000F000F848515
:102040008F70802B84878F85877F8F87888D998D70
:10205000AA8DBB8D082E8B2FB02D092E9A2FA02D67
:1020600084839583A683B7838F8584FFEFC080E147
:1020700085878F858F7E8F878FA598A9A9A9BAA9F3
:10208000082E8B2FB02D092E9A2FA02D8087918797
:10209000A287B3878F85992781FF96C0F601858532
:1020A000826085878F858D7F8F87888D998DAA8D9A
:1020B000BB8D0196A11DB11D888F998FAA8FBB8FF3
:1020C00082E0848B84E0858BEF9688819981EF97FD
:1020D000082E892F902D868B978B2BA93CA9EF96E4
:1020E00088819981EF972817390708F066C0F601B3
:1020F00016861786F601108A118A128A138AF5014C
:102100008585968521893289820F931F082E892F14
:10211000902D7C0106E029853A854B855C856B8195
:102120007C818D819E810E944A13F50145855685EB
:10213000B6010E940A13F5014189528967857089A9
:102140000E944513F601808B918B950149855A8534
:102150006B857C85802F0E94FB119C01892B39F5B2
:10216000892839F4F6018585992783709070892B29
:10217000D1F0F50120833183EFA1F8A5309781F0EC
:1021800080819181892B39F00190F081E02D80814F
:102190009181892BC9F7A082B18240E050E05DC0F7
:1021A000AFA2B8A6FACFC5010E940B28F6CFC50191
:1021B0000E940B284FEF5FEF50C0022E232F302DCF
:1021C000F6012687378796CF81149104A9F480FF02
:1021D00084CFF6018585816085878F858E7F8F8787
:1021E000888D998DAA8DBB8D0196A11DB11D888FFB
:1021F000998FAA8FBB8F71CFA40160E8C5010E949F
:102200009A265C010097D9F0FC0187859089A4018A
:10221000B7010E94564C940144275527888D998D0B
:10222000AA8DBB8D820F931FA41FB51F888F998F16
:10223000AA8FBB8FF6018585886085874ECFCD5AE2
:10224000DF4F87E497E288839983B4CFF601158640
:1022500010861186128613861DCFCA01DF91CF9199
:102260000F91FF90EF90DF90CF90BF90AF909F9035
:102270008F900895AF92BF92CF92DF92EF92FF922C
:102280000F93CF93DF936C01FC01A780B084C385CB
:10229000D4858D8599279C012470307082FD73C090
:1022A000F601218B328B84E190E085879687288127
:1022B00039818A819B81888399832A833B838D8599
:1022C000992784FF3BC084E08D8788859985AA85FE
:1022D000BB858C839D83AE83BF83188619861A863F
:1022E0001B8680E58C871E861F861A8A1B8A188AA1
:1022F000198AF60185859685082E892F902D7C01F7
:1023000006E0F50124853585468557856089718904
:10231000828993890E944A13F60145855685BE013C
:102320000E944513888B998B9601F501448555854C
:1023300066857785802F0E94FB1125C081FF1EC016
:102340008C819D81AE81BF81082E8B2FB02D092EEF
:102350009A2FA02D0196A11DB11D082E8B2FB02DF7
:10236000092E9A2FA02D88879987AA87BB871C8260
:102370001D821E821F8284E18D87B3CF8C819D8157
:10238000AE81BF81F0CFC6010E940B2880E090E0B3
:10239000DF91CF910F91FF90EF90DF90CF90BF90A2
:1023A000AF900895EF92FF920F931F93E216F306FA
:1023B0000407150780F0621773078407950740F03C
:1023C000E616F7060807190718F081E090E00EC03E
:1023D00080E090E00BC02617370748075907C0F385
:1023E0006E157F058007910798F3EFCF1F910F912E
:1023F000FF90EF9008956F927F928F929F92AF928D
:10240000BF92CF92DF92EF92FF920F931F93CF93E1
:10241000DF93CDB7DEB72A970FB6F894DEBF0FBEB5
:10242000CDBF182F3A014B0144E150E060E2C901F1
:102430000E949A265C01009709F46AC0FC01E780BB
:10244000F08485E4F70180831182F501818592850E
:1024500025853685820F931F21893289820F931F2C
:10246000082E892F902DF70182839383168217827D
:1024700080E480871187608A718A828A938AFFEF5D
:102480006F16FFEF7F06FFEF8F06FFEF9F0609F441
:102490005FC0AE01495F5F4FC401B3010E947F146A
:1024A0006C010097A9F1FC0107851089F801878D5F
:1024B00090A19C010196878F90A3022E232F302D8F
:1024C000F70124833583F80181859285A385B4853E
:1024D000F70184879587A687B78712861386F5014B
:1024E000418552856781708580E090E00E944513A8
:1024F000F70182879387F8018081863061F0873108
:1025000039F4A50161E270E0C6010E94642A6DC041
:102510008FEF9FEF6AC04F81588569857A85411595
:1025200051056105710511F4B401A3019E012F5FEE
:102530003F4FC6010E947F16892B51F79501AE01CE
:102540004F5F5F4F60E078E0C6010E94FD164DC00E
:1025500046E050E06FEF70E0CE0101960E945F4CC4
:10256000C090A10CD090A20CC114D10451F0F6017E
:102570008385833049F0F601C080D180C114D10435
:10258000B1F780E090E031C007851089F801878DB0
:1025900090A19C010196878F90A3022E232F302DAE
:1025A000F70124833583F80181859285A385B4855D
:1025B000F70184879587A687B78712861386F5016A
:1025C000418552856781708580E090E00E944513C7
:1025D000F701828793879501AE014F5F5F4F60E0FF
:1025E00078E0C6010E94FD16C6CF2A960FB6F89471
:1025F000DEBF0FBECDBFDF91CF911F910F91FF9036
:10260000EF90DF90CF90BF90AF909F908F907F9092
:102610006F900895CF93DF939B01FA01AC01662779
:102620007727E901E230F10560F089919991AA27B5
:10263000BB27480F591F6A1F7B1F3297E230F105F5
:10264000A0F7EF2B29F08881480F511D611D711DE6
:10265000CB01AA27BB270097A105B10591F0DB01AB
:10266000CA01A070B070AB0166277727480F591FC9
:102670006A1F7B1FCB01AA27BB270097A105B105C5
:1026800071F7CA01DF91CF9108950E940A138095D6
:1026900090950895EF92FF920F93CF93DF93CDB76C
:1026A000DEB72C970FB6F894DEBF0FBECDBFDC01AE
:1026B000CB0189839A83AB83BC832D833E834F8375
:1026C000588719860A87EB86FC864CE050E0BE01ED
:1026D0006F5F7F4F80E090E00E940A132C960FB648
:1026E000F894DEBF0FBECDBFDF91CF910F91FF9069
:1026F000EF900895AF92BF92CF92DF92EF92FF9248
:102700000F930E944A13809590950F91FF90EF9040
:10271000DF90CF90BF90AF9008952F923F924F924D
:102720005F926F927F928F929F92AF92BF92CF9261
:10273000DF92EF92FF920F931F93CF93DF93CDB76A
:10274000DEB724970FB6F894DEBF0FBECDBF2B01C6
:102750003C0149015A01E982FA820B831C838FEF05
:10276000E82EF82EE9E2F9E00FB6F89480818F5F49
:1027700080830FBE0FB60F92F894809129098130A3
:1027800009F049C0209027093090280907E219E094
:1027900021143104D9F0F10186819781A085B1859A
:1027A000281739074A075B0788F48101D1012D906A
:1027B0003C902114310451F0F10186819781A0856C
:1027C000B18588169906AA06BB0678F380E190E0E9
:1027D0000E942C4B9C010097F1F0482059206A2060
:1027E0007B20FC01428253826482758286829782BA
:1027F000A086B18689819A81AB81BC8182879387CB
:10280000A487B587C686D78620823182D8012D93CA
:102810003C93EE24FF240F900FBEE9E2F9E00FB6DF
:10282000F8948081815080830FBEC70124960FB633
:10283000F894DEBF0FBECDBFDF91CF911F910F91F6
:10284000FF90EF90DF90CF90BF90AF909F908F90D0
:102850007F906F905F904F903F902F900895EF92F0
:10286000FF920F931F93CF93DF937B018C01EA01BB
:10287000622FE0E0F0E02430D0F5E0912709F091FC
:1028800028093097B1F086819781A085B1858E2186
:102890009F21A023B1232281338144815581821756
:1028A0009307A407B50729F00190F081E02D309738
:1028B00051F73097E1F0209761F082859385A485E8
:1028C000B5850097A105B10521F088839983AA8376
:1028D000BB8386859785892B51F46F5F262FAE01C8
:1028E00062857385848595850E942F14FC01CF0134
:1028F000DF91CF911F910F91FF90EF9008950F936B
:102900001F93CF93DF93EC01DB014115510529F0B3
:10291000FA01108211821282138209E219E0F80191
:102920000FB6F89480818F5F80830FBE20E0BD01D9
:10293000CE010E942F14DC01F8010FB6F8948081BB
:10294000815080830FBE109729F01E968D919C9127
:102950001F9701C0CD01DF91CF911F910F91089575
:10296000CF93DF93CDB7DEB724970FB6F894DEBFD1
:102970000FBECDBFFC0119821A821B821C8240E06F
:10298000DE011196808180538A3028F520E030E006
:10299000C90153E0880F991F5A95E1F7820F931FE1
:1029A000280F391F8191280F311D2053304080811D
:1029B000803330F08A3320F42F3F310549F340F360
:1029C0002F3F310509F038F44F5F2D938E3241F4DB
:1029D00031964430B8F26FEF7FEF8FEF9FEF06C074
:1029E0004430C9F769817A818B819C8124960FB626
:1029F000F894DEBF0FBECDBFDF91CF910895CF9287
:102A0000DF92FF920F931F93CF93DF93CDB7DEB783
:102A100027970FB6F894DEBF0FBECDBF6C837D83C2
:102A20008E839F836AE2C62E69E0D62ED6018E0180
:102A30000C5F1F4FFF2450E0F80130814AE0832FE4
:102A4000642F0E94DF4C292F832F0E94DF4C80834C
:102A5000BE016F5F7F4FFB01E50FF11D205D2083FD
:102A60005F5FF8018081882339F751505F3F39F06B
:102A7000FB01E50FF11D80818D935150C8F78EE267
:102A80008D930F5F1F4FF394F3E0FF15A0F611979E
:102A90001C92C60127960FB6F894DEBF0FBECDBFBD
:102AA000DF91CF911F910F91FF90DF90CF9008950C
:102AB000CF93DF93CDB7DEB726970FB6F894DEBF7E
:102AC0000FBECDBF1B821C8260E67AEE80E090E0F4
:102AD0000E94FC460091A10C1091A20C0115110559
:102AE00099F3F8018385833039F0F8010081118171
:102AF00001151105B1F7E8CFA785B08991968D91A1
:102B00009C91929789839A839196AD83BE838981A4
:102B10009A81892B51F3E981FA818585982F8F5FFE
:102B20008587993060F0AD81BE81E981FA8180812D
:102B300091818D939C9389819A818B839C838B81D6
:102B40009C81892B21F489819A818D839E83E981DF
:102B5000FA818081918189839A838B819C81892BE1
:102B600031F08B819C810E94B54B1B821C82898134
:102B70009A81892B81F6B9CFCF93DF93CDB7DEB79A
:102B800022970FB6F894DEBF0FBECDBFFC0181A126
:102B900092A189839A8389819A81892BA9F0E981FD
:102BA000FA8182819381A481B58184179507A60754
:102BB000B70751F0E981FA818081918189839A83F5
:102BC00089819A81892B59F789819A8122960FB63A
:102BD000F894DEBF0FBECDBFDF91CF9108958F92E5
:102BE0009F92AF92BF92CF92DF92EF92FF920F939C
:102BF000CF93DF934C016A017B01590180E190E0A2
:102C00000E94A04BFC01892BE1F0C282D382E482B6
:102C1000F582A114B10441F086E0EF012696D501BA
:102C20000D9009928A95E1F704870FB60F92F894F8
:102C3000E40189A19AA180839183E9A3FAA30F906B
:102C40000FBECF01DF91CF910F91FF90EF90DF90FA
:102C5000CF90BF90AF909F908F900895AF92BF920A
:102C6000CF92DF92EF92FF920F93CF93DF93EC011D
:102C70006A017B01590140913A0950913B09411584
:102C8000510531F1B701A6018F8598890E94BC15C5
:102C9000FC01892BA1F0848582FD0CC0158686E09D
:102CA000EF012696D5010D9009928A95E1F784856A
:102CB000826084873E96CF010E94174916C002E0C9
:102CC0009501B701A6018F8598890E94EF150DC067
:102CD00020E831E068E575E18DE194E00E946D4AFD
:102CE00090933B0980933A09CDCFDF91CF910F911B
:102CF000FF90EF90DF90CF90BF90AF9008954F92EC
:102D00005F926F927F928F929F92AF92BF92CF927B
:102D1000DF92EF92FF920F93CF93DF935C016A01F2
:102D20007B012901882499248FEF682E782EF501E4
:102D3000878590890E94BC15EC01892B09F43FC05E
:102D40008C8581FF0AC086E0D201FE013696019093
:102D50000D928A95E1F794013FC020E030E0B70181
:102D6000A60181E090E00E9467194C01892B21F1B6
:102D700003E0B401C5010E94C3199C01892B69F4C9
:102D80008C8581FD0FC044EF51E060E070E0CE0122
:102D90000E960E943748015060F7C4010E940B282C
:102DA00093011AC086E0D201FE01369601900D9281
:102DB0008A95E1F73901F1CF2FEF3FEF0DC000E029
:102DC0009401B701A601F501878590890E94EF154E
:102DD000EC01892B11F6E4CFC901DF91CF910F915E
:102DE000FF90EF90DF90CF90BF90AF909F908F902B
:102DF0007F906F905F904F9008958F929F92AF92C7
:102E0000BF92CF92DF92EF92FF920F931F93CF93D7
:102E1000DF934C017B015A0189014EE050E060E1F3
:102E2000C9010E949A26892B69F1F801C381D481D6
:102E3000F401C784D08886E0DE011696F60131964B
:102E400001900D928A95E1F7A114B10499F086E002
:102E5000DE01F50101900D928A95E1F70E2CEF2C21
:102E6000F02CEC86FD86E601EDA1FEA1B801C401BF
:102E700009950AC046E050E06FEF70E0CE010E9475
:102E80005F4CECCF8FEF9FEFDF91CF911F910F91B0
:102E9000FF90EF90DF90CF90BF90AF909F908F907A
:102EA0000895CF93DF93EC0140E250E060E470E0DE
:102EB0008FEC9CE00E943A4C8091CF0C803239F428
:102EC000BE0180ED9CE00E94734C009789F186E082
:102ED000A9EDBCE0E3E2F4E001900D928A95E1F700
:102EE0001092DF0C1092E00C1092E10C1092E20CA8
:102EF00089E294E00E94B014DC01CB018093E30CE2
:102F00009093E40CA093E50CB093E60C1092EB0CBC
:102F10001092EC0C1092ED0C1092EE0C1092E70C4B
:102F20001092E80C1092E90C1092EA0C8FEF9FEFD0
:102F3000DF91CF910895EF92FF920F931F93CF935C
:102F4000DF9380E28093CF0C8FECE82E8CE0F82E9C
:102F500000E010E0C0E4D0E0F70181917F01682F2C
:102F6000CE010E944B4C21960F5F1F4F003211057E
:102F700098F380E090E0DF91CF911F910F91FF9047
:102F8000EF9008952F923F924F925F926F927F92AF
:102F90008F929F92AF92BF92CF92DF92EF92FF9269
:102FA0000F931F93CF93DF93CDB7DEB72A970FB65A
:102FB000F894DEBF0FBECDBF89879A872A013B01F7
:102FC00048015901C982DA82EB82FC82FC01278424
:102FD0003088411551056105710571F44090DF0C91
:102FE0005090E00C6090E10C7090E20C41145104A0
:102FF0006104710409F495C0F1014186528663862B
:10300000748681149104A104B10409F483C0F10110
:10301000818A928AA38AB48AA30192012821392144
:103020004A215B212D833E834F835887C984DA84EC
:10303000EE24FF248701A50194016D817E818F819B
:1030400098850E948D1389819A81AB81BC810097FC
:10305000A105B10509F051C080ED9CE029E0DC013B
:10306000E985FA85329601900D922A95E1F726E0DE
:10307000FC013996D10111960D9001922A95E1F744
:103080004092DF0C5092E00C6092E10C7092E20CE6
:103090008092E30C9092E40CA092E50CB092E60CC6
:1030A00029813A814B815C8121153105410551050A
:1030B000A9F48091E70C9091E80CA091E90CB091F3
:1030C000EA0C88219921AA21BB212D813E814F81C3
:1030D000588582179307A407B50761F089819A8103
:1030E000AB81BC818093E70C9093E80CA093E90C32
:1030F000B093EA0C0E949B1716C0C984DA847C0145
:103100008D0120E030E040E050E0CA01B9010E94AA
:103110008D13A2CF89E294E00E94B0144B015C01B0
:1031200076CF8FEF9FEF2A960FB6F894DEBF0FBED3
:10313000CDBFDF91CF911F910F91FF90EF90DF9066
:10314000CF90BF90AF909F908F907F906F905F9047
:103150004F903F902F9008952F923F924F925F9201
:103160006F927F928F929F92AF92BF92CF92DF9297
:10317000EF92FF920F931F93CF93DF936B0119018F
:103180002A01370148010E945B425C010097E1F18E
:10319000EC018B858330C1F50F84D889C02D28813F
:1031A0002630A9F1273181F5F5010189128982EFD5
:1031B0009DE28BA39CA3CF82D88623893489C50145
:1031C000F9010995892B01F540E050E060E070E0DD
:1031D000C8010E943748F80181A18F30A1F487E32C
:1031E00094E00E94B014DC01CB01C984DA84EB8442
:1031F000FC848C019D01B701A601C5010E94C21784
:1032000080E090E02CC011A28FEF9FEF28C08EEEDF
:1032100099E18BA39CA3822FDE011196F601019008
:103220000D928A95E1F7E501EB89FC89C5010995C5
:10323000892B51F7D201C1018E219F21A023B123F7
:103240000097A105B10541F0CC24DD24760194015D
:103250008301B201A101D1CFC5010E943522DF91C6
:10326000CF911F910F91FF90EF90DF90CF90BF9083
:10327000AF909F908F907F906F905F904F903F9016
:103280002F900895CF92DF92EF92FF920F931F93AA
:103290006C010E945117E090E30CF090E40C009157
:1032A000E50C1091E60C2091EB0C3091EC0C409168
:1032B000ED0C5091EE0C69ED7CE0C6010E94AC185B
:1032C0001F910F91FF90EF90DF90CF9008958F9214
:1032D0009F92AF92BF92CF92DF92EF92FF920F93A5
:1032E0001F93CF93DF938C014A015B0169014CE18D
:1032F00050E060E280E090E00E949A267C01009716
:1033000009F434C0FC01C781D08581E090E0082E2B
:10331000892F902D8883998380E098E0082E892F4B
:10332000902D8A839B8396E09C8384E08D83002E7E
:10333000012F102D0E831F83C114D10471F0892F2A
:10334000DE015296F60101900D928A95E1F7888E82
:10335000998EAA8EBB8EC70109C0CE01429646E067
:1033600050E06FEF70E00E945F4CF1CFDF91CF91A2
:103370001F910F91FF90EF90DF90CF90BF90AF9093
:103380009F908F9008950F931F93CF93DF938C019D
:103390009B01EB01EF81F885EC016F85788946E0B0
:1033A000CF010896EB012196DC0109900D924A9518
:1033B000E1F7EB0189859A85AB85BC858687978780
:1033C000A08BB18B7296AF0166E078E0C8010E94D5
:1033D000FD16DF91CF911F910F910895CF93DF9349
:1033E0009C01DB011396ED91FC9114973E96179684
:1033F000ED93FC9318973E9715968D919C91169797
:103400000E9719968D939C931A978EE090E01596DF
:103410008D939C93169784859585082E892F902DE2
:1034200048E08030940759F08650984021F0CB0155
:103430000E940B2807C0C9010E94181B03C0C901C4
:103440000E94251ADF91CF9108952F923F924F92BB
:103450005F926F927F928F929F92AF92BF92CF9224
:10346000DF92EF92FF920F931F93CF93DF93CDB72D
:10347000DEB725970FB6F894DEBF0FBECDBF8983A8
:103480009A836C837D83FB0167807084F3012081C4
:10349000822F807F803429F08C819D810E940B28AF
:1034A000AEC086819781082E892F902D9F73892B1E
:1034B00099F72F70222E3324220C331C220C331C3C
:1034C000F30180889188A288B388E981FA814784D2
:1034D0005088FFEF8F16FFEF9F06FFEFAF06FFEF5D
:1034E000BF0609F489C0F201018512852385348560
:1034F000011511052105310571F081899289A38992
:10350000B48988299929AA29BB298F5F9F4FAF4F7A
:10351000BF4F09F471C01B8201151105210531054A
:1035200029F4F3018185813009F44AC081149104A2
:10353000A104B10409F4B0CFF20181859285A3857D
:10354000B48588169906AA06BB0609F0A5CFEC81BA
:10355000FD8121863286C301820D931D8387948766
:10356000F30182819381082E892F902D821993096E
:10357000EC81FD8185879687F301818599278630C7
:103580009105A9F08730910554F4019709F084CF93
:103590006C817D8189819A810E94121C30C0419783
:1035A00009F07ACF8C819D810E94B71B28C0FB81D6
:1035B000FF2309F071CF8C819D810E94801B1FC069
:1035C000D501C40180709070A0708030F0E09F073A
:1035D000F0E0AF07FFEFBF0709F4A8CF0097A10500
:1035E000B10509F4A3CF68017901B501A40189816E
:1035F0009A810E94C2179ACF41E04B83A8CF2596AB
:103600000FB6F894DEBF0FBECDBFDF91CF911F91F3
:103610000F91FF90EF90DF90CF90BF90AF909F9071
:103620008F907F906F905F904F903F902F90089574
:10363000CF92DF92EF92FF920F931F93CF93DF937E
:103640006C017B01FB01C781D08588819981082E9F
:10365000892F902D019709F047C08A819B81082E00
:10366000892F902D8050984009F03EC08C81863083
:1036700009F03AC08D818430B9F5F601A785B0898B
:10368000288D398D4A8D5B8D19968D919D910D9068
:10369000BC91A02D281739074A075B0729F58E0131
:1036A000085F1F4F98014E855F8568897989C6013B
:1036B0000E942E168E819F81082E892F902D0197B2
:1036C00099F498014E855F856889798982E090E058
:1036D0000E946719EC01009739F0BC01C6010E94F5
:1036E000C319CE010E940B28C7010E940B28DF914D
:1036F000CF911F910F91FF90EF90DF90CF900895A1
:10370000CF93DF93FC01A385B4851C968C911C9705
:1037100082958F70282F3327220F331F220F331FDC
:1037200085859685821B930B818B928B892B71F0FB
:103730001C968C911C9782958F709927880F991FE2
:10374000880F991F8A0F9B1F8787908B1C968C91DF
:1037500082958F709927880F991F880F991F8587E9
:103760009687CF010E94740FDF91CF9108950F9338
:103770001F93CF93DF93EC01EB85FC853896EF87A1
:10378000F88B38978D859E850897898B9A8B88E072
:1037900090E08D879E87828193810E94B21D8C016B
:1037A000009789F0FC0184819581009749F4F80124
:1037B000C483D5830A5F1F4FC8010E94E74806C033
:1037C0000E940B28F4CFCE010E940B28DF91CF91ED
:1037D0001F910F910895FF920F931F93CF93DF9343
:1037E000FC01F62E8A01EA012F813885E9014C851A
:1037F0005D856E857F850784F089E02D81859285C2
:10380000A385B4858C879D87AE87BF878FEF888718
:1038100098018F2D0E942A1CDF91CF911F910F914B
:10382000FF900895CF93DF939C01EB018D859E85DA
:10383000099750F0EB85FC858081883029F4AB0135
:1038400060E0C9010E94EB1BCE010E940B28DF91B2
:10385000CF910895AF92BF92CF92DF92EF92FF92F5
:103860000F931F935A016B018901F901E384F484DA
:10387000F701808312821382F9014585568563859D
:10388000748580E090E00E944513F7018283938362
:103890009801B601A50181E00E94FB111F910F91D3
:1038A000FF90EF90DF90CF90BF90AF9008952F9250
:1038B0003F924F925F926F927F928F929F92AF92C0
:1038C000BF92CF92DF92EF92FF920F931F93CF930D
:1038D000DF93382E262E49015A012701380148E08E
:1038E00050E060E4C6010E949A26EC010B851C851D
:1038F000F8013082218284829582A682B782128268
:1039000013824D855E856B857C8580E090E00E940A
:103910000A1349895A896F8578890E944513F801ED
:10392000828393839E01B301A20181E00E94FB1177
:10393000DF91CF911F910F91FF90EF90DF90CF908B
:10394000BF90AF909F908F907F906F905F904F90BF
:103950003F902F900895CF93DF93EC01892B59F579
:103960008091410490914204019690934204809387
:103970004104892B31F480E090E1909342048093DC
:103980004104E0913C09F0913D09309771F020919C
:10399000410430914204828193818217930729F078
:1039A0000190F081E02D3097B1F7EF2BC9F6C0916F
:1039B0004104D091420488E090E00E94A04BFC01B9
:1039C000892B79F00C2ECD2FD02DC283D3838091FB
:1039D0003C0990913D0980839183F0933D09E093E8
:1039E0003C09CF01DF91CF9108956F927F928F9222
:1039F0009F92AF92BF92CF92DF92EF92FF920F937E
:103A00001F93CF93DF933C015A016B014901A7013A
:103A100060E880E090E00E949A26EC01892B91F00A
:103A20008F859889A701B8010E94564C8E01940198
:103A3000B601A501C3010E94C91D8C01CE010E94DF
:103A40000B2802C00FEF1FEFC801DF91CF911F912C
:103A50000F91FF90EF90DF90CF90BF90AF909F902D
:103A60008F907F906F9008954F925F926F927F92A8
:103A70008F929F92AF92BF92CF92DF92EF92FF927E
:103A80000F931F93CF93DF935C014B013A01290100
:103A9000FC0184819581892B69F1F501C481D5816F
:103AA000209731F1F50114821582EF81F885848524
:103AB0009585A685B785F40180839183A283B3831E
:103AC000EB85FC8580819181F301808391838989D5
:103AD0009A898017910708F48C018F859889A8012D
:103AE000BC01C2010E94564CCE010E940B2809C0A5
:103AF0008E0107C0C5010696B701A6010E9437488E
:103B0000CCCFC801DF91CF911F910F91FF90EF9023
:103B1000DF90CF90BF90AF909F908F907F906F90ED
:103B20005F904F9008952FEF3FEFACE3B9E0E09145
:103B30003C09F0913D09309799F0E817F90739F001
:103B4000DF010190F081E02D3097B9F709C0808145
:103B500091818D939C93CF010E94B54B20E030E082
:103B6000C90108959C0140E050E0E0913C09F091CA
:103B70003D09309761F0828193818217930731F07C
:103B80000190F081E02D3097B1F701C0AF01CA017B
:103B900008954F925F926F927F928F929F92AF9211
:103BA000BF92CF92DF92EF92FF920F931F93CF932A
:103BB000DF93CDB7DEB724970FB6F894DEBF0FBE04
:103BC000CDBF2C013A014B01790148E050E060E49F
:103BD000C8010E949A266C01009709F459C0FC01A3
:103BE000A384B484F20182819381F501808391835F
:103BF0000E2CEF2CF02CE282F382F601858596855F
:103C000021893289820F931F082E892F902DF5016B
:103C100084839583AE014F5F5F4FC401B3010E945F
:103C20007F14FC01892B79F10784F089E02D8185CF
:103C30009285A385B48589839A83AB83BC83F50180
:103C400016821782E480F58001E1A4019301698165
:103C50007A818B819C810E944A1348E050E0B50133
:103C60000E940A13F60141895289678570890E9472
:103C70004513F501868397839601B401A301802F34
:103C80000E94FB1107C019821A821B821C82D7CFA7
:103C90008FEF9FEF24960FB6F894DEBF0FBECDBF17
:103CA000DF91CF911F910F91FF90EF90DF90CF9018
:103CB000BF90AF909F908F907F906F905F904F904C
:103CC0000895EF92FF920F931F93CF93DF938C0190
:103CD0007B01EA01DC018D919C91009771F4CE018A
:103CE00001960E942C4BF80180839183209741F02C
:103CF000AE01B7010E94564C03C00E94B54BEFCFF6
:103D0000D801ED91FC91EC0FFD1F1082DF91CF9156
:103D10001F910F91FF90EF900895AF92BF92CF92B5
:103D2000DF92EF92FF920F931F93CF93DF938C015B
:103D3000FB016A0181E3D8011D928A95E9F7AA2463
:103D4000BB2480899189A289B389E80189839A83F8
:103D5000AB83BC8384819581A681B781898F9A8F3B
:103D6000AB8FBC8F20EFE22EF12CE60EF71EE0E1C8
:103D7000FFEFCE0EDF1E1C141D040CF0DDC0E701AA
:103D800028812F3F09F4D8C0222371F40894E11C44
:103D9000F11C0894C108D108A114B10409F0CCC0E9
:103DA0001C141D0464F3C8C08981C82FDD27CC16FC
:103DB000DD060CF4BEC0F70182819381A481B58138
:103DC00033272C31310509F4AAC02D3131050CF00F
:103DD0004FC02630310509F442C0273031054CF57B
:103DE00021303105E9F02330310569F0EC0EFD1E7C
:103DF00082E090E0E80EF91ECC1ADD0ACEEFDFEF8C
:103E0000CC0EDD1EC9CFC430D10534F0F801858752
:103E10009687A787B08BEACF8FEFA82EB82EE6CF74
:103E2000C430D105CCF3F80185839683A783B0878E
:103E3000DDCF2C30310561F02F303105B9F6C701E7
:103E40000296AE01BC01C8018F960E94611ECECFC2
:103E5000C7010296AE01BC01C8018D96F6CFC430F1
:103E6000D105D4F2F801818B928BA38BB48BBECF9A
:103E70002633310509F449C027333105FCF42333D7
:103E8000310561F02533310509F0B0CFC130D105DE
:103E900019F6F7018281F8018083A8CFC430D105DB
:103EA0000CF4BACF082E8B2FB02D092E9A2FA02DEF
:103EB000F801858F968FA78FB0A398CF2A3331054D
:103EC000A1F02B33310509F091CFC430D1050CF4AA
:103ED000A3CF082E8B2FB02D092E9A2FA02DF801DD
:103EE00081A392A3A3A3B4A381CFC430D1050CF4C2
:103EF00093CF082E8B2FB02D092E9A2FA02DF801CD
:103F000085A396A3A7A3B0A771CFC430D1050CF4A5
:103F100083CFF801858B968BA78BB08F67CFC4308A
:103F2000D1050CF479CFF80181879287A387B487F4
:103F30005DCF9FEFA92EB92EC501DF91CF911F91C3
:103F40000F91FF90EF90DF90CF90BF90AF900895CA
:103F50008F929F92AF92BF92CF92DF92EF92FF9299
:103F60000F931F93CF93DF93CDB7DEB726970FB68E
:103F7000F894DEBF0FBECDBF4C015B01CA01B90191
:103F800028EE33E040E050E00E94C04CDC01CB0161
:103F90006C017D0104E212E09501AE014F5F5F4FBD
:103FA000BE016D5F7F4FC4010E94341D26960FB67F
:103FB000F894DEBF0FBECDBFDF91CF911F910F915F
:103FC000FF90EF90DF90CF90BF90AF909F908F9039
:103FD0000895EF92FF920F931F938C01E62EDA0162
:103FE000C90124E232E0F801119221503040E1F79A
:103FF00031E0F32EF801F08284839583A683B783A2
:10400000F18286E08283045E1F4F46E050E06EE35B
:1040100079E0C8010E94564CF801E053FF4F8091AF
:10402000430490914404A0914504B09146048193C7
:104030009193A193B19385E38193F192E192CF01A2
:104040001F910F91FF90EF9008954F925F926F92A2
:104050007F928F929F92AF92BF92CF92DF92EF9218
:10406000FF920F931F93CF93DF932C014A015B01C3
:104070003901680181E0E7018883298D3A8D4B8DF4
:104080005C8D682FC6010E94E91FFC0189A59AA5D5
:10409000082E892F902DE601888799878FEF8193CD
:1040A000EC19FD097F0186019301B501A401C2014C
:1040B0000E94F51CDF91CF911F910F91FF90EF901F
:1040C000DF90CF90BF90AF909F908F907F906F9038
:1040D0005F904F9008954F925F926F927F928F9270
:1040E0009F92AF92BF92CF92DF92EF92FF920F9387
:1040F0001F93CF93DF932C014A015B0139016801C3
:1041000083E0E7018883298D3A8D4B8D5C8D682F84
:10411000C6010E94E91FFC0182E3819324E0219300
:1041200089819A81AB81BC8181939193A193B19351
:1041300086E3819321938D899E89AF89B88D819380
:104140009193A193B1938FEF8193EC19FD097F01B6
:1041500086019301B501A401C2010E94F51CDF9103
:10416000CF911F910F91FF90EF90DF90CF90BF9074
:10417000AF909F908F907F906F905F904F90089539
:104180004F925F926F927F928F929F92AF92BF9267
:10419000CF92DF92EF92FF920F931F93CF93DF9313
:1041A0002C014A015B013901680187E0E70188833E
:1041B000298D3A8D4B8D5C8D682FC6010E94E91FB9
:1041C000FC0189819A81AB81BC81E601888B998B46
:1041D000AA8BBB8B86E3819384E08193E7018D8971
:1041E0009E89AF89B88D81939193A193B1938FEFFD
:1041F0008193EC19FD097F0186019301B501A401AA
:10420000C2010E94F51CDF91CF911F910F91FF9089
:10421000EF90DF90CF90BF90AF909F908F907F9066
:104220006F905F904F900895CF93DF93CDB7DEB737
:104230002C970FB6F894DEBF0FBECDBF8F83988743
:10424000FC010784F089E02DE987FA875F01CC241F
:10425000DD241B821C8220E030E029833A8384E441
:1042600090E00E94AB1C4C0181E390E00E942C4B3B
:104270002C0181E390E00E942C4B8B879C8784E289
:1042800092E00E942C4B3C0184E292E00E942C4B75
:104290008D839E838114910409F486C01B821C8245
:1042A0002224332481E3EB85FC8511928A95E9F77A
:1042B000EB85FC85A18EB28EC38ED48E29813A8186
:1042C000C901AA27BB2781A792A7A3A7B4A77F01EB
:1042D0000D811E8123E430E04FEF5FEF6FEF7FEF42
:1042E000C4010E942520992364F123E030E040E0DE
:1042F00050E0B301C4010E94A81FAC01892B09F44E
:10430000ADC0F30184819581A681B7818A159B0593
:10431000AC05BD0551F7B301C2010E948D1E892B6A
:1043200021F721E030E02B833C838B819C81892B1A
:1043300041F40894211C311C9AE0291631040CF434
:10434000B1CFEB81FC81EF2B79F11B821C8281E3E1
:10435000AB85BC85F20101900D928A95E1F7EB8463
:10436000FC840D811E8123E430E04FEF5FEF6FEF9F
:104370007FEFC4010E946B2097FD6BC025E030E009
:1043800040E050E0B301C4010E94A81FAC0197FDBA
:104390000BC0F30184819581A681B7818A159B05A5
:1043A000AC05BD0509F449C08B819C81892BE9F1DD
:1043B000F201C584D684E784F088058116812781BF
:1043C000308541815281638174818F8198850E94FB
:1043D000C2172B813C81232B21F084E499E00E94B9
:1043E000E748E985FA8581859285A385B48500979C
:1043F000A105B10561F40E94E649E985FA85818548
:104400009285A385B4850097A105B105A1F384E445
:1044100099E00E94E7488EEF0E942C4A60E67AEE0F
:1044200080E090E00E94FC46F9CFCC24DD247601A8
:1044300097018601B701A601C8CFB301C2010E944E
:104440008D1E892B09F0B0CF21E030E02B833C8317
:10445000ABCF8114910409F021CFA6CF29813A81F5
:104460002D5F3F4F29833A8360CFCF93DF93FC01C9
:10447000A785B08986E0CEE3D9E011960D90099228
:104480008A95E1F720E032E0AF0164E171E287E470
:1044900094E00E946D4A40E050E060E070E084E407
:1044A00099E00E943748DF91CF910895FC01872F52
:1044B00099278193608382E090E00895CF93DF9302
:1044C000DC01EB01FB0101900020E9F79F01215085
:1044D0003040261B370B2E5F3F4FFC01AC0111967D
:1044E00010828881882399F088818E3251F08D93D3
:1044F0002196FA0180818F5F808388818823A1F7CC
:1045000006C0FD01AD01119610822196F6CF1C92D6
:10451000C901DF91CF910895FC01DB0181919927B9
:10452000382F22272D933C93119780819927282B90
:10453000392B2D933C9382E090E00895FC0181910A
:104540009927AA27BB272227382F492F5A2FDB016B
:104550002D933D934D935C93139781919927AA27AF
:10456000BB27282B392B4A2B5B2B542F432F322F61
:104570002227DB012D933D934D935C9313978191FB
:104580009927AA27BB27282B392B4A2B5B2B542F83
:10459000432F322F2227DB012D933D934D935C93C4
:1045A000139780819927AA27BB27282B392B4A2BC1
:1045B0005B2BFB01208331834283538384E090E0B3
:1045C0000895EF92FF920F931F93CF93DF93EC0127
:1045D0008B01FB0180819181009761F5888199278A
:1045E000807C9070803C910511F1FE0101900020CB
:1045F000E9F77F01EC1AFD0AC7010E942C4BF80174
:1046000080839183FC019991992371F091509F3F90
:1046100021F0899181939150E0F79991992311F0BC
:104620008EE28193992391F71082C70109C082E03D
:1046300090E006C00E94B54BF80110821182CECFE7
:10464000DF91CF911F910F91FF90EF900895EF921E
:10465000FF920F931F93CF93DF937C018B01EA01AD
:10466000FB0180819181009711F00E94B54BCE0132
:104670000E942C4BF80180839183AE01B7010E9408
:10468000564CCE01DF91CF911F910F91FF90EF908B
:104690000895CF93DF93FC01EB01892B69F03097EC
:1046A00089F0C083D18380E091E08283938381E0AD
:1046B00090E08483958306C08CE090E00E94A04B3C
:1046C000FC01EDCFCF01DF91CF910895009711F05C
:1046D0000E94B54B0895CF92DF92EF92FF920F9315
:1046E0001F937C016B01FB01608171810E94562246
:1046F0008C01C701800F911FF601628173810E94B6
:104700005622080F191FC701800F911FF6016481FF
:1047100075810E945622080F191FC701800F911F33
:10472000F601668177810E945622080F191FC70182
:10473000800F911FF601608571850E945622080F37
:10474000191FE00EF11EF60162857385C7010E94F4
:104750005622080F191FC8011F910F91FF90EF906B
:10476000DF90CF900895CF92DF92EF92FF920F9358
:104770001F937C016B01BC01C6010E948C228C013D
:1047800082E090E0E80EF91EC601800F911FB7018C
:104790000E948C22080F191F82E090E0E80EF91E9B
:1047A000C601800F911FB7010E948C22080F191FAC
:1047B00082E090E0E80EF91EC601800F911FB7015C
:1047C0000E948C22080F191F82E090E0E80EF91E6B
:1047D000C601800F911FB7010E948C22080F191F7C
:1047E00082E090E0E80EF91EC00ED11EB701C601AE
:1047F0000E948C22080F191FC8011F910F91FF9072
:10480000EF90DF90CF9008950F931F93CF93DF9396
:10481000EC018B01892BB9F02097D9F0F8010190B8
:104820000020E9F7E01BF10BCF010E942C4B88839D
:104830009983B8010E947D4C81E090E08A839B833C
:104840008C839D8306C086E090E00E94A04BEC0123
:10485000E3CFCE01DF91CF911F910F910895CF93B8
:10486000DF93EC01892B59F088819981009721F41D
:10487000CE010E94B54B03C00E94B54BF9CFDF912A
:10488000CF910895CF92DF92EF92FF920F931F93F3
:104890007C016B01FB01608171810E945E228C01B1
:1048A000C701800F911FF601628173810E94562219
:1048B000080F191FE00EF11EF60164817581C70112
:1048C0000E945622080F191FC8011F910F91FF90D7
:1048D000EF90DF90CF900895CF92DF92EF92FF920A
:1048E0000F931F937C016B01BC01C6010E94E12262
:1048F0008C0182E090E0E80EF91EC601800F911F46
:10490000B7010E948C22080F191F82E090E0E80E88
:10491000F91EC00ED11EB701C6010E948C22080FDD
:10492000191FC8011F910F91FF90EF90DF90CF905A
:104930000895009721F48EE090E00E94A04B089526
:10494000CF93DF93EC01892B91F0888199810097B7
:1049500059F48C859D85009721F4CE010E94B54BBA
:1049600006C00E94B54BF9CF0E94B54BF2CFDF9144
:10497000CF910895CF92DF92EF92FF920F931F9302
:104980007C016B01BC01C6010E94E1228C01C701C0
:1049900002969601200F311FBC01C9010E948C2292
:1049A000080F191FC70104969601200F311FBC0183
:1049B000C9010E948C22080F191FC7010696960193
:1049C000200F311FBC01C9010E949E22080F191F30
:1049D000C7010A969601200F311FBC01C9010E9430
:1049E0008C22080F191FC00ED11EF7014285538576
:1049F0008CE090E0E80EF91EB701C6010E94272363
:104A0000080F191FC8011F910F91FF90EF90DF90C1
:104A1000CF900895CF92DF92EF92FF920F931F9362
:104A2000CF93DF93EC018B0169017A0180914609F4
:104A300090914709009799F580914809909149090B
:104A4000009731F5209781F0FE0101900020E9F7F1
:104A5000EC1BFD0BCF010E942C4B909347098093D8
:104A60004609BE010E947D4C01151105F9F0F801BF
:104A700001900020E9F7E01BF10BCF010E942C4BC5
:104A80009093490980934809B8010E947D4C0EC05B
:104A90000E94B54B1092490910924809D3CF0E9449
:104AA000B54B1092470910924609C6CFC0924A09E9
:104AB000D0924B09E0924C09F0924D09DF91CF91D1
:104AC0001F910F91FF90EF90DF90CF9008952F925C
:104AD0003F924F925F926F927F928F929F92AF928E
:104AE000BF92CF92DF92EF92FF920F931F93CF93DB
:104AF000DF93CDB7DEB762970FB6F894DEBF0FBE77
:104B0000CDBF8F83988719861A861B861C866624DC
:104B100077246D867E8623016F86788A80914A0984
:104B200090914B09A0914C09B0914D090097A105B6
:104B3000B10529F460E070E080E090E0B7C0C30107
:104B40000E94AB1C1C01892B09F480C080E092E01C
:104B50000E942C4B4C01698A7A8AED85FE8531963C
:104B6000ED87FE87BF01C3010E9449233C016F818D
:104B700078858F8598890E9404248F87988BB3014C
:104B8000C4010E946B235C01C4018A0D9B1D6F85CB
:104B900078890E944224A80EB91E7501840125E37C
:104BA00030E040914A0950914B0960914C09709155
:104BB0004D09C1010E94F51C9923C4F1AA24BB240C
:104BC00038EEC32E33E0D32EE12CF12C00E012E0BE
:104BD0009401AE014F5F5F4FBE016D5F7F4FC1011A
:104BE0000E94341D181619067CF40D973CF3B4018D
:104BF000C3010E94B3235C01D3018D919C91ED858B
:104C0000FE858E179F07D1F6A114B10429F0F30198
:104C1000848195810197F9F029893A892F5F3F4F67
:104C2000298B3A8B253031050CF497CFC3010E94B4
:104C300066238F8598890E942F24C2010E94A02498
:104C4000C4010E94B54BC1010E94931D69857A85FC
:104C50008B859C852BC0C4018A0D9B1DBC018F8553
:104C600098890E946C24A80EB91EF3018681978151
:104C7000892BE1F2C2010E9499242C01A80CB91CD5
:104C8000B5010E94BA24F20182859385049721F62A
:104C9000F20124853585D9018D919D910D90BC91AE
:104CA000A02D89879A87AB87BC87C0CF62960FB645
:104CB000F894DEBF0FBECDBFDF91CF911F910F9152
:104CC000FF90EF90DF90CF90BF90AF909F908F902C
:104CD0007F906F905F904F903F902F9008950F932B
:104CE0001F93CF93DF93EC018B01CB010E942C4BE0
:104CF00088839983009729F00A831B8380E090E0E2
:104D000004C08A839B838FEF9FEFDF91CF911F9128
:104D10000F9108950F931F938C01FC018081918165
:104D20000E94B54BF80110821182128213821F91EA
:104D30000F910895BF92CF92DF92EF92FF920F935F
:104D40001F93CF93DF93EC01B62E7A01892B09F4E0
:104D5000C7C0209709F442C0BB2009F43FC0E1144A
:104D6000F10409F49AC0CB2CDD24C4FE0DC08A8165
:104D700099278C010071107084FF86C08D819E81FF
:104D80008E159F0508F472C0C5FE0DC08A81992753
:104D90008C010072107085FF60C089859A858E1520
:104DA0009F0508F44CC0C6FE0CC08A8199278C016F
:104DB0000074107086FF37C08D859E858E159F0507
:104DC00028F1B7FE08C08A8187FF1CC089899A89AB
:104DD0008E159F0528F08A818B298A83CE0186C093
:104DE0008E01015F1F4FC8010E948A26B701C801CA
:104DF0000E946F26892B79F3CE010E940B2880E058
:104E000090E074C0CE010F96B701F2CF8E01055F1E
:104E10001F4FC8010E948A26B701C8010E946F2651
:104E2000892B79F2E9CFCE010B96B7010E946F264C
:104E3000892B39F2CE010E940B28C80157C08E0180
:104E4000095F1F4FC8010E948A26B701C8010E944E
:104E50006F26892B09F4A7CFCFCFCE010796B701D4
:104E60000E946F26892B09F49ECFE4CF8E010D5F3F
:104E70001F4FC8010E948A26B701C8010E946F26F1
:104E8000892B09F481CFB8CFCE010396B7010E94D8
:104E90006F26892B09F478CFCDCF8A81B8220B2DCC
:104EA000112704FD18C005FD11C006FD0AC0B7FE9C
:104EB00004C0CE010F960E948A26B0948A818B216D
:104EC0008CCFCE010B960E948A26F1CFCE01079699
:104ED0000E948A26EACFCE0103960E948A26E3CF5B
:104EE00083E190E00E94A04BEC0133CFDF91CF91A2
:104EF0001F910F91FF90EF90DF90CF90BF9008959A
:104F00000F931F93CF93DF938C0183E190E00E9476
:104F1000A04BEC01009709F479C0F8016581768116
:104F20006115710509F05DC0F80161857285611533
:104F3000710509F040C0F801658576856115710538
:104F400021F5F801618972896115710511F4CE01AD
:104F50005DC0CE010F960E946F26892B81F4AF852C
:104F6000B889F8012785308981899289AC01B90116
:104F7000CD010E94564C8A8180688A83E8CFCE0199
:104F80000E940B2880E090E041C0CE010B960E9469
:104F90006F26892BA1F7AB85BC85F8012385348565
:104FA00085859685AC01B901CD010E94564C8A8158
:104FB00080648A83C6CFCE0107960E946F26892B14
:104FC000F1F6AF81B885F80127813085818592851A
:104FD000AC01B901CD010E94564C8A8180628A835E
:104FE000AACF03960E946F26892B49F6AB81BC811C
:104FF000F8012381348185819681AC01B901CD010D
:105000000E94564C8A8180618A838ECFDF91CF9136
:105010001F910F9108950F931F938C0140E050E072
:10502000FC0162810E949A26C8010E94B54B00973C
:1050300011F08FEF9FEF1F910F910895FC010188F0
:10504000F289E02D11A20895FC010188F289E02D7A
:1050500081A1992708950F93CF93DF93EB01E989FD
:10506000FA8901A1013039F00F30B9F011A2CF0156
:105070000E94C54812C082A1982F8F5F82A39330EF
:1050800098F79B014BE258E268E97AE380E090E010
:105090000E945C46CE010E94C92ADF91CF910F91F8
:1050A00008959C01307047E020FF0AC0369527958F
:1050B00088E094E828273927415047FFF5CF03C0FF
:1050C00036952795F9CFC90108957F928F929F92C7
:1050D000AF92BF92CF92DF92EF92FF920F931F9306
:1050E000CF93DF93CDB7DEB7C258D0400FB6F89458
:1050F000DEBF0FBECDBFFC017B016A0181889288B3
:10510000A784B0887724452B09F488C090E0F40187
:10511000828D882319F081A182FD52C0F701208180
:10512000203268F5FE013196DF01A90FB11D8DE730
:105130008C939F5FE90FF11D80E22827208308945C
:10514000E11CF11C73949F5F072D11270C151D05A1
:1051500011F097FFDCCF892F9927AC01BE016F5F5B
:105160007F4FF501878190850E943544F501878145
:1051700090850E9458450C151D0540F24FC02E37F2
:1051800099F02D3729F0FE01E90FF11D2183D7CFCA
:10519000FE013196DF01A90FB11D2C939F5FE90F2E
:1051A000F11D8DE58083CBCFFE013196DF01A90F84
:1051B000B11D8DE78C939F5FE90FF11D8EE5F2CF56
:1051C000F70180818D30F1F08A3081F08D3739F030
:1051D0008E3751F3FE01E90FF11D8183B0CFFE013F
:1051E0003196DF01A90FB11D8C93D8CFFE01319606
:1051F000DF01A90FB11D8DE78C939F5FE90FF11DB2
:105200008AE2D0CFFE013196DF01A90FB11D8DE7F3
:105210008C939F5FE90FF11D8DE2C4CFCE57DF4F16
:105220000FB6F894DEBF0FBECDBFDF91CF911F91B7
:105230000F91FF90EF90DF90CF90BF90AF909F9035
:105240008F907F9008958F929F92AF92BF92CF924E
:10525000DF92EF92FF920F931F93CF93DF93CDB71F
:10526000DEB723970FB6F894DEBF0FBECDBF5C014B
:105270008B018EE78983F501A189B28987849088A3
:1052800081E08093EF0CFB014581568181859285F9
:10529000840F951F25853685820F931F21893289BA
:1052A000820F931F53962D913C9154978217930729
:1052B00008F0F2C08FEF9FEF8A839B83FB01E380AE
:1052C000F480CC24DD24C416D50608F4C8C0F80147
:1052D000E780F084CC24DD2481859285C816D90628
:1052E00008F4A0C0F801E384F484CC24DD2485858F
:1052F0009685C816D90608F478C0F801E784F088C6
:10530000CC24DD2481899289C816D90608F450C0BE
:1053100041E050E0BE01640F751FF4018781908564
:105320000E943544F8014581568163817481C5012D
:105330000E946528F8014185528567817085C50105
:105340000E946528F8014585568563857485C501E9
:105350000E946528F8014189528967857089C501D5
:105360000E9465288A819B81809590958A839B8382
:1053700042E050E0BE01640F751FC5010E94652820
:1053800041E050E0BE01640F751FF40187819085F4
:105390000E943544F401878190850E9458451092FF
:1053A000EF0C80EF9CE00E94024980E090E079C021
:1053B000F70181917F0199272A813B8182279327D9
:1053C0000E9451289C018A819B81892F99278227DD
:1053D00093278A839B830894C11CD11CF80181897F
:1053E0009289C816D90620F393CFF70181917F01E6
:1053F00099272A813B81822793270E9451289C016B
:105400008A819B81892F9927822793278A839B836F
:105410000894C11CD11CF80185859685C816D9064B
:1054200020F36BCFF70181917F0199272A813B817E
:10543000822793270E9451289C018A819B81892F72
:105440009927822793278A839B830894C11CD11CA8
:10545000F80181859285C816D90620F343CFF7015C
:1054600081917F0199272A813B81822793270E947E
:1054700051289C018A819B81892F99278227932714
:105480008A839B830894C11CD11CF8018581968175
:10549000C816D90620F31BCFCB010E940B288FEF33
:1054A0009FEF23960FB6F894DEBF0FBECDBFDF91FE
:1054B000CF911F910F91FF90EF90DF90CF90BF9011
:1054C000AF909F908F900895EF92FF920F931F934C
:1054D000CF93DF937C01EB018A0144E050E060E16F
:1054E000C8010E949A26892BD1F0F801A381B481CA
:1054F0008FEF8C9383E011968C9311970C2ECD2F08
:10550000D02D1296CD93DC931397E701EF85F889A0
:1055100005A0F6A1E02DB801C701099502C08FEFE3
:105520009FEFDF91CF911F910F91FF90EF90089522
:10553000FC010188F289E02D118E128E138E148EDB
:10554000158E168E178E10A28FEF9FEFAFEFBFEF65
:10555000858B968BA78BB08F8CED95E0838B948B8E
:1055600011A20895EF92FF920F931F937C018B017C
:10557000FB0181819927AC01C7010E94564CF801BB
:105580008181E80EF11CC7011F910F91FF90EF90F0
:105590000895CF92DF92EF92FF920F931F93CF93D4
:1055A000DF937C01EC0109891A894AE050E060E24E
:1055B00080E090E00E949A266C01EC01EF81F88572
:1055C00081E08083E8018A8981838F5F8A8B82E012
:1055D000848386E0858316821782108611863A9628
:1055E000E6018F8198859F01281B390BC9013A97E5
:1055F00029873A87082E892F902D82839383A601CD
:1056000061E270ECC7010E94642A892B19F4C6017B
:105610000E940B28DF91CF911F910F91FF90EF9087
:10562000DF90CF9008953F924F925F926F927F925A
:105630008F929F92AF92BF92CF92DF92EF92FF92A2
:105640000F931F93CF93DF933C012B01FC01C18982
:10565000D289FB01A780B084F50182819381082E55
:10566000892F902D828393838081992781309105A2
:1056700009F43AC0029709F0FEC089A1826089A3AB
:1056800046E050E060E280E090E00E949A266C01E3
:10569000FC010781108581E0F80180838A8981837C
:1056A0008F5F8A8B148215820A5F1F4FE6018F81FC
:1056B0009885F801E81BF90BCF0106501040E987E7
:1056C000FA87082E892F902DE8018A839B83A601F3
:1056D00063E270ECC3010E94642A892B09F0CBC0FD
:1056E000C6010E940B28C7C01D8A1E8A1F8A188EF9
:1056F000198E1A8E398CF5014281538160E280E067
:1057000090E00E949A266C01FC0107811085F5014A
:105710008181F801818382E090E0082E892F902D0D
:1057200082839383F4E08F2E912C800E911EF501DD
:1057300082819381059748F1E4E0EE2EF12CEA0C8A
:10574000FB1CF701808199278330910509F47EC005
:10575000843091050CF06EC08130910509F455C07C
:10576000029709F444C0B701C4010E94B22A4C0157
:105770003394F7018181E80EF11CF5018281938158
:105780008A0D9B1DE816F906E0F23320E1F4E601EC
:10579000EF81F885E2012F81388589859A85AC01F2
:1057A000B901CF010E94564C82E0F8018083E601E6
:1057B00089859A85082E892F902D82839383A6014F
:1057C00061E270EC87CFC3010E94982A84E0E8016F
:1057D0008883F60187819085881A990AC401818699
:1057E0009286082E892F902D8A839B83E8CFF7011C
:1057F00081819927029797012E5F3F4FAC01B90134
:10580000CE0145960E94564CB4CFF701818199276D
:10581000029797012E5F3F4FAC01B901CE0143962D
:105820000E94564C8B899C89082E892F902D8B8B3A
:105830009C8B9FCF8730910531F0089709F093CF6B
:1058400081E08A8F96CF81E0898F93CFF7018181A4
:105850009927029797012E5F3F4FAC01B901CE0106
:105860004B960E94564C8B8D9C8D082E892F902D27
:105870008B8F9C8F7ECFC2010E940B28DF91CF912E
:105880001F910F91FF90EF90DF90CF90BF90AF905E
:105890009F908F907F906F905F904F903F90089572
:1058A0002F923F924F925F926F927F928F929F9230
:1058B000AF92BF92CF92DF92EF92FF920F931F931E
:1058C000CF93DF934C011B01EC016F847888A9888A
:1058D000BA88FB0107811085E8018A819B81082E27
:1058E000892F902D8A839B83AC0160E280E090E059
:1058F0000E949A266C01EC01EF80F884F801818106
:10590000E701898382E090E0082E892F902D8A8319
:105910009B83A4E04A2E512C4E0C5F1CE801888129
:1059200099278230910509F48CC0833091050CF0E1
:1059300053C0019709F0CAC0BB24E8018A819B814A
:105940000597A8F0249688818330C9F1BE01C20171
:105950000E94B22A2C01B3948981C80FD11DF8018D
:1059600082819381800F911FC817D90760F3BB20F4
:1059700009F0ACC0E601EF81F885E1012F8138859F
:1059800089859A85AC01B901CF010E94564C82E00D
:10599000F7018083E60189859A85082E892F902D4D
:1059A00082839383A60161E270E8C4010E94642AA5
:1059B000892B09F08BC0C6010E940B2887C0898102
:1059C000992702979E012E5F3F4FAC01B901C30199
:1059D0000D960E94564CC0CF83309105C9F00497B4
:1059E00009F074C0E8012A813B812530310550F06F
:1059F00024968981C80FD11DC801820F931FC81733
:105A0000D907B8F3F50111A2C5010E94C5485EC0CF
:105A10008A819B81059708F459C0E601EF81F885DA
:105A2000E1012F81388589859A85AC01B901CF01C3
:105A30000E94564C81E0F701808381818F5F8183D2
:105A4000A9CF8A819B810597B8F0E80124968881C7
:105A500099278138910579F182389105F4F40397FB
:105A600079F08981C80FD11DF80182819381800F5F
:105A7000911FC817D90758F38FE0E50189A3C4CF58
:105A80008981992702979E012E5F3F4FAC01B90192
:105A9000C30109960E94564CE4CF8338910509F75B
:105AA0008981992702979E012E5F3F4FAC01B90172
:105AB000C3014996EFCF8981992702979E012E5FF6
:105AC0003F4FAC01B901C3014596E4CFC1010E942B
:105AD0000B28DF91CF911F910F91FF90EF90DF90F6
