:10104A0073746F702020202020200000666F727752
:10105A0061726420202000006261636B77617264B0
:10106A00202000007475726E206C65667420000082
:10107A007475726E2072696768740000656E642008
:10108A002020202020200000202020202020202096
:10109A0020200000436F6D6D616E64206E6F2E001C
:1010AA00456E7465722054696D6572203A005275F6
:1010BA006E6E696E67004E6F20436F6D6D616E6470
:1010CA0000312E50726F6772616D2020322E527578
:1010DA006E00332E436C656172202020342E4261EB
:1010EA00636B00662D6E006C2D6E00722D6E0066AD
:1010FA002D73006C2D7300722D7300312E506174A4
:10110A007465726E20526F626F7400322E5472616F
:09111A00636B20526F626F7400D8
:10112300013D000120FF0121FF013900013A0015B3
:101133002205104A05105605106205106E05107A37
:0611430005108605109264
:1000CC00E4FEEEC39F500DE4FCECC39D50030C808A
:0500DC00F80E80EE2289
:0E00E100783EA60608A6078F828E83EDF022D9
:0E00EF00783EA60608A6078F828E83E0FF22C9
:0A00FD00E4F538F538F538F538223F
:10010700D2902090110509E50970020508E5094517
:070117000870EF533D0222C6
:0A011E002091FD3090FD3091FD228C
:10012800E4FFD290FEEEC3940850113090FDEF2505
:10013800E0FF3091010F2090FD0E80E9C2913090D0
:09014800FD2090FDD291D290221D
:10015100E4FEEEC39408501CEF30E704D291800214
:10016100C2911201071200FDC2901200FDEF25E0BD
:10017100FF0E80DED2911201071200FD30910205BF
:070181003DC2901200FD22B7
:10018800D2901200FDC2911200FDC2901200FDEF44
:060198002DFF12015122AF
:10019E00C2911200FD1201071200FDD2911200FD54
:0101AE00222E
:1001AF003091032090FA2091153090122090FD127B
:1001BF000128EFB45508120128AD0712011EAF0533
:0101CF00220D
:1001D000AC05E4FD120188AF0412015112019E2208
:1001E00030B32CE4F53CC292D2B330B30BE53CC340
:1001F00094FF5004053C80F2E53CC394FF500E7F11
:10020000027D011201D0D29220B30480FBD292224F
:1002100030B32CE4F53CC292D2B330B30BE53CC30F
:1002200094FF5004053C80F2E53CC394FF500E7FE0
:10023000027D021201D0D29220B30480FBD292221E
:1002400030B32CE4F53CC292D2B330B30BE53CC3DF
:1002500094FF5004053C80F2E53CC394FF500E7FB0
:10026000027D031201D0D29220B30480FBD29222ED
:1002700030B32CE4F53CC292D2B330B30BE53CC3AF
:1002800094FF5004053C80F2E53CC394FF500E7F80
:10029000027D041201D0D29220B30480FBD29222BC
:1002A00030B32CE4F53CC292D2B330B30BE53CC37F
:1002B00094FF5004053C80F2E53CC394FF500E7F50
:1002C000027D051201D0D29220B30480FBD292228B
:1002D000AB0730B342EBD3940340027B03E4F53C1D
:1002E000C292D2B330B30BE53CC394FF5004053C3B
:1002F00080F2E53CC394FF501C7F027D061201D0C2
:100300007F0A7D0A1200CC7F02AD031201D0D29287
:0803100020B30480FBD292220D
:10031800AB07AA0630B360E4F53CC292D2B330B35F
:100328000BE53CC394FF5004053C80F2E53CC394C4
:10033800FF5042EAF9EB7B00FAEBAE02780808803E
:1003480005CEC313CE13D8F9AA06FB7F027D071288
:1003580001D07F0A7D0A1200CC7F02AD011201D0C4
:100368007F0A7D0A1200CC7F02AD031201D0D2921F
:0803780020B30480FBD29222A5
:1003800030B33AE4F53CC292D2B330B30BE53CC390
:1003900094FF5004053C80F2E53CC394FF501C7F61
:1003A000027D081201D07F0A7D0A1200CC7F027DF7
:0E03B000011201D0D29220B30480FBD292221F
:1003BE0030B33AE4F53CC292D2B330B30BE53CC352
:1003CE0094FF5004053C80F2E53CC394FF501C7F23
:1003DE00027D081201D07F0A7D0A1200CC7F027DB9
:0E03EE00021201D0D29220B30480FBD29222E0
:1003FC00AD077BFF30B338EDD3940B40027D0BE49B
:10040C00F53CC293D2B3FB30B30BE53CC394FF5025
:10041C0004053C80F2E53CC394FF50117F041201AB
:10042C00D01201AFAB07D29320B30480FBD293AFB1
:02043C00032299
:10043E0030B336E4F53CC293D2B330B30BE53CC3D4
:10044E0094FF5004053C80F2E53CC394FF50187FA6
:10045E00047D0F1201D01201AF8F211201AF8F2038
:0A046E00D29320B30480FBD2932246
:1004780030B336E4F53CC293D2B330B30BE53CC39A
:1004880094FF5004053C80F2E53CC394FF50187F6C
:10049800047D551201D01201AF8F211201AF8F20B8
:0A04A800D29320B30480FBD293220C
:1004B20030B32CE4F53CC293D2B330B30BE53CC36A
:1004C20094FF5004053C80F2E53CC394FF500E7F3C
:1004D200047D111201D0D29320B30480FBD2932267
:1004E20030B32CE4F53CC293D2B330B30BE53CC33A
:1004F20094FF5004053C80F2E53CC394FF500E7F0C
:10050200047D121201D0D29320B30480FBD2932235
:10051200AB0730B33AE4F53CC295D2B330B30BE546
:100522003CC394FF5004053C80F2E53CC394FF5069
:100532001C7F087D011201D07F0A7D141200CC7F3E
:1005420008AD031201D0D29520B30480FBD29522CC
:10055200AA07E4F9EA75F06484FFD39400400FEF30
:100562002430FF12051209EA75F06484AAF0EA75D4
:10057200F00A84FFD394004012EF2430FF120512D8
:100582007901EA75F00A84AAF08008E960057F30F3
:0D059200120512EA2430FF12051279012231
:10059F008E0A8F0BE4FA7C277D10121165D3EF942E
:1005AF0000EE94004017EF2430FF1205120AAE0A36
:1005BF00AF0B7C277D101211658C0A8D0BAE0AAF25
:1005CF000B7C037DE8121165D3EF9400EE9400408D
:1005DF001AEF2430FF1205127A01AE0AAF0B7C031B
:1005EF007DE81211658C0A8D0B8008EA60057F305B
:1005FF00120512AE0AAF0B7C007D64121165D3EFAA
:10060F009400EE9400401AEF2430FF1205127A0185
:10061F00AE0AAF0B7C007D641211658C0A8D0B80C6
:10062F0008EA60057F30120512AE0AAF0B7C007D21
:10063F000A121165D3EF9400EE9400401AEF2430A4
:10064F00FF1205127A01AE0AAF0B7C007D0A121160
:10065F00658C0A8D0B8008EA60057F30120512E564
:0A066F000B2430FF1205127A01225D
:100679008B0C8A0D890EAB0CAA0DA90E12114AFF1B
:1006890060101205127401250EF50EE4350DF50DF5
:0306990080E422D8
:10069C00A907AB05AA0430B348E4F53CC295D2B324
:1006AC0030B30BE53CC394FF5004053C80F2E53CB1
:1006BC00C394FF502A7F087D021201D07F0A7D145B
:1006CC001200CC7F08AD011201D07F0A7D141200FC
:1006DC00CC7F08AD031201D0D29520B30480FBD29D
:0206EC00952255
:1006EE0030B32CE4F53CC295D2B330B30BE53CC32A
:1006FE0094FF5004053C80F2E53CC394FF500E7FFE
:10070E00087D031201D0D29520B30480FBD295222E
:10071E00E4FB30B337F53CC295D2B330B30BE53CB6
:10072E00C394FF5004053C80F2E53CC394FF501A7D
:10073E007F087D071201D01201AFAB07D29530B3FF
:0F074E00FD7F507DFF1200CC8002D295AF0322B9
:10075D007BFF30B331E4F53CC295D2B330B30BE53A
:10076D003CC394FF5004053C80F2E53CC394FF501C
:10077D00137F087D081201D01201AFAB07D295206F
:09078D00B30480FBD295AF0322F6
:10079600AB07AA0630B351E4F53CC295D2B330B3E9
:1007A6000BE53CC394FF5004053C80F2E53CC39442
:1007B600FF5033EAF9EB7B00FAFB7A007F087D05F0
:1007C6001201D07F0A7D0A1200CC7F08AD0112010A
:1007D600D07F0A7D0A1200CC7F08AD031201D0D269
:0907E6009520B30480FBD295229A
:1007EF0030B32CE4F53CC295D2B330B30BE53CC328
:1007FF0094FF5004053C80F2E53CC394FF500E7FFC
:10080F00087D061201D0D29520B30480FBD2952229
:10081F0030B336E4F53CC294D2B330B30BE53CC3EE
:10082F0094FF5004053C80F2E53CC394FF50187FC1
:10083F00067D011201D01201AF8F391201AF8F3A2D
:0A084F00D29420B30480FBD294225F
:10085900E4FB30B330F53CC294D2B330B30BE53C82
:10086900C394FF5004053C80F2E53CC394FF501348
:100879007F067D021201D01201AFAB07D29420B3DB
:080889000480FBD294AF0322AE
:10089100E4FB30B330F53CC294D2B330B30BE53C4A
:1008A100C394FF5004053C80F2E53CC394FF501310
:1008B1007F067D031201D01201AFAB07D29420B3A2
:0808C1000480FBD294AF032276
:1008C900E4F50F30B335F53CC294D2B330B30BE540
:1008D9003CC394FF5004053C80F2E53CC394FF50AF
:1008E900187F067D551201D01201AF8F391201AF61
:0C08F9008F3AD29420B30480FBD29422EA
:1009050030B32CE4F53CC294D2B330B30BE53CC311
:1009150094FF5004053C80F2E53CC394FF500E7FE4
:10092500067D111201D0D29420B30480FBD294220B
:1009350030B32CE4F53CC294D2B330B30BE53CC3E1
:1009450094FF5004053C80F2E53CC394FF500E7FB4
:10095500067D121201D0D29420B30480FBD29422DA
:100965007510061206EE7B057A10799E120679E55A
:100975003704FF1205527F017D027C0012069CE5BB
:100985001075F003A42422F8860308E6FA08E6F9B0
:1009950012067912071E8F13EF24D6603424FA60ED
:1009A5002B24FC601814601F14601724FE600924B2
:1009B500067041751001803C751002803775100373
:1009C5008032751004802D7510058028E4F510809F
:1009D50023E537D3940040191537E53725E0FFE4C3
:1009E50033FE74012FF582EE3480F583E0F5108037
:1009F50003751006E513642A6009E5136423600393
:100A050002097BE5106406700302097BE513642384
:100A15006003020B16E51064057003020ADA12067C
:100A2500EE7B057A1079AA120679E4F511751201A3
:100A3500AF127D027C0012069C12071E8F13EF2455
:100A4500DD606324F9603524FA24F65003020ACFE9
:100A5500E512C394044003020ACFE512B40106E58A
:100A650013643060650512E51324D0FFE51175F0B8
:100A75000AA42FF511AF13120512804EE512D39477
:100A85000140471512E51175F00A84F511AF127D85
:100A9500027C0012069C7F20120512AF127D027C9B
:100AA5000012069C8024E53725E0FFE433FE74013F
:100AB5002FF582EE3480F583E510F074022FF58270
:100AC500EE3480F583E511F00537E5136423600303
:100AD500020A35803CE53725E0FFE433FE74012F3B
:100AE500F582EE3480F583E510F074022FF582EE81
:100AF5003480F583E4F0908000E537F07F0E7D01CA
:100B05007C0012069CE0FF1205527FFF7DFF12005C
:0B0B1500CCE5106405600302096822B3
:100B20001206EE7B057A1079B8120679908000E003
:100B3000701B7F017D02FC12069C7B057A1079C038
:100B40001206797FFF7DFF1200CC020DC2E4F5177B
:100B5000F518E53725E0FFE433FE74012FF582EE4A
:100B60003480F583E0F51974022FF582EE3480F5B8
:100B700083E0F5167F017D027C0012069CE53704B8
:100B8000FF1205527F2E120512E51975F003A424F9
:100B900022F8860308E6FA08E6F91206797F0E7D48
:100BA000027C0012069CAF1612055212043E120877
:100BB0001F200B03020CAE200603020CAE20000324
:100BC000020CAE200503020CAEE5396029E53A605F
:100BD000257F107D017C0012069C7F3112051212C8
:100BE00002107FFF7D641200CC1202707FFF7DFF38
:100BF0001200CC020D97E539601EE53A701A7F109D
:100C00007D01FC12069C7F321205121202707FFFDA
:100C10007DFF1200CC020D97E539701FE53A601B8D
:100C20007F107D017C0012069C7F33120512120298
:100C3000407FFF7DFF1200CC020D977F107D017C6D
:100C40000012069C7F30120512E519602E24FE600A
:100C50001214601714601C240370261201E075152D
:100C600010801E12021075151080161202407515A4
:100C700008800E12027075150880061202A0751504
:100C8000087F017D017C0012069CAF17120552E51A
:100C900017C395155003020D97E4F51715167F0E2F
:100CA0007D02FC12069CAF16120552020D97300B06
:100CB000282006257F107D017C0012069C7F3412BF
:100CC00005121202107FFF7D641200CC1202407FD9
:100CD000FF7DFF1200CC020D97200B283006257FE8
:100CE000107D017C0012069C7F3512051212021045
:100CF0007FFF7D641200CC1202707FFF7DFF120027
:100D0000CC020D97200B1E20061B7F107D017C005E
:100D100012069C7F361205121202107FFF7DFF1211
:100D200000CC020D973000272005247F107D017C28
:100D30000012069C7F371205121201E07FFF7D64CE
:100D40001200CC1202707FFF7DFF1200CC80482081
:100D500000273005247F107D017C0012069C7F381F
:100D60001205121201E07FFF7D641200CC120240D6
:100D70007FFF7DFF1200CC801E20001B2005187F06
:100D8000107D017C0012069C7F391205121201E0D1
:100D90007FFF7DFF1200CC0517753B61E53B6423A7
:100DA000600AE516D394004003020BAB0537E53B20
:070DB0006423600E90800037
:0F0DB700E0FFE537C39F5003020B4D1202A0224D
:100DC600751A30E51A6434605B1206EE7B057A10FC
:100DD60079CB1206797F017D027C0012069C7B0589
:100DE6007A1079DC12067912071E8F1AE51AC39457
:100DF600315007E51AD3943450EDE51A24CE60132A
:100E0600146018240270BCE4908000F0F5371209D3
:100E16006580B0E4F537120B2080A8E4908000F0DE
:050E2600F537809F225A
:100E2B00751B30E4F51CF51DF51E7F011202D01267
:100E3B0006EE12043E7F017D027C0012069CA20787
:100E4B00E4332430FF120512A208E4332430FF12DE
:100E5B000512A20AE4332430FF12051220082EE5F6
:100E6B001E6401600D751E011202A07F017D3212FE
:100E7B0000CC7F017D017C0012069C7B057A1079EA
:100E8B00ED1206791201E012043E020FBC200A316A
:100E9B0030072EE51E6402600D751E021202A07F44
:100EAB00017D321200CC7F017D017C0012069C7B00
:100EBB00057A1079F112067912024012043E020FE4
:100ECB00BC300A3120072EE51E6403600D751E032E
:100EDB001202A07F017D321200CC7F017D017C00CC
:100EEB0012069C7B057A1079F512067912027012A4
:100EFB00043E020FBC300A03020FBC300703020F83
:100F0B00BC200A3020072DE51E6401600D751E0103
:100F1B001202A07F017D321200CC1201E012043EBE
:100F2B007F017D017C0012069C7B057A1079F912FA
:100F3B00067980CDE4F51DE51DC394325032300A9D
:100F4B002FE51E6402600D751E021202A07F017D4B
:100F5B00321200CC051D12024012043E7F017D01AE
:100F6B007C0012069C7B057A1079FD12067980C7EE
:100F7B00E51D6432703BF51DE51DC39464503230A2
:100F8B00072FE51E6403600D751E031202A07F017F
:100F9B007D321200CC051D12027012043E7F017DC2
:100FAB00017C0012069C7B057A117901120679806F
:100FBB00C712075D8F1BE51B64236003020E3D12F6
:030FCB0002A0225F
:100FCE007580FF7590FF75A0FF75B0FF7FFF7DFFE9
:100FDE001200CCE4FDEDC394FF5022ED25E0FFE4BA
:100FEE0033FE74012FF582EE3480F583E4F0740243
:100FFE002FF582EE3480F583E4F00D80D8E49080F6
:10100E0000F0F5371206EE7B057A11790512067996
:10101E007F017D027C0012069C7B057A11791512E8
:10102E00067912071E8F3BEF24CE60080470D5128E
:0C103E000DC680D0120E2B80CB80FE224D
:03000000020040BB
:0C004000787FE4F6D8FD75813F02008750
:10114A00BB020689828A83E0224003BB0402E722AB
:0B115A00400789828A83E49322E3228D
:10116500BC000BBE0029EF8DF084FFADF022E4CC6E
:10117500F875F008EF2FFFEE33FEEC33FCEE9DEC37
:10118500984005FCEE9DFE0FD5F0E9E4CEFD22ED7D
:10119500F8F5F0EE8420D21CFEADF075F008EF2FC7
:1011A500FFED33FD4007985006D5F0F222C398FDB8
:0511B5000FD5F0EA2255
:10004C00020FCEE493A3F8E493A34003F68001F2ED
:10005C0008DFF48029E493A3F85407240CC8C333B5
:10006C00C4540F4420C8834004F456800146F6DF84
:10007C00E4800B0102040810204080901123E47EE0
:10008C00019360BCA3FF543F30E509541FFEE49379
:10009C00A360010ECF54C025E060A840B8E493A340
:1000AC00FAE493A3F8E493A3C8C582C8CAC583CA6B
:1000BC00F0A3C8C582C8CAC583CADFE9DEE780BE23
:0111490000A5
:00000001FF
