
:10000000020014C000C001780079F0D9FED8FAD0FF
:1000100001D00022759842E587C2E7F587758920EF
:10002000758DFDD28E3099FDC29975990075900835
:10003000D295D295D295D295C29511038580A030E4
:1000400099FDC2998580993099FDC299759901757C
:100050009088D295D295D295D295C295110385807C
:10006000A03099FDC2998580993099FDC299759902
:1000700002759048D295D295D295D295C29511032A
:100080008580A03099FDC2998580993099FDC299EB
:100090007599037590C8D295D295D295D295C2958F
:1000A00011038580A03099FDC2998580993099FD12
:1000B000C299759904759028D295D295D295D2950A
:1000C000C29511038580A03099FDC2998580993031
:1000D00099FDC2997599057590A8D295D295D2953A
:1000E000D295C29511038580A03099FDC299858073
:1000F000993099FDC299759906759068D295D295F7
:10010000D295D295C29511038580A03099FDC299F0
:100110008580993099FDC2997599077590E8D295B7
:10012000D295D295D295C29511038580A03099FDC4
:10013000C2998580993099FDC29975990875901872
:10014000D295D295D295D295C29511038580A030D3
:1001500099FDC2998580993099FDC2997599097563
:100160009098D295D295D295D295C295110385805B
:10017000A03099FDC2998580993099FDC2997599F1
:100180000A759058D295D295D295D295C295110301
:100190008580A03099FDC2998580993099FDC299DA
:1001A00075990B7590D8D295D295D295D295C29566
:1001B00011038580A03099FDC2998580993099FD01
:1001C000C29975990C759038D295D295D295D295E1
:1001D000C29511038580A03099FDC2998580993020
:1001E00099FDC29975990D7590B8D295D295D29511
:1001F000D295C29511038580A03099FDC299858062
:10020000993099FDC29975990E759078D295D295CD
:10021000D295D295C29511038580A03099FDC299DF
:100220008580993099FDC29975990F7590F8D2958E
:10023000D295D295D295C29511038580A03099FDB3
:10024000C2998580993099FDC29975991075900071
:10025000D295D295D295D295C29511038580A030C2
:1002600099FDC2998580993099FDC299759911754A
:100270009080D295D295D295D295C2951103858062
:10028000A03099FDC2998580993099FDC2997599E0
:1002900012759020D295D295D295D295C295110320
:1002A0008580A03099FDC2998580993099FDC299C9
:1002B0007599137590C0D295D295D295D295C29565
:1002C00011038580A03099FDC2998580993099FDF0
:1002D000C299759914759020D295D295D295D295E0
:1002E000C29511038580A03099FDC299858099300F
:1002F00099FDC2997599157590A0D295D295D29510
:10030000D295C29511038580A03099FDC299858050
:030310009901252B
:00000001FF
