:0C047A0002130000021500000211000037
:1000CC00E4FEEEC39F500DE4FCECC39D50030C808A
:0500DC00F80E80EE2289
:0A00E100E4F50FF50FF50FF50F22FF
:1000EB00D2902090120509E50970020508E5094533
:0800FB000870EF05180518223A
:0A0103002091FD3090FD3091FD22A7
:10010D00E4FFD290FEEEC3940850113090FDEF2520
:10011D00E0FF3091010F2090FD0E80E9C2913090EB
:09012D00FD2090FDD291D2902238
:10013600E4FEEEC39408501CEF30E704D29180022F
:10014600C2911200EB1200E1C2901200E1EF25E02D
:10015600FF0E80DED2911200EB1200E130910353C4
:080166001801C2901200E12211
:10016E00D2901200E1C2911200E1C2901200E1EFB2
:06017E002DFF12013622E4
:10018400C2911200E11200EB1200E1D2911200E1DF
:010194002248
:100195003091032090FA2091193090162090FD128D
:1001A500010DEFB4080A12010DAD0712010380021B
:0501B500E4FDAF05228E
:1001BA00AC05E4FD12016EAF04120136120184226D
:1001CA00C296758001E4F510D295C2957F017DFF34
:0401DA001200CC2221
:1001DE00C296758002E4F510D295C2957F017DFF1F
:0401EE001200CC220D
:1001F200C296758008EF24FF9282ED24FF9281EB74
:1002020024FF9280D295C2957F017D321200CC22CA
:100212001201CA7F017D017B011201F2C296758033
:0D02220038D295C2957F017D321200CC22AA
:10022F00AB07E510B41003751040E510B45003127E
:10023F0001CAC296758080E5104280D295C2957F23
:10024F00017D321200CCD2968B80D295C2951200CE
:04025F00CC05102298
:10026300C296758080EFC3940150027F01EDC39461
:100273000150027D01EFD3941040027F10EDD3941F
:100283000240027D02EDB40105E4F5108003751010
:1002930040EF2510F5101510E5104280D295C29558
:0802A3007F017D321200CC2224
:1002AB007FFFC2A1C2A2C2A320A427C2A1D2A2D205
:1002BB00A320A4027F23D2A1C2A2D2A320A4027F97
:1002CB0030D2A1D2A2C2A330A40302034D7F2A02D3
:1002DB00034D20A523C2A1D2A2D2A320A5027F3910
:1002EB00D2A1C2A2D2A320A5027F38D2A1D2A2C290
:1002FB00A320A54E7F37804A20A623C2A1D2A2D22B
:10030B00A320A6027F36D2A1C2A2D2A320A6027F2F
:10031B0035D2A1D2A2C2A320A6287F34802420A745
:10032B0021C2A1D2A2D2A320A7027F33D2A1C2A203
:10033B00D2A320A7027F32D2A1D2A2C2A320A702AE
:09034B007F31D2A1D2A2D2A3227B
:100354008E0A8F0BE4F515F516F511F512D28C22E1
:03036400C28C2226
:03000B0002036786
:10036700C0E0C0D0C28CC3E512940AE511940050D6
:100377000A0512E512700205118007B297E4F5111C
:09038700F512D28CD0D0D0E03286
:0300030002039065
:10039000C0E0C0D0C001C002C003C004C005C00698
:1003A000C007C2B31201958F17EF24FE60241460BA
:1003B0003424FE6035146061146063147003020419
:1003C0003424076003020440120195AA0712022F89
:1003D000806E120195AA07120195A907AF02AD011F
:1003E000120263805B1201CA8056120195AA07129D
:1003F0000195A907EA750C00F50D750D00F50CE9DE
:10040000250DF50DE4350CF50C7F017D021202631C
:10041000AF0DAE0C120354802712036480227AFFC2
:10042000EAB4FF071202ABAA0780F57F55AD0212AE
:1004300001BA800C1202ABAA077F55AD021201BAB5
:1004400030B2FDD2B3D007D006D005D004D003D04F
:0804500002D001D0D0D0E0324F
:10045800E4F50E7580FF7590FF75A0FF75B0FF126B
:100468000212758922758C06C28CD28875A8838081
:02047800FE2262
:03000000020040BB
:0C004000787FE4F6D8FD7581200200876F
:10004C00020458E493A3F8E493A34003F68001F26E
:10005C0008DFF48029E493A3F85407240CC8C333B5
:10006C00C4540F4420C8834004F456800146F6DF84
:10007C00E4800B010204081020408090047AE47E96
:10008C00019360BCA3FF543F30E509541FFEE49379
:10009C00A360010ECF54C025E060A840B8E493A340
:1000AC00FAE493A3F8E493A3C8C582C8CAC583CA6B
:1000BC00F0A3C8C582C8CAC583CADFE9DEE780BE23
:010486000075
:00000001FF
